{
  "_format": "hh-sol-artifact-1",
  "contractName": "FactoryMintingContract",
  "sourceName": "contracts/Factory.sol",
  "abi": [
    {
      "inputs": [],
      "stateMutability": "nonpayable",
      "type": "constructor"
    },
    {
      "anonymous": false,
      "inputs": [
        {
          "indexed": true,
          "internalType": "bytes32",
          "name": "role",
          "type": "bytes32"
        },
        {
          "indexed": true,
          "internalType": "bytes32",
          "name": "previousAdminRole",
          "type": "bytes32"
        },
        {
          "indexed": true,
          "internalType": "bytes32",
          "name": "newAdminRole",
          "type": "bytes32"
        }
      ],
      "name": "RoleAdminChanged",
      "type": "event"
    },
    {
      "anonymous": false,
      "inputs": [
        {
          "indexed": true,
          "internalType": "bytes32",
          "name": "role",
          "type": "bytes32"
        },
        {
          "indexed": true,
          "internalType": "address",
          "name": "account",
          "type": "address"
        },
        {
          "indexed": true,
          "internalType": "address",
          "name": "sender",
          "type": "address"
        }
      ],
      "name": "RoleGranted",
      "type": "event"
    },
    {
      "anonymous": false,
      "inputs": [
        {
          "indexed": true,
          "internalType": "bytes32",
          "name": "role",
          "type": "bytes32"
        },
        {
          "indexed": true,
          "internalType": "address",
          "name": "account",
          "type": "address"
        },
        {
          "indexed": true,
          "internalType": "address",
          "name": "sender",
          "type": "address"
        }
      ],
      "name": "RoleRevoked",
      "type": "event"
    },
    {
      "anonymous": false,
      "inputs": [
        {
          "indexed": false,
          "internalType": "address",
          "name": "_mintingContract",
          "type": "address"
        }
      ],
      "name": "mintingCreated",
      "type": "event"
    },
    {
      "inputs": [],
      "name": "DEFAULT_ADMIN_ROLE",
      "outputs": [
        {
          "internalType": "bytes32",
          "name": "",
          "type": "bytes32"
        }
      ],
      "stateMutability": "view",
      "type": "function"
    },
    {
      "inputs": [],
      "name": "DEPLOYER_ROLE",
      "outputs": [
        {
          "internalType": "bytes32",
          "name": "",
          "type": "bytes32"
        }
      ],
      "stateMutability": "view",
      "type": "function"
    },
    {
      "inputs": [
        {
          "internalType": "string",
          "name": "_name",
          "type": "string"
        },
        {
          "internalType": "string",
          "name": "_symbol",
          "type": "string"
        },
        {
          "internalType": "address",
          "name": "_admin",
          "type": "address"
        },
        {
          "internalType": "address",
          "name": "_minter",
          "type": "address"
        },
        {
          "internalType": "address",
          "name": "_validator",
          "type": "address"
        }
      ],
      "name": "deployMintingContract",
      "outputs": [],
      "stateMutability": "nonpayable",
      "type": "function"
    },
    {
      "inputs": [],
      "name": "getNFTaddress",
      "outputs": [
        {
          "internalType": "contract NFT[]",
          "name": "",
          "type": "address[]"
        }
      ],
      "stateMutability": "view",
      "type": "function"
    },
    {
      "inputs": [
        {
          "internalType": "bytes32",
          "name": "role",
          "type": "bytes32"
        }
      ],
      "name": "getRoleAdmin",
      "outputs": [
        {
          "internalType": "bytes32",
          "name": "",
          "type": "bytes32"
        }
      ],
      "stateMutability": "view",
      "type": "function"
    },
    {
      "inputs": [
        {
          "internalType": "bytes32",
          "name": "role",
          "type": "bytes32"
        },
        {
          "internalType": "address",
          "name": "account",
          "type": "address"
        }
      ],
      "name": "grantRole",
      "outputs": [],
      "stateMutability": "nonpayable",
      "type": "function"
    },
    {
      "inputs": [
        {
          "internalType": "bytes32",
          "name": "role",
          "type": "bytes32"
        },
        {
          "internalType": "address",
          "name": "account",
          "type": "address"
        }
      ],
      "name": "hasRole",
      "outputs": [
        {
          "internalType": "bool",
          "name": "",
          "type": "bool"
        }
      ],
      "stateMutability": "view",
      "type": "function"
    },
    {
      "inputs": [
        {
          "internalType": "uint256",
          "name": "",
          "type": "uint256"
        }
      ],
      "name": "nftContractAddress",
      "outputs": [
        {
          "internalType": "contract NFT",
          "name": "",
          "type": "address"
        }
      ],
      "stateMutability": "view",
      "type": "function"
    },
    {
      "inputs": [
        {
          "internalType": "bytes32",
          "name": "role",
          "type": "bytes32"
        },
        {
          "internalType": "address",
          "name": "account",
          "type": "address"
        }
      ],
      "name": "renounceRole",
      "outputs": [],
      "stateMutability": "nonpayable",
      "type": "function"
    },
    {
      "inputs": [
        {
          "internalType": "bytes32",
          "name": "role",
          "type": "bytes32"
        },
        {
          "internalType": "address",
          "name": "account",
          "type": "address"
        }
      ],
      "name": "revokeRole",
      "outputs": [],
      "stateMutability": "nonpayable",
      "type": "function"
    },
    {
      "inputs": [
        {
          "internalType": "bytes4",
          "name": "interfaceId",
          "type": "bytes4"
        }
      ],
      "name": "supportsInterface",
      "outputs": [
        {
          "internalType": "bool",
          "name": "",
          "type": "bool"
        }
      ],
      "stateMutability": "view",
      "type": "function"
    }
  ],
  "bytecode": "0x608060405234801561001057600080fd5b5061003b7ffc425f2263d0df187444b70e47283d622c70181c5baebb1306a01edba1ce184c3361004b565b61004660003361004b565b6100f7565b6100558282610059565b5050565b6000828152602081815260408083206001600160a01b038516845290915290205460ff16610055576000828152602081815260408083206001600160a01b03851684529091529020805460ff191660011790556100b33390565b6001600160a01b0316816001600160a01b0316837f2f8788117e7eff1d82e926ec794901d17c78024a50270940304540a733656f0d60405160405180910390a45050565b614198806101066000396000f3fe60806040523480156200001157600080fd5b5060043610620000b75760003560e01c806391d14854116200007a57806391d14854146200017d578063a007e0eb1462000194578063a217fddf14620001ad578063d547741f14620001b6578063ebb391a814620001cd578063ecd0026114620001e457600080fd5b806301ffc9a714620000bc578063248a9ca314620000e85780632f2ff15d146200011d57806336568abe14620001365780636b687579146200014d575b600080fd5b620000d3620000cd36600462000811565b6200020c565b60405190151581526020015b60405180910390f35b6200010e620000f93660046200083d565b60009081526020819052604090206001015490565b604051908152602001620000df565b620001346200012e36600462000874565b62000244565b005b620001346200014736600462000874565b62000272565b620001646200015e3660046200083d565b620002f8565b6040516001600160a01b039091168152602001620000df565b620000d36200018e36600462000874565b62000323565b6200019e6200034c565b604051620000df9190620008a3565b6200010e600081565b62000134620001c736600462000874565b620003b0565b62000134620001de3660046200099d565b620003d9565b6200010e7ffc425f2263d0df187444b70e47283d622c70181c5baebb1306a01edba1ce184c81565b60006001600160e01b03198216637965db0b60e01b14806200023e57506301ffc9a760e01b6001600160e01b03198316145b92915050565b6000828152602081905260409020600101546200026181620004d4565b6200026d8383620004e3565b505050565b6001600160a01b0381163314620002e85760405162461bcd60e51b815260206004820152602f60248201527f416363657373436f6e74726f6c3a2063616e206f6e6c792072656e6f756e636560448201526e103937b632b9903337b91039b2b63360891b60648201526084015b60405180910390fd5b620002f482826200056b565b5050565b600181815481106200030957600080fd5b6000918252602090912001546001600160a01b0316905081565b6000918252602082815260408084206001600160a01b0393909316845291905290205460ff1690565b60606001805480602002602001604051908101604052809291908181526020018280548015620003a657602002820191906000526020600020905b81546001600160a01b0316815260019091019060200180831162000387575b5050505050905090565b600082815260208190526040902060010154620003cd81620004d4565b6200026d83836200056b565b7ffc425f2263d0df187444b70e47283d622c70181c5baebb1306a01edba1ce184c6200040581620004d4565b600086868686866040516200041a9062000803565b6200042a95949392919062000aa1565b604051809103906000f08015801562000447573d6000803e3d6000fd5b506001805480820182556000919091527fb10e2d527612073b26eecdfd717e6a320cf44b4afac2b0732d9fcbe2b7fa0cf60180546001600160a01b0319166001600160a01b0383169081179091556040519081529091507ffc9d1c26b1eaca880ecdf23c54ee25e4fb9321216a5cd19256eba3e37ccae2fa9060200160405180910390a150505050505050565b620004e08133620005d3565b50565b620004ef828262000323565b620002f4576000828152602081815260408083206001600160a01b03851684529091529020805460ff19166001179055620005273390565b6001600160a01b0316816001600160a01b0316837f2f8788117e7eff1d82e926ec794901d17c78024a50270940304540a733656f0d60405160405180910390a45050565b62000577828262000323565b15620002f4576000828152602081815260408083206001600160a01b0385168085529252808320805460ff1916905551339285917ff6391f5c32d9c69d2a47ea670b442974b53935d1edc7fd64eb21e047a839171b9190a45050565b620005df828262000323565b620002f457620005fa816001600160a01b0316601462000642565b6200060783602062000642565b6040516020016200061a92919062000af5565b60408051601f198184030181529082905262461bcd60e51b8252620002df9160040162000b6e565b606060006200065383600262000b99565b6200066090600262000bbb565b67ffffffffffffffff8111156200067b576200067b620008f2565b6040519080825280601f01601f191660200182016040528015620006a6576020820181803683370190505b509050600360fc1b81600081518110620006c457620006c462000bd6565b60200101906001600160f81b031916908160001a905350600f60fb1b81600181518110620006f657620006f662000bd6565b60200101906001600160f81b031916908160001a90535060006200071c84600262000b99565b6200072990600162000bbb565b90505b6001811115620007ab576f181899199a1a9b1b9c1cb0b131b232b360811b85600f166010811062000761576200076162000bd6565b1a60f81b8282815181106200077a576200077a62000bd6565b60200101906001600160f81b031916908160001a90535060049490941c93620007a38162000bec565b90506200072c565b508315620007fc5760405162461bcd60e51b815260206004820181905260248201527f537472696e67733a20686578206c656e67746820696e73756666696369656e746044820152606401620002df565b9392505050565b61355c8062000c0783390190565b6000602082840312156200082457600080fd5b81356001600160e01b031981168114620007fc57600080fd5b6000602082840312156200085057600080fd5b5035919050565b80356001600160a01b03811681146200086f57600080fd5b919050565b600080604083850312156200088857600080fd5b823591506200089a6020840162000857565b90509250929050565b6020808252825182820181905260009190848201906040850190845b81811015620008e65783516001600160a01b031683529284019291840191600101620008bf565b50909695505050505050565b634e487b7160e01b600052604160045260246000fd5b600082601f8301126200091a57600080fd5b813567ffffffffffffffff80821115620009385762000938620008f2565b604051601f8301601f19908116603f01168101908282118183101715620009635762000963620008f2565b816040528381528660208588010111156200097d57600080fd5b836020870160208301376000602085830101528094505050505092915050565b600080600080600060a08688031215620009b657600080fd5b853567ffffffffffffffff80821115620009cf57600080fd5b620009dd89838a0162000908565b96506020880135915080821115620009f457600080fd5b5062000a038882890162000908565b94505062000a146040870162000857565b925062000a246060870162000857565b915062000a346080870162000857565b90509295509295909350565b60005b8381101562000a5d57818101518382015260200162000a43565b8381111562000a6d576000848401525b50505050565b6000815180845262000a8d81602086016020860162000a40565b601f01601f19169290920160200192915050565b60a08152600062000ab660a083018862000a73565b828103602084015262000aca818862000a73565b6001600160a01b03968716604085015294861660608401525050921660809092019190915292915050565b7f416363657373436f6e74726f6c3a206163636f756e742000000000000000000081526000835162000b2f81601785016020880162000a40565b7001034b99036b4b9b9b4b733903937b6329607d1b601791840191820152835162000b6281602884016020880162000a40565b01602801949350505050565b602081526000620007fc602083018462000a73565b634e487b7160e01b600052601160045260246000fd5b600081600019048311821515161562000bb65762000bb662000b83565b500290565b6000821982111562000bd15762000bd162000b83565b500190565b634e487b7160e01b600052603260045260246000fd5b60008162000bfe5762000bfe62000b83565b50600019019056fe61014060405260006008553480156200001757600080fd5b506040516200355c3803806200355c8339810160408190526200003a91620003ea565b604051806040016040528060078152602001662b37bab1b432b960c91b815250604051806040016040528060018152602001600d60fa1b815250868681600090805190602001906200008e9291906200025a565b508051620000a49060019060208401906200025a565b5050825160209384012082519284019290922060e08390526101008190524660a0818152604080517f8b73c3c69bb8fe3d512ecc4cf759cc79239f7b179b0ffacaa9a75d522b39400f818901819052818301979097526060810194909452608080850193909352308483018190528151808603909301835260c094850190915281519190960120905292909252610120525062000143600084620001a6565b6200016f7f9f2df0fed2c77648de5860a4cc508cd0818c85b8b8a1ab4ceeef8d981c8956a683620001a6565b6200019b7f21702c8af46127c7fa207f89d0b0a8441bb32959a0ac7df790e9ab1a25c9892682620001a6565b5050505050620004c9565b620001b28282620001b6565b5050565b60008281526007602090815260408083206001600160a01b038516845290915290205460ff16620001b25760008281526007602090815260408083206001600160a01b03851684529091529020805460ff19166001179055620002163390565b6001600160a01b0316816001600160a01b0316837f2f8788117e7eff1d82e926ec794901d17c78024a50270940304540a733656f0d60405160405180910390a45050565b82805462000268906200048c565b90600052602060002090601f0160209004810192826200028c5760008555620002d7565b82601f10620002a757805160ff1916838001178555620002d7565b82800160010185558215620002d7579182015b82811115620002d7578251825591602001919060010190620002ba565b50620002e5929150620002e9565b5090565b5b80821115620002e55760008155600101620002ea565b634e487b7160e01b600052604160045260246000fd5b600082601f8301126200032857600080fd5b81516001600160401b038082111562000345576200034562000300565b604051601f8301601f19908116603f0116810190828211818310171562000370576200037062000300565b816040528381526020925086838588010111156200038d57600080fd5b600091505b83821015620003b1578582018301518183018401529082019062000392565b83821115620003c35760008385830101525b9695505050505050565b80516001600160a01b0381168114620003e557600080fd5b919050565b600080600080600060a086880312156200040357600080fd5b85516001600160401b03808211156200041b57600080fd5b6200042989838a0162000316565b965060208801519150808211156200044057600080fd5b506200044f8882890162000316565b9450506200046060408701620003cd565b92506200047060608701620003cd565b91506200048060808701620003cd565b90509295509295909350565b600181811c90821680620004a157607f821691505b60208210811415620004c357634e487b7160e01b600052602260045260246000fd5b50919050565b60805160a05160c05160e0516101005161012051613043620005196000396000611ba601526000611bf501526000611bd001526000611b2901526000611b5301526000611b7d01526130436000f3fe6080604052600436106101e35760003560e01c806391d1485411610102578063d539139311610095578063e985e9c511610064578063e985e9c5146105ad578063eeafb932146105f6578063f266494e14610609578063feebcf191461061c57600080fd5b8063d53913931461052b578063d547741f1461054d578063d85d3d271461056d578063db17ca821461058d57600080fd5b8063a22cb465116100d1578063a22cb46514610497578063b88d4fde146104b7578063c49baebe146104d7578063c87b56dd1461050b57600080fd5b806391d148541461042d57806395d89b411461044d57806398b5214014610462578063a217fddf1461048257600080fd5b806324d7806c1161017a5780635ed12364116101495780635ed12364146103ad5780636352211e146103cd57806370a08231146103ed5780637e3cdcb21461040d57600080fd5b806324d7806c1461032d5780632f2ff15d1461034d57806336568abe1461036d57806342842e0e1461038d57600080fd5b80631008e7fc116101b65780631008e7fc1461029957806317d70f7c146102b957806323b872dd146102dd578063248a9ca3146102fd57600080fd5b806301ffc9a7146101e857806306fdde031461021d578063081812fc1461023f578063095ea7b314610277575b600080fd5b3480156101f457600080fd5b506102086102033660046124c4565b61063c565b60405190151581526020015b60405180910390f35b34801561022957600080fd5b5061023261065c565b6040516102149190612539565b34801561024b57600080fd5b5061025f61025a36600461254c565b6106ee565b6040516001600160a01b039091168152602001610214565b34801561028357600080fd5b5061029761029236600461257a565b610715565b005b3480156102a557600080fd5b506102976102b4366004612715565b610830565b3480156102c557600080fd5b506102cf60085481565b604051908152602001610214565b3480156102e957600080fd5b506102976102f83660046127cf565b6108f8565b34801561030957600080fd5b506102cf61031836600461254c565b60009081526007602052604090206001015490565b34801561033957600080fd5b50610208610348366004612810565b610929565b34801561035957600080fd5b5061029761036836600461282d565b610935565b34801561037957600080fd5b5061029761038836600461282d565b61095a565b34801561039957600080fd5b506102976103a83660046127cf565b6109d8565b3480156103b957600080fd5b506102976103c836600461285d565b6109f3565b3480156103d957600080fd5b5061025f6103e836600461254c565b610a31565b3480156103f957600080fd5b506102cf610408366004612810565b610a91565b34801561041957600080fd5b506102976104283660046128a1565b610b17565b34801561043957600080fd5b5061020861044836600461282d565b610c1e565b34801561045957600080fd5b50610232610c49565b34801561046e57600080fd5b5061025f61047d36600461292e565b610c58565b34801561048e57600080fd5b506102cf600081565b3480156104a357600080fd5b506102976104b23660046129a4565b610d49565b3480156104c357600080fd5b506102976104d23660046129d2565b610d54565b3480156104e357600080fd5b506102cf7f21702c8af46127c7fa207f89d0b0a8441bb32959a0ac7df790e9ab1a25c9892681565b34801561051757600080fd5b5061023261052636600461254c565b610d8c565b34801561053757600080fd5b506102cf600080516020612fee83398151915281565b34801561055957600080fd5b5061029761056836600461282d565b610e9d565b34801561057957600080fd5b50610297610588366004612a51565b610edb565b34801561059957600080fd5b5061025f6105a8366004612a97565b610f76565b3480156105b957600080fd5b506102086105c8366004612add565b6001600160a01b03918216600090815260056020908152604080832093909416825291909152205460ff1690565b610297610604366004612b0b565b610ff9565b6102cf610617366004612b86565b61117c565b34801561062857600080fd5b50610297610637366004612bfe565b61134b565b600061064782611393565b806106565750610656826113e3565b92915050565b60606000805461066b90612c40565b80601f016020809104026020016040519081016040528092919081815260200182805461069790612c40565b80156106e45780601f106106b9576101008083540402835291602001916106e4565b820191906000526020600020905b8154815290600101906020018083116106c757829003601f168201915b5050505050905090565b60006106f982611408565b506000908152600460205260409020546001600160a01b031690565b600061072082610a31565b9050806001600160a01b0316836001600160a01b031614156107935760405162461bcd60e51b815260206004820152602160248201527f4552433732313a20617070726f76616c20746f2063757272656e74206f776e656044820152603960f91b60648201526084015b60405180910390fd5b336001600160a01b03821614806107af57506107af81336105c8565b6108215760405162461bcd60e51b815260206004820152603e60248201527f4552433732313a20617070726f76652063616c6c6572206973206e6f7420746f60448201527f6b656e206f776e6572206e6f7220617070726f76656420666f7220616c6c0000606482015260840161078a565b61082b838361146a565b505050565b610848600080516020612fee83398151915233610c1e565b6108645760405162461bcd60e51b815260040161078a90612c75565b805182511461089e5760405162461bcd60e51b815260040161078a90602080825260049082015263183c181b60e11b604082015260600190565b60005b825181101561082b576108e68282815181106108bf576108bf612c93565b60200260200101518483815181106108d9576108d9612c93565b60200260200101516114d8565b806108f081612cbf565b9150506108a1565b6109023382611572565b61091e5760405162461bcd60e51b815260040161078a90612cda565b61082b8383836115f0565b60006106568183610c1e565b6000828152600760205260409020600101546109508161178c565b61082b8383611796565b6001600160a01b03811633146109ca5760405162461bcd60e51b815260206004820152602f60248201527f416363657373436f6e74726f6c3a2063616e206f6e6c792072656e6f756e636560448201526e103937b632b9903337b91039b2b63360891b606482015260840161078a565b6109d4828261181c565b5050565b61082b83838360405180602001604052806000815250610d54565b610a0b600080516020612fee83398151915233610c1e565b610a275760405162461bcd60e51b815260040161078a90612c75565b6109d481836114d8565b6000818152600260205260408120546001600160a01b0316806106565760405162461bcd60e51b8152602060048201526018602482015277115490cdcc8c4e881a5b9d985b1a59081d1bdad95b88125160421b604482015260640161078a565b60006001600160a01b038216610afb5760405162461bcd60e51b815260206004820152602960248201527f4552433732313a2061646472657373207a65726f206973206e6f7420612076616044820152683634b21037bbb732b960b91b606482015260840161078a565b506001600160a01b031660009081526003602052604090205490565b610b2f600080516020612fee83398151915233610c1e565b610b4b5760405162461bcd60e51b815260040161078a90612c75565b6096815110610b855760405162461bcd60e51b815260040161078a906020808252600490820152633078303360e01b604082015260600190565b60005b8151811015610bdc5760088054906000610ba183612cbf565b9190505550610bb233600854611883565b610bca6008548383815181106108d9576108d9612c93565b80610bd481612cbf565b915050610b88565b506008546040805133815260208101929092527ff19110224b531fe78a74ab0635c2c22b945f4c83b9d48d2c2240f765fe3de36791015b60405180910390a150565b60009182526007602090815260408084206001600160a01b0393909316845291905290205460ff1690565b60606001805461066b90612c40565b600080610cfb7fb7689325454471f2556966d8000aec5f1b975024d0dc92e6df6d7488a299f258610c898780612d28565b604051610c97929190612d6e565b60405180910390208760200135886040016020810190610cb79190612810565b60408051602081019590955284019290925260608301526001600160a01b0316608082015260a0015b6040516020818303038152906040528051906020012061189d565b90506000610d3f8286868080601f0160208091040260200160405190810160405280939291908181526020018383808284376000920191909152506118eb92505050565b9695505050505050565b6109d433838361190f565b610d5e3383611572565b610d7a5760405162461bcd60e51b815260040161078a90612cda565b610d86848484846119de565b50505050565b6060610d9782611408565b60008281526006602052604081208054610db090612c40565b80601f0160208091040260200160405190810160405280929190818152602001828054610ddc90612c40565b8015610e295780601f10610dfe57610100808354040283529160200191610e29565b820191906000526020600020905b815481529060010190602001808311610e0c57829003601f168201915b505050505090506000610e4760408051602081019091526000815290565b9050805160001415610e5a575092915050565b815115610e8c578082604051602001610e74929190612d7e565b60405160208183030381529060405292505050919050565b610e9584611a11565b949350505050565b610ea633610929565b6109ca5760405162461bcd60e51b815260040161078a90602080825260049082015263183c181960e11b604082015260600190565b610ef3600080516020612fee83398151915233610c1e565b610f0f5760405162461bcd60e51b815260040161078a90612c75565b60088054906000610f1f83612cbf565b9190505550610f3033600854611883565b610f3c600854826114d8565b6008546040805133815260208101929092527ff19110224b531fe78a74ab0635c2c22b945f4c83b9d48d2c2240f765fe3de3679101610c13565b600080610cfb7f1c2e34e654a60cac969374c084a4a23b41e72b9db99207d7d2e200fd18f6de9d8635610faf6040890160208a01612810565b6040890135610fc460808b0160608c01612810565b6040805160208101969096528501939093526001600160a01b03918216606085015260808401521660a082015260c001610ce0565b6000611006858585610f76565b9050806001600160a01b0316866001600160a01b0316146110525760405162461bcd60e51b815260040161078a906020808252600490820152633078303560e01b604082015260600190565b61105d828635610715565b61106d6040860160208701612810565b6040516323b872dd60e01b81523360048201526001600160a01b0388811660248301528735604483015291909116906323b872dd90606401600060405180830381600087803b1580156110bf57600080fd5b505af11580156110d3573d6000803e3d6000fd5b506110e8925050506080860160608701612810565b604080516323b872dd60e01b81526001600160a01b0389811660048301523360248301529188013560448201529116906323b872dd90606401602060405180830381600087803b15801561113b57600080fd5b505af115801561114f573d6000803e3d6000fd5b505050506040513d601f19601f820116820180604052508101906111739190612dad565b50505050505050565b60008061118a858585610c58565b90506111b67f21702c8af46127c7fa207f89d0b0a8441bb32959a0ac7df790e9ab1a25c9892682610c1e565b6111eb5760405162461bcd60e51b815260040161078a906020808252600490820152630c1e0c0d60e21b604082015260600190565b600880549060006111fb83612cbf565b919050555061120c33600854611883565b6008546112579061121d8780612d28565b8080601f0160208091040260200160405190810160405280939291908181526020018383808284376000920191909152506114d892505050565b6112676060860160408701612810565b6040516323b872dd60e01b81523360048201526001600160a01b0388811660248301526020880135604483015291909116906323b872dd90606401602060405180830381600087803b1580156112bc57600080fd5b505af11580156112d0573d6000803e3d6000fd5b505050506040513d601f19601f820116820180604052508101906112f49190612dad565b507f22a703ecacac15a8221e7c517c83bb6fc160ec72b6303d7031d51aaaec517af686336113228880612d28565b600854604051611336959493929190612dca565b60405180910390a15050600854949350505050565b61135482610929565b6113895760405162461bcd60e51b815260040161078a906020808252600490820152633078303160e01b604082015260600190565b61082b8382611796565b60006001600160e01b031982166380ac58cd60e01b14806113c457506001600160e01b03198216635b5e139f60e01b145b8061065657506301ffc9a760e01b6001600160e01b0319831614610656565b60006001600160e01b03198216637965db0b60e01b1480610656575061065682611393565b6000818152600260205260409020546001600160a01b03166114675760405162461bcd60e51b8152602060048201526018602482015277115490cdcc8c4e881a5b9d985b1a59081d1bdad95b88125160421b604482015260640161078a565b50565b600081815260046020526040902080546001600160a01b0319166001600160a01b038416908117909155819061149f82610a31565b6001600160a01b03167f8c5be1e5ebec7d5bd14f71427d1e84f3dd0314c0f7b2291e5b200ac8c7c3b92560405160405180910390a45050565b6000828152600260205260409020546001600160a01b03166115535760405162461bcd60e51b815260206004820152602e60248201527f45524337323155524953746f726167653a2055524920736574206f66206e6f6e60448201526d32bc34b9ba32b73a103a37b5b2b760911b606482015260840161078a565b6000828152600660209081526040909120825161082b92840190612415565b60008061157e83610a31565b9050806001600160a01b0316846001600160a01b031614806115c557506001600160a01b0380821660009081526005602090815260408083209388168352929052205460ff165b80610e955750836001600160a01b03166115de846106ee565b6001600160a01b031614949350505050565b826001600160a01b031661160382610a31565b6001600160a01b0316146116675760405162461bcd60e51b815260206004820152602560248201527f4552433732313a207472616e736665722066726f6d20696e636f72726563742060448201526437bbb732b960d91b606482015260840161078a565b6001600160a01b0382166116c95760405162461bcd60e51b8152602060048201526024808201527f4552433732313a207472616e7366657220746f20746865207a65726f206164646044820152637265737360e01b606482015260840161078a565b6116d460008261146a565b6001600160a01b03831660009081526003602052604081208054600192906116fd908490612e1d565b90915550506001600160a01b038216600090815260036020526040812080546001929061172b908490612e34565b909155505060008181526002602052604080822080546001600160a01b0319166001600160a01b0386811691821790925591518493918716917fddf252ad1be2c89b69c2b068fc378daa952ba7f163c4a11628f55a4df523b3ef91a4505050565b6114678133611a85565b6117a08282610c1e565b6109d45760008281526007602090815260408083206001600160a01b03851684529091529020805460ff191660011790556117d83390565b6001600160a01b0316816001600160a01b0316837f2f8788117e7eff1d82e926ec794901d17c78024a50270940304540a733656f0d60405160405180910390a45050565b6118268282610c1e565b156109d45760008281526007602090815260408083206001600160a01b0385168085529252808320805460ff1916905551339285917ff6391f5c32d9c69d2a47ea670b442974b53935d1edc7fd64eb21e047a839171b9190a45050565b6109d4828260405180602001604052806000815250611ae9565b60006106566118aa611b1c565b8360405161190160f01b6020820152602281018390526042810182905260009060620160405160208183030381529060405280519060200120905092915050565b60008060006118fa8585611c43565b9150915061190781611c89565b509392505050565b816001600160a01b0316836001600160a01b031614156119715760405162461bcd60e51b815260206004820152601960248201527f4552433732313a20617070726f766520746f2063616c6c657200000000000000604482015260640161078a565b6001600160a01b03838116600081815260056020908152604080832094871680845294825291829020805460ff191686151590811790915591519182527f17307eab39ab6107e8899845ad3d59bd9653f200f220920489ca2b5937696c31910160405180910390a3505050565b6119e98484846115f0565b6119f584848484611e44565b610d865760405162461bcd60e51b815260040161078a90612e4c565b6060611a1c82611408565b6000611a3360408051602081019091526000815290565b90506000815111611a535760405180602001604052806000815250611a7e565b80611a5d84611f4e565b604051602001611a6e929190612d7e565b6040516020818303038152906040525b9392505050565b611a8f8282610c1e565b6109d457611aa7816001600160a01b0316601461204b565b611ab283602061204b565b604051602001611ac3929190612e9e565b60408051601f198184030181529082905262461bcd60e51b825261078a91600401612539565b611af383836121e6565b611b006000848484611e44565b61082b5760405162461bcd60e51b815260040161078a90612e4c565b6000306001600160a01b037f000000000000000000000000000000000000000000000000000000000000000016148015611b7557507f000000000000000000000000000000000000000000000000000000000000000046145b15611b9f57507f000000000000000000000000000000000000000000000000000000000000000090565b50604080517f00000000000000000000000000000000000000000000000000000000000000006020808301919091527f0000000000000000000000000000000000000000000000000000000000000000828401527f000000000000000000000000000000000000000000000000000000000000000060608301524660808301523060a0808401919091528351808403909101815260c0909201909252805191012090565b600080825160411415611c7a5760208301516040840151606085015160001a611c6e87828585612328565b94509450505050611c82565b506000905060025b9250929050565b6000816004811115611c9d57611c9d612f13565b1415611ca65750565b6001816004811115611cba57611cba612f13565b1415611d085760405162461bcd60e51b815260206004820152601860248201527f45434453413a20696e76616c6964207369676e61747572650000000000000000604482015260640161078a565b6002816004811115611d1c57611d1c612f13565b1415611d6a5760405162461bcd60e51b815260206004820152601f60248201527f45434453413a20696e76616c6964207369676e6174757265206c656e67746800604482015260640161078a565b6003816004811115611d7e57611d7e612f13565b1415611dd75760405162461bcd60e51b815260206004820152602260248201527f45434453413a20696e76616c6964207369676e6174757265202773272076616c604482015261756560f01b606482015260840161078a565b6004816004811115611deb57611deb612f13565b14156114675760405162461bcd60e51b815260206004820152602260248201527f45434453413a20696e76616c6964207369676e6174757265202776272076616c604482015261756560f01b606482015260840161078a565b60006001600160a01b0384163b15611f4657604051630a85bd0160e11b81526001600160a01b0385169063150b7a0290611e88903390899088908890600401612f29565b602060405180830381600087803b158015611ea257600080fd5b505af1925050508015611ed2575060408051601f3d908101601f19168201909252611ecf91810190612f5c565b60015b611f2c573d808015611f00576040519150601f19603f3d011682016040523d82523d6000602084013e611f05565b606091505b508051611f245760405162461bcd60e51b815260040161078a90612e4c565b805181602001fd5b6001600160e01b031916630a85bd0160e11b149050610e95565b506001610e95565b606081611f725750506040805180820190915260018152600360fc1b602082015290565b8160005b8115611f9c5780611f8681612cbf565b9150611f959050600a83612f8f565b9150611f76565b6000816001600160401b03811115611fb657611fb66125a6565b6040519080825280601f01601f191660200182016040528015611fe0576020820181803683370190505b5090505b8415610e9557611ff5600183612e1d565b9150612002600a86612fa3565b61200d906030612e34565b60f81b81838151811061202257612022612c93565b60200101906001600160f81b031916908160001a905350612044600a86612f8f565b9450611fe4565b6060600061205a836002612fb7565b612065906002612e34565b6001600160401b0381111561207c5761207c6125a6565b6040519080825280601f01601f1916602001820160405280156120a6576020820181803683370190505b509050600360fc1b816000815181106120c1576120c1612c93565b60200101906001600160f81b031916908160001a905350600f60fb1b816001815181106120f0576120f0612c93565b60200101906001600160f81b031916908160001a9053506000612114846002612fb7565b61211f906001612e34565b90505b6001811115612197576f181899199a1a9b1b9c1cb0b131b232b360811b85600f166010811061215357612153612c93565b1a60f81b82828151811061216957612169612c93565b60200101906001600160f81b031916908160001a90535060049490941c9361219081612fd6565b9050612122565b508315611a7e5760405162461bcd60e51b815260206004820181905260248201527f537472696e67733a20686578206c656e67746820696e73756666696369656e74604482015260640161078a565b6001600160a01b03821661223c5760405162461bcd60e51b815260206004820181905260248201527f4552433732313a206d696e7420746f20746865207a65726f2061646472657373604482015260640161078a565b6000818152600260205260409020546001600160a01b0316156122a15760405162461bcd60e51b815260206004820152601c60248201527f4552433732313a20746f6b656e20616c7265616479206d696e74656400000000604482015260640161078a565b6001600160a01b03821660009081526003602052604081208054600192906122ca908490612e34565b909155505060008181526002602052604080822080546001600160a01b0319166001600160a01b03861690811790915590518392907fddf252ad1be2c89b69c2b068fc378daa952ba7f163c4a11628f55a4df523b3ef908290a45050565b6000807f7fffffffffffffffffffffffffffffff5d576e7357a4501ddfe92f46681b20a083111561235f575060009050600361240c565b8460ff16601b1415801561237757508460ff16601c14155b15612388575060009050600461240c565b6040805160008082526020820180845289905260ff881692820192909252606081018690526080810185905260019060a0016020604051602081039080840390855afa1580156123dc573d6000803e3d6000fd5b5050604051601f1901519150506001600160a01b0381166124055760006001925092505061240c565b9150600090505b94509492505050565b82805461242190612c40565b90600052602060002090601f0160209004810192826124435760008555612489565b82601f1061245c57805160ff1916838001178555612489565b82800160010185558215612489579182015b8281111561248957825182559160200191906001019061246e565b50612495929150612499565b5090565b5b80821115612495576000815560010161249a565b6001600160e01b03198116811461146757600080fd5b6000602082840312156124d657600080fd5b8135611a7e816124ae565b60005b838110156124fc5781810151838201526020016124e4565b83811115610d865750506000910152565b600081518084526125258160208601602086016124e1565b601f01601f19169290920160200192915050565b602081526000611a7e602083018461250d565b60006020828403121561255e57600080fd5b5035919050565b6001600160a01b038116811461146757600080fd5b6000806040838503121561258d57600080fd5b823561259881612565565b946020939093013593505050565b634e487b7160e01b600052604160045260246000fd5b604051601f8201601f191681016001600160401b03811182821017156125e4576125e46125a6565b604052919050565b60006001600160401b03821115612605576126056125a6565b5060051b60200190565b60006001600160401b03831115612628576126286125a6565b61263b601f8401601f19166020016125bc565b905082815283838301111561264f57600080fd5b828260208301376000602084830101529392505050565b600082601f83011261267757600080fd5b611a7e8383356020850161260f565b600082601f83011261269757600080fd5b813560206126ac6126a7836125ec565b6125bc565b82815260059290921b840181019181810190868411156126cb57600080fd5b8286015b8481101561270a5780356001600160401b038111156126ee5760008081fd5b6126fc8986838b0101612666565b8452509183019183016126cf565b509695505050505050565b6000806040838503121561272857600080fd5b82356001600160401b038082111561273f57600080fd5b61274b86838701612686565b935060209150818501358181111561276257600080fd5b85019050601f8101861361277557600080fd5b80356127836126a7826125ec565b81815260059190911b820183019083810190888311156127a257600080fd5b928401925b828410156127c0578335825292840192908401906127a7565b80955050505050509250929050565b6000806000606084860312156127e457600080fd5b83356127ef81612565565b925060208401356127ff81612565565b929592945050506040919091013590565b60006020828403121561282257600080fd5b8135611a7e81612565565b6000806040838503121561284057600080fd5b82359150602083013561285281612565565b809150509250929050565b6000806040838503121561287057600080fd5b82356001600160401b0381111561288657600080fd5b61289285828601612666565b95602094909401359450505050565b6000602082840312156128b357600080fd5b81356001600160401b038111156128c957600080fd5b610e9584828501612686565b6000606082840312156128e757600080fd5b50919050565b60008083601f8401126128ff57600080fd5b5081356001600160401b0381111561291657600080fd5b602083019150836020828501011115611c8257600080fd5b60008060006040848603121561294357600080fd5b83356001600160401b038082111561295a57600080fd5b612966878388016128d5565b9450602086013591508082111561297c57600080fd5b50612989868287016128ed565b9497909650939450505050565b801515811461146757600080fd5b600080604083850312156129b757600080fd5b82356129c281612565565b9150602083013561285281612996565b600080600080608085870312156129e857600080fd5b84356129f381612565565b93506020850135612a0381612565565b92506040850135915060608501356001600160401b03811115612a2557600080fd5b8501601f81018713612a3657600080fd5b612a458782356020840161260f565b91505092959194509250565b600060208284031215612a6357600080fd5b81356001600160401b03811115612a7957600080fd5b610e9584828501612666565b6000608082840312156128e757600080fd5b600080600060a08486031215612aac57600080fd5b612ab68585612a85565b925060808401356001600160401b03811115612ad157600080fd5b612989868287016128ed565b60008060408385031215612af057600080fd5b8235612afb81612565565b9150602083013561285281612565565b600080600080600060e08688031215612b2357600080fd5b8535612b2e81612565565b9450612b3d8760208801612a85565b935060a08601356001600160401b03811115612b5857600080fd5b612b64888289016128ed565b90945092505060c0860135612b7881612565565b809150509295509295909350565b60008060008060608587031215612b9c57600080fd5b8435612ba781612565565b935060208501356001600160401b0380821115612bc357600080fd5b612bcf888389016128d5565b94506040870135915080821115612be557600080fd5b50612bf2878288016128ed565b95989497509550505050565b600080600060608486031215612c1357600080fd5b833592506020840135612c2581612565565b91506040840135612c3581612565565b809150509250925092565b600181811c90821680612c5457607f821691505b602082108114156128e757634e487b7160e01b600052602260045260246000fd5b6020808252600490820152630307830360e41b604082015260600190565b634e487b7160e01b600052603260045260246000fd5b634e487b7160e01b600052601160045260246000fd5b6000600019821415612cd357612cd3612ca9565b5060010190565b6020808252602e908201527f4552433732313a2063616c6c6572206973206e6f7420746f6b656e206f776e6560408201526d1c881b9bdc88185c1c1c9bdd995960921b606082015260800190565b6000808335601e19843603018112612d3f57600080fd5b8301803591506001600160401b03821115612d5957600080fd5b602001915036819003821315611c8257600080fd5b8183823760009101908152919050565b60008351612d908184602088016124e1565b835190830190612da48183602088016124e1565b01949350505050565b600060208284031215612dbf57600080fd5b8151611a7e81612996565b6001600160a01b0386811682528516602082015260806040820181905281018390526000838560a0840137600060a0858401015260a0601f19601f86011683010190508260608301529695505050505050565b600082821015612e2f57612e2f612ca9565b500390565b60008219821115612e4757612e47612ca9565b500190565b60208082526032908201527f4552433732313a207472616e7366657220746f206e6f6e20455243373231526560408201527131b2b4bb32b91034b6b83632b6b2b73a32b960711b606082015260800190565b7f416363657373436f6e74726f6c3a206163636f756e7420000000000000000000815260008351612ed68160178501602088016124e1565b7001034b99036b4b9b9b4b733903937b6329607d1b6017918401918201528351612f078160288401602088016124e1565b01602801949350505050565b634e487b7160e01b600052602160045260246000fd5b6001600160a01b0385811682528416602082015260408101839052608060608201819052600090610d3f9083018461250d565b600060208284031215612f6e57600080fd5b8151611a7e816124ae565b634e487b7160e01b600052601260045260246000fd5b600082612f9e57612f9e612f79565b500490565b600082612fb257612fb2612f79565b500690565b6000816000190483118215151615612fd157612fd1612ca9565b500290565b600081612fe557612fe5612ca9565b50600019019056fe9f2df0fed2c77648de5860a4cc508cd0818c85b8b8a1ab4ceeef8d981c8956a6a2646970667358221220660e2b33f55a6738af20b4528a8d9e5dc5aa703368baa24007e623cc78b0075664736f6c63430008090033a2646970667358221220295a36b49e05c714b8779ca9790d7dd7de51a89fb3ef74f2397d1b0893e67b4f64736f6c63430008090033",
  "linkReferences": {},
  "deployedLinkReferences": {}
}