{
  "_format": "hh-sol-artifact-1",
  "contractName": "FactoryMintingContract",
  "sourceName": "contracts/Factory.sol",
  "abi": [
    {
      "inputs": [],
      "stateMutability": "nonpayable",
      "type": "constructor"
    },
    {
      "anonymous": false,
      "inputs": [
        {
          "indexed": false,
          "internalType": "address",
          "name": "_mintingContract",
          "type": "address"
        }
      ],
      "name": "mintingCreated",
      "type": "event"
    },
    {
      "inputs": [],
      "name": "deployMintingContract",
      "outputs": [],
      "stateMutability": "nonpayable",
      "type": "function"
    },
    {
      "inputs": [],
      "name": "getMetaCoins",
      "outputs": [
        {
          "internalType": "contract NFT[]",
          "name": "",
          "type": "address[]"
        }
      ],
      "stateMutability": "view",
      "type": "function"
    },
    {
      "inputs": [
        {
          "internalType": "uint256",
          "name": "",
          "type": "uint256"
        }
      ],
      "name": "nftContractAddress",
      "outputs": [
        {
          "internalType": "contract NFT",
          "name": "",
          "type": "address"
        }
      ],
      "stateMutability": "view",
      "type": "function"
    }
  ],
  "bytecode": "0x608060405234801561001057600080fd5b5061001961001e565b610113565b600060405161002c90610106565b60408082526007908201526647414c494c454f60c81b60608201526080602082018190526003908201526208ea8b60eb1b60a082015260c001604051809103906000f080158015610081573d6000803e3d6000fd5b50600080546001810182559080527f290decd9548b62a8d60345a988386fc84ba6bc95484008f6362f93160ef3e5630180546001600160a01b0319166001600160a01b0383169081179091556040519081529091507ffc9d1c26b1eaca880ecdf23c54ee25e4fb9321216a5cd19256eba3e37ccae2fa9060200160405180910390a150565b613006806133de83390190565b6132bc806101226000396000f3fe608060405234801561001057600080fd5b50600436106100415760003560e01c8063592e998a146100465780636b687579146100645780636c717c901461008f575b600080fd5b61004e610099565b60405161005b919061021a565b60405180910390f35b610077610072366004610267565b6100fb565b6040516001600160a01b03909116815260200161005b565b610097610125565b005b606060008054806020026020016040519081016040528092919081815260200182805480156100f157602002820191906000526020600020905b81546001600160a01b031681526001909101906020018083116100d3575b5050505050905090565b6000818154811061010b57600080fd5b6000918252602090912001546001600160a01b0316905081565b60006040516101339061020d565b60408082526007908201526647414c494c454f60c81b60608201526080602082018190526003908201526208ea8b60eb1b60a082015260c001604051809103906000f080158015610188573d6000803e3d6000fd5b50600080546001810182559080527f290decd9548b62a8d60345a988386fc84ba6bc95484008f6362f93160ef3e5630180546001600160a01b0319166001600160a01b0383169081179091556040519081529091507ffc9d1c26b1eaca880ecdf23c54ee25e4fb9321216a5cd19256eba3e37ccae2fa9060200160405180910390a150565b6130068061028183390190565b6020808252825182820181905260009190848201906040850190845b8181101561025b5783516001600160a01b031683529284019291840191600101610236565b50909695505050505050565b60006020828403121561027957600080fd5b503591905056fe61014060405260006008553480156200001757600080fd5b5060405162003006380380620030068339810160408190526200003a916200039e565b604051806040016040528060078152602001662b37bab1b432b960c91b815250604051806040016040528060018152602001600d60fa1b815250838381600090805190602001906200008e9291906200022b565b508051620000a49060019060208401906200022b565b5050825160209384012082519284019290922060e08390526101008190524660a0818152604080517f8b73c3c69bb8fe3d512ecc4cf759cc79239f7b179b0ffacaa9a75d522b39400f818901819052818301979097526060810194909452608080850193909352308483018190528151808603909301835260c09485019091528151919096012090529290925261012052506200014360003362000177565b6200016f7f9f2df0fed2c77648de5860a4cc508cd0818c85b8b8a1ab4ceeef8d981c8956a63362000177565b505062000445565b62000183828262000187565b5050565b60008281526007602090815260408083206001600160a01b038516845290915290205460ff16620001835760008281526007602090815260408083206001600160a01b03851684529091529020805460ff19166001179055620001e73390565b6001600160a01b0316816001600160a01b0316837f2f8788117e7eff1d82e926ec794901d17c78024a50270940304540a733656f0d60405160405180910390a45050565b828054620002399062000408565b90600052602060002090601f0160209004810192826200025d5760008555620002a8565b82601f106200027857805160ff1916838001178555620002a8565b82800160010185558215620002a8579182015b82811115620002a85782518255916020019190600101906200028b565b50620002b6929150620002ba565b5090565b5b80821115620002b65760008155600101620002bb565b634e487b7160e01b600052604160045260246000fd5b600082601f830112620002f957600080fd5b81516001600160401b0380821115620003165762000316620002d1565b604051601f8301601f19908116603f01168101908282118183101715620003415762000341620002d1565b816040528381526020925086838588010111156200035e57600080fd5b600091505b8382101562000382578582018301518183018401529082019062000363565b83821115620003945760008385830101525b9695505050505050565b60008060408385031215620003b257600080fd5b82516001600160401b0380821115620003ca57600080fd5b620003d886838701620002e7565b93506020850151915080821115620003ef57600080fd5b50620003fe85828601620002e7565b9150509250929050565b600181811c908216806200041d57607f821691505b602082108114156200043f57634e487b7160e01b600052602260045260246000fd5b50919050565b60805160a05160c05160e0516101005161012051612b716200049560003960006118c101526000611910015260006118eb015260006118440152600061186e015260006118980152612b716000f3fe6080604052600436106101b75760003560e01c806391d14854116100ec578063c87b56dd1161008a578063d85d3d2711610064578063d85d3d2714610513578063e985e9c514610533578063f266494e1461057c578063feebcf191461058f57600080fd5b8063c87b56dd1461049f578063d5391393146104bf578063d547741f146104f357600080fd5b8063a217fddf116100c6578063a217fddf14610416578063a22cb4651461042b578063b88d4fde1461044b578063c49baebe1461046b57600080fd5b806391d14854146103c157806395d89b41146103e157806398b52140146103f657600080fd5b806324d7806c1161015957806342842e0e1161013357806342842e0e146103415780636352211e1461036157806370a08231146103815780637e3cdcb2146103a157600080fd5b806324d7806c146102e15780632f2ff15d1461030157806336568abe1461032157600080fd5b8063095ea7b311610195578063095ea7b31461024b57806317d70f7c1461026d57806323b872dd14610291578063248a9ca3146102b157600080fd5b806301ffc9a7146101bc57806306fdde03146101f1578063081812fc14610213575b600080fd5b3480156101c857600080fd5b506101dc6101d7366004612223565b6105af565b60405190151581526020015b60405180910390f35b3480156101fd57600080fd5b506102066105cf565b6040516101e89190612298565b34801561021f57600080fd5b5061023361022e3660046122ab565b610661565b6040516001600160a01b0390911681526020016101e8565b34801561025757600080fd5b5061026b6102663660046122e0565b610688565b005b34801561027957600080fd5b5061028360085481565b6040519081526020016101e8565b34801561029d57600080fd5b5061026b6102ac36600461230a565b6107a3565b3480156102bd57600080fd5b506102836102cc3660046122ab565b60009081526007602052604090206001015490565b3480156102ed57600080fd5b506101dc6102fc366004612346565b6107d4565b34801561030d57600080fd5b5061026b61031c366004612361565b6107e0565b34801561032d57600080fd5b5061026b61033c366004612361565b610805565b34801561034d57600080fd5b5061026b61035c36600461230a565b610883565b34801561036d57600080fd5b5061023361037c3660046122ab565b61089e565b34801561038d57600080fd5b5061028361039c366004612346565b6108fe565b3480156103ad57600080fd5b5061026b6103bc36600461244c565b610984565b3480156103cd57600080fd5b506101dc6103dc366004612361565b610ac3565b3480156103ed57600080fd5b50610206610aee565b34801561040257600080fd5b50610233610411366004612569565b610afd565b34801561042257600080fd5b50610283600081565b34801561043757600080fd5b5061026b6104463660046125e0565b610bed565b34801561045757600080fd5b5061026b610466366004612617565b610bf8565b34801561047757600080fd5b506102837f21702c8af46127c7fa207f89d0b0a8441bb32959a0ac7df790e9ab1a25c9892681565b3480156104ab57600080fd5b506102066104ba3660046122ab565b610c30565b3480156104cb57600080fd5b506102837f9f2df0fed2c77648de5860a4cc508cd0818c85b8b8a1ab4ceeef8d981c8956a681565b3480156104ff57600080fd5b5061026b61050e366004612361565b610d41565b34801561051f57600080fd5b5061026b61052e366004612693565b610d7f565b34801561053f57600080fd5b506101dc61054e3660046126c8565b6001600160a01b03918216600090815260056020908152604080832093909416825291909152205460ff1690565b61028361058a3660046126f2565b610e45565b34801561059b57600080fd5b5061026b6105aa366004612769565b611014565b60006105ba8261105c565b806105c957506105c9826110ac565b92915050565b6060600080546105de906127a5565b80601f016020809104026020016040519081016040528092919081815260200182805461060a906127a5565b80156106575780601f1061062c57610100808354040283529160200191610657565b820191906000526020600020905b81548152906001019060200180831161063a57829003601f168201915b5050505050905090565b600061066c826110d1565b506000908152600460205260409020546001600160a01b031690565b60006106938261089e565b9050806001600160a01b0316836001600160a01b031614156107065760405162461bcd60e51b815260206004820152602160248201527f4552433732313a20617070726f76616c20746f2063757272656e74206f776e656044820152603960f91b60648201526084015b60405180910390fd5b336001600160a01b03821614806107225750610722813361054e565b6107945760405162461bcd60e51b815260206004820152603d60248201527f4552433732313a20617070726f76652063616c6c6572206973206e6f7420746f60448201527f6b656e206f776e6572206f7220617070726f76656420666f7220616c6c00000060648201526084016106fd565b61079e8383611133565b505050565b6107ad33826111a1565b6107c95760405162461bcd60e51b81526004016106fd906127da565b61079e83838361121f565b60006105c98183610ac3565b6000828152600760205260409020600101546107fb81611390565b61079e838361139a565b6001600160a01b03811633146108755760405162461bcd60e51b815260206004820152602f60248201527f416363657373436f6e74726f6c3a2063616e206f6e6c792072656e6f756e636560448201526e103937b632b9903337b91039b2b63360891b60648201526084016106fd565b61087f8282611420565b5050565b61079e83838360405180602001604052806000815250610bf8565b6000818152600260205260408120546001600160a01b0316806105c95760405162461bcd60e51b8152602060048201526018602482015277115490cdcc8c4e881a5b9d985b1a59081d1bdad95b88125160421b60448201526064016106fd565b60006001600160a01b0382166109685760405162461bcd60e51b815260206004820152602960248201527f4552433732313a2061646472657373207a65726f206973206e6f7420612076616044820152683634b21037bbb732b960b91b60648201526084016106fd565b506001600160a01b031660009081526003602052604090205490565b6109ae7f9f2df0fed2c77648de5860a4cc508cd0818c85b8b8a1ab4ceeef8d981c8956a633610ac3565b6109e35760405162461bcd60e51b81526004016106fd906020808252600490820152630307830360e41b604082015260600190565b6096815110610a1d5760405162461bcd60e51b81526004016106fd906020808252600490820152633078303160e01b604082015260600190565b60005b8151811015610a815760088054906000610a398361283d565b9190505550610a4a33600854611487565b610a6f600854838381518110610a6257610a62612858565b60200260200101516114a1565b80610a798161283d565b915050610a20565b506008546040805133815260208101929092527ff19110224b531fe78a74ab0635c2c22b945f4c83b9d48d2c2240f765fe3de36791015b60405180910390a150565b60009182526007602090815260408084206001600160a01b0393909316845291905290205460ff1690565b6060600180546105de906127a5565b600080610b9f7fb7689325454471f2556966d8000aec5f1b975024d0dc92e6df6d7488a299f258610b2e878061286e565b604051610b3c9291906128b5565b60405180910390208760200135886040016020810190610b5c9190612346565b60408051602081019590955284019290925260608301526001600160a01b0316608082015260a0016040516020818303038152906040528051906020012061153b565b90506000610be38286868080601f01602080910402602001604051908101604052809392919081815260200183838082843760009201919091525061158992505050565b9695505050505050565b61087f3383836115ad565b610c0233836111a1565b610c1e5760405162461bcd60e51b81526004016106fd906127da565b610c2a8484848461167c565b50505050565b6060610c3b826110d1565b60008281526006602052604081208054610c54906127a5565b80601f0160208091040260200160405190810160405280929190818152602001828054610c80906127a5565b8015610ccd5780601f10610ca257610100808354040283529160200191610ccd565b820191906000526020600020905b815481529060010190602001808311610cb057829003601f168201915b505050505090506000610ceb60408051602081019091526000815290565b9050805160001415610cfe575092915050565b815115610d30578082604051602001610d189291906128c5565b60405160208183030381529060405292505050919050565b610d39846116af565b949350505050565b610d4a336107d4565b6108755760405162461bcd60e51b81526004016106fd90602080825260049082015263183c181960e11b604082015260600190565b610da97f9f2df0fed2c77648de5860a4cc508cd0818c85b8b8a1ab4ceeef8d981c8956a633610ac3565b610dde5760405162461bcd60e51b81526004016106fd906020808252600490820152630307830360e41b604082015260600190565b60088054906000610dee8361283d565b9190505550610dff33600854611487565b610e0b600854826114a1565b6008546040805133815260208101929092527ff19110224b531fe78a74ab0635c2c22b945f4c83b9d48d2c2240f765fe3de3679101610ab8565b600080610e53858585610afd565b9050610e7f7f21702c8af46127c7fa207f89d0b0a8441bb32959a0ac7df790e9ab1a25c9892682610ac3565b610eb45760405162461bcd60e51b81526004016106fd906020808252600490820152633078303360e01b604082015260600190565b60088054906000610ec48361283d565b9190505550610ed533600854611487565b600854610f2090610ee6878061286e565b8080601f0160208091040260200160405190810160405280939291908181526020018383808284376000920191909152506114a192505050565b610f306060860160408701612346565b6040516323b872dd60e01b81523360048201526001600160a01b0388811660248301526020880135604483015291909116906323b872dd90606401602060405180830381600087803b158015610f8557600080fd5b505af1158015610f99573d6000803e3d6000fd5b505050506040513d601f19601f82011682018060405250810190610fbd91906128f4565b507f22a703ecacac15a8221e7c517c83bb6fc160ec72b6303d7031d51aaaec517af68633610feb888061286e565b600854604051610fff959493929190612911565b60405180910390a15050600854949350505050565b61101d826107d4565b6110525760405162461bcd60e51b81526004016106fd906020808252600490820152633078303160e01b604082015260600190565b61079e838261139a565b60006001600160e01b031982166380ac58cd60e01b148061108d57506001600160e01b03198216635b5e139f60e01b145b806105c957506301ffc9a760e01b6001600160e01b03198316146105c9565b60006001600160e01b03198216637965db0b60e01b14806105c957506105c98261105c565b6000818152600260205260409020546001600160a01b03166111305760405162461bcd60e51b8152602060048201526018602482015277115490cdcc8c4e881a5b9d985b1a59081d1bdad95b88125160421b60448201526064016106fd565b50565b600081815260046020526040902080546001600160a01b0319166001600160a01b03841690811790915581906111688261089e565b6001600160a01b03167f8c5be1e5ebec7d5bd14f71427d1e84f3dd0314c0f7b2291e5b200ac8c7c3b92560405160405180910390a45050565b6000806111ad8361089e565b9050806001600160a01b0316846001600160a01b031614806111f457506001600160a01b0380821660009081526005602090815260408083209388168352929052205460ff165b80610d395750836001600160a01b031661120d84610661565b6001600160a01b031614949350505050565b826001600160a01b03166112328261089e565b6001600160a01b0316146112585760405162461bcd60e51b81526004016106fd90612964565b6001600160a01b0382166112ba5760405162461bcd60e51b8152602060048201526024808201527f4552433732313a207472616e7366657220746f20746865207a65726f206164646044820152637265737360e01b60648201526084016106fd565b6112c78383836001611723565b826001600160a01b03166112da8261089e565b6001600160a01b0316146113005760405162461bcd60e51b81526004016106fd90612964565b600081815260046020908152604080832080546001600160a01b03199081169091556001600160a01b0387811680865260038552838620805460001901905590871680865283862080546001019055868652600290945282852080549092168417909155905184937fddf252ad1be2c89b69c2b068fc378daa952ba7f163c4a11628f55a4df523b3ef91a4505050565b61113081336117ab565b6113a48282610ac3565b61087f5760008281526007602090815260408083206001600160a01b03851684529091529020805460ff191660011790556113dc3390565b6001600160a01b0316816001600160a01b0316837f2f8788117e7eff1d82e926ec794901d17c78024a50270940304540a733656f0d60405160405180910390a45050565b61142a8282610ac3565b1561087f5760008281526007602090815260408083206001600160a01b0385168085529252808320805460ff1916905551339285917ff6391f5c32d9c69d2a47ea670b442974b53935d1edc7fd64eb21e047a839171b9190a45050565b61087f828260405180602001604052806000815250611804565b6000828152600260205260409020546001600160a01b031661151c5760405162461bcd60e51b815260206004820152602e60248201527f45524337323155524953746f726167653a2055524920736574206f66206e6f6e60448201526d32bc34b9ba32b73a103a37b5b2b760911b60648201526084016106fd565b6000828152600660209081526040909120825161079e92840190612174565b60006105c9611548611837565b8360405161190160f01b6020820152602281018390526042810182905260009060620160405160208183030381529060405280519060200120905092915050565b6000806000611598858561195e565b915091506115a5816119a4565b509392505050565b816001600160a01b0316836001600160a01b0316141561160f5760405162461bcd60e51b815260206004820152601960248201527f4552433732313a20617070726f766520746f2063616c6c65720000000000000060448201526064016106fd565b6001600160a01b03838116600081815260056020908152604080832094871680845294825291829020805460ff191686151590811790915591519182527f17307eab39ab6107e8899845ad3d59bd9653f200f220920489ca2b5937696c31910160405180910390a3505050565b61168784848461121f565b61169384848484611af2565b610c2a5760405162461bcd60e51b81526004016106fd906129a9565b60606116ba826110d1565b60006116d160408051602081019091526000815290565b905060008151116116f1576040518060200160405280600081525061171c565b806116fb84611bfc565b60405160200161170c9291906128c5565b6040516020818303038152906040525b9392505050565b6001811115610c2a576001600160a01b03841615611769576001600160a01b038416600090815260036020526040812080548392906117639084906129fb565b90915550505b6001600160a01b03831615610c2a576001600160a01b038316600090815260036020526040812080548392906117a0908490612a12565b909155505050505050565b6117b58282610ac3565b61087f576117c281611c91565b6117cd836020611ca3565b6040516020016117de929190612a2a565b60408051601f198184030181529082905262461bcd60e51b82526106fd91600401612298565b61180e8383611e3f565b61181b6000848484611af2565b61079e5760405162461bcd60e51b81526004016106fd906129a9565b6000306001600160a01b037f00000000000000000000000000000000000000000000000000000000000000001614801561189057507f000000000000000000000000000000000000000000000000000000000000000046145b156118ba57507f000000000000000000000000000000000000000000000000000000000000000090565b50604080517f00000000000000000000000000000000000000000000000000000000000000006020808301919091527f0000000000000000000000000000000000000000000000000000000000000000828401527f000000000000000000000000000000000000000000000000000000000000000060608301524660808301523060a0808401919091528351808403909101815260c0909201909252805191012090565b6000808251604114156119955760208301516040840151606085015160001a61198987828585611fd8565b9450945050505061199d565b506000905060025b9250929050565b60008160048111156119b8576119b8612a9f565b14156119c15750565b60018160048111156119d5576119d5612a9f565b1415611a235760405162461bcd60e51b815260206004820152601860248201527f45434453413a20696e76616c6964207369676e6174757265000000000000000060448201526064016106fd565b6002816004811115611a3757611a37612a9f565b1415611a855760405162461bcd60e51b815260206004820152601f60248201527f45434453413a20696e76616c6964207369676e6174757265206c656e6774680060448201526064016106fd565b6003816004811115611a9957611a99612a9f565b14156111305760405162461bcd60e51b815260206004820152602260248201527f45434453413a20696e76616c6964207369676e6174757265202773272076616c604482015261756560f01b60648201526084016106fd565b60006001600160a01b0384163b15611bf457604051630a85bd0160e11b81526001600160a01b0385169063150b7a0290611b36903390899088908890600401612ab5565b602060405180830381600087803b158015611b5057600080fd5b505af1925050508015611b80575060408051601f3d908101601f19168201909252611b7d91810190612ae8565b60015b611bda573d808015611bae576040519150601f19603f3d011682016040523d82523d6000602084013e611bb3565b606091505b508051611bd25760405162461bcd60e51b81526004016106fd906129a9565b805181602001fd5b6001600160e01b031916630a85bd0160e11b149050610d39565b506001610d39565b60606000611c098361209c565b600101905060008167ffffffffffffffff811115611c2957611c2961238d565b6040519080825280601f01601f191660200182016040528015611c53576020820181803683370190505b5090508181016020015b600019016f181899199a1a9b1b9c1cb0b131b232b360811b600a86061a8153600a8504945084611c8c576115a5565b611c5d565b60606105c96001600160a01b03831660145b60606000611cb2836002612b05565b611cbd906002612a12565b67ffffffffffffffff811115611cd557611cd561238d565b6040519080825280601f01601f191660200182016040528015611cff576020820181803683370190505b509050600360fc1b81600081518110611d1a57611d1a612858565b60200101906001600160f81b031916908160001a905350600f60fb1b81600181518110611d4957611d49612858565b60200101906001600160f81b031916908160001a9053506000611d6d846002612b05565b611d78906001612a12565b90505b6001811115611df0576f181899199a1a9b1b9c1cb0b131b232b360811b85600f1660108110611dac57611dac612858565b1a60f81b828281518110611dc257611dc2612858565b60200101906001600160f81b031916908160001a90535060049490941c93611de981612b24565b9050611d7b565b50831561171c5760405162461bcd60e51b815260206004820181905260248201527f537472696e67733a20686578206c656e67746820696e73756666696369656e7460448201526064016106fd565b6001600160a01b038216611e955760405162461bcd60e51b815260206004820181905260248201527f4552433732313a206d696e7420746f20746865207a65726f206164647265737360448201526064016106fd565b6000818152600260205260409020546001600160a01b031615611efa5760405162461bcd60e51b815260206004820152601c60248201527f4552433732313a20746f6b656e20616c7265616479206d696e7465640000000060448201526064016106fd565b611f08600083836001611723565b6000818152600260205260409020546001600160a01b031615611f6d5760405162461bcd60e51b815260206004820152601c60248201527f4552433732313a20746f6b656e20616c7265616479206d696e7465640000000060448201526064016106fd565b6001600160a01b038216600081815260036020908152604080832080546001019055848352600290915280822080546001600160a01b0319168417905551839291907fddf252ad1be2c89b69c2b068fc378daa952ba7f163c4a11628f55a4df523b3ef908290a45050565b6000807f7fffffffffffffffffffffffffffffff5d576e7357a4501ddfe92f46681b20a083111561200f5750600090506003612093565b6040805160008082526020820180845289905260ff881692820192909252606081018690526080810185905260019060a0016020604051602081039080840390855afa158015612063573d6000803e3d6000fd5b5050604051601f1901519150506001600160a01b03811661208c57600060019250925050612093565b9150600090505b94509492505050565b60008072184f03e93ff9f4daa797ed6e38ed64bf6a1f0160401b83106120db5772184f03e93ff9f4daa797ed6e38ed64bf6a1f0160401b830492506040015b6d04ee2d6d415b85acef81000000008310612107576d04ee2d6d415b85acef8100000000830492506020015b662386f26fc10000831061212557662386f26fc10000830492506010015b6305f5e100831061213d576305f5e100830492506008015b612710831061215157612710830492506004015b60648310612163576064830492506002015b600a83106105c95760010192915050565b828054612180906127a5565b90600052602060002090601f0160209004810192826121a257600085556121e8565b82601f106121bb57805160ff19168380011785556121e8565b828001600101855582156121e8579182015b828111156121e85782518255916020019190600101906121cd565b506121f49291506121f8565b5090565b5b808211156121f457600081556001016121f9565b6001600160e01b03198116811461113057600080fd5b60006020828403121561223557600080fd5b813561171c8161220d565b60005b8381101561225b578181015183820152602001612243565b83811115610c2a5750506000910152565b60008151808452612284816020860160208601612240565b601f01601f19169290920160200192915050565b60208152600061171c602083018461226c565b6000602082840312156122bd57600080fd5b5035919050565b80356001600160a01b03811681146122db57600080fd5b919050565b600080604083850312156122f357600080fd5b6122fc836122c4565b946020939093013593505050565b60008060006060848603121561231f57600080fd5b612328846122c4565b9250612336602085016122c4565b9150604084013590509250925092565b60006020828403121561235857600080fd5b61171c826122c4565b6000806040838503121561237457600080fd5b82359150612384602084016122c4565b90509250929050565b634e487b7160e01b600052604160045260246000fd5b604051601f8201601f1916810167ffffffffffffffff811182821017156123cc576123cc61238d565b604052919050565b600067ffffffffffffffff8311156123ee576123ee61238d565b612401601f8401601f19166020016123a3565b905082815283838301111561241557600080fd5b828260208301376000602084830101529392505050565b600082601f83011261243d57600080fd5b61171c838335602085016123d4565b6000602080838503121561245f57600080fd5b823567ffffffffffffffff8082111561247757600080fd5b818501915085601f83011261248b57600080fd5b81358181111561249d5761249d61238d565b8060051b6124ac8582016123a3565b91825283810185019185810190898411156124c657600080fd5b86860192505b83831015612502578235858111156124e45760008081fd5b6124f28b89838a010161242c565b83525091860191908601906124cc565b9998505050505050505050565b60006060828403121561252157600080fd5b50919050565b60008083601f84011261253957600080fd5b50813567ffffffffffffffff81111561255157600080fd5b60208301915083602082850101111561199d57600080fd5b60008060006040848603121561257e57600080fd5b833567ffffffffffffffff8082111561259657600080fd5b6125a28783880161250f565b945060208601359150808211156125b857600080fd5b506125c586828701612527565b9497909650939450505050565b801515811461113057600080fd5b600080604083850312156125f357600080fd5b6125fc836122c4565b9150602083013561260c816125d2565b809150509250929050565b6000806000806080858703121561262d57600080fd5b612636856122c4565b9350612644602086016122c4565b925060408501359150606085013567ffffffffffffffff81111561266757600080fd5b8501601f8101871361267857600080fd5b612687878235602084016123d4565b91505092959194509250565b6000602082840312156126a557600080fd5b813567ffffffffffffffff8111156126bc57600080fd5b610d398482850161242c565b600080604083850312156126db57600080fd5b6126e4836122c4565b9150612384602084016122c4565b6000806000806060858703121561270857600080fd5b612711856122c4565b9350602085013567ffffffffffffffff8082111561272e57600080fd5b61273a8883890161250f565b9450604087013591508082111561275057600080fd5b5061275d87828801612527565b95989497509550505050565b60008060006060848603121561277e57600080fd5b8335925061278e602085016122c4565b915061279c604085016122c4565b90509250925092565b600181811c908216806127b957607f821691505b6020821081141561252157634e487b7160e01b600052602260045260246000fd5b6020808252602d908201527f4552433732313a2063616c6c6572206973206e6f7420746f6b656e206f776e6560408201526c1c881bdc88185c1c1c9bdd9959609a1b606082015260800190565b634e487b7160e01b600052601160045260246000fd5b600060001982141561285157612851612827565b5060010190565b634e487b7160e01b600052603260045260246000fd5b6000808335601e1984360301811261288557600080fd5b83018035915067ffffffffffffffff8211156128a057600080fd5b60200191503681900382131561199d57600080fd5b8183823760009101908152919050565b600083516128d7818460208801612240565b8351908301906128eb818360208801612240565b01949350505050565b60006020828403121561290657600080fd5b815161171c816125d2565b6001600160a01b0386811682528516602082015260806040820181905281018390526000838560a0840137600060a0858401015260a0601f19601f86011683010190508260608301529695505050505050565b60208082526025908201527f4552433732313a207472616e736665722066726f6d20696e636f72726563742060408201526437bbb732b960d91b606082015260800190565b60208082526032908201527f4552433732313a207472616e7366657220746f206e6f6e20455243373231526560408201527131b2b4bb32b91034b6b83632b6b2b73a32b960711b606082015260800190565b600082821015612a0d57612a0d612827565b500390565b60008219821115612a2557612a25612827565b500190565b7f416363657373436f6e74726f6c3a206163636f756e7420000000000000000000815260008351612a62816017850160208801612240565b7001034b99036b4b9b9b4b733903937b6329607d1b6017918401918201528351612a93816028840160208801612240565b01602801949350505050565b634e487b7160e01b600052602160045260246000fd5b6001600160a01b0385811682528416602082015260408101839052608060608201819052600090610be39083018461226c565b600060208284031215612afa57600080fd5b815161171c8161220d565b6000816000190483118215151615612b1f57612b1f612827565b500290565b600081612b3357612b33612827565b50600019019056fea264697066735822122010b7bfd854fe5cf2f068d3f011fbf31aeb78e39532a10fbdb9b6d2e5b6d5b57764736f6c63430008090033a2646970667358221220228f0f99d0666e4e9b7f6585799e8974fc7104882f82afbc1cc2a7a50ccf8ab564736f6c6343000809003361014060405260006008553480156200001757600080fd5b5060405162003006380380620030068339810160408190526200003a916200039e565b604051806040016040528060078152602001662b37bab1b432b960c91b815250604051806040016040528060018152602001600d60fa1b815250838381600090805190602001906200008e9291906200022b565b508051620000a49060019060208401906200022b565b5050825160209384012082519284019290922060e08390526101008190524660a0818152604080517f8b73c3c69bb8fe3d512ecc4cf759cc79239f7b179b0ffacaa9a75d522b39400f818901819052818301979097526060810194909452608080850193909352308483018190528151808603909301835260c09485019091528151919096012090529290925261012052506200014360003362000177565b6200016f7f9f2df0fed2c77648de5860a4cc508cd0818c85b8b8a1ab4ceeef8d981c8956a63362000177565b505062000445565b62000183828262000187565b5050565b60008281526007602090815260408083206001600160a01b038516845290915290205460ff16620001835760008281526007602090815260408083206001600160a01b03851684529091529020805460ff19166001179055620001e73390565b6001600160a01b0316816001600160a01b0316837f2f8788117e7eff1d82e926ec794901d17c78024a50270940304540a733656f0d60405160405180910390a45050565b828054620002399062000408565b90600052602060002090601f0160209004810192826200025d5760008555620002a8565b82601f106200027857805160ff1916838001178555620002a8565b82800160010185558215620002a8579182015b82811115620002a85782518255916020019190600101906200028b565b50620002b6929150620002ba565b5090565b5b80821115620002b65760008155600101620002bb565b634e487b7160e01b600052604160045260246000fd5b600082601f830112620002f957600080fd5b81516001600160401b0380821115620003165762000316620002d1565b604051601f8301601f19908116603f01168101908282118183101715620003415762000341620002d1565b816040528381526020925086838588010111156200035e57600080fd5b600091505b8382101562000382578582018301518183018401529082019062000363565b83821115620003945760008385830101525b9695505050505050565b60008060408385031215620003b257600080fd5b82516001600160401b0380821115620003ca57600080fd5b620003d886838701620002e7565b93506020850151915080821115620003ef57600080fd5b50620003fe85828601620002e7565b9150509250929050565b600181811c908216806200041d57607f821691505b602082108114156200043f57634e487b7160e01b600052602260045260246000fd5b50919050565b60805160a05160c05160e0516101005161012051612b716200049560003960006118c101526000611910015260006118eb015260006118440152600061186e015260006118980152612b716000f3fe6080604052600436106101b75760003560e01c806391d14854116100ec578063c87b56dd1161008a578063d85d3d2711610064578063d85d3d2714610513578063e985e9c514610533578063f266494e1461057c578063feebcf191461058f57600080fd5b8063c87b56dd1461049f578063d5391393146104bf578063d547741f146104f357600080fd5b8063a217fddf116100c6578063a217fddf14610416578063a22cb4651461042b578063b88d4fde1461044b578063c49baebe1461046b57600080fd5b806391d14854146103c157806395d89b41146103e157806398b52140146103f657600080fd5b806324d7806c1161015957806342842e0e1161013357806342842e0e146103415780636352211e1461036157806370a08231146103815780637e3cdcb2146103a157600080fd5b806324d7806c146102e15780632f2ff15d1461030157806336568abe1461032157600080fd5b8063095ea7b311610195578063095ea7b31461024b57806317d70f7c1461026d57806323b872dd14610291578063248a9ca3146102b157600080fd5b806301ffc9a7146101bc57806306fdde03146101f1578063081812fc14610213575b600080fd5b3480156101c857600080fd5b506101dc6101d7366004612223565b6105af565b60405190151581526020015b60405180910390f35b3480156101fd57600080fd5b506102066105cf565b6040516101e89190612298565b34801561021f57600080fd5b5061023361022e3660046122ab565b610661565b6040516001600160a01b0390911681526020016101e8565b34801561025757600080fd5b5061026b6102663660046122e0565b610688565b005b34801561027957600080fd5b5061028360085481565b6040519081526020016101e8565b34801561029d57600080fd5b5061026b6102ac36600461230a565b6107a3565b3480156102bd57600080fd5b506102836102cc3660046122ab565b60009081526007602052604090206001015490565b3480156102ed57600080fd5b506101dc6102fc366004612346565b6107d4565b34801561030d57600080fd5b5061026b61031c366004612361565b6107e0565b34801561032d57600080fd5b5061026b61033c366004612361565b610805565b34801561034d57600080fd5b5061026b61035c36600461230a565b610883565b34801561036d57600080fd5b5061023361037c3660046122ab565b61089e565b34801561038d57600080fd5b5061028361039c366004612346565b6108fe565b3480156103ad57600080fd5b5061026b6103bc36600461244c565b610984565b3480156103cd57600080fd5b506101dc6103dc366004612361565b610ac3565b3480156103ed57600080fd5b50610206610aee565b34801561040257600080fd5b50610233610411366004612569565b610afd565b34801561042257600080fd5b50610283600081565b34801561043757600080fd5b5061026b6104463660046125e0565b610bed565b34801561045757600080fd5b5061026b610466366004612617565b610bf8565b34801561047757600080fd5b506102837f21702c8af46127c7fa207f89d0b0a8441bb32959a0ac7df790e9ab1a25c9892681565b3480156104ab57600080fd5b506102066104ba3660046122ab565b610c30565b3480156104cb57600080fd5b506102837f9f2df0fed2c77648de5860a4cc508cd0818c85b8b8a1ab4ceeef8d981c8956a681565b3480156104ff57600080fd5b5061026b61050e366004612361565b610d41565b34801561051f57600080fd5b5061026b61052e366004612693565b610d7f565b34801561053f57600080fd5b506101dc61054e3660046126c8565b6001600160a01b03918216600090815260056020908152604080832093909416825291909152205460ff1690565b61028361058a3660046126f2565b610e45565b34801561059b57600080fd5b5061026b6105aa366004612769565b611014565b60006105ba8261105c565b806105c957506105c9826110ac565b92915050565b6060600080546105de906127a5565b80601f016020809104026020016040519081016040528092919081815260200182805461060a906127a5565b80156106575780601f1061062c57610100808354040283529160200191610657565b820191906000526020600020905b81548152906001019060200180831161063a57829003601f168201915b5050505050905090565b600061066c826110d1565b506000908152600460205260409020546001600160a01b031690565b60006106938261089e565b9050806001600160a01b0316836001600160a01b031614156107065760405162461bcd60e51b815260206004820152602160248201527f4552433732313a20617070726f76616c20746f2063757272656e74206f776e656044820152603960f91b60648201526084015b60405180910390fd5b336001600160a01b03821614806107225750610722813361054e565b6107945760405162461bcd60e51b815260206004820152603d60248201527f4552433732313a20617070726f76652063616c6c6572206973206e6f7420746f60448201527f6b656e206f776e6572206f7220617070726f76656420666f7220616c6c00000060648201526084016106fd565b61079e8383611133565b505050565b6107ad33826111a1565b6107c95760405162461bcd60e51b81526004016106fd906127da565b61079e83838361121f565b60006105c98183610ac3565b6000828152600760205260409020600101546107fb81611390565b61079e838361139a565b6001600160a01b03811633146108755760405162461bcd60e51b815260206004820152602f60248201527f416363657373436f6e74726f6c3a2063616e206f6e6c792072656e6f756e636560448201526e103937b632b9903337b91039b2b63360891b60648201526084016106fd565b61087f8282611420565b5050565b61079e83838360405180602001604052806000815250610bf8565b6000818152600260205260408120546001600160a01b0316806105c95760405162461bcd60e51b8152602060048201526018602482015277115490cdcc8c4e881a5b9d985b1a59081d1bdad95b88125160421b60448201526064016106fd565b60006001600160a01b0382166109685760405162461bcd60e51b815260206004820152602960248201527f4552433732313a2061646472657373207a65726f206973206e6f7420612076616044820152683634b21037bbb732b960b91b60648201526084016106fd565b506001600160a01b031660009081526003602052604090205490565b6109ae7f9f2df0fed2c77648de5860a4cc508cd0818c85b8b8a1ab4ceeef8d981c8956a633610ac3565b6109e35760405162461bcd60e51b81526004016106fd906020808252600490820152630307830360e41b604082015260600190565b6096815110610a1d5760405162461bcd60e51b81526004016106fd906020808252600490820152633078303160e01b604082015260600190565b60005b8151811015610a815760088054906000610a398361283d565b9190505550610a4a33600854611487565b610a6f600854838381518110610a6257610a62612858565b60200260200101516114a1565b80610a798161283d565b915050610a20565b506008546040805133815260208101929092527ff19110224b531fe78a74ab0635c2c22b945f4c83b9d48d2c2240f765fe3de36791015b60405180910390a150565b60009182526007602090815260408084206001600160a01b0393909316845291905290205460ff1690565b6060600180546105de906127a5565b600080610b9f7fb7689325454471f2556966d8000aec5f1b975024d0dc92e6df6d7488a299f258610b2e878061286e565b604051610b3c9291906128b5565b60405180910390208760200135886040016020810190610b5c9190612346565b60408051602081019590955284019290925260608301526001600160a01b0316608082015260a0016040516020818303038152906040528051906020012061153b565b90506000610be38286868080601f01602080910402602001604051908101604052809392919081815260200183838082843760009201919091525061158992505050565b9695505050505050565b61087f3383836115ad565b610c0233836111a1565b610c1e5760405162461bcd60e51b81526004016106fd906127da565b610c2a8484848461167c565b50505050565b6060610c3b826110d1565b60008281526006602052604081208054610c54906127a5565b80601f0160208091040260200160405190810160405280929190818152602001828054610c80906127a5565b8015610ccd5780601f10610ca257610100808354040283529160200191610ccd565b820191906000526020600020905b815481529060010190602001808311610cb057829003601f168201915b505050505090506000610ceb60408051602081019091526000815290565b9050805160001415610cfe575092915050565b815115610d30578082604051602001610d189291906128c5565b60405160208183030381529060405292505050919050565b610d39846116af565b949350505050565b610d4a336107d4565b6108755760405162461bcd60e51b81526004016106fd90602080825260049082015263183c181960e11b604082015260600190565b610da97f9f2df0fed2c77648de5860a4cc508cd0818c85b8b8a1ab4ceeef8d981c8956a633610ac3565b610dde5760405162461bcd60e51b81526004016106fd906020808252600490820152630307830360e41b604082015260600190565b60088054906000610dee8361283d565b9190505550610dff33600854611487565b610e0b600854826114a1565b6008546040805133815260208101929092527ff19110224b531fe78a74ab0635c2c22b945f4c83b9d48d2c2240f765fe3de3679101610ab8565b600080610e53858585610afd565b9050610e7f7f21702c8af46127c7fa207f89d0b0a8441bb32959a0ac7df790e9ab1a25c9892682610ac3565b610eb45760405162461bcd60e51b81526004016106fd906020808252600490820152633078303360e01b604082015260600190565b60088054906000610ec48361283d565b9190505550610ed533600854611487565b600854610f2090610ee6878061286e565b8080601f0160208091040260200160405190810160405280939291908181526020018383808284376000920191909152506114a192505050565b610f306060860160408701612346565b6040516323b872dd60e01b81523360048201526001600160a01b0388811660248301526020880135604483015291909116906323b872dd90606401602060405180830381600087803b158015610f8557600080fd5b505af1158015610f99573d6000803e3d6000fd5b505050506040513d601f19601f82011682018060405250810190610fbd91906128f4565b507f22a703ecacac15a8221e7c517c83bb6fc160ec72b6303d7031d51aaaec517af68633610feb888061286e565b600854604051610fff959493929190612911565b60405180910390a15050600854949350505050565b61101d826107d4565b6110525760405162461bcd60e51b81526004016106fd906020808252600490820152633078303160e01b604082015260600190565b61079e838261139a565b60006001600160e01b031982166380ac58cd60e01b148061108d57506001600160e01b03198216635b5e139f60e01b145b806105c957506301ffc9a760e01b6001600160e01b03198316146105c9565b60006001600160e01b03198216637965db0b60e01b14806105c957506105c98261105c565b6000818152600260205260409020546001600160a01b03166111305760405162461bcd60e51b8152602060048201526018602482015277115490cdcc8c4e881a5b9d985b1a59081d1bdad95b88125160421b60448201526064016106fd565b50565b600081815260046020526040902080546001600160a01b0319166001600160a01b03841690811790915581906111688261089e565b6001600160a01b03167f8c5be1e5ebec7d5bd14f71427d1e84f3dd0314c0f7b2291e5b200ac8c7c3b92560405160405180910390a45050565b6000806111ad8361089e565b9050806001600160a01b0316846001600160a01b031614806111f457506001600160a01b0380821660009081526005602090815260408083209388168352929052205460ff165b80610d395750836001600160a01b031661120d84610661565b6001600160a01b031614949350505050565b826001600160a01b03166112328261089e565b6001600160a01b0316146112585760405162461bcd60e51b81526004016106fd90612964565b6001600160a01b0382166112ba5760405162461bcd60e51b8152602060048201526024808201527f4552433732313a207472616e7366657220746f20746865207a65726f206164646044820152637265737360e01b60648201526084016106fd565b6112c78383836001611723565b826001600160a01b03166112da8261089e565b6001600160a01b0316146113005760405162461bcd60e51b81526004016106fd90612964565b600081815260046020908152604080832080546001600160a01b03199081169091556001600160a01b0387811680865260038552838620805460001901905590871680865283862080546001019055868652600290945282852080549092168417909155905184937fddf252ad1be2c89b69c2b068fc378daa952ba7f163c4a11628f55a4df523b3ef91a4505050565b61113081336117ab565b6113a48282610ac3565b61087f5760008281526007602090815260408083206001600160a01b03851684529091529020805460ff191660011790556113dc3390565b6001600160a01b0316816001600160a01b0316837f2f8788117e7eff1d82e926ec794901d17c78024a50270940304540a733656f0d60405160405180910390a45050565b61142a8282610ac3565b1561087f5760008281526007602090815260408083206001600160a01b0385168085529252808320805460ff1916905551339285917ff6391f5c32d9c69d2a47ea670b442974b53935d1edc7fd64eb21e047a839171b9190a45050565b61087f828260405180602001604052806000815250611804565b6000828152600260205260409020546001600160a01b031661151c5760405162461bcd60e51b815260206004820152602e60248201527f45524337323155524953746f726167653a2055524920736574206f66206e6f6e60448201526d32bc34b9ba32b73a103a37b5b2b760911b60648201526084016106fd565b6000828152600660209081526040909120825161079e92840190612174565b60006105c9611548611837565b8360405161190160f01b6020820152602281018390526042810182905260009060620160405160208183030381529060405280519060200120905092915050565b6000806000611598858561195e565b915091506115a5816119a4565b509392505050565b816001600160a01b0316836001600160a01b0316141561160f5760405162461bcd60e51b815260206004820152601960248201527f4552433732313a20617070726f766520746f2063616c6c65720000000000000060448201526064016106fd565b6001600160a01b03838116600081815260056020908152604080832094871680845294825291829020805460ff191686151590811790915591519182527f17307eab39ab6107e8899845ad3d59bd9653f200f220920489ca2b5937696c31910160405180910390a3505050565b61168784848461121f565b61169384848484611af2565b610c2a5760405162461bcd60e51b81526004016106fd906129a9565b60606116ba826110d1565b60006116d160408051602081019091526000815290565b905060008151116116f1576040518060200160405280600081525061171c565b806116fb84611bfc565b60405160200161170c9291906128c5565b6040516020818303038152906040525b9392505050565b6001811115610c2a576001600160a01b03841615611769576001600160a01b038416600090815260036020526040812080548392906117639084906129fb565b90915550505b6001600160a01b03831615610c2a576001600160a01b038316600090815260036020526040812080548392906117a0908490612a12565b909155505050505050565b6117b58282610ac3565b61087f576117c281611c91565b6117cd836020611ca3565b6040516020016117de929190612a2a565b60408051601f198184030181529082905262461bcd60e51b82526106fd91600401612298565b61180e8383611e3f565b61181b6000848484611af2565b61079e5760405162461bcd60e51b81526004016106fd906129a9565b6000306001600160a01b037f00000000000000000000000000000000000000000000000000000000000000001614801561189057507f000000000000000000000000000000000000000000000000000000000000000046145b156118ba57507f000000000000000000000000000000000000000000000000000000000000000090565b50604080517f00000000000000000000000000000000000000000000000000000000000000006020808301919091527f0000000000000000000000000000000000000000000000000000000000000000828401527f000000000000000000000000000000000000000000000000000000000000000060608301524660808301523060a0808401919091528351808403909101815260c0909201909252805191012090565b6000808251604114156119955760208301516040840151606085015160001a61198987828585611fd8565b9450945050505061199d565b506000905060025b9250929050565b60008160048111156119b8576119b8612a9f565b14156119c15750565b60018160048111156119d5576119d5612a9f565b1415611a235760405162461bcd60e51b815260206004820152601860248201527f45434453413a20696e76616c6964207369676e6174757265000000000000000060448201526064016106fd565b6002816004811115611a3757611a37612a9f565b1415611a855760405162461bcd60e51b815260206004820152601f60248201527f45434453413a20696e76616c6964207369676e6174757265206c656e6774680060448201526064016106fd565b6003816004811115611a9957611a99612a9f565b14156111305760405162461bcd60e51b815260206004820152602260248201527f45434453413a20696e76616c6964207369676e6174757265202773272076616c604482015261756560f01b60648201526084016106fd565b60006001600160a01b0384163b15611bf457604051630a85bd0160e11b81526001600160a01b0385169063150b7a0290611b36903390899088908890600401612ab5565b602060405180830381600087803b158015611b5057600080fd5b505af1925050508015611b80575060408051601f3d908101601f19168201909252611b7d91810190612ae8565b60015b611bda573d808015611bae576040519150601f19603f3d011682016040523d82523d6000602084013e611bb3565b606091505b508051611bd25760405162461bcd60e51b81526004016106fd906129a9565b805181602001fd5b6001600160e01b031916630a85bd0160e11b149050610d39565b506001610d39565b60606000611c098361209c565b600101905060008167ffffffffffffffff811115611c2957611c2961238d565b6040519080825280601f01601f191660200182016040528015611c53576020820181803683370190505b5090508181016020015b600019016f181899199a1a9b1b9c1cb0b131b232b360811b600a86061a8153600a8504945084611c8c576115a5565b611c5d565b60606105c96001600160a01b03831660145b60606000611cb2836002612b05565b611cbd906002612a12565b67ffffffffffffffff811115611cd557611cd561238d565b6040519080825280601f01601f191660200182016040528015611cff576020820181803683370190505b509050600360fc1b81600081518110611d1a57611d1a612858565b60200101906001600160f81b031916908160001a905350600f60fb1b81600181518110611d4957611d49612858565b60200101906001600160f81b031916908160001a9053506000611d6d846002612b05565b611d78906001612a12565b90505b6001811115611df0576f181899199a1a9b1b9c1cb0b131b232b360811b85600f1660108110611dac57611dac612858565b1a60f81b828281518110611dc257611dc2612858565b60200101906001600160f81b031916908160001a90535060049490941c93611de981612b24565b9050611d7b565b50831561171c5760405162461bcd60e51b815260206004820181905260248201527f537472696e67733a20686578206c656e67746820696e73756666696369656e7460448201526064016106fd565b6001600160a01b038216611e955760405162461bcd60e51b815260206004820181905260248201527f4552433732313a206d696e7420746f20746865207a65726f206164647265737360448201526064016106fd565b6000818152600260205260409020546001600160a01b031615611efa5760405162461bcd60e51b815260206004820152601c60248201527f4552433732313a20746f6b656e20616c7265616479206d696e7465640000000060448201526064016106fd565b611f08600083836001611723565b6000818152600260205260409020546001600160a01b031615611f6d5760405162461bcd60e51b815260206004820152601c60248201527f4552433732313a20746f6b656e20616c7265616479206d696e7465640000000060448201526064016106fd565b6001600160a01b038216600081815260036020908152604080832080546001019055848352600290915280822080546001600160a01b0319168417905551839291907fddf252ad1be2c89b69c2b068fc378daa952ba7f163c4a11628f55a4df523b3ef908290a45050565b6000807f7fffffffffffffffffffffffffffffff5d576e7357a4501ddfe92f46681b20a083111561200f5750600090506003612093565b6040805160008082526020820180845289905260ff881692820192909252606081018690526080810185905260019060a0016020604051602081039080840390855afa158015612063573d6000803e3d6000fd5b5050604051601f1901519150506001600160a01b03811661208c57600060019250925050612093565b9150600090505b94509492505050565b60008072184f03e93ff9f4daa797ed6e38ed64bf6a1f0160401b83106120db5772184f03e93ff9f4daa797ed6e38ed64bf6a1f0160401b830492506040015b6d04ee2d6d415b85acef81000000008310612107576d04ee2d6d415b85acef8100000000830492506020015b662386f26fc10000831061212557662386f26fc10000830492506010015b6305f5e100831061213d576305f5e100830492506008015b612710831061215157612710830492506004015b60648310612163576064830492506002015b600a83106105c95760010192915050565b828054612180906127a5565b90600052602060002090601f0160209004810192826121a257600085556121e8565b82601f106121bb57805160ff19168380011785556121e8565b828001600101855582156121e8579182015b828111156121e85782518255916020019190600101906121cd565b506121f49291506121f8565b5090565b5b808211156121f457600081556001016121f9565b6001600160e01b03198116811461113057600080fd5b60006020828403121561223557600080fd5b813561171c8161220d565b60005b8381101561225b578181015183820152602001612243565b83811115610c2a5750506000910152565b60008151808452612284816020860160208601612240565b601f01601f19169290920160200192915050565b60208152600061171c602083018461226c565b6000602082840312156122bd57600080fd5b5035919050565b80356001600160a01b03811681146122db57600080fd5b919050565b600080604083850312156122f357600080fd5b6122fc836122c4565b946020939093013593505050565b60008060006060848603121561231f57600080fd5b612328846122c4565b9250612336602085016122c4565b9150604084013590509250925092565b60006020828403121561235857600080fd5b61171c826122c4565b6000806040838503121561237457600080fd5b82359150612384602084016122c4565b90509250929050565b634e487b7160e01b600052604160045260246000fd5b604051601f8201601f1916810167ffffffffffffffff811182821017156123cc576123cc61238d565b604052919050565b600067ffffffffffffffff8311156123ee576123ee61238d565b612401601f8401601f19166020016123a3565b905082815283838301111561241557600080fd5b828260208301376000602084830101529392505050565b600082601f83011261243d57600080fd5b61171c838335602085016123d4565b6000602080838503121561245f57600080fd5b823567ffffffffffffffff8082111561247757600080fd5b818501915085601f83011261248b57600080fd5b81358181111561249d5761249d61238d565b8060051b6124ac8582016123a3565b91825283810185019185810190898411156124c657600080fd5b86860192505b83831015612502578235858111156124e45760008081fd5b6124f28b89838a010161242c565b83525091860191908601906124cc565b9998505050505050505050565b60006060828403121561252157600080fd5b50919050565b60008083601f84011261253957600080fd5b50813567ffffffffffffffff81111561255157600080fd5b60208301915083602082850101111561199d57600080fd5b60008060006040848603121561257e57600080fd5b833567ffffffffffffffff8082111561259657600080fd5b6125a28783880161250f565b945060208601359150808211156125b857600080fd5b506125c586828701612527565b9497909650939450505050565b801515811461113057600080fd5b600080604083850312156125f357600080fd5b6125fc836122c4565b9150602083013561260c816125d2565b809150509250929050565b6000806000806080858703121561262d57600080fd5b612636856122c4565b9350612644602086016122c4565b925060408501359150606085013567ffffffffffffffff81111561266757600080fd5b8501601f8101871361267857600080fd5b612687878235602084016123d4565b91505092959194509250565b6000602082840312156126a557600080fd5b813567ffffffffffffffff8111156126bc57600080fd5b610d398482850161242c565b600080604083850312156126db57600080fd5b6126e4836122c4565b9150612384602084016122c4565b6000806000806060858703121561270857600080fd5b612711856122c4565b9350602085013567ffffffffffffffff8082111561272e57600080fd5b61273a8883890161250f565b9450604087013591508082111561275057600080fd5b5061275d87828801612527565b95989497509550505050565b60008060006060848603121561277e57600080fd5b8335925061278e602085016122c4565b915061279c604085016122c4565b90509250925092565b600181811c908216806127b957607f821691505b6020821081141561252157634e487b7160e01b600052602260045260246000fd5b6020808252602d908201527f4552433732313a2063616c6c6572206973206e6f7420746f6b656e206f776e6560408201526c1c881bdc88185c1c1c9bdd9959609a1b606082015260800190565b634e487b7160e01b600052601160045260246000fd5b600060001982141561285157612851612827565b5060010190565b634e487b7160e01b600052603260045260246000fd5b6000808335601e1984360301811261288557600080fd5b83018035915067ffffffffffffffff8211156128a057600080fd5b60200191503681900382131561199d57600080fd5b8183823760009101908152919050565b600083516128d7818460208801612240565b8351908301906128eb818360208801612240565b01949350505050565b60006020828403121561290657600080fd5b815161171c816125d2565b6001600160a01b0386811682528516602082015260806040820181905281018390526000838560a0840137600060a0858401015260a0601f19601f86011683010190508260608301529695505050505050565b60208082526025908201527f4552433732313a207472616e736665722066726f6d20696e636f72726563742060408201526437bbb732b960d91b606082015260800190565b60208082526032908201527f4552433732313a207472616e7366657220746f206e6f6e20455243373231526560408201527131b2b4bb32b91034b6b83632b6b2b73a32b960711b606082015260800190565b600082821015612a0d57612a0d612827565b500390565b60008219821115612a2557612a25612827565b500190565b7f416363657373436f6e74726f6c3a206163636f756e7420000000000000000000815260008351612a62816017850160208801612240565b7001034b99036b4b9b9b4b733903937b6329607d1b6017918401918201528351612a93816028840160208801612240565b01602801949350505050565b634e487b7160e01b600052602160045260246000fd5b6001600160a01b0385811682528416602082015260408101839052608060608201819052600090610be39083018461226c565b600060208284031215612afa57600080fd5b815161171c8161220d565b6000816000190483118215151615612b1f57612b1f612827565b500290565b600081612b3357612b33612827565b50600019019056fea264697066735822122010b7bfd854fe5cf2f068d3f011fbf31aeb78e39532a10fbdb9b6d2e5b6d5b57764736f6c63430008090033",
  "linkReferences": {},
  "deployedLinkReferences": {}
}