{
	"_format": "hh-sol-artifact-1",
	"contractName": "GalileoFactory",
	"sourceName": "contracts/Factory.sol",
	"abi": [
		{
			"inputs": [],
			"stateMutability": "nonpayable",
			"type": "constructor"
		},
		{
			"anonymous": false,
			"inputs": [
				{
					"indexed": false,
					"internalType": "address",
					"name": "_mintingContract",
					"type": "address"
				}
			],
			"name": "GalileoProtocolDeployed",
			"type": "event"
		},
		{
			"anonymous": false,
			"inputs": [
				{
					"indexed": true,
					"internalType": "bytes32",
					"name": "role",
					"type": "bytes32"
				},
				{
					"indexed": true,
					"internalType": "bytes32",
					"name": "previousAdminRole",
					"type": "bytes32"
				},
				{
					"indexed": true,
					"internalType": "bytes32",
					"name": "newAdminRole",
					"type": "bytes32"
				}
			],
			"name": "RoleAdminChanged",
			"type": "event"
		},
		{
			"anonymous": false,
			"inputs": [
				{
					"indexed": true,
					"internalType": "bytes32",
					"name": "role",
					"type": "bytes32"
				},
				{
					"indexed": true,
					"internalType": "address",
					"name": "account",
					"type": "address"
				},
				{
					"indexed": true,
					"internalType": "address",
					"name": "sender",
					"type": "address"
				}
			],
			"name": "RoleGranted",
			"type": "event"
		},
		{
			"anonymous": false,
			"inputs": [
				{
					"indexed": true,
					"internalType": "bytes32",
					"name": "role",
					"type": "bytes32"
				},
				{
					"indexed": true,
					"internalType": "address",
					"name": "account",
					"type": "address"
				},
				{
					"indexed": true,
					"internalType": "address",
					"name": "sender",
					"type": "address"
				}
			],
			"name": "RoleRevoked",
			"type": "event"
		},
		{
			"inputs": [],
			"name": "DEFAULT_ADMIN_ROLE",
			"outputs": [
				{
					"internalType": "bytes32",
					"name": "",
					"type": "bytes32"
				}
			],
			"stateMutability": "view",
			"type": "function"
		},
		{
			"inputs": [],
			"name": "DEPLOYER_ROLE",
			"outputs": [
				{
					"internalType": "bytes32",
					"name": "",
					"type": "bytes32"
				}
			],
			"stateMutability": "view",
			"type": "function"
		},
		{
			"inputs": [
				{
					"internalType": "string",
					"name": "_name",
					"type": "string"
				},
				{
					"internalType": "string",
					"name": "_symbol",
					"type": "string"
				},
				{
					"internalType": "uint256",
					"name": "_fee",
					"type": "uint256"
				},
				{
					"internalType": "address",
					"name": "_marketplace",
					"type": "address"
				}
			],
			"name": "deployMintingContract",
			"outputs": [],
			"stateMutability": "nonpayable",
			"type": "function"
		},
		{
			"inputs": [],
			"name": "getNFTaddress",
			"outputs": [
				{
					"internalType": "contract GalileoProtocol[]",
					"name": "",
					"type": "address[]"
				}
			],
			"stateMutability": "view",
			"type": "function"
		},
		{
			"inputs": [
				{
					"internalType": "bytes32",
					"name": "role",
					"type": "bytes32"
				}
			],
			"name": "getRoleAdmin",
			"outputs": [
				{
					"internalType": "bytes32",
					"name": "",
					"type": "bytes32"
				}
			],
			"stateMutability": "view",
			"type": "function"
		},
		{
			"inputs": [
				{
					"internalType": "bytes32",
					"name": "role",
					"type": "bytes32"
				},
				{
					"internalType": "address",
					"name": "account",
					"type": "address"
				}
			],
			"name": "grantRole",
			"outputs": [],
			"stateMutability": "nonpayable",
			"type": "function"
		},
		{
			"inputs": [
				{
					"internalType": "bytes32",
					"name": "role",
					"type": "bytes32"
				},
				{
					"internalType": "address",
					"name": "account",
					"type": "address"
				}
			],
			"name": "hasRole",
			"outputs": [
				{
					"internalType": "bool",
					"name": "",
					"type": "bool"
				}
			],
			"stateMutability": "view",
			"type": "function"
		},
		{
			"inputs": [
				{
					"internalType": "uint256",
					"name": "",
					"type": "uint256"
				}
			],
			"name": "nftContractAddress",
			"outputs": [
				{
					"internalType": "contract GalileoProtocol",
					"name": "",
					"type": "address"
				}
			],
			"stateMutability": "view",
			"type": "function"
		},
		{
			"inputs": [
				{
					"internalType": "bytes32",
					"name": "role",
					"type": "bytes32"
				},
				{
					"internalType": "address",
					"name": "account",
					"type": "address"
				}
			],
			"name": "renounceRole",
			"outputs": [],
			"stateMutability": "nonpayable",
			"type": "function"
		},
		{
			"inputs": [
				{
					"internalType": "bytes32",
					"name": "role",
					"type": "bytes32"
				},
				{
					"internalType": "address",
					"name": "account",
					"type": "address"
				}
			],
			"name": "revokeRole",
			"outputs": [],
			"stateMutability": "nonpayable",
			"type": "function"
		},
		{
			"inputs": [
				{
					"internalType": "bytes4",
					"name": "interfaceId",
					"type": "bytes4"
				}
			],
			"name": "supportsInterface",
			"outputs": [
				{
					"internalType": "bool",
					"name": "",
					"type": "bool"
				}
			],
			"stateMutability": "view",
			"type": "function"
		}
	],
	"bytecode": "0x608060405234801561001057600080fd5b5061001c60003361004b565b6100467ffc425f2263d0df187444b70e47283d622c70181c5baebb1306a01edba1ce184c3361004b565b6100f7565b6100558282610059565b5050565b6000828152602081815260408083206001600160a01b038516845290915290205460ff16610055576000828152602081815260408083206001600160a01b03851684529091529020805460ff191660011790556100b33390565b6001600160a01b0316816001600160a01b0316837f2f8788117e7eff1d82e926ec794901d17c78024a50270940304540a733656f0d60405160405180910390a45050565b6140d7806101066000396000f3fe60806040523480156200001157600080fd5b5060043610620000b75760003560e01c806391d14854116200007a57806391d14854146200017d578063a007e0eb1462000194578063a217fddf14620001ad578063d547741f14620001b6578063ecd0026114620001cd578063ed6f95b714620001f557600080fd5b806301ffc9a714620000bc578063248a9ca314620000e85780632f2ff15d146200011d57806336568abe14620001365780636b687579146200014d575b600080fd5b620000d3620000cd36600462000812565b6200020c565b60405190151581526020015b60405180910390f35b6200010e620000f93660046200083e565b60009081526020819052604090206001015490565b604051908152602001620000df565b620001346200012e36600462000875565b62000244565b005b620001346200014736600462000875565b62000272565b620001646200015e3660046200083e565b620002f8565b6040516001600160a01b039091168152602001620000df565b620000d36200018e36600462000875565b62000323565b6200019e6200034c565b604051620000df9190620008a4565b6200010e600081565b62000134620001c736600462000875565b620003b0565b6200010e7ffc425f2263d0df187444b70e47283d622c70181c5baebb1306a01edba1ce184c81565b62000134620002063660046200099e565b620003d9565b60006001600160e01b03198216637965db0b60e01b14806200023e57506301ffc9a760e01b6001600160e01b03198316145b92915050565b6000828152602081905260409020600101546200026181620004d5565b6200026d8383620004e4565b505050565b6001600160a01b0381163314620002e85760405162461bcd60e51b815260206004820152602f60248201527f416363657373436f6e74726f6c3a2063616e206f6e6c792072656e6f756e636560448201526e103937b632b9903337b91039b2b63360891b60648201526084015b60405180910390fd5b620002f482826200056c565b5050565b600181815481106200030957600080fd5b6000918252602090912001546001600160a01b0316905081565b6000918252602082815260408084206001600160a01b0393909316845291905290205460ff1690565b60606001805480602002602001604051908101604052809291908181526020018280548015620003a657602002820191906000526020600020905b81546001600160a01b0316815260019091019060200180831162000387575b5050505050905090565b600082815260208190526040902060010154620003cd81620004d5565b6200026d83836200056c565b7ffc425f2263d0df187444b70e47283d622c70181c5baebb1306a01edba1ce184c6200040581620004d5565b60008585333387876040516200041b9062000804565b6200042c9695949392919062000a86565b604051809103906000f08015801562000449573d6000803e3d6000fd5b506001805480820182556000919091527fb10e2d527612073b26eecdfd717e6a320cf44b4afac2b0732d9fcbe2b7fa0cf60180546001600160a01b0319166001600160a01b0383169081179091556040519081529091507f544385397d5c8bfe2d93ab8b97961c9ac1c354fd0313724aab092338de77c9a59060200160405180910390a1505050505050565b620004e18133620005d4565b50565b620004f0828262000323565b620002f4576000828152602081815260408083206001600160a01b03851684529091529020805460ff19166001179055620005283390565b6001600160a01b0316816001600160a01b0316837f2f8788117e7eff1d82e926ec794901d17c78024a50270940304540a733656f0d60405160405180910390a45050565b62000578828262000323565b15620002f4576000828152602081815260408083206001600160a01b0385168085529252808320805460ff1916905551339285917ff6391f5c32d9c69d2a47ea670b442974b53935d1edc7fd64eb21e047a839171b9190a45050565b620005e0828262000323565b620002f457620005fb816001600160a01b0316601462000643565b6200060883602062000643565b6040516020016200061b92919062000ae3565b60408051601f198184030181529082905262461bcd60e51b8252620002df9160040162000b5c565b606060006200065483600262000b87565b6200066190600262000ba9565b67ffffffffffffffff8111156200067c576200067c620008f3565b6040519080825280601f01601f191660200182016040528015620006a7576020820181803683370190505b509050600360fc1b81600081518110620006c557620006c562000bc4565b60200101906001600160f81b031916908160001a905350600f60fb1b81600181518110620006f757620006f762000bc4565b60200101906001600160f81b031916908160001a90535060006200071d84600262000b87565b6200072a90600162000ba9565b90505b6001811115620007ac576f181899199a1a9b1b9c1cb0b131b232b360811b85600f166010811062000762576200076262000bc4565b1a60f81b8282815181106200077b576200077b62000bc4565b60200101906001600160f81b031916908160001a90535060049490941c93620007a48162000bda565b90506200072d565b508315620007fd5760405162461bcd60e51b815260206004820181905260248201527f537472696e67733a20686578206c656e67746820696e73756666696369656e746044820152606401620002df565b9392505050565b6134ad8062000bf583390190565b6000602082840312156200082557600080fd5b81356001600160e01b031981168114620007fd57600080fd5b6000602082840312156200085157600080fd5b5035919050565b80356001600160a01b03811681146200087057600080fd5b919050565b600080604083850312156200088957600080fd5b823591506200089b6020840162000858565b90509250929050565b6020808252825182820181905260009190848201906040850190845b81811015620008e75783516001600160a01b031683529284019291840191600101620008c0565b50909695505050505050565b634e487b7160e01b600052604160045260246000fd5b600082601f8301126200091b57600080fd5b813567ffffffffffffffff80821115620009395762000939620008f3565b604051601f8301601f19908116603f01168101908282118183101715620009645762000964620008f3565b816040528381528660208588010111156200097e57600080fd5b836020870160208301376000602085830101528094505050505092915050565b60008060008060808587031215620009b557600080fd5b843567ffffffffffffffff80821115620009ce57600080fd5b620009dc8883890162000909565b95506020870135915080821115620009f357600080fd5b5062000a028782880162000909565b9350506040850135915062000a1a6060860162000858565b905092959194509250565b60005b8381101562000a4257818101518382015260200162000a28565b8381111562000a52576000848401525b50505050565b6000815180845262000a7281602086016020860162000a25565b601f01601f19169290920160200192915050565b60c08152600062000a9b60c083018962000a58565b828103602084015262000aaf818962000a58565b6001600160a01b03978816604085015295871660608401525050608081019290925290921660a09092019190915292915050565b7f416363657373436f6e74726f6c3a206163636f756e742000000000000000000081526000835162000b1d81601785016020880162000a25565b7001034b99036b4b9b9b4b733903937b6329607d1b601791840191820152835162000b5081602884016020880162000a25565b01602801949350505050565b602081526000620007fd602083018462000a58565b634e487b7160e01b600052601160045260246000fd5b600081600019048311821515161562000ba45762000ba462000b71565b500290565b6000821982111562000bbf5762000bbf62000b71565b500190565b634e487b7160e01b600052603260045260246000fd5b60008162000bec5762000bec62000b71565b50600019019056fe6101406040523480156200001257600080fd5b50604051620034ad380380620034ad8339810160408190526200003591620003e7565b6040518060400160405280601081526020016f11d85b1a5b195bcb541c9bdd1bd8dbdb60821b815250604051806040016040528060018152602001603160f81b815250878781600090805190602001906200009292919062000257565b508051620000a890600190602084019062000257565b5050825160209384012082519284019290922060e08390526101008190524660a0818152604080517f8b73c3c69bb8fe3d512ecc4cf759cc79239f7b179b0ffacaa9a75d522b39400f818901819052818301979097526060810194909452608080850193909352308483018190528151808603909301835260c094850190915281519190960120905292909252610120525062000147600085620001a3565b620001737fd2e4c2619ea6e0faebc405d89445161c041e30fe03373ea0473da142d57d451484620001a3565b600991909155600a80546001600160a01b0319166001600160a01b0390921691909117905550620004ce92505050565b620001af8282620001b3565b5050565b60008281526007602090815260408083206001600160a01b038516845290915290205460ff16620001af5760008281526007602090815260408083206001600160a01b03851684529091529020805460ff19166001179055620002133390565b6001600160a01b0316816001600160a01b0316837f2f8788117e7eff1d82e926ec794901d17c78024a50270940304540a733656f0d60405160405180910390a45050565b828054620002659062000491565b90600052602060002090601f016020900481019282620002895760008555620002d4565b82601f10620002a457805160ff1916838001178555620002d4565b82800160010185558215620002d4579182015b82811115620002d4578251825591602001919060010190620002b7565b50620002e2929150620002e6565b5090565b5b80821115620002e25760008155600101620002e7565b634e487b7160e01b600052604160045260246000fd5b600082601f8301126200032557600080fd5b81516001600160401b0380821115620003425762000342620002fd565b604051601f8301601f19908116603f011681019082821181831017156200036d576200036d620002fd565b816040528381526020925086838588010111156200038a57600080fd5b600091505b83821015620003ae57858201830151818301840152908201906200038f565b83821115620003c05760008385830101525b9695505050505050565b80516001600160a01b0381168114620003e257600080fd5b919050565b60008060008060008060c087890312156200040157600080fd5b86516001600160401b03808211156200041957600080fd5b620004278a838b0162000313565b975060208901519150808211156200043e57600080fd5b506200044d89828a0162000313565b9550506200045e60408801620003ca565b93506200046e60608801620003ca565b9250608087015191506200048560a08801620003ca565b90509295509295509295565b600181811c90821680620004a657607f821691505b60208210811415620004c857634e487b7160e01b600052602260045260246000fd5b50919050565b60805160a05160c05160e0516101005161012051612f8f6200051e600039600061211b0152600061216a015260006121450152600061209e015260006120c8015260006120f20152612f8f6000f3fe6080604052600436106101cd5760003560e01c80635f5d1aa3116100f757806395d89b4111610095578063b88d4fde11610064578063b88d4fde1461059c578063c87b56dd146105bc578063d547741f146105dc578063e985e9c5146105fc57600080fd5b806395d89b41146104c05780639e6eda18146104d5578063a217fddf14610567578063a22cb4651461057c57600080fd5b806370a08231116100d157806370a082311461044d57806373fee0901461046d57806389cd9e9d1461048d57806391d14854146104a057600080fd5b80635f5d1aa3146103ed57806360c6a3c81461040d5780636352211e1461042d57600080fd5b80630cda45c81161016f578063248a9ca31161013e578063248a9ca31461035d5780632f2ff15d1461038d57806336568abe146103ad57806342842e0e146103cd57600080fd5b80630cda45c8146103005780630d26a5de1461031557806318160ddd1461032857806323b872dd1461033d57600080fd5b806305d85eda116101ab57806305d85eda1461025957806306fdde0314610286578063081812fc146102a8578063095ea7b3146102e057600080fd5b806301ffc9a7146101d2578063022f2354146102075780630575120414610237575b600080fd5b3480156101de57600080fd5b506101f26101ed366004612555565b610645565b60405190151581526020015b60405180910390f35b34801561021357600080fd5b50610229600080516020612f3a83398151915281565b6040519081526020016101fe565b34801561024357600080fd5b5061025761025236600461262f565b610665565b005b34801561026557600080fd5b50610229610274366004612691565b600c6020526000908152604090205481565b34801561029257600080fd5b5061029b6106c5565b6040516101fe9190612704565b3480156102b457600080fd5b506102c86102c3366004612717565b610757565b6040516001600160a01b0390911681526020016101fe565b3480156102ec57600080fd5b506102576102fb366004612730565b61077e565b34801561030c57600080fd5b50600954610229565b61025761032336600461280c565b610899565b34801561033457600080fd5b50600854610229565b34801561034957600080fd5b50610257610358366004612873565b6109c3565b34801561036957600080fd5b50610229610378366004612717565b60009081526007602052604090206001015490565b34801561039957600080fd5b506102576103a83660046128af565b6109f4565b3480156103b957600080fd5b506102576103c83660046128af565b610a19565b3480156103d957600080fd5b506102576103e8366004612873565b610a97565b3480156103f957600080fd5b506102576104083660046128db565b610ab2565b34801561041957600080fd5b50610257610428366004612989565b610b83565b34801561043957600080fd5b506102c8610448366004612717565b610c1f565b34801561045957600080fd5b50610229610468366004612691565b610c7f565b34801561047957600080fd5b50610257610488366004612717565b610d05565b61025761049b3660046129c1565b610d51565b3480156104ac57600080fd5b506101f26104bb3660046128af565b610fe1565b3480156104cc57600080fd5b5061029b61100c565b3480156104e157600080fd5b506105356104f0366004612730565b600b6020908152600092835260408084209091529082529020805460018201546002830154600384015460049094015492936001600160a01b03928316939192169085565b604080519586526001600160a01b0394851660208701528501929092529091166060830152608082015260a0016101fe565b34801561057357600080fd5b50610229600081565b34801561058857600080fd5b50610257610597366004612a31565b61101b565b3480156105a857600080fd5b506102576105b7366004612a68565b611026565b3480156105c857600080fd5b5061029b6105d7366004612717565b61105e565b3480156105e857600080fd5b506102576105f73660046128af565b61116f565b34801561060857600080fd5b506101f2610617366004612ae3565b6001600160a01b03918216600090815260056020908152604080832093909416825291909152205460ff1690565b600061065082611194565b8061065f575061065f826111e4565b92915050565b600080516020612f3a83398151915261067d81611209565b6106878383611216565b7ff3ef7966b9715dcf700109d23c3d6830f51280df116e23587d6ac8cf876683b283836040516106b8929190612b0d565b60405180910390a1505050565b6060600080546106d490612b26565b80601f016020809104026020016040519081016040528092919081815260200182805461070090612b26565b801561074d5780601f106107225761010080835404028352916020019161074d565b820191906000526020600020905b81548152906001019060200180831161073057829003601f168201915b5050505050905090565b6000610762826112b0565b506000908152600460205260409020546001600160a01b031690565b600061078982610c1f565b9050806001600160a01b0316836001600160a01b031614156107fc5760405162461bcd60e51b815260206004820152602160248201527f4552433732313a20617070726f76616c20746f2063757272656e74206f776e656044820152603960f91b60648201526084015b60405180910390fd5b336001600160a01b038216148061081857506108188133610617565b61088a5760405162461bcd60e51b815260206004820152603e60248201527f4552433732313a20617070726f76652063616c6c6572206973206e6f7420746f60448201527f6b656e206f776e6572206e6f7220617070726f76656420666f7220616c6c000060648201526084016107f3565b610894838361130f565b505050565b600080516020612f3a8339815191526108b181611209565b60968551106108eb5760405162461bcd60e51b81526004016107f3906020808252600490820152633078303360e01b604082015260600190565b60005b8551811015610966576008805490600061090783612b77565b91905055506109183360085461137d565b61093d60085487838151811061093057610930612b92565b6020026020010151611216565b600a54610954906001600160a01b0316600161101b565b8061095e81612b77565b9150506108ee565b5060008551846109769190612ba8565b9050610983818685611397565b60085460405190815233907fa161dbe3154afb6e710593455f0b6cdd44ea4577d2255235e44883c81e7161809060200160405180910390a2505050505050565b6109cd3382611533565b6109e95760405162461bcd60e51b81526004016107f390612bc7565b6108948383836115b1565b600082815260076020526040902060010154610a0f81611209565b610894838361174d565b6001600160a01b0381163314610a895760405162461bcd60e51b815260206004820152602f60248201527f416363657373436f6e74726f6c3a2063616e206f6e6c792072656e6f756e636560448201526e103937b632b9903337b91039b2b63360891b60648201526084016107f3565b610a9382826117d3565b5050565b61089483838360405180602001604052806000815250611026565b600080516020612f3a833981519152610aca81611209565b8251825114610b045760405162461bcd60e51b81526004016107f3906020808252600490820152630c1e0c0d60e21b604082015260600190565b60005b8251811015610b5157610b3f848281518110610b2557610b25612b92565b602002602001015184838151811061093057610930612b92565b80610b4981612b77565b915050610b07565b507fc54ce556769a99d74174b9f73c448eafe0bcabb9c50b0cc4c9a18e4bee1a666983836040516106b8929190612c15565b600080516020612f3a833981519152610b9b81611209565b60088054906000610bab83612b77565b9190505550610bbc3360085461137d565b610bc860085486611216565b600a54610bdf906001600160a01b0316600161101b565b610bea838584611397565b60085460405133907f19c6b36121d52389fa51be7ace70982e05e3fa77df34fbe4fe438e1972fc2bbc90600090a35050505050565b6000818152600260205260408120546001600160a01b03168061065f5760405162461bcd60e51b8152602060048201526018602482015277115490cdcc8c4e881a5b9d985b1a59081d1bdad95b88125160421b60448201526064016107f3565b60006001600160a01b038216610ce95760405162461bcd60e51b815260206004820152602960248201527f4552433732313a2061646472657373207a65726f206973206e6f7420612076616044820152683634b21037bbb732b960b91b60648201526084016107f3565b506001600160a01b031660009081526003602052604090205490565b600080516020612f3a833981519152610d1d81611209565b600982905560405182907facd827be3e57e81a1a507e29e5a32377e60a460332959ba92ab6286dd5181d5290600090a25050565b6000610d5c8461183a565b9050610d76600080516020612f3a83398151915282610fe1565b610dab5760405162461bcd60e51b81526004016107f3906020808252600490820152633078303560e01b604082015260600190565b60088054906000610dbb83612b77565b9190505550610dcc3360085461137d565b600854610e1790610ddd8680612cad565b8080601f01602080910402602001604051908101604052809392919081815260200183838082843760009201919091525061121692505050565b610e276060850160408601612691565b6040516323b872dd60e01b81523360048201526001600160a01b0384811660248301526020870135604483015291909116906323b872dd90606401602060405180830381600087803b158015610e7c57600080fd5b505af1158015610e90573d6000803e3d6000fd5b505050506040513d601f19601f82011682018060405250810190610eb49190612cf3565b50600a54610ecc906001600160a01b0316600161101b565b600060646009548660200135610ee29190612ba8565b610eec9190612d26565b9050610efe6060860160408701612691565b6040516323b872dd60e01b81526001600160a01b03858116600483015286811660248301526044820184905291909116906323b872dd90606401602060405180830381600087803b158015610f5257600080fd5b505af1158015610f66573d6000803e3d6000fd5b505050506040513d601f19601f82011682018060405250810190610f8a9190612cf3565b50600854336001600160a01b0384167f2aa92a1cd988faba52999b916ab16c32332177a120fb7f51ae13d986733a3cd4610fc48980612cad565b604051610fd2929190612d3a565b60405180910390a45050505050565b60009182526007602090815260408084206001600160a01b0393909316845291905290205460ff1690565b6060600180546106d490612b26565b610a9333838361192b565b6110303383611533565b61104c5760405162461bcd60e51b81526004016107f390612bc7565b611058848484846119fa565b50505050565b6060611069826112b0565b6000828152600660205260408120805461108290612b26565b80601f01602080910402602001604051908101604052809291908181526020018280546110ae90612b26565b80156110fb5780601f106110d0576101008083540402835291602001916110fb565b820191906000526020600020905b8154815290600101906020018083116110de57829003601f168201915b50505050509050600061111960408051602081019091526000815290565b905080516000141561112c575092915050565b81511561115e578082604051602001611146929190612d69565b60405160208183030381529060405292505050919050565b61116784611a2d565b949350505050565b60008281526007602052604090206001015461118a81611209565b61089483836117d3565b60006001600160e01b031982166380ac58cd60e01b14806111c557506001600160e01b03198216635b5e139f60e01b145b8061065f57506301ffc9a760e01b6001600160e01b031983161461065f565b60006001600160e01b03198216637965db0b60e01b148061065f575061065f82611194565b6112138133611aa1565b50565b6000828152600260205260409020546001600160a01b03166112915760405162461bcd60e51b815260206004820152602e60248201527f45524337323155524953746f726167653a2055524920736574206f66206e6f6e60448201526d32bc34b9ba32b73a103a37b5b2b760911b60648201526084016107f3565b60008281526006602090815260409091208251610894928401906124a6565b6000818152600260205260409020546001600160a01b03166112135760405162461bcd60e51b8152602060048201526018602482015277115490cdcc8c4e881a5b9d985b1a59081d1bdad95b88125160421b60448201526064016107f3565b600081815260046020526040902080546001600160a01b0319166001600160a01b038416908117909155819061134482610c1f565b6001600160a01b03167f8c5be1e5ebec7d5bd14f71427d1e84f3dd0314c0f7b2291e5b200ac8c7c3b92560405160405180910390a45050565b610a93828260405180602001604052806000815250611b05565b60006064600954856113a99190612ba8565b6113b39190612d26565b6040805160a0810182528681526001600160a01b038681166020808401918252838501868152336060860181815242608088019081526000838152600b8652898120600c87528a82208054835296528981209851895595516001808a018054928a166001600160a01b0319938416179055945160028a0155915160038901805491891691909316179091555160049687015591548352918590209091015493516323b872dd60e01b8152878316938101939093526024830152604482018490529293509116906323b872dd90606401602060405180830381600087803b15801561149c57600080fd5b505af11580156114b0573d6000803e3d6000fd5b505050506040513d601f19601f820116820180604052508101906114d49190612cf3565b50336000818152600c6020526040812080548493889390927f0682cc575d549ef0d097c841c299443e0e82e1305d01882f4dbc51d239413770929161151883612b77565b9091555060405190815260200160405180910390a450505050565b60008061153f83610c1f565b9050806001600160a01b0316846001600160a01b0316148061158657506001600160a01b0380821660009081526005602090815260408083209388168352929052205460ff165b806111675750836001600160a01b031661159f84610757565b6001600160a01b031614949350505050565b826001600160a01b03166115c482610c1f565b6001600160a01b0316146116285760405162461bcd60e51b815260206004820152602560248201527f4552433732313a207472616e736665722066726f6d20696e636f72726563742060448201526437bbb732b960d91b60648201526084016107f3565b6001600160a01b03821661168a5760405162461bcd60e51b8152602060048201526024808201527f4552433732313a207472616e7366657220746f20746865207a65726f206164646044820152637265737360e01b60648201526084016107f3565b61169560008261130f565b6001600160a01b03831660009081526003602052604081208054600192906116be908490612d98565b90915550506001600160a01b03821660009081526003602052604081208054600192906116ec908490612daf565b909155505060008181526002602052604080822080546001600160a01b0319166001600160a01b0386811691821790925591518493918716917fddf252ad1be2c89b69c2b068fc378daa952ba7f163c4a11628f55a4df523b3ef91a4505050565b6117578282610fe1565b610a935760008281526007602090815260408083206001600160a01b03851684529091529020805460ff1916600117905561178f3390565b6001600160a01b0316816001600160a01b0316837f2f8788117e7eff1d82e926ec794901d17c78024a50270940304540a733656f0d60405160405180910390a45050565b6117dd8282610fe1565b15610a935760008281526007602090815260408083206001600160a01b0385168085529252808320805460ff1916905551339285917ff6391f5c32d9c69d2a47ea670b442974b53935d1edc7fd64eb21e047a839171b9190a45050565b6000806118dc7ff1aad62298e89a773810bda7c04eed54e1dff65977862a39f83cfe5b06ccb5e661186b8580612cad565b604051611879929190612dc7565b604051809103902085602001358660400160208101906118999190612691565b60408051602081019590955284019290925260608301526001600160a01b0316608082015260a00160405160208183030381529060405280519060200120611b38565b90506000611167826118f16060870187612cad565b8080601f016020809104026020016040519081016040528093929190818152602001838380828437600092019190915250611b8692505050565b816001600160a01b0316836001600160a01b0316141561198d5760405162461bcd60e51b815260206004820152601960248201527f4552433732313a20617070726f766520746f2063616c6c65720000000000000060448201526064016107f3565b6001600160a01b03838116600081815260056020908152604080832094871680845294825291829020805460ff191686151590811790915591519182527f17307eab39ab6107e8899845ad3d59bd9653f200f220920489ca2b5937696c31910160405180910390a3505050565b611a058484846115b1565b611a1184848484611baa565b6110585760405162461bcd60e51b81526004016107f390612dd7565b6060611a38826112b0565b6000611a4f60408051602081019091526000815290565b90506000815111611a6f5760405180602001604052806000815250611a9a565b80611a7984611cb7565b604051602001611a8a929190612d69565b6040516020818303038152906040525b9392505050565b611aab8282610fe1565b610a9357611ac3816001600160a01b03166014611db4565b611ace836020611db4565b604051602001611adf929190612e29565b60408051601f198184030181529082905262461bcd60e51b82526107f391600401612704565b611b0f8383611f4f565b611b1c6000848484611baa565b6108945760405162461bcd60e51b81526004016107f390612dd7565b600061065f611b45612091565b8360405161190160f01b6020820152602281018390526042810182905260009060620160405160208183030381529060405280519060200120905092915050565b6000806000611b9585856121b8565b91509150611ba2816121fe565b509392505050565b60006001600160a01b0384163b15611cac57604051630a85bd0160e11b81526001600160a01b0385169063150b7a0290611bee903390899088908890600401612e9e565b602060405180830381600087803b158015611c0857600080fd5b505af1925050508015611c38575060408051601f3d908101601f19168201909252611c3591810190612edb565b60015b611c92573d808015611c66576040519150601f19603f3d011682016040523d82523d6000602084013e611c6b565b606091505b508051611c8a5760405162461bcd60e51b81526004016107f390612dd7565b805181602001fd5b6001600160e01b031916630a85bd0160e11b149050611167565b506001949350505050565b606081611cdb5750506040805180820190915260018152600360fc1b602082015290565b8160005b8115611d055780611cef81612b77565b9150611cfe9050600a83612d26565b9150611cdf565b6000816001600160401b03811115611d1f57611d1f612572565b6040519080825280601f01601f191660200182016040528015611d49576020820181803683370190505b5090505b841561116757611d5e600183612d98565b9150611d6b600a86612ef8565b611d76906030612daf565b60f81b818381518110611d8b57611d8b612b92565b60200101906001600160f81b031916908160001a905350611dad600a86612d26565b9450611d4d565b60606000611dc3836002612ba8565b611dce906002612daf565b6001600160401b03811115611de557611de5612572565b6040519080825280601f01601f191660200182016040528015611e0f576020820181803683370190505b509050600360fc1b81600081518110611e2a57611e2a612b92565b60200101906001600160f81b031916908160001a905350600f60fb1b81600181518110611e5957611e59612b92565b60200101906001600160f81b031916908160001a9053506000611e7d846002612ba8565b611e88906001612daf565b90505b6001811115611f00576f181899199a1a9b1b9c1cb0b131b232b360811b85600f1660108110611ebc57611ebc612b92565b1a60f81b828281518110611ed257611ed2612b92565b60200101906001600160f81b031916908160001a90535060049490941c93611ef981612f0c565b9050611e8b565b508315611a9a5760405162461bcd60e51b815260206004820181905260248201527f537472696e67733a20686578206c656e67746820696e73756666696369656e7460448201526064016107f3565b6001600160a01b038216611fa55760405162461bcd60e51b815260206004820181905260248201527f4552433732313a206d696e7420746f20746865207a65726f206164647265737360448201526064016107f3565b6000818152600260205260409020546001600160a01b03161561200a5760405162461bcd60e51b815260206004820152601c60248201527f4552433732313a20746f6b656e20616c7265616479206d696e7465640000000060448201526064016107f3565b6001600160a01b0382166000908152600360205260408120805460019290612033908490612daf565b909155505060008181526002602052604080822080546001600160a01b0319166001600160a01b03861690811790915590518392907fddf252ad1be2c89b69c2b068fc378daa952ba7f163c4a11628f55a4df523b3ef908290a45050565b6000306001600160a01b037f0000000000000000000000000000000000000000000000000000000000000000161480156120ea57507f000000000000000000000000000000000000000000000000000000000000000046145b1561211457507f000000000000000000000000000000000000000000000000000000000000000090565b50604080517f00000000000000000000000000000000000000000000000000000000000000006020808301919091527f0000000000000000000000000000000000000000000000000000000000000000828401527f000000000000000000000000000000000000000000000000000000000000000060608301524660808301523060a0808401919091528351808403909101815260c0909201909252805191012090565b6000808251604114156121ef5760208301516040840151606085015160001a6121e3878285856123b9565b945094505050506121f7565b506000905060025b9250929050565b600081600481111561221257612212612f23565b141561221b5750565b600181600481111561222f5761222f612f23565b141561227d5760405162461bcd60e51b815260206004820152601860248201527f45434453413a20696e76616c6964207369676e6174757265000000000000000060448201526064016107f3565b600281600481111561229157612291612f23565b14156122df5760405162461bcd60e51b815260206004820152601f60248201527f45434453413a20696e76616c6964207369676e6174757265206c656e6774680060448201526064016107f3565b60038160048111156122f3576122f3612f23565b141561234c5760405162461bcd60e51b815260206004820152602260248201527f45434453413a20696e76616c6964207369676e6174757265202773272076616c604482015261756560f01b60648201526084016107f3565b600481600481111561236057612360612f23565b14156112135760405162461bcd60e51b815260206004820152602260248201527f45434453413a20696e76616c6964207369676e6174757265202776272076616c604482015261756560f01b60648201526084016107f3565b6000807f7fffffffffffffffffffffffffffffff5d576e7357a4501ddfe92f46681b20a08311156123f0575060009050600361249d565b8460ff16601b1415801561240857508460ff16601c14155b15612419575060009050600461249d565b6040805160008082526020820180845289905260ff881692820192909252606081018690526080810185905260019060a0016020604051602081039080840390855afa15801561246d573d6000803e3d6000fd5b5050604051601f1901519150506001600160a01b0381166124965760006001925092505061249d565b9150600090505b94509492505050565b8280546124b290612b26565b90600052602060002090601f0160209004810192826124d4576000855561251a565b82601f106124ed57805160ff191683800117855561251a565b8280016001018555821561251a579182015b8281111561251a5782518255916020019190600101906124ff565b5061252692915061252a565b5090565b5b80821115612526576000815560010161252b565b6001600160e01b03198116811461121357600080fd5b60006020828403121561256757600080fd5b8135611a9a8161253f565b634e487b7160e01b600052604160045260246000fd5b604051601f8201601f191681016001600160401b03811182821017156125b0576125b0612572565b604052919050565b60006001600160401b038311156125d1576125d1612572565b6125e4601f8401601f1916602001612588565b90508281528383830111156125f857600080fd5b828260208301376000602084830101529392505050565b600082601f83011261262057600080fd5b611a9a838335602085016125b8565b6000806040838503121561264257600080fd5b8235915060208301356001600160401b0381111561265f57600080fd5b61266b8582860161260f565b9150509250929050565b80356001600160a01b038116811461268c57600080fd5b919050565b6000602082840312156126a357600080fd5b611a9a82612675565b60005b838110156126c75781810151838201526020016126af565b838111156110585750506000910152565b600081518084526126f08160208601602086016126ac565b601f01601f19169290920160200192915050565b602081526000611a9a60208301846126d8565b60006020828403121561272957600080fd5b5035919050565b6000806040838503121561274357600080fd5b61274c83612675565b946020939093013593505050565b60006001600160401b0382111561277357612773612572565b5060051b60200190565b600082601f83011261278e57600080fd5b813560206127a361279e8361275a565b612588565b82815260059290921b840181019181810190868411156127c257600080fd5b8286015b848110156128015780356001600160401b038111156127e55760008081fd5b6127f38986838b010161260f565b8452509183019183016127c6565b509695505050505050565b6000806000806080858703121561282257600080fd5b84356001600160401b0381111561283857600080fd5b6128448782880161277d565b94505061285360208601612675565b92506040850135915061286860608601612675565b905092959194509250565b60008060006060848603121561288857600080fd5b61289184612675565b925061289f60208501612675565b9150604084013590509250925092565b600080604083850312156128c257600080fd5b823591506128d260208401612675565b90509250929050565b600080604083850312156128ee57600080fd5b82356001600160401b038082111561290557600080fd5b818501915085601f83011261291957600080fd5b8135602061292961279e8361275a565b82815260059290921b8401810191818101908984111561294857600080fd5b948201945b838610156129665785358252948201949082019061294d565b9650508601359250508082111561297c57600080fd5b5061266b8582860161277d565b6000806000806080858703121561299f57600080fd5b84356001600160401b038111156129b557600080fd5b6128448782880161260f565b6000806000606084860312156129d657600080fd5b83356001600160401b038111156129ec57600080fd5b8401608081870312156129fe57600080fd5b9250612a0c60208501612675565b9150612a1a60408501612675565b90509250925092565b801515811461121357600080fd5b60008060408385031215612a4457600080fd5b612a4d83612675565b91506020830135612a5d81612a23565b809150509250929050565b60008060008060808587031215612a7e57600080fd5b612a8785612675565b9350612a9560208601612675565b92506040850135915060608501356001600160401b03811115612ab757600080fd5b8501601f81018713612ac857600080fd5b612ad7878235602084016125b8565b91505092959194509250565b60008060408385031215612af657600080fd5b612aff83612675565b91506128d260208401612675565b82815260406020820152600061116760408301846126d8565b600181811c90821680612b3a57607f821691505b60208210811415612b5b57634e487b7160e01b600052602260045260246000fd5b50919050565b634e487b7160e01b600052601160045260246000fd5b6000600019821415612b8b57612b8b612b61565b5060010190565b634e487b7160e01b600052603260045260246000fd5b6000816000190483118215151615612bc257612bc2612b61565b500290565b6020808252602e908201527f4552433732313a2063616c6c6572206973206e6f7420746f6b656e206f776e6560408201526d1c881b9bdc88185c1c1c9bdd995960921b606082015260800190565b604080825283519082018190526000906020906060840190828701845b82811015612c4e57815184529284019290840190600101612c32565b50505083810382850152845180825282820190600581901b8301840187850160005b83811015612c9e57601f19868403018552612c8c8383516126d8565b94870194925090860190600101612c70565b50909998505050505050505050565b6000808335601e19843603018112612cc457600080fd5b8301803591506001600160401b03821115612cde57600080fd5b6020019150368190038213156121f757600080fd5b600060208284031215612d0557600080fd5b8151611a9a81612a23565b634e487b7160e01b600052601260045260246000fd5b600082612d3557612d35612d10565b500490565b60208152816020820152818360408301376000818301604090810191909152601f909201601f19160101919050565b60008351612d7b8184602088016126ac565b835190830190612d8f8183602088016126ac565b01949350505050565b600082821015612daa57612daa612b61565b500390565b60008219821115612dc257612dc2612b61565b500190565b8183823760009101908152919050565b60208082526032908201527f4552433732313a207472616e7366657220746f206e6f6e20455243373231526560408201527131b2b4bb32b91034b6b83632b6b2b73a32b960711b606082015260800190565b7f416363657373436f6e74726f6c3a206163636f756e7420000000000000000000815260008351612e618160178501602088016126ac565b7001034b99036b4b9b9b4b733903937b6329607d1b6017918401918201528351612e928160288401602088016126ac565b01602801949350505050565b6001600160a01b0385811682528416602082015260408101839052608060608201819052600090612ed1908301846126d8565b9695505050505050565b600060208284031215612eed57600080fd5b8151611a9a8161253f565b600082612f0757612f07612d10565b500690565b600081612f1b57612f1b612b61565b506000190190565b634e487b7160e01b600052602160045260246000fdfed2e4c2619ea6e0faebc405d89445161c041e30fe03373ea0473da142d57d4514a26469706673582212200cf881b86ff76b020e790103a94a7de2cb72a4f18c1a97458fab4275939be5bb64736f6c63430008090033a2646970667358221220f743031b4bbc7dfcc8d6caa4f75c64133a5dc448f8995abfca84c98f0e2b4df364736f6c63430008090033",
	"linkReferences": {},
	"deployedLinkReferences": {}
}