{
  "_format": "hh-sol-artifact-1",
  "contractName": "GalileoMarketplace",
  "sourceName": "contracts/marketplace.sol",
  "abi": [
    {
      "inputs": [],
      "stateMutability": "nonpayable",
      "type": "constructor"
    },
    {
      "anonymous": false,
      "inputs": [
        {
          "indexed": false,
          "internalType": "uint256",
          "name": "itemId",
          "type": "uint256"
        },
        {
          "indexed": true,
          "internalType": "uint256",
          "name": "tokenId",
          "type": "uint256"
        },
        {
          "indexed": false,
          "internalType": "address",
          "name": "tokenAddress",
          "type": "address"
        },
        {
          "indexed": false,
          "internalType": "uint256",
          "name": "price",
          "type": "uint256"
        },
        {
          "indexed": true,
          "internalType": "address",
          "name": "owner",
          "type": "address"
        },
        {
          "indexed": true,
          "internalType": "address",
          "name": "buyer",
          "type": "address"
        }
      ],
      "name": "Bought",
      "type": "event"
    },
    {
      "anonymous": false,
      "inputs": [
        {
          "indexed": true,
          "internalType": "address",
          "name": "_to",
          "type": "address"
        },
        {
          "indexed": true,
          "internalType": "uint256",
          "name": "_tokenId",
          "type": "uint256"
        },
        {
          "indexed": true,
          "internalType": "address",
          "name": "tokenAddress",
          "type": "address"
        }
      ],
      "name": "DeList",
      "type": "event"
    },
    {
      "anonymous": false,
      "inputs": [
        {
          "indexed": true,
          "internalType": "address",
          "name": "_to",
          "type": "address"
        },
        {
          "indexed": true,
          "internalType": "uint256[]",
          "name": "_tokenId",
          "type": "uint256[]"
        },
        {
          "indexed": true,
          "internalType": "address",
          "name": "tokenAddress",
          "type": "address"
        }
      ],
      "name": "DeListBulk",
      "type": "event"
    },
    {
      "anonymous": false,
      "inputs": [
        {
          "indexed": false,
          "internalType": "uint8",
          "name": "version",
          "type": "uint8"
        }
      ],
      "name": "Initialized",
      "type": "event"
    },
    {
      "anonymous": false,
      "inputs": [
        {
          "indexed": false,
          "internalType": "uint256",
          "name": "itemId",
          "type": "uint256"
        },
        {
          "indexed": true,
          "internalType": "uint256[]",
          "name": "tokenId",
          "type": "uint256[]"
        },
        {
          "indexed": true,
          "internalType": "address",
          "name": "tokenAddress",
          "type": "address"
        },
        {
          "indexed": false,
          "internalType": "uint256",
          "name": "price",
          "type": "uint256"
        },
        {
          "indexed": true,
          "internalType": "address",
          "name": "owner",
          "type": "address"
        }
      ],
      "name": "OfferedMultiple",
      "type": "event"
    },
    {
      "anonymous": false,
      "inputs": [
        {
          "indexed": false,
          "internalType": "uint256",
          "name": "itemId",
          "type": "uint256"
        },
        {
          "indexed": true,
          "internalType": "uint256",
          "name": "tokenId",
          "type": "uint256"
        },
        {
          "indexed": true,
          "internalType": "address",
          "name": "tokenAddress",
          "type": "address"
        },
        {
          "indexed": false,
          "internalType": "uint256",
          "name": "price",
          "type": "uint256"
        },
        {
          "indexed": true,
          "internalType": "address",
          "name": "owner",
          "type": "address"
        }
      ],
      "name": "OfferedSingle",
      "type": "event"
    },
    {
      "anonymous": false,
      "inputs": [
        {
          "indexed": false,
          "internalType": "uint256",
          "name": "itemId",
          "type": "uint256"
        },
        {
          "indexed": true,
          "internalType": "uint256",
          "name": "tokenId",
          "type": "uint256"
        },
        {
          "indexed": false,
          "internalType": "address",
          "name": "tokenAddress",
          "type": "address"
        },
        {
          "indexed": false,
          "internalType": "uint256",
          "name": "price",
          "type": "uint256"
        },
        {
          "indexed": true,
          "internalType": "address",
          "name": "owner",
          "type": "address"
        },
        {
          "indexed": true,
          "internalType": "address",
          "name": "buyer",
          "type": "address"
        }
      ],
      "name": "Resell",
      "type": "event"
    },
    {
      "anonymous": false,
      "inputs": [
        {
          "indexed": true,
          "internalType": "bytes32",
          "name": "role",
          "type": "bytes32"
        },
        {
          "indexed": true,
          "internalType": "bytes32",
          "name": "previousAdminRole",
          "type": "bytes32"
        },
        {
          "indexed": true,
          "internalType": "bytes32",
          "name": "newAdminRole",
          "type": "bytes32"
        }
      ],
      "name": "RoleAdminChanged",
      "type": "event"
    },
    {
      "anonymous": false,
      "inputs": [
        {
          "indexed": true,
          "internalType": "bytes32",
          "name": "role",
          "type": "bytes32"
        },
        {
          "indexed": true,
          "internalType": "address",
          "name": "account",
          "type": "address"
        },
        {
          "indexed": true,
          "internalType": "address",
          "name": "sender",
          "type": "address"
        }
      ],
      "name": "RoleGranted",
      "type": "event"
    },
    {
      "anonymous": false,
      "inputs": [
        {
          "indexed": true,
          "internalType": "bytes32",
          "name": "role",
          "type": "bytes32"
        },
        {
          "indexed": true,
          "internalType": "address",
          "name": "account",
          "type": "address"
        },
        {
          "indexed": true,
          "internalType": "address",
          "name": "sender",
          "type": "address"
        }
      ],
      "name": "RoleRevoked",
      "type": "event"
    },
    {
      "inputs": [],
      "name": "DEFAULT_ADMIN_ROLE",
      "outputs": [
        {
          "internalType": "bytes32",
          "name": "",
          "type": "bytes32"
        }
      ],
      "stateMutability": "view",
      "type": "function"
    },
    {
      "inputs": [],
      "name": "activeItem",
      "outputs": [
        {
          "internalType": "uint256",
          "name": "",
          "type": "uint256"
        }
      ],
      "stateMutability": "view",
      "type": "function"
    },
    {
      "inputs": [
        {
          "internalType": "bytes32",
          "name": "role",
          "type": "bytes32"
        }
      ],
      "name": "getRoleAdmin",
      "outputs": [
        {
          "internalType": "bytes32",
          "name": "",
          "type": "bytes32"
        }
      ],
      "stateMutability": "view",
      "type": "function"
    },
    {
      "inputs": [
        {
          "internalType": "bytes32",
          "name": "role",
          "type": "bytes32"
        },
        {
          "internalType": "address",
          "name": "account",
          "type": "address"
        }
      ],
      "name": "grantRole",
      "outputs": [],
      "stateMutability": "nonpayable",
      "type": "function"
    },
    {
      "inputs": [
        {
          "internalType": "bytes32",
          "name": "role",
          "type": "bytes32"
        },
        {
          "internalType": "address",
          "name": "account",
          "type": "address"
        }
      ],
      "name": "hasRole",
      "outputs": [
        {
          "internalType": "bool",
          "name": "",
          "type": "bool"
        }
      ],
      "stateMutability": "view",
      "type": "function"
    },
    {
      "inputs": [],
      "name": "initialize",
      "outputs": [],
      "stateMutability": "nonpayable",
      "type": "function"
    },
    {
      "inputs": [
        {
          "internalType": "uint256",
          "name": "",
          "type": "uint256"
        },
        {
          "internalType": "address",
          "name": "",
          "type": "address"
        }
      ],
      "name": "items",
      "outputs": [
        {
          "internalType": "uint256",
          "name": "tokenId",
          "type": "uint256"
        },
        {
          "internalType": "contract IERC20",
          "name": "token",
          "type": "address"
        },
        {
          "internalType": "uint256",
          "name": "price",
          "type": "uint256"
        },
        {
          "internalType": "address",
          "name": "tokenAddress",
          "type": "address"
        },
        {
          "internalType": "address payable",
          "name": "owner",
          "type": "address"
        },
        {
          "internalType": "bool",
          "name": "isSold",
          "type": "bool"
        },
        {
          "internalType": "bool",
          "name": "isRedeem",
          "type": "bool"
        }
      ],
      "stateMutability": "view",
      "type": "function"
    },
    {
      "inputs": [
        {
          "internalType": "contract IERC20",
          "name": "_token",
          "type": "address"
        },
        {
          "internalType": "uint256",
          "name": "_tokenId",
          "type": "uint256"
        },
        {
          "internalType": "address",
          "name": "_tokenAddress",
          "type": "address"
        },
        {
          "internalType": "uint256",
          "name": "_price",
          "type": "uint256"
        }
      ],
      "name": "makeItem",
      "outputs": [],
      "stateMutability": "nonpayable",
      "type": "function"
    },
    {
      "inputs": [
        {
          "internalType": "contract IERC20",
          "name": "_token",
          "type": "address"
        },
        {
          "internalType": "uint256[]",
          "name": "_tokenId",
          "type": "uint256[]"
        },
        {
          "internalType": "address",
          "name": "_tokenAddress",
          "type": "address"
        },
        {
          "internalType": "uint256",
          "name": "_price",
          "type": "uint256"
        }
      ],
      "name": "makeItemBulk",
      "outputs": [],
      "stateMutability": "nonpayable",
      "type": "function"
    },
    {
      "inputs": [
        {
          "internalType": "uint256",
          "name": "_itemId",
          "type": "uint256"
        },
        {
          "internalType": "address",
          "name": "_tokenAddress",
          "type": "address"
        },
        {
          "internalType": "uint256",
          "name": "_amount",
          "type": "uint256"
        }
      ],
      "name": "purchaseItem",
      "outputs": [],
      "stateMutability": "payable",
      "type": "function"
    },
    {
      "inputs": [
        {
          "internalType": "contract IERC20",
          "name": "_token",
          "type": "address"
        },
        {
          "internalType": "uint256",
          "name": "_tokenId",
          "type": "uint256"
        },
        {
          "internalType": "address",
          "name": "_tokenAddress",
          "type": "address"
        },
        {
          "internalType": "uint256",
          "name": "_price",
          "type": "uint256"
        }
      ],
      "name": "redeem",
      "outputs": [],
      "stateMutability": "nonpayable",
      "type": "function"
    },
    {
      "inputs": [
        {
          "internalType": "uint256[]",
          "name": "_tokenId",
          "type": "uint256[]"
        },
        {
          "internalType": "address",
          "name": "_tokenAddress",
          "type": "address"
        }
      ],
      "name": "redeemBulkNft",
      "outputs": [],
      "stateMutability": "nonpayable",
      "type": "function"
    },
    {
      "inputs": [
        {
          "internalType": "uint256",
          "name": "_tokenId",
          "type": "uint256"
        },
        {
          "internalType": "address",
          "name": "_tokenAddress",
          "type": "address"
        }
      ],
      "name": "redeemNft",
      "outputs": [],
      "stateMutability": "nonpayable",
      "type": "function"
    },
    {
      "inputs": [
        {
          "internalType": "bytes32",
          "name": "role",
          "type": "bytes32"
        },
        {
          "internalType": "address",
          "name": "account",
          "type": "address"
        }
      ],
      "name": "renounceRole",
      "outputs": [],
      "stateMutability": "nonpayable",
      "type": "function"
    },
    {
      "inputs": [
        {
          "internalType": "uint256",
          "name": "_itemId",
          "type": "uint256"
        },
        {
          "internalType": "address",
          "name": "_tokenAddress",
          "type": "address"
        },
        {
          "internalType": "uint256",
          "name": "_amount",
          "type": "uint256"
        }
      ],
      "name": "resellItem",
      "outputs": [],
      "stateMutability": "payable",
      "type": "function"
    },
    {
      "inputs": [
        {
          "internalType": "bytes32",
          "name": "role",
          "type": "bytes32"
        },
        {
          "internalType": "address",
          "name": "account",
          "type": "address"
        }
      ],
      "name": "revokeRole",
      "outputs": [],
      "stateMutability": "nonpayable",
      "type": "function"
    },
    {
      "inputs": [
        {
          "internalType": "bytes4",
          "name": "interfaceId",
          "type": "bytes4"
        }
      ],
      "name": "supportsInterface",
      "outputs": [
        {
          "internalType": "bool",
          "name": "",
          "type": "bool"
        }
      ],
      "stateMutability": "view",
      "type": "function"
    }
  ],
  "bytecode": "0x608060405234801561001057600080fd5b5061001961001e565b6100de565b600054610100900460ff161561008a5760405162461bcd60e51b815260206004820152602760248201527f496e697469616c697a61626c653a20636f6e747261637420697320696e697469604482015266616c697a696e6760c81b606482015260840160405180910390fd5b60005460ff90811610156100dc576000805460ff191660ff9081179091556040519081527f7f26b83ff96e1f2b6a682f133852f6798a09c465da95921460cefb38474024989060200160405180910390a15b565b611e6b806100ed6000396000f3fe6080604052600436106100fe5760003560e01c8063609ed3bd1161009557806391d148541161006457806391d1485414610327578063a0b4fe9414610347578063a217fddf14610367578063d547741f1461037c578063f3f094a11461039c57600080fd5b8063609ed3bd146102cc57806372de48ae146102ec5780638129fc1c146102ff578063823c5fcb1461031457600080fd5b806336568abe116100d157806336568abe146101b857806337ad8e1a146101d85780634a5794eb146101ee57806354ffe77e1461020e57600080fd5b806301ffc9a714610103578063248a9ca3146101385780632979e477146101765780632f2ff15d14610198575b600080fd5b34801561010f57600080fd5b5061012361011e366004611995565b6103bc565b60405190151581526020015b60405180910390f35b34801561014457600080fd5b506101686101533660046119bf565b60009081526097602052604090206001015490565b60405190815260200161012f565b34801561018257600080fd5b506101966101913660046119fd565b6103f3565b005b3480156101a457600080fd5b506101966101b33660046119fd565b61059f565b3480156101c457600080fd5b506101966101d33660046119fd565b6105c9565b3480156101e457600080fd5b5061016860c95481565b3480156101fa57600080fd5b50610196610209366004611a2d565b610643565b34801561021a57600080fd5b506102886102293660046119fd565b60ca6020908152600092835260408084209091529082529020805460018201546002830154600384015460049094015492936001600160a01b03928316939192908116919081169060ff600160a01b8204811691600160a81b90041687565b604080519788526001600160a01b0396871660208901528701949094529184166060860152909216608084015290151560a0830152151560c082015260e00161012f565b3480156102d857600080fd5b506101966102e7366004611ac9565b610849565b6101966102fa366004611bb4565b610aed565b34801561030b57600080fd5b50610196610da1565b610196610322366004611bb4565b610eb5565b34801561033357600080fd5b506101236103423660046119fd565b611162565b34801561035357600080fd5b50610196610362366004611bec565b61118d565b34801561037357600080fd5b50610168600081565b34801561038857600080fd5b506101966103973660046119fd565b6113f8565b3480156103a857600080fd5b506101966103b7366004611bec565b61141d565b60006001600160e01b03198216637965db0b60e01b14806103ed57506301ffc9a760e01b6001600160e01b03198316145b92915050565b6103fb61162c565b600082815260ca602090815260408083206001600160a01b0385168452909152902060040154600160a01b900460ff166104695760405162461bcd60e51b8152600401610460906020808252600490820152630307831360e41b604082015260600190565b60405180910390fd5b600082815260ca602090815260408083206001600160a01b0385168452909152902060040154600160a81b900460ff16156001146104d25760405162461bcd60e51b8152600401610460906020808252600490820152633078313160e01b604082015260600190565b600082815260ca602090815260408083206001600160a01b0385811685529252909120600401541633146105315760405162461bcd60e51b815260040161046090602080825260049082015263183c189960e11b604082015260600190565b600082815260ca602090815260408083206001600160a01b0385168085529252808320600401805460ff60a81b1916600160a81b179055519091849133917f43d28a5cba7f615c678abc6d80fcefd540bcb624c33f03fa9fd0c3b04f756a6a91a461059b60018055565b5050565b6000828152609760205260409020600101546105ba81611686565b6105c48383611690565b505050565b6001600160a01b03811633146106395760405162461bcd60e51b815260206004820152602f60248201527f416363657373436f6e74726f6c3a2063616e206f6e6c792072656e6f756e636560448201526e103937b632b9903337b91039b2b63360891b6064820152608401610460565b61059b8282611716565b61064b61162c565b60005b828110156107f35760ca600085858481811061066c5761066c611c24565b9050602002013581526020019081526020016000206000836001600160a01b03166001600160a01b0316815260200190815260200160002060040160149054906101000a900460ff166106ea5760405162461bcd60e51b8152600401610460906020808252600490820152633078313360e01b604082015260600190565b60ca600085858481811061070057610700611c24565b6020908102929092013583525081810192909252604090810160009081206001600160a01b0386168252909252902060040154600160a81b900460ff16156001146107765760405162461bcd60e51b8152600401610460906020808252600490820152630c1e0c4d60e21b604082015260600190565b600160ca600086868581811061078e5761078e611c24565b9050602002013581526020019081526020016000206000846001600160a01b03166001600160a01b0316815260200190815260200160002060040160156101000a81548160ff02191690831515021790555080806107eb90611c50565b91505061064e565b50806001600160a01b0316838360405161080e929190611c6b565b6040519081900381209033907f14d2dd78f4e81d51b9b46b92435d6d228063f73d5176491701e4ff0ff4293a7090600090a46105c460018055565b61085161162c565b6000811161088a5760405162461bcd60e51b815260040161046090602080825260049082015263183c181960e11b604082015260600190565b60005b8351811015610a7857826001600160a01b03166323b872dd33308785815181106108b9576108b9611c24565b60200260200101516040518463ffffffff1660e01b81526004016108df93929190611c97565b600060405180830381600087803b1580156108f957600080fd5b505af115801561090d573d6000803e3d6000fd5b505050506040518060e0016040528085838151811061092e5761092e611c24565b60200260200101518152602001866001600160a01b03168152602001838152602001846001600160a01b03168152602001336001600160a01b031681526020016000151581526020016000151581525060ca600086848151811061099457610994611c24565b602090810291909101810151825281810192909252604090810160009081206001600160a01b03808916835290845282822085518155938501516001850180549183166001600160a01b03199283161790559285015160028501556060850151600385018054918316919094161790925560808401516004909301805460a086015160c0909601511515600160a81b0260ff60a81b19961515600160a01b026001600160a81b03199092169590941694909417939093179390931617905560c9805491610a6083611c50565b91905055508080610a7090611c50565b91505061088d565b50336001600160a01b0316826001600160a01b031684604051610a9b9190611cbb565b6040805191829003822060c954835260208301869052917f164c984887c38e4bec91909766c7c6be70fead4e4320f2568ce0ea9cc575790991015b60405180910390a4610ae760018055565b50505050565b610af561162c565b600083815260ca602090815260408083206001600160a01b03808716808652828552838620845160e08101865281548152600182015484168188015260028201549581019590955260038101548316606086015260040154918216608085015260ff600160a01b8304811680151560a0870152600160a81b90930416151560c085015290945290915290610bb45760405162461bcd60e51b8152600401610460906020808252600490820152633078303560e01b604082015260600190565b600084815260ca602090815260408083206001600160a01b0387168452909152902060040154600160a81b900460ff1615600114610c1d5760405162461bcd60e51b815260040161046090602080825260049082015263183c181b60e11b604082015260600190565b600084815260ca602090815260408083206001600160a01b038781168552925290912060040154163314610c7b5760405162461bcd60e51b81526020600482015260056024820152640183c181b960dd1b6044820152606401610460565b600084815260ca602090815260408083206001600160a01b038088168086529190935292819020600490810154855192516323b872dd60e01b81526323b872dd94610ccc9492169230929101611c97565b600060405180830381600087803b158015610ce657600080fd5b505af1158015610cfa573d6000803e3d6000fd5b505060c98054925090506000610d0f83611c50565b9091555050600084815260ca602090815260408083206001600160a01b0387811680865291845293829020600401805460ff60a01b19169055608085015185518684015184518b81529586019390935292840191909152339316917f88540bba37eee96f09d5b2db292b3ffa7b7f99e42e80235fe1a55ebe1c570cfe9060600160405180910390a4506105c460018055565b600054610100900460ff1615808015610dc15750600054600160ff909116105b80610ddb5750303b158015610ddb575060005460ff166001145b610e3e5760405162461bcd60e51b815260206004820152602e60248201527f496e697469616c697a61626c653a20636f6e747261637420697320616c72656160448201526d191e481a5b9a5d1a585b1a5e995960921b6064820152608401610460565b6000805460ff191660011790558015610e61576000805461ff0019166101001790555b610e6c60003361177d565b8015610eb2576000805461ff0019169055604051600181527f7f26b83ff96e1f2b6a682f133852f6798a09c465da95921460cefb38474024989060200160405180910390a15b50565b610ebd61162c565b600083815260ca602090815260408083206001600160a01b03808716808652828552838620845160e0810186528154815260018201548416818801526002820154958101869052600382015484166060820152600490910154928316608082015260ff600160a01b8404811615801560a0840152600160a81b90940416151560c08201529552925290610f7b5760405162461bcd60e51b8152600401610460906020808252600490820152633078303360e01b604082015260600190565b80831015610fb45760405162461bcd60e51b8152600401610460906020808252600490820152630c1e0c0d60e21b604082015260600190565b81602001516001600160a01b03166323b872dd338460800151866040518463ffffffff1660e01b8152600401610fec93929190611c97565b602060405180830381600087803b15801561100657600080fd5b505af115801561101a573d6000803e3d6000fd5b505050506040513d601f19601f8201168201806040525081019061103e9190611cf1565b5081516040516323b872dd60e01b81526001600160a01b038616916323b872dd91611070913091339190600401611c97565b600060405180830381600087803b15801561108a57600080fd5b505af115801561109e573d6000803e3d6000fd5b505050600086815260ca602090815260408083206001600160a01b038916845290915281206004018054600160a01b6001600160a81b03199091163360ff60a01b19161717905560c980549250906110f583611d13565b90915550506080820151825160408085015181518981526001600160a01b03898116602083015292810191909152339390911691907f8499da5cbed7f4c76667f49e6eb9fbbec401e155d096505159678f2c21e6223f9060600160405180910390a450506105c460018055565b60009182526097602090815260408084206001600160a01b0393909316845291905290205460ff1690565b61119561162c565b600081116111ce5760405162461bcd60e51b8152600401610460906020808252600490820152633078303160e01b604082015260600190565b6040516323b872dd60e01b81526001600160a01b038316906323b872dd906111fe90339030908890600401611c97565b600060405180830381600087803b15801561121857600080fd5b505af115801561122c573d6000803e3d6000fd5b505050506040518060e00160405280848152602001856001600160a01b03168152602001828152602001836001600160a01b03168152602001336001600160a01b031681526020016000151581526020016000151581525060ca60008581526020019081526020016000206000846001600160a01b03166001600160a01b031681526020019081526020016000206000820151816000015560208201518160010160006101000a8154816001600160a01b0302191690836001600160a01b031602179055506040820151816002015560608201518160030160006101000a8154816001600160a01b0302191690836001600160a01b0316021790555060808201518160040160006101000a8154816001600160a01b0302191690836001600160a01b0316021790555060a08201518160040160146101000a81548160ff02191690831515021790555060c08201518160040160156101000a81548160ff02191690831515021790555090505060c960008154809291906113ab90611c50565b909155505060c954604080519182526020820183905233916001600160a01b0385169186917f70116ca3dcbbb3ae25e77e8fe1ce9d7bc82201fea2142ef972f6cab5c54c8a6d9101610ad6565b60008281526097602052604090206001015461141381611686565b6105c48383611716565b61142561162c565b6000811161145e5760405162461bcd60e51b8152600401610460906020808252600490820152633078303960e01b604082015260600190565b60c9805490600061146e83611c50565b91905055506040518060e00160405280848152602001856001600160a01b03168152602001828152602001836001600160a01b03168152602001336001600160a01b031681526020016001151581526020016001151581525060ca60008581526020019081526020016000206000846001600160a01b03166001600160a01b031681526020019081526020016000206000820151816000015560208201518160010160006101000a8154816001600160a01b0302191690836001600160a01b031602179055506040820151816002015560608201518160030160006101000a8154816001600160a01b0302191690836001600160a01b0316021790555060808201518160040160006101000a8154816001600160a01b0302191690836001600160a01b0316021790555060a08201518160040160146101000a81548160ff02191690831515021790555060c08201518160040160156101000a81548160ff021916908315150217905550905050336001600160a01b0316826001600160a01b0316847f70116ca3dcbbb3ae25e77e8fe1ce9d7bc82201fea2142ef972f6cab5c54c8a6d60c95485604051610ad6929190918252602082015260400190565b6002600154141561167f5760405162461bcd60e51b815260206004820152601f60248201527f5265656e7472616e637947756172643a207265656e7472616e742063616c6c006044820152606401610460565b6002600155565b610eb28133611787565b61169a8282611162565b61059b5760008281526097602090815260408083206001600160a01b03851684529091529020805460ff191660011790556116d23390565b6001600160a01b0316816001600160a01b0316837f2f8788117e7eff1d82e926ec794901d17c78024a50270940304540a733656f0d60405160405180910390a45050565b6117208282611162565b1561059b5760008281526097602090815260408083206001600160a01b0385168085529252808320805460ff1916905551339285917ff6391f5c32d9c69d2a47ea670b442974b53935d1edc7fd64eb21e047a839171b9190a45050565b61059b8282611690565b6117918282611162565b61059b5761179e816117e0565b6117a98360206117f2565b6040516020016117ba929190611d56565b60408051601f198184030181529082905262461bcd60e51b825261046091600401611dcb565b60606103ed6001600160a01b03831660145b60606000611801836002611dfe565b61180c906002611e1d565b67ffffffffffffffff81111561182457611824611ab3565b6040519080825280601f01601f19166020018201604052801561184e576020820181803683370190505b509050600360fc1b8160008151811061186957611869611c24565b60200101906001600160f81b031916908160001a905350600f60fb1b8160018151811061189857611898611c24565b60200101906001600160f81b031916908160001a90535060006118bc846002611dfe565b6118c7906001611e1d565b90505b600181111561193f576f181899199a1a9b1b9c1cb0b131b232b360811b85600f16601081106118fb576118fb611c24565b1a60f81b82828151811061191157611911611c24565b60200101906001600160f81b031916908160001a90535060049490941c9361193881611d13565b90506118ca565b50831561198e5760405162461bcd60e51b815260206004820181905260248201527f537472696e67733a20686578206c656e67746820696e73756666696369656e746044820152606401610460565b9392505050565b6000602082840312156119a757600080fd5b81356001600160e01b03198116811461198e57600080fd5b6000602082840312156119d157600080fd5b5035919050565b6001600160a01b0381168114610eb257600080fd5b80356119f8816119d8565b919050565b60008060408385031215611a1057600080fd5b823591506020830135611a22816119d8565b809150509250929050565b600080600060408486031215611a4257600080fd5b833567ffffffffffffffff80821115611a5a57600080fd5b818601915086601f830112611a6e57600080fd5b813581811115611a7d57600080fd5b8760208260051b8501011115611a9257600080fd5b60209283019550935050840135611aa8816119d8565b809150509250925092565b634e487b7160e01b600052604160045260246000fd5b60008060008060808587031215611adf57600080fd5b8435611aea816119d8565b935060208581013567ffffffffffffffff80821115611b0857600080fd5b818801915088601f830112611b1c57600080fd5b813581811115611b2e57611b2e611ab3565b8060051b604051601f19603f83011681018181108582111715611b5357611b53611ab3565b60405291825284820192508381018501918b831115611b7157600080fd5b938501935b82851015611b8f57843584529385019392850192611b76565b809850505050505050611ba4604086016119ed565b9396929550929360600135925050565b600080600060608486031215611bc957600080fd5b833592506020840135611bdb816119d8565b929592945050506040919091013590565b60008060008060808587031215611c0257600080fd5b8435611c0d816119d8565b9350602085013592506040850135611ba4816119d8565b634e487b7160e01b600052603260045260246000fd5b634e487b7160e01b600052601160045260246000fd5b6000600019821415611c6457611c64611c3a565b5060010190565b60006001600160fb1b03831115611c8157600080fd5b8260051b80858437600092019182525092915050565b6001600160a01b039384168152919092166020820152604081019190915260600190565b815160009082906020808601845b83811015611ce557815185529382019390820190600101611cc9565b50929695505050505050565b600060208284031215611d0357600080fd5b8151801515811461198e57600080fd5b600081611d2257611d22611c3a565b506000190190565b60005b83811015611d45578181015183820152602001611d2d565b83811115610ae75750506000910152565b7f416363657373436f6e74726f6c3a206163636f756e7420000000000000000000815260008351611d8e816017850160208801611d2a565b7001034b99036b4b9b9b4b733903937b6329607d1b6017918401918201528351611dbf816028840160208801611d2a565b01602801949350505050565b6020815260008251806020840152611dea816040850160208701611d2a565b601f01601f19169190910160400192915050565b6000816000190483118215151615611e1857611e18611c3a565b500290565b60008219821115611e3057611e30611c3a565b50019056fea2646970667358221220e2bf28dcc74e5c04feb24feed762f4e3565d81b569ed33d1da3fc0af9d88d77b64736f6c63430008090033",
  "linkReferences": {},
  "deployedLinkReferences": {}
}