{
  "_format": "hh-sol-artifact-1",
  "contractName": "GalileoMarketplace",
  "sourceName": "contracts/GalileoMarketplace.sol",
  "abi": [
    {
      "inputs": [],
      "stateMutability": "nonpayable",
      "type": "constructor"
    },
    {
      "anonymous": false,
      "inputs": [
        {
          "indexed": false,
          "internalType": "uint256",
          "name": "itemId",
          "type": "uint256"
        },
        {
          "indexed": true,
          "internalType": "uint256",
          "name": "tokenId",
          "type": "uint256"
        },
        {
          "indexed": false,
          "internalType": "address",
          "name": "tokenAddress",
          "type": "address"
        },
        {
          "indexed": false,
          "internalType": "uint256",
          "name": "price",
          "type": "uint256"
        },
        {
          "indexed": true,
          "internalType": "address",
          "name": "owner",
          "type": "address"
        },
        {
          "indexed": true,
          "internalType": "address",
          "name": "buyer",
          "type": "address"
        }
      ],
      "name": "Bought",
      "type": "event"
    },
    {
      "anonymous": false,
      "inputs": [
        {
          "indexed": true,
          "internalType": "address",
          "name": "_to",
          "type": "address"
        },
        {
          "indexed": true,
          "internalType": "uint256",
          "name": "_tokenId",
          "type": "uint256"
        },
        {
          "indexed": true,
          "internalType": "address",
          "name": "tokenAddress",
          "type": "address"
        }
      ],
      "name": "DeList",
      "type": "event"
    },
    {
      "anonymous": false,
      "inputs": [
        {
          "indexed": true,
          "internalType": "address",
          "name": "_to",
          "type": "address"
        },
        {
          "indexed": true,
          "internalType": "uint256[]",
          "name": "_tokenId",
          "type": "uint256[]"
        },
        {
          "indexed": true,
          "internalType": "address",
          "name": "tokenAddress",
          "type": "address"
        }
      ],
      "name": "DeListBulk",
      "type": "event"
    },
    {
      "anonymous": false,
      "inputs": [
        {
          "indexed": false,
          "internalType": "uint8",
          "name": "version",
          "type": "uint8"
        }
      ],
      "name": "Initialized",
      "type": "event"
    },
    {
      "anonymous": false,
      "inputs": [
        {
          "indexed": false,
          "internalType": "uint256",
          "name": "itemId",
          "type": "uint256"
        },
        {
          "indexed": true,
          "internalType": "uint256[]",
          "name": "tokenId",
          "type": "uint256[]"
        },
        {
          "indexed": true,
          "internalType": "address",
          "name": "tokenAddress",
          "type": "address"
        },
        {
          "indexed": false,
          "internalType": "uint256",
          "name": "price",
          "type": "uint256"
        },
        {
          "indexed": true,
          "internalType": "address",
          "name": "owner",
          "type": "address"
        }
      ],
      "name": "OfferedMultiple",
      "type": "event"
    },
    {
      "anonymous": false,
      "inputs": [
        {
          "indexed": false,
          "internalType": "uint256",
          "name": "itemId",
          "type": "uint256"
        },
        {
          "indexed": true,
          "internalType": "uint256",
          "name": "tokenId",
          "type": "uint256"
        },
        {
          "indexed": true,
          "internalType": "address",
          "name": "tokenAddress",
          "type": "address"
        },
        {
          "indexed": false,
          "internalType": "uint256",
          "name": "price",
          "type": "uint256"
        },
        {
          "indexed": true,
          "internalType": "address",
          "name": "owner",
          "type": "address"
        }
      ],
      "name": "OfferedSingle",
      "type": "event"
    },
    {
      "anonymous": false,
      "inputs": [
        {
          "indexed": false,
          "internalType": "uint256",
          "name": "itemId",
          "type": "uint256"
        },
        {
          "indexed": true,
          "internalType": "uint256",
          "name": "tokenId",
          "type": "uint256"
        },
        {
          "indexed": false,
          "internalType": "address",
          "name": "tokenAddress",
          "type": "address"
        },
        {
          "indexed": false,
          "internalType": "uint256",
          "name": "price",
          "type": "uint256"
        },
        {
          "indexed": true,
          "internalType": "address",
          "name": "owner",
          "type": "address"
        },
        {
          "indexed": true,
          "internalType": "address",
          "name": "buyer",
          "type": "address"
        }
      ],
      "name": "Resell",
      "type": "event"
    },
    {
      "anonymous": false,
      "inputs": [
        {
          "indexed": true,
          "internalType": "bytes32",
          "name": "role",
          "type": "bytes32"
        },
        {
          "indexed": true,
          "internalType": "bytes32",
          "name": "previousAdminRole",
          "type": "bytes32"
        },
        {
          "indexed": true,
          "internalType": "bytes32",
          "name": "newAdminRole",
          "type": "bytes32"
        }
      ],
      "name": "RoleAdminChanged",
      "type": "event"
    },
    {
      "anonymous": false,
      "inputs": [
        {
          "indexed": true,
          "internalType": "bytes32",
          "name": "role",
          "type": "bytes32"
        },
        {
          "indexed": true,
          "internalType": "address",
          "name": "account",
          "type": "address"
        },
        {
          "indexed": true,
          "internalType": "address",
          "name": "sender",
          "type": "address"
        }
      ],
      "name": "RoleGranted",
      "type": "event"
    },
    {
      "anonymous": false,
      "inputs": [
        {
          "indexed": true,
          "internalType": "bytes32",
          "name": "role",
          "type": "bytes32"
        },
        {
          "indexed": true,
          "internalType": "address",
          "name": "account",
          "type": "address"
        },
        {
          "indexed": true,
          "internalType": "address",
          "name": "sender",
          "type": "address"
        }
      ],
      "name": "RoleRevoked",
      "type": "event"
    },
    {
      "inputs": [],
      "name": "DEFAULT_ADMIN_ROLE",
      "outputs": [
        {
          "internalType": "bytes32",
          "name": "",
          "type": "bytes32"
        }
      ],
      "stateMutability": "view",
      "type": "function"
    },
    {
      "inputs": [],
      "name": "activeItem",
      "outputs": [
        {
          "internalType": "uint256",
          "name": "",
          "type": "uint256"
        }
      ],
      "stateMutability": "view",
      "type": "function"
    },
    {
      "inputs": [
        {
          "internalType": "bytes32",
          "name": "role",
          "type": "bytes32"
        }
      ],
      "name": "getRoleAdmin",
      "outputs": [
        {
          "internalType": "bytes32",
          "name": "",
          "type": "bytes32"
        }
      ],
      "stateMutability": "view",
      "type": "function"
    },
    {
      "inputs": [
        {
          "internalType": "bytes32",
          "name": "role",
          "type": "bytes32"
        },
        {
          "internalType": "address",
          "name": "account",
          "type": "address"
        }
      ],
      "name": "grantRole",
      "outputs": [],
      "stateMutability": "nonpayable",
      "type": "function"
    },
    {
      "inputs": [
        {
          "internalType": "bytes32",
          "name": "role",
          "type": "bytes32"
        },
        {
          "internalType": "address",
          "name": "account",
          "type": "address"
        }
      ],
      "name": "hasRole",
      "outputs": [
        {
          "internalType": "bool",
          "name": "",
          "type": "bool"
        }
      ],
      "stateMutability": "view",
      "type": "function"
    },
    {
      "inputs": [],
      "name": "initialize",
      "outputs": [],
      "stateMutability": "nonpayable",
      "type": "function"
    },
    {
      "inputs": [
        {
          "internalType": "uint256",
          "name": "",
          "type": "uint256"
        },
        {
          "internalType": "address",
          "name": "",
          "type": "address"
        }
      ],
      "name": "items",
      "outputs": [
        {
          "internalType": "uint256",
          "name": "tokenId",
          "type": "uint256"
        },
        {
          "internalType": "contract IERC20",
          "name": "token",
          "type": "address"
        },
        {
          "internalType": "uint256",
          "name": "price",
          "type": "uint256"
        },
        {
          "internalType": "address",
          "name": "tokenAddress",
          "type": "address"
        },
        {
          "internalType": "address payable",
          "name": "owner",
          "type": "address"
        },
        {
          "internalType": "bool",
          "name": "isSold",
          "type": "bool"
        },
        {
          "internalType": "bool",
          "name": "isRedeem",
          "type": "bool"
        }
      ],
      "stateMutability": "view",
      "type": "function"
    },
    {
      "inputs": [
        {
          "internalType": "contract IERC20",
          "name": "_token",
          "type": "address"
        },
        {
          "internalType": "uint256",
          "name": "_tokenId",
          "type": "uint256"
        },
        {
          "internalType": "address",
          "name": "_tokenAddress",
          "type": "address"
        },
        {
          "internalType": "uint256",
          "name": "_price",
          "type": "uint256"
        }
      ],
      "name": "makeItem",
      "outputs": [],
      "stateMutability": "nonpayable",
      "type": "function"
    },
    {
      "inputs": [
        {
          "internalType": "contract IERC20",
          "name": "_token",
          "type": "address"
        },
        {
          "internalType": "uint256[]",
          "name": "_tokenId",
          "type": "uint256[]"
        },
        {
          "internalType": "address",
          "name": "_tokenAddress",
          "type": "address"
        },
        {
          "internalType": "uint256",
          "name": "_price",
          "type": "uint256"
        }
      ],
      "name": "makeItemBulk",
      "outputs": [],
      "stateMutability": "nonpayable",
      "type": "function"
    },
    {
      "inputs": [
        {
          "internalType": "uint256",
          "name": "_itemId",
          "type": "uint256"
        },
        {
          "internalType": "address",
          "name": "_tokenAddress",
          "type": "address"
        },
        {
          "internalType": "uint256",
          "name": "_amount",
          "type": "uint256"
        }
      ],
      "name": "purchaseItem",
      "outputs": [],
      "stateMutability": "payable",
      "type": "function"
    },
    {
      "inputs": [
        {
          "internalType": "contract IERC20",
          "name": "_token",
          "type": "address"
        },
        {
          "internalType": "uint256",
          "name": "_tokenId",
          "type": "uint256"
        },
        {
          "internalType": "address",
          "name": "_tokenAddress",
          "type": "address"
        },
        {
          "internalType": "uint256",
          "name": "_price",
          "type": "uint256"
        }
      ],
      "name": "redeem",
      "outputs": [],
      "stateMutability": "nonpayable",
      "type": "function"
    },
    {
      "inputs": [
        {
          "internalType": "uint256[]",
          "name": "_tokenId",
          "type": "uint256[]"
        },
        {
          "internalType": "address",
          "name": "_tokenAddress",
          "type": "address"
        }
      ],
      "name": "redeemBulkNft",
      "outputs": [],
      "stateMutability": "nonpayable",
      "type": "function"
    },
    {
      "inputs": [
        {
          "internalType": "uint256",
          "name": "_tokenId",
          "type": "uint256"
        },
        {
          "internalType": "address",
          "name": "_tokenAddress",
          "type": "address"
        }
      ],
      "name": "redeemNft",
      "outputs": [],
      "stateMutability": "nonpayable",
      "type": "function"
    },
    {
      "inputs": [
        {
          "internalType": "bytes32",
          "name": "role",
          "type": "bytes32"
        },
        {
          "internalType": "address",
          "name": "account",
          "type": "address"
        }
      ],
      "name": "renounceRole",
      "outputs": [],
      "stateMutability": "nonpayable",
      "type": "function"
    },
    {
      "inputs": [
        {
          "internalType": "uint256",
          "name": "_itemId",
          "type": "uint256"
        },
        {
          "internalType": "address",
          "name": "_tokenAddress",
          "type": "address"
        },
        {
          "internalType": "uint256",
          "name": "_amount",
          "type": "uint256"
        }
      ],
      "name": "resellItem",
      "outputs": [],
      "stateMutability": "payable",
      "type": "function"
    },
    {
      "inputs": [
        {
          "internalType": "bytes32",
          "name": "role",
          "type": "bytes32"
        },
        {
          "internalType": "address",
          "name": "account",
          "type": "address"
        }
      ],
      "name": "revokeRole",
      "outputs": [],
      "stateMutability": "nonpayable",
      "type": "function"
    },
    {
      "inputs": [
        {
          "internalType": "bytes4",
          "name": "interfaceId",
          "type": "bytes4"
        }
      ],
      "name": "supportsInterface",
      "outputs": [
        {
          "internalType": "bool",
          "name": "",
          "type": "bool"
        }
      ],
      "stateMutability": "view",
      "type": "function"
    }
  ],
  "bytecode": "0x60806040523480156200001157600080fd5b50620000226200002860201b60201c565b620001d3565b600060019054906101000a900460ff16156200007b576040517f08c379a0000000000000000000000000000000000000000000000000000000008152600401620000729062000176565b60405180910390fd5b60ff801660008054906101000a900460ff1660ff161015620000ed5760ff6000806101000a81548160ff021916908360ff1602179055507f7f26b83ff96e1f2b6a682f133852f6798a09c465da95921460cefb384740249860ff604051620000e49190620001b6565b60405180910390a15b565b600082825260208201905092915050565b7f496e697469616c697a61626c653a20636f6e747261637420697320696e69746960008201527f616c697a696e6700000000000000000000000000000000000000000000000000602082015250565b60006200015e602783620000ef565b91506200016b8262000100565b604082019050919050565b6000602082019050818103600083015262000191816200014f565b9050919050565b600060ff82169050919050565b620001b08162000198565b82525050565b6000602082019050620001cd6000830184620001a5565b92915050565b613f8e80620001e36000396000f3fe6080604052600436106100fe5760003560e01c8063609ed3bd1161009557806391d148541161006457806391d1485414610307578063a0b4fe9414610344578063a217fddf1461036d578063d547741f14610398578063f3f094a1146103c1576100fe565b8063609ed3bd1461028f57806372de48ae146102b85780638129fc1c146102d4578063823c5fcb146102eb576100fe565b806336568abe116100d157806336568abe146101cf57806337ad8e1a146101f85780634a5794eb1461022357806354ffe77e1461024c576100fe565b806301ffc9a714610103578063248a9ca3146101405780632979e4771461017d5780632f2ff15d146101a6575b600080fd5b34801561010f57600080fd5b5061012a60048036038101906101259190612a46565b6103ea565b6040516101379190612a8e565b60405180910390f35b34801561014c57600080fd5b5061016760048036038101906101629190612adf565b610464565b6040516101749190612b1b565b60405180910390f35b34801561018957600080fd5b506101a4600480360381019061019f9190612bca565b610484565b005b3480156101b257600080fd5b506101cd60048036038101906101c89190612c0a565b6107cd565b005b3480156101db57600080fd5b506101f660048036038101906101f19190612c0a565b6107ee565b005b34801561020457600080fd5b5061020d610871565b60405161021a9190612c59565b60405180910390f35b34801561022f57600080fd5b5061024a60048036038101906102459190612cd9565b610877565b005b34801561025857600080fd5b50610273600480360381019061026e9190612bca565b610b64565b6040516102869796959493929190612dc8565b60405180910390f35b34801561029b57600080fd5b506102b660048036038101906102b19190612fc4565b610c2d565b005b6102d260048036038101906102cd9190613047565b611036565b005b3480156102e057600080fd5b506102e9611689565b005b61030560048036038101906103009190613047565b6117cc565b005b34801561031357600080fd5b5061032e60048036038101906103299190612c0a565b611d57565b60405161033b9190612a8e565b60405180910390f35b34801561035057600080fd5b5061036b6004803603810190610366919061309a565b611dc2565b005b34801561037957600080fd5b50610382612148565b60405161038f9190612b1b565b60405180910390f35b3480156103a457600080fd5b506103bf60048036038101906103ba9190612c0a565b61214f565b005b3480156103cd57600080fd5b506103e860048036038101906103e3919061309a565b612170565b005b60007f7965db0b000000000000000000000000000000000000000000000000000000007bffffffffffffffffffffffffffffffffffffffffffffffffffffffff1916827bffffffffffffffffffffffffffffffffffffffffffffffffffffffff1916148061045d575061045c82612487565b5b9050919050565b600060976000838152602001908152602001600020600101549050919050565b600260015414156104ca576040517f08c379a00000000000000000000000000000000000000000000000000000000081526004016104c19061315e565b60405180910390fd5b600260018190555060ca600083815260200190815260200160002060008273ffffffffffffffffffffffffffffffffffffffff1673ffffffffffffffffffffffffffffffffffffffff16815260200190815260200160002060040160149054906101000a900460ff16610572576040517f08c379a0000000000000000000000000000000000000000000000000000000008152600401610569906131ca565b60405180910390fd5b6001151560ca600084815260200190815260200160002060008373ffffffffffffffffffffffffffffffffffffffff1673ffffffffffffffffffffffffffffffffffffffff16815260200190815260200160002060040160159054906101000a900460ff161515151461061a576040517f08c379a000000000000000000000000000000000000000000000000000000000815260040161061190613236565b60405180910390fd5b3373ffffffffffffffffffffffffffffffffffffffff1660ca600084815260200190815260200160002060008373ffffffffffffffffffffffffffffffffffffffff1673ffffffffffffffffffffffffffffffffffffffff16815260200190815260200160002060040160009054906101000a900473ffffffffffffffffffffffffffffffffffffffff1673ffffffffffffffffffffffffffffffffffffffff16146106fb576040517f08c379a00000000000000000000000000000000000000000000000000000000081526004016106f2906132a2565b60405180910390fd5b600160ca600084815260200190815260200160002060008373ffffffffffffffffffffffffffffffffffffffff1673ffffffffffffffffffffffffffffffffffffffff16815260200190815260200160002060040160156101000a81548160ff0219169083151502179055508073ffffffffffffffffffffffffffffffffffffffff16823373ffffffffffffffffffffffffffffffffffffffff167f43d28a5cba7f615c678abc6d80fcefd540bcb624c33f03fa9fd0c3b04f756a6a60405160405180910390a4600180819055505050565b6107d682610464565b6107df816124f1565b6107e98383612505565b505050565b6107f66125e6565b73ffffffffffffffffffffffffffffffffffffffff168173ffffffffffffffffffffffffffffffffffffffff1614610863576040517f08c379a000000000000000000000000000000000000000000000000000000000815260040161085a90613334565b60405180910390fd5b61086d82826125ee565b5050565b60c95481565b600260015414156108bd576040517f08c379a00000000000000000000000000000000000000000000000000000000081526004016108b49061315e565b60405180910390fd5b600260018190555060005b83839050811015610ae55760ca60008585848181106108ea576108e9613354565b5b90506020020135815260200190815260200160002060008373ffffffffffffffffffffffffffffffffffffffff1673ffffffffffffffffffffffffffffffffffffffff16815260200190815260200160002060040160149054906101000a900460ff1661098c576040517f08c379a0000000000000000000000000000000000000000000000000000000008152600401610983906133cf565b60405180910390fd5b6001151560ca60008686858181106109a7576109a6613354565b5b90506020020135815260200190815260200160002060008473ffffffffffffffffffffffffffffffffffffffff1673ffffffffffffffffffffffffffffffffffffffff16815260200190815260200160002060040160159054906101000a900460ff1615151514610a4d576040517f08c379a0000000000000000000000000000000000000000000000000000000008152600401610a449061343b565b60405180910390fd5b600160ca6000868685818110610a6657610a65613354565b5b90506020020135815260200190815260200160002060008473ffffffffffffffffffffffffffffffffffffffff1673ffffffffffffffffffffffffffffffffffffffff16815260200190815260200160002060040160156101000a81548160ff0219169083151502179055508080610add9061348a565b9150506108c8565b508073ffffffffffffffffffffffffffffffffffffffff168383604051610b0d92919061354e565b60405180910390203373ffffffffffffffffffffffffffffffffffffffff167f14d2dd78f4e81d51b9b46b92435d6d228063f73d5176491701e4ff0ff4293a7060405160405180910390a460018081905550505050565b60ca602052816000526040600020602052806000526040600020600091509150508060000154908060010160009054906101000a900473ffffffffffffffffffffffffffffffffffffffff16908060020154908060030160009054906101000a900473ffffffffffffffffffffffffffffffffffffffff16908060040160009054906101000a900473ffffffffffffffffffffffffffffffffffffffff16908060040160149054906101000a900460ff16908060040160159054906101000a900460ff16905087565b60026001541415610c73576040517f08c379a0000000000000000000000000000000000000000000000000000000008152600401610c6a9061315e565b60405180910390fd5b600260018190555060008111610cbe576040517f08c379a0000000000000000000000000000000000000000000000000000000008152600401610cb5906135b3565b60405180910390fd5b60005b8351811015610fa9578273ffffffffffffffffffffffffffffffffffffffff166323b872dd3330878581518110610cfb57610cfa613354565b5b60200260200101516040518463ffffffff1660e01b8152600401610d21939291906135d3565b600060405180830381600087803b158015610d3b57600080fd5b505af1158015610d4f573d6000803e3d6000fd5b505050506040518060e00160405280858381518110610d7157610d70613354565b5b602002602001015181526020018673ffffffffffffffffffffffffffffffffffffffff1681526020018381526020018473ffffffffffffffffffffffffffffffffffffffff1681526020013373ffffffffffffffffffffffffffffffffffffffff1681526020016000151581526020016000151581525060ca6000868481518110610dff57610dfe613354565b5b6020026020010151815260200190815260200160002060008573ffffffffffffffffffffffffffffffffffffffff1673ffffffffffffffffffffffffffffffffffffffff1681526020019081526020016000206000820151816000015560208201518160010160006101000a81548173ffffffffffffffffffffffffffffffffffffffff021916908373ffffffffffffffffffffffffffffffffffffffff1602179055506040820151816002015560608201518160030160006101000a81548173ffffffffffffffffffffffffffffffffffffffff021916908373ffffffffffffffffffffffffffffffffffffffff16021790555060808201518160040160006101000a81548173ffffffffffffffffffffffffffffffffffffffff021916908373ffffffffffffffffffffffffffffffffffffffff16021790555060a08201518160040160146101000a81548160ff02191690831515021790555060c08201518160040160156101000a81548160ff02191690831515021790555090505060c96000815480929190610f919061348a565b91905055508080610fa19061348a565b915050610cc1565b503373ffffffffffffffffffffffffffffffffffffffff168273ffffffffffffffffffffffffffffffffffffffff1684604051610fe691906136b7565b60405180910390207f164c984887c38e4bec91909766c7c6be70fead4e4320f2568ce0ea9cc575790960c954856040516110219291906136ce565b60405180910390a46001808190555050505050565b6002600154141561107c576040517f08c379a00000000000000000000000000000000000000000000000000000000081526004016110739061315e565b60405180910390fd5b6002600181905550600060ca600085815260200190815260200160002060008473ffffffffffffffffffffffffffffffffffffffff1673ffffffffffffffffffffffffffffffffffffffff1681526020019081526020016000206040518060e0016040529081600082015481526020016001820160009054906101000a900473ffffffffffffffffffffffffffffffffffffffff1673ffffffffffffffffffffffffffffffffffffffff1673ffffffffffffffffffffffffffffffffffffffff168152602001600282015481526020016003820160009054906101000a900473ffffffffffffffffffffffffffffffffffffffff1673ffffffffffffffffffffffffffffffffffffffff1673ffffffffffffffffffffffffffffffffffffffff1681526020016004820160009054906101000a900473ffffffffffffffffffffffffffffffffffffffff1673ffffffffffffffffffffffffffffffffffffffff1673ffffffffffffffffffffffffffffffffffffffff1681526020016004820160149054906101000a900460ff161515151581526020016004820160159054906101000a900460ff161515151581525050905060ca600085815260200190815260200160002060008473ffffffffffffffffffffffffffffffffffffffff1673ffffffffffffffffffffffffffffffffffffffff16815260200190815260200160002060040160149054906101000a900460ff166112cf576040517f08c379a00000000000000000000000000000000000000000000000000000000081526004016112c690613743565b60405180910390fd5b6001151560ca600086815260200190815260200160002060008573ffffffffffffffffffffffffffffffffffffffff1673ffffffffffffffffffffffffffffffffffffffff16815260200190815260200160002060040160159054906101000a900460ff1615151514611377576040517f08c379a000000000000000000000000000000000000000000000000000000000815260040161136e906137af565b60405180910390fd5b3373ffffffffffffffffffffffffffffffffffffffff1660ca600086815260200190815260200160002060008573ffffffffffffffffffffffffffffffffffffffff1673ffffffffffffffffffffffffffffffffffffffff16815260200190815260200160002060040160009054906101000a900473ffffffffffffffffffffffffffffffffffffffff1673ffffffffffffffffffffffffffffffffffffffff1614611458576040517f08c379a000000000000000000000000000000000000000000000000000000000815260040161144f9061381b565b60405180910390fd5b600082101561149c576040517f08c379a000000000000000000000000000000000000000000000000000000000815260040161149390613887565b60405180910390fd5b8273ffffffffffffffffffffffffffffffffffffffff166323b872dd60ca600087815260200190815260200160002060008673ffffffffffffffffffffffffffffffffffffffff1673ffffffffffffffffffffffffffffffffffffffff16815260200190815260200160002060040160009054906101000a900473ffffffffffffffffffffffffffffffffffffffff163084600001516040518463ffffffff1660e01b8152600401611550939291906138c8565b600060405180830381600087803b15801561156a57600080fd5b505af115801561157e573d6000803e3d6000fd5b5050505060c960008154809291906115959061348a565b9190505550600060ca600086815260200190815260200160002060008573ffffffffffffffffffffffffffffffffffffffff1673ffffffffffffffffffffffffffffffffffffffff16815260200190815260200160002060040160146101000a81548160ff0219169083151502179055503373ffffffffffffffffffffffffffffffffffffffff16816080015173ffffffffffffffffffffffffffffffffffffffff1682600001517f88540bba37eee96f09d5b2db292b3ffa7b7f99e42e80235fe1a55ebe1c570cfe87878660400151604051611674939291906138ff565b60405180910390a45060018081905550505050565b60008060019054906101000a900460ff161590508080156116ba5750600160008054906101000a900460ff1660ff16105b806116e757506116c9306126d0565b1580156116e65750600160008054906101000a900460ff1660ff16145b5b611726576040517f08c379a000000000000000000000000000000000000000000000000000000000815260040161171d906139a8565b60405180910390fd5b60016000806101000a81548160ff021916908360ff1602179055508015611763576001600060016101000a81548160ff0219169083151502179055505b6117706000801b336126f3565b80156117c95760008060016101000a81548160ff0219169083151502179055507f7f26b83ff96e1f2b6a682f133852f6798a09c465da95921460cefb384740249860016040516117c09190613a10565b60405180910390a15b50565b60026001541415611812576040517f08c379a00000000000000000000000000000000000000000000000000000000081526004016118099061315e565b60405180910390fd5b6002600181905550600060ca600085815260200190815260200160002060008473ffffffffffffffffffffffffffffffffffffffff1673ffffffffffffffffffffffffffffffffffffffff1681526020019081526020016000206040518060e0016040529081600082015481526020016001820160009054906101000a900473ffffffffffffffffffffffffffffffffffffffff1673ffffffffffffffffffffffffffffffffffffffff1673ffffffffffffffffffffffffffffffffffffffff168152602001600282015481526020016003820160009054906101000a900473ffffffffffffffffffffffffffffffffffffffff1673ffffffffffffffffffffffffffffffffffffffff1673ffffffffffffffffffffffffffffffffffffffff1681526020016004820160009054906101000a900473ffffffffffffffffffffffffffffffffffffffff1673ffffffffffffffffffffffffffffffffffffffff1673ffffffffffffffffffffffffffffffffffffffff1681526020016004820160149054906101000a900460ff161515151581526020016004820160159054906101000a900460ff161515151581525050905060008160400151905060ca600086815260200190815260200160002060008573ffffffffffffffffffffffffffffffffffffffff1673ffffffffffffffffffffffffffffffffffffffff16815260200190815260200160002060040160149054906101000a900460ff1615611a6f576040517f08c379a0000000000000000000000000000000000000000000000000000000008152600401611a6690613a77565b60405180910390fd5b80831015611ab2576040517f08c379a0000000000000000000000000000000000000000000000000000000008152600401611aa990613ae3565b60405180910390fd5b816020015173ffffffffffffffffffffffffffffffffffffffff166323b872dd338460800151866040518463ffffffff1660e01b8152600401611af793929190613b03565b602060405180830381600087803b158015611b1157600080fd5b505af1158015611b25573d6000803e3d6000fd5b505050506040513d601f19601f82011682018060405250810190611b499190613b66565b508373ffffffffffffffffffffffffffffffffffffffff166323b872dd303385600001516040518463ffffffff1660e01b8152600401611b8b939291906135d3565b600060405180830381600087803b158015611ba557600080fd5b505af1158015611bb9573d6000803e3d6000fd5b505050503360ca600087815260200190815260200160002060008673ffffffffffffffffffffffffffffffffffffffff1673ffffffffffffffffffffffffffffffffffffffff16815260200190815260200160002060040160006101000a81548173ffffffffffffffffffffffffffffffffffffffff021916908373ffffffffffffffffffffffffffffffffffffffff160217905550600160ca600087815260200190815260200160002060008673ffffffffffffffffffffffffffffffffffffffff1673ffffffffffffffffffffffffffffffffffffffff16815260200190815260200160002060040160146101000a81548160ff02191690831515021790555060c96000815480929190611cce90613b93565b91905055503373ffffffffffffffffffffffffffffffffffffffff16826080015173ffffffffffffffffffffffffffffffffffffffff1683600001517f8499da5cbed7f4c76667f49e6eb9fbbec401e155d096505159678f2c21e6223f88888760400151604051611d41939291906138ff565b60405180910390a4505060018081905550505050565b60006097600084815260200190815260200160002060000160008373ffffffffffffffffffffffffffffffffffffffff1673ffffffffffffffffffffffffffffffffffffffff16815260200190815260200160002060009054906101000a900460ff16905092915050565b60026001541415611e08576040517f08c379a0000000000000000000000000000000000000000000000000000000008152600401611dff9061315e565b60405180910390fd5b600260018190555060008111611e53576040517f08c379a0000000000000000000000000000000000000000000000000000000008152600401611e4a90613c09565b60405180910390fd5b8173ffffffffffffffffffffffffffffffffffffffff166323b872dd3330866040518463ffffffff1660e01b8152600401611e90939291906135d3565b600060405180830381600087803b158015611eaa57600080fd5b505af1158015611ebe573d6000803e3d6000fd5b505050506040518060e001604052808481526020018573ffffffffffffffffffffffffffffffffffffffff1681526020018281526020018373ffffffffffffffffffffffffffffffffffffffff1681526020013373ffffffffffffffffffffffffffffffffffffffff1681526020016000151581526020016000151581525060ca600085815260200190815260200160002060008473ffffffffffffffffffffffffffffffffffffffff1673ffffffffffffffffffffffffffffffffffffffff1681526020019081526020016000206000820151816000015560208201518160010160006101000a81548173ffffffffffffffffffffffffffffffffffffffff021916908373ffffffffffffffffffffffffffffffffffffffff1602179055506040820151816002015560608201518160030160006101000a81548173ffffffffffffffffffffffffffffffffffffffff021916908373ffffffffffffffffffffffffffffffffffffffff16021790555060808201518160040160006101000a81548173ffffffffffffffffffffffffffffffffffffffff021916908373ffffffffffffffffffffffffffffffffffffffff16021790555060a08201518160040160146101000a81548160ff02191690831515021790555060c08201518160040160156101000a81548160ff02191690831515021790555090505060c960008154809291906120cc9061348a565b91905055503373ffffffffffffffffffffffffffffffffffffffff168273ffffffffffffffffffffffffffffffffffffffff16847f70116ca3dcbbb3ae25e77e8fe1ce9d7bc82201fea2142ef972f6cab5c54c8a6d60c954856040516121339291906136ce565b60405180910390a46001808190555050505050565b6000801b81565b61215882610464565b612161816124f1565b61216b83836125ee565b505050565b600260015414156121b6576040517f08c379a00000000000000000000000000000000000000000000000000000000081526004016121ad9061315e565b60405180910390fd5b600260018190555060008111612201576040517f08c379a00000000000000000000000000000000000000000000000000000000081526004016121f890613c75565b60405180910390fd5b60c960008154809291906122149061348a565b91905055506040518060e001604052808481526020018573ffffffffffffffffffffffffffffffffffffffff1681526020018281526020018373ffffffffffffffffffffffffffffffffffffffff1681526020013373ffffffffffffffffffffffffffffffffffffffff1681526020016001151581526020016001151581525060ca600085815260200190815260200160002060008473ffffffffffffffffffffffffffffffffffffffff1673ffffffffffffffffffffffffffffffffffffffff1681526020019081526020016000206000820151816000015560208201518160010160006101000a81548173ffffffffffffffffffffffffffffffffffffffff021916908373ffffffffffffffffffffffffffffffffffffffff1602179055506040820151816002015560608201518160030160006101000a81548173ffffffffffffffffffffffffffffffffffffffff021916908373ffffffffffffffffffffffffffffffffffffffff16021790555060808201518160040160006101000a81548173ffffffffffffffffffffffffffffffffffffffff021916908373ffffffffffffffffffffffffffffffffffffffff16021790555060a08201518160040160146101000a81548160ff02191690831515021790555060c08201518160040160156101000a81548160ff0219169083151502179055509050503373ffffffffffffffffffffffffffffffffffffffff168273ffffffffffffffffffffffffffffffffffffffff16847f70116ca3dcbbb3ae25e77e8fe1ce9d7bc82201fea2142ef972f6cab5c54c8a6d60c954856040516124729291906136ce565b60405180910390a46001808190555050505050565b60007f01ffc9a7000000000000000000000000000000000000000000000000000000007bffffffffffffffffffffffffffffffffffffffffffffffffffffffff1916827bffffffffffffffffffffffffffffffffffffffffffffffffffffffff1916149050919050565b612502816124fd6125e6565b612701565b50565b61250f8282611d57565b6125e25760016097600084815260200190815260200160002060000160008373ffffffffffffffffffffffffffffffffffffffff1673ffffffffffffffffffffffffffffffffffffffff16815260200190815260200160002060006101000a81548160ff0219169083151502179055506125876125e6565b73ffffffffffffffffffffffffffffffffffffffff168173ffffffffffffffffffffffffffffffffffffffff16837f2f8788117e7eff1d82e926ec794901d17c78024a50270940304540a733656f0d60405160405180910390a45b5050565b600033905090565b6125f88282611d57565b156126cc5760006097600084815260200190815260200160002060000160008373ffffffffffffffffffffffffffffffffffffffff1673ffffffffffffffffffffffffffffffffffffffff16815260200190815260200160002060006101000a81548160ff0219169083151502179055506126716125e6565b73ffffffffffffffffffffffffffffffffffffffff168173ffffffffffffffffffffffffffffffffffffffff16837ff6391f5c32d9c69d2a47ea670b442974b53935d1edc7fd64eb21e047a839171b60405160405180910390a45b5050565b6000808273ffffffffffffffffffffffffffffffffffffffff163b119050919050565b6126fd8282612505565b5050565b61270b8282611d57565b61279a576127308173ffffffffffffffffffffffffffffffffffffffff16601461279e565b61273e8360001c602061279e565b60405160200161274f929190613da7565b6040516020818303038152906040526040517f08c379a00000000000000000000000000000000000000000000000000000000081526004016127919190613e1a565b60405180910390fd5b5050565b6060600060028360026127b19190613e3c565b6127bb9190613e96565b67ffffffffffffffff8111156127d4576127d3612e86565b5b6040519080825280601f01601f1916602001820160405280156128065781602001600182028036833780820191505090505b5090507f30000000000000000000000000000000000000000000000000000000000000008160008151811061283e5761283d613354565b5b60200101907effffffffffffffffffffffffffffffffffffffffffffffffffffffffffffff1916908160001a9053507f7800000000000000000000000000000000000000000000000000000000000000816001815181106128a2576128a1613354565b5b60200101907effffffffffffffffffffffffffffffffffffffffffffffffffffffffffffff1916908160001a905350600060018460026128e29190613e3c565b6128ec9190613e96565b90505b600181111561298c577f3031323334353637383961626364656600000000000000000000000000000000600f86166010811061292e5761292d613354565b5b1a60f81b82828151811061294557612944613354565b5b60200101907effffffffffffffffffffffffffffffffffffffffffffffffffffffffffffff1916908160001a905350600485901c94508061298590613b93565b90506128ef565b50600084146129d0576040517f08c379a00000000000000000000000000000000000000000000000000000000081526004016129c790613f38565b60405180910390fd5b8091505092915050565b6000604051905090565b600080fd5b600080fd5b60007fffffffff0000000000000000000000000000000000000000000000000000000082169050919050565b612a23816129ee565b8114612a2e57600080fd5b50565b600081359050612a4081612a1a565b92915050565b600060208284031215612a5c57612a5b6129e4565b5b6000612a6a84828501612a31565b91505092915050565b60008115159050919050565b612a8881612a73565b82525050565b6000602082019050612aa36000830184612a7f565b92915050565b6000819050919050565b612abc81612aa9565b8114612ac757600080fd5b50565b600081359050612ad981612ab3565b92915050565b600060208284031215612af557612af46129e4565b5b6000612b0384828501612aca565b91505092915050565b612b1581612aa9565b82525050565b6000602082019050612b306000830184612b0c565b92915050565b6000819050919050565b612b4981612b36565b8114612b5457600080fd5b50565b600081359050612b6681612b40565b92915050565b600073ffffffffffffffffffffffffffffffffffffffff82169050919050565b6000612b9782612b6c565b9050919050565b612ba781612b8c565b8114612bb257600080fd5b50565b600081359050612bc481612b9e565b92915050565b60008060408385031215612be157612be06129e4565b5b6000612bef85828601612b57565b9250506020612c0085828601612bb5565b9150509250929050565b60008060408385031215612c2157612c206129e4565b5b6000612c2f85828601612aca565b9250506020612c4085828601612bb5565b9150509250929050565b612c5381612b36565b82525050565b6000602082019050612c6e6000830184612c4a565b92915050565b600080fd5b600080fd5b600080fd5b60008083601f840112612c9957612c98612c74565b5b8235905067ffffffffffffffff811115612cb657612cb5612c79565b5b602083019150836020820283011115612cd257612cd1612c7e565b5b9250929050565b600080600060408486031215612cf257612cf16129e4565b5b600084013567ffffffffffffffff811115612d1057612d0f6129e9565b5b612d1c86828701612c83565b93509350506020612d2f86828701612bb5565b9150509250925092565b6000819050919050565b6000612d5e612d59612d5484612b6c565b612d39565b612b6c565b9050919050565b6000612d7082612d43565b9050919050565b6000612d8282612d65565b9050919050565b612d9281612d77565b82525050565b612da181612b8c565b82525050565b6000612db282612b6c565b9050919050565b612dc281612da7565b82525050565b600060e082019050612ddd600083018a612c4a565b612dea6020830189612d89565b612df76040830188612c4a565b612e046060830187612d98565b612e116080830186612db9565b612e1e60a0830185612a7f565b612e2b60c0830184612a7f565b98975050505050505050565b6000612e4282612b8c565b9050919050565b612e5281612e37565b8114612e5d57600080fd5b50565b600081359050612e6f81612e49565b92915050565b6000601f19601f8301169050919050565b7f4e487b7100000000000000000000000000000000000000000000000000000000600052604160045260246000fd5b612ebe82612e75565b810181811067ffffffffffffffff82111715612edd57612edc612e86565b5b80604052505050565b6000612ef06129da565b9050612efc8282612eb5565b919050565b600067ffffffffffffffff821115612f1c57612f1b612e86565b5b602082029050602081019050919050565b6000612f40612f3b84612f01565b612ee6565b90508083825260208201905060208402830185811115612f6357612f62612c7e565b5b835b81811015612f8c5780612f788882612b57565b845260208401935050602081019050612f65565b5050509392505050565b600082601f830112612fab57612faa612c74565b5b8135612fbb848260208601612f2d565b91505092915050565b60008060008060808587031215612fde57612fdd6129e4565b5b6000612fec87828801612e60565b945050602085013567ffffffffffffffff81111561300d5761300c6129e9565b5b61301987828801612f96565b935050604061302a87828801612bb5565b925050606061303b87828801612b57565b91505092959194509250565b6000806000606084860312156130605761305f6129e4565b5b600061306e86828701612b57565b935050602061307f86828701612bb5565b925050604061309086828701612b57565b9150509250925092565b600080600080608085870312156130b4576130b36129e4565b5b60006130c287828801612e60565b94505060206130d387828801612b57565b93505060406130e487828801612bb5565b92505060606130f587828801612b57565b91505092959194509250565b600082825260208201905092915050565b7f5265656e7472616e637947756172643a207265656e7472616e742063616c6c00600082015250565b6000613148601f83613101565b915061315382613112565b602082019050919050565b600060208201905081810360008301526131778161313b565b9050919050565b7f3078313000000000000000000000000000000000000000000000000000000000600082015250565b60006131b4600483613101565b91506131bf8261317e565b602082019050919050565b600060208201905081810360008301526131e3816131a7565b9050919050565b7f3078313100000000000000000000000000000000000000000000000000000000600082015250565b6000613220600483613101565b915061322b826131ea565b602082019050919050565b6000602082019050818103600083015261324f81613213565b9050919050565b7f3078313200000000000000000000000000000000000000000000000000000000600082015250565b600061328c600483613101565b915061329782613256565b602082019050919050565b600060208201905081810360008301526132bb8161327f565b9050919050565b7f416363657373436f6e74726f6c3a2063616e206f6e6c792072656e6f756e636560008201527f20726f6c657320666f722073656c660000000000000000000000000000000000602082015250565b600061331e602f83613101565b9150613329826132c2565b604082019050919050565b6000602082019050818103600083015261334d81613311565b9050919050565b7f4e487b7100000000000000000000000000000000000000000000000000000000600052603260045260246000fd5b7f3078313300000000000000000000000000000000000000000000000000000000600082015250565b60006133b9600483613101565b91506133c482613383565b602082019050919050565b600060208201905081810360008301526133e8816133ac565b9050919050565b7f3078313400000000000000000000000000000000000000000000000000000000600082015250565b6000613425600483613101565b9150613430826133ef565b602082019050919050565b6000602082019050818103600083015261345481613418565b9050919050565b7f4e487b7100000000000000000000000000000000000000000000000000000000600052601160045260246000fd5b600061349582612b36565b91507fffffffffffffffffffffffffffffffffffffffffffffffffffffffffffffffff8214156134c8576134c761345b565b5b600182019050919050565b600081905092915050565b600080fd5b82818337600083830152505050565b60006134fe83856134d3565b93507f07ffffffffffffffffffffffffffffffffffffffffffffffffffffffffffffff831115613531576135306134de565b5b6020830292506135428385846134e3565b82840190509392505050565b600061355b8284866134f2565b91508190509392505050565b7f3078303200000000000000000000000000000000000000000000000000000000600082015250565b600061359d600483613101565b91506135a882613567565b602082019050919050565b600060208201905081810360008301526135cc81613590565b9050919050565b60006060820190506135e86000830186612d98565b6135f56020830185612d98565b6136026040830184612c4a565b949350505050565b600081519050919050565b6000819050602082019050919050565b61362e81612b36565b82525050565b60006136408383613625565b60208301905092915050565b6000602082019050919050565b60006136648261360a565b61366e81856134d3565b935061367983613615565b8060005b838110156136aa5781516136918882613634565b975061369c8361364c565b92505060018101905061367d565b5085935050505092915050565b60006136c38284613659565b915081905092915050565b60006040820190506136e36000830185612c4a565b6136f06020830184612c4a565b9392505050565b7f3078303500000000000000000000000000000000000000000000000000000000600082015250565b600061372d600483613101565b9150613738826136f7565b602082019050919050565b6000602082019050818103600083015261375c81613720565b9050919050565b7f3078303600000000000000000000000000000000000000000000000000000000600082015250565b6000613799600483613101565b91506137a482613763565b602082019050919050565b600060208201905081810360008301526137c88161378c565b9050919050565b7f3078303720000000000000000000000000000000000000000000000000000000600082015250565b6000613805600583613101565b9150613810826137cf565b602082019050919050565b60006020820190508181036000830152613834816137f8565b9050919050565b7f3078303800000000000000000000000000000000000000000000000000000000600082015250565b6000613871600483613101565b915061387c8261383b565b602082019050919050565b600060208201905081810360008301526138a081613864565b9050919050565b60006138b282612d65565b9050919050565b6138c2816138a7565b82525050565b60006060820190506138dd60008301866138b9565b6138ea6020830185612d98565b6138f76040830184612c4a565b949350505050565b60006060820190506139146000830186612c4a565b6139216020830185612d98565b61392e6040830184612c4a565b949350505050565b7f496e697469616c697a61626c653a20636f6e747261637420697320616c72656160008201527f647920696e697469616c697a6564000000000000000000000000000000000000602082015250565b6000613992602e83613101565b915061399d82613936565b604082019050919050565b600060208201905081810360008301526139c181613985565b9050919050565b6000819050919050565b600060ff82169050919050565b60006139fa6139f56139f0846139c8565b612d39565b6139d2565b9050919050565b613a0a816139df565b82525050565b6000602082019050613a256000830184613a01565b92915050565b7f3078303300000000000000000000000000000000000000000000000000000000600082015250565b6000613a61600483613101565b9150613a6c82613a2b565b602082019050919050565b60006020820190508181036000830152613a9081613a54565b9050919050565b7f3078303400000000000000000000000000000000000000000000000000000000600082015250565b6000613acd600483613101565b9150613ad882613a97565b602082019050919050565b60006020820190508181036000830152613afc81613ac0565b9050919050565b6000606082019050613b186000830186612d98565b613b2560208301856138b9565b613b326040830184612c4a565b949350505050565b613b4381612a73565b8114613b4e57600080fd5b50565b600081519050613b6081613b3a565b92915050565b600060208284031215613b7c57613b7b6129e4565b5b6000613b8a84828501613b51565b91505092915050565b6000613b9e82612b36565b91506000821415613bb257613bb161345b565b5b600182039050919050565b7f3078303100000000000000000000000000000000000000000000000000000000600082015250565b6000613bf3600483613101565b9150613bfe82613bbd565b602082019050919050565b60006020820190508181036000830152613c2281613be6565b9050919050565b7f3078303900000000000000000000000000000000000000000000000000000000600082015250565b6000613c5f600483613101565b9150613c6a82613c29565b602082019050919050565b60006020820190508181036000830152613c8e81613c52565b9050919050565b600081905092915050565b7f416363657373436f6e74726f6c3a206163636f756e7420000000000000000000600082015250565b6000613cd6601783613c95565b9150613ce182613ca0565b601782019050919050565b600081519050919050565b60005b83811015613d15578082015181840152602081019050613cfa565b83811115613d24576000848401525b50505050565b6000613d3582613cec565b613d3f8185613c95565b9350613d4f818560208601613cf7565b80840191505092915050565b7f206973206d697373696e6720726f6c6520000000000000000000000000000000600082015250565b6000613d91601183613c95565b9150613d9c82613d5b565b601182019050919050565b6000613db282613cc9565b9150613dbe8285613d2a565b9150613dc982613d84565b9150613dd58284613d2a565b91508190509392505050565b6000613dec82613cec565b613df68185613101565b9350613e06818560208601613cf7565b613e0f81612e75565b840191505092915050565b60006020820190508181036000830152613e348184613de1565b905092915050565b6000613e4782612b36565b9150613e5283612b36565b9250817fffffffffffffffffffffffffffffffffffffffffffffffffffffffffffffffff0483118215151615613e8b57613e8a61345b565b5b828202905092915050565b6000613ea182612b36565b9150613eac83612b36565b9250827fffffffffffffffffffffffffffffffffffffffffffffffffffffffffffffffff03821115613ee157613ee061345b565b5b828201905092915050565b7f537472696e67733a20686578206c656e67746820696e73756666696369656e74600082015250565b6000613f22602083613101565b9150613f2d82613eec565b602082019050919050565b60006020820190508181036000830152613f5181613f15565b905091905056fea2646970667358221220d1df533ccbe106a075e649ce585f2c816dd9441e32ca65038cb64c2b407b0d7564736f6c63430008090033",
  "linkReferences": {},
  "deployedLinkReferences": {}
}