{
	"_format": "hh-sol-artifact-1",
	"contractName": "GalileoMarketplace",
	"sourceName": "contracts/GalileoMarketplace.sol",
	"abi": [
		{
			"anonymous": false,
			"inputs": [
				{
					"indexed": false,
					"internalType": "uint256",
					"name": "itemId",
					"type": "uint256"
				},
				{
					"indexed": true,
					"internalType": "uint256",
					"name": "tokenId",
					"type": "uint256"
				},
				{
					"indexed": false,
					"internalType": "address",
					"name": "tokenAddress",
					"type": "address"
				},
				{
					"indexed": false,
					"internalType": "uint256",
					"name": "price",
					"type": "uint256"
				},
				{
					"indexed": true,
					"internalType": "address",
					"name": "from",
					"type": "address"
				},
				{
					"indexed": true,
					"internalType": "address",
					"name": "to",
					"type": "address"
				}
			],
			"name": "Bought",
			"type": "event"
		},
		{
			"anonymous": false,
			"inputs": [
				{
					"indexed": true,
					"internalType": "address",
					"name": "_to",
					"type": "address"
				},
				{
					"indexed": true,
					"internalType": "uint256",
					"name": "_tokenId",
					"type": "uint256"
				},
				{
					"indexed": true,
					"internalType": "address",
					"name": "tokenAddress",
					"type": "address"
				}
			],
			"name": "DeList",
			"type": "event"
		},
		{
			"anonymous": false,
			"inputs": [
				{
					"indexed": false,
					"internalType": "uint8",
					"name": "version",
					"type": "uint8"
				}
			],
			"name": "Initialized",
			"type": "event"
		},
		{
			"anonymous": false,
			"inputs": [
				{
					"indexed": false,
					"internalType": "uint256",
					"name": "itemId",
					"type": "uint256"
				},
				{
					"indexed": false,
					"internalType": "uint256[]",
					"name": "tokenId",
					"type": "uint256[]"
				},
				{
					"indexed": true,
					"internalType": "address",
					"name": "tokenAddress",
					"type": "address"
				},
				{
					"indexed": false,
					"internalType": "uint256",
					"name": "price",
					"type": "uint256"
				},
				{
					"indexed": true,
					"internalType": "address",
					"name": "to",
					"type": "address"
				},
				{
					"indexed": false,
					"internalType": "address",
					"name": "from",
					"type": "address"
				}
			],
			"name": "OfferedMultiple",
			"type": "event"
		},
		{
			"anonymous": false,
			"inputs": [
				{
					"indexed": false,
					"internalType": "uint256",
					"name": "itemId",
					"type": "uint256"
				},
				{
					"indexed": true,
					"internalType": "uint256",
					"name": "tokenId",
					"type": "uint256"
				},
				{
					"indexed": true,
					"internalType": "address",
					"name": "tokenAddress",
					"type": "address"
				},
				{
					"indexed": false,
					"internalType": "uint256",
					"name": "price",
					"type": "uint256"
				},
				{
					"indexed": true,
					"internalType": "address",
					"name": "to",
					"type": "address"
				},
				{
					"indexed": false,
					"internalType": "address",
					"name": "from",
					"type": "address"
				}
			],
			"name": "OfferedSingle",
			"type": "event"
		},
		{
			"anonymous": false,
			"inputs": [
				{
					"indexed": false,
					"internalType": "uint256",
					"name": "itemId",
					"type": "uint256"
				},
				{
					"indexed": true,
					"internalType": "uint256",
					"name": "tokenId",
					"type": "uint256"
				},
				{
					"indexed": false,
					"internalType": "address",
					"name": "tokenAddress",
					"type": "address"
				},
				{
					"indexed": false,
					"internalType": "uint256",
					"name": "price",
					"type": "uint256"
				},
				{
					"indexed": true,
					"internalType": "address",
					"name": "from",
					"type": "address"
				},
				{
					"indexed": true,
					"internalType": "address",
					"name": "to",
					"type": "address"
				}
			],
			"name": "Resell",
			"type": "event"
		},
		{
			"anonymous": false,
			"inputs": [
				{
					"indexed": true,
					"internalType": "bytes32",
					"name": "role",
					"type": "bytes32"
				},
				{
					"indexed": true,
					"internalType": "bytes32",
					"name": "previousAdminRole",
					"type": "bytes32"
				},
				{
					"indexed": true,
					"internalType": "bytes32",
					"name": "newAdminRole",
					"type": "bytes32"
				}
			],
			"name": "RoleAdminChanged",
			"type": "event"
		},
		{
			"anonymous": false,
			"inputs": [
				{
					"indexed": true,
					"internalType": "bytes32",
					"name": "role",
					"type": "bytes32"
				},
				{
					"indexed": true,
					"internalType": "address",
					"name": "account",
					"type": "address"
				},
				{
					"indexed": true,
					"internalType": "address",
					"name": "sender",
					"type": "address"
				}
			],
			"name": "RoleGranted",
			"type": "event"
		},
		{
			"anonymous": false,
			"inputs": [
				{
					"indexed": true,
					"internalType": "bytes32",
					"name": "role",
					"type": "bytes32"
				},
				{
					"indexed": true,
					"internalType": "address",
					"name": "account",
					"type": "address"
				},
				{
					"indexed": true,
					"internalType": "address",
					"name": "sender",
					"type": "address"
				}
			],
			"name": "RoleRevoked",
			"type": "event"
		},
		{
			"inputs": [],
			"name": "DEFAULT_ADMIN_ROLE",
			"outputs": [
				{
					"internalType": "bytes32",
					"name": "",
					"type": "bytes32"
				}
			],
			"stateMutability": "view",
			"type": "function"
		},
		{
			"inputs": [],
			"name": "SUB_ADMIN_ROLE",
			"outputs": [
				{
					"internalType": "bytes32",
					"name": "",
					"type": "bytes32"
				}
			],
			"stateMutability": "view",
			"type": "function"
		},
		{
			"inputs": [],
			"name": "activeItem",
			"outputs": [
				{
					"internalType": "uint256",
					"name": "",
					"type": "uint256"
				}
			],
			"stateMutability": "view",
			"type": "function"
		},
		{
			"inputs": [],
			"name": "feeAccount",
			"outputs": [
				{
					"internalType": "address payable",
					"name": "",
					"type": "address"
				}
			],
			"stateMutability": "view",
			"type": "function"
		},
		{
			"inputs": [],
			"name": "feePercent",
			"outputs": [
				{
					"internalType": "uint256",
					"name": "",
					"type": "uint256"
				}
			],
			"stateMutability": "view",
			"type": "function"
		},
		{
			"inputs": [],
			"name": "getAddress",
			"outputs": [
				{
					"internalType": "address",
					"name": "",
					"type": "address"
				}
			],
			"stateMutability": "view",
			"type": "function"
		},
		{
			"inputs": [],
			"name": "getInitial",
			"outputs": [
				{
					"internalType": "uint256",
					"name": "",
					"type": "uint256"
				}
			],
			"stateMutability": "view",
			"type": "function"
		},
		{
			"inputs": [
				{
					"internalType": "bytes32",
					"name": "role",
					"type": "bytes32"
				}
			],
			"name": "getRoleAdmin",
			"outputs": [
				{
					"internalType": "bytes32",
					"name": "",
					"type": "bytes32"
				}
			],
			"stateMutability": "view",
			"type": "function"
		},
		{
			"inputs": [
				{
					"internalType": "bytes32",
					"name": "role",
					"type": "bytes32"
				},
				{
					"internalType": "address",
					"name": "account",
					"type": "address"
				}
			],
			"name": "grantRole",
			"outputs": [],
			"stateMutability": "nonpayable",
			"type": "function"
		},
		{
			"inputs": [
				{
					"internalType": "bytes32",
					"name": "role",
					"type": "bytes32"
				},
				{
					"internalType": "address",
					"name": "account",
					"type": "address"
				}
			],
			"name": "hasRole",
			"outputs": [
				{
					"internalType": "bool",
					"name": "",
					"type": "bool"
				}
			],
			"stateMutability": "view",
			"type": "function"
		},
		{
			"inputs": [
				{
					"internalType": "uint256",
					"name": "fee",
					"type": "uint256"
				},
				{
					"internalType": "address payable",
					"name": "owner",
					"type": "address"
				}
			],
			"name": "initialize",
			"outputs": [],
			"stateMutability": "nonpayable",
			"type": "function"
		},
		{
			"inputs": [
				{
					"internalType": "uint256",
					"name": "",
					"type": "uint256"
				},
				{
					"internalType": "address",
					"name": "",
					"type": "address"
				}
			],
			"name": "items",
			"outputs": [
				{
					"internalType": "uint256",
					"name": "tokenId",
					"type": "uint256"
				},
				{
					"internalType": "contract IERC20",
					"name": "token",
					"type": "address"
				},
				{
					"internalType": "uint256",
					"name": "price",
					"type": "uint256"
				},
				{
					"internalType": "address",
					"name": "tokenAddress",
					"type": "address"
				},
				{
					"internalType": "address payable",
					"name": "owner",
					"type": "address"
				},
				{
					"internalType": "bool",
					"name": "isSold",
					"type": "bool"
				},
				{
					"internalType": "bool",
					"name": "isRedeem",
					"type": "bool"
				}
			],
			"stateMutability": "view",
			"type": "function"
		},
		{
			"inputs": [
				{
					"internalType": "contract IERC20",
					"name": "token",
					"type": "address"
				},
				{
					"internalType": "uint256",
					"name": "tokenId",
					"type": "uint256"
				},
				{
					"internalType": "address",
					"name": "tokenAddress",
					"type": "address"
				},
				{
					"internalType": "uint256",
					"name": "price",
					"type": "uint256"
				},
				{
					"internalType": "address",
					"name": "seller",
					"type": "address"
				}
			],
			"name": "makeItem",
			"outputs": [],
			"stateMutability": "nonpayable",
			"type": "function"
		},
		{
			"inputs": [
				{
					"internalType": "contract IERC20",
					"name": "token",
					"type": "address"
				},
				{
					"internalType": "uint256[]",
					"name": "tokenId",
					"type": "uint256[]"
				},
				{
					"internalType": "address",
					"name": "tokenAddress",
					"type": "address"
				},
				{
					"internalType": "uint256",
					"name": "price",
					"type": "uint256"
				},
				{
					"internalType": "address",
					"name": "seller",
					"type": "address"
				}
			],
			"name": "makeItemBulk",
			"outputs": [],
			"stateMutability": "nonpayable",
			"type": "function"
		},
		{
			"inputs": [
				{
					"internalType": "uint256",
					"name": "itemId",
					"type": "uint256"
				},
				{
					"internalType": "address",
					"name": "tokenAddress",
					"type": "address"
				},
				{
					"internalType": "uint256",
					"name": "amount",
					"type": "uint256"
				}
			],
			"name": "purchaseItem",
			"outputs": [],
			"stateMutability": "payable",
			"type": "function"
		},
		{
			"inputs": [
				{
					"internalType": "contract IERC20",
					"name": "token",
					"type": "address"
				},
				{
					"internalType": "uint256",
					"name": "tokenId",
					"type": "uint256"
				},
				{
					"internalType": "address",
					"name": "tokenAddress",
					"type": "address"
				},
				{
					"internalType": "uint256",
					"name": "price",
					"type": "uint256"
				}
			],
			"name": "redeem",
			"outputs": [],
			"stateMutability": "nonpayable",
			"type": "function"
		},
		{
			"inputs": [
				{
					"internalType": "uint256",
					"name": "tokenId",
					"type": "uint256"
				},
				{
					"internalType": "address",
					"name": "tokenAddress",
					"type": "address"
				}
			],
			"name": "redeemNft",
			"outputs": [],
			"stateMutability": "nonpayable",
			"type": "function"
		},
		{
			"inputs": [
				{
					"internalType": "bytes32",
					"name": "role",
					"type": "bytes32"
				},
				{
					"internalType": "address",
					"name": "account",
					"type": "address"
				}
			],
			"name": "renounceRole",
			"outputs": [],
			"stateMutability": "nonpayable",
			"type": "function"
		},
		{
			"inputs": [
				{
					"internalType": "uint256",
					"name": "itemId",
					"type": "uint256"
				},
				{
					"internalType": "address",
					"name": "tokenAddress",
					"type": "address"
				},
				{
					"internalType": "uint256",
					"name": "amount",
					"type": "uint256"
				}
			],
			"name": "resellItem",
			"outputs": [],
			"stateMutability": "payable",
			"type": "function"
		},
		{
			"inputs": [
				{
					"internalType": "bytes32",
					"name": "role",
					"type": "bytes32"
				},
				{
					"internalType": "address",
					"name": "account",
					"type": "address"
				}
			],
			"name": "revokeRole",
			"outputs": [],
			"stateMutability": "nonpayable",
			"type": "function"
		},
		{
			"inputs": [
				{
					"internalType": "address payable",
					"name": "admin",
					"type": "address"
				}
			],
			"name": "setAddress",
			"outputs": [],
			"stateMutability": "nonpayable",
			"type": "function"
		},
		{
			"inputs": [
				{
					"internalType": "uint256",
					"name": "fees",
					"type": "uint256"
				}
			],
			"name": "setFee",
			"outputs": [],
			"stateMutability": "nonpayable",
			"type": "function"
		},
		{
			"inputs": [
				{
					"internalType": "bytes4",
					"name": "interfaceId",
					"type": "bytes4"
				}
			],
			"name": "supportsInterface",
			"outputs": [
				{
					"internalType": "bool",
					"name": "",
					"type": "bool"
				}
			],
			"stateMutability": "view",
			"type": "function"
		}
	],
	"bytecode": "0x608060405234801561001057600080fd5b50612034806100206000396000f3fe6080604052600436106101405760003560e01c806369fe0e2d116100b6578063a217fddf1161006f578063a217fddf14610413578063d547741f14610428578063da35a26f14610448578063e30081a014610468578063f3f094a114610488578063f4bc9a8a146104a857600080fd5b806369fe0e2d1461037757806372de48ae146103975780637fd6f15c146103aa578063823c5fcb146103c057806388787284146103d357806391d14854146103f357600080fd5b80632f2ff15d116101085780632f2ff15d1461021157806336568abe1461023157806337ad8e1a1461025157806338cc48311461026757806354ffe77e1461029957806365e17c9d1461035757600080fd5b806301ffc9a714610145578063022f23541461017a578063248a9ca3146101aa57806326d9dae8146101da5780632979e477146101ef575b600080fd5b34801561015157600080fd5b50610165610160366004611a9e565b6104c8565b60405190151581526020015b60405180910390f35b34801561018657600080fd5b5061019c600080516020611fdf83398151915281565b604051908152602001610171565b3480156101b657600080fd5b5061019c6101c5366004611ac8565b60009081526097602052604090206001015490565b3480156101e657600080fd5b5060cb5461019c565b3480156101fb57600080fd5b5061020f61020a366004611b06565b6104ff565b005b34801561021d57600080fd5b5061020f61022c366004611b06565b6106fe565b34801561023d57600080fd5b5061020f61024c366004611b06565b610728565b34801561025d57600080fd5b5061019c60c95481565b34801561027357600080fd5b5060ca546001600160a01b03165b6040516001600160a01b039091168152602001610171565b3480156102a557600080fd5b506103136102b4366004611b06565b60cc6020908152600092835260408084209091529082529020805460018201546002830154600384015460049094015492936001600160a01b03928316939192908116919081169060ff600160a01b8204811691600160a81b90041687565b604080519788526001600160a01b0396871660208901528701949094529184166060860152909216608084015290151560a0830152151560c082015260e001610171565b34801561036357600080fd5b5060ca54610281906001600160a01b031681565b34801561038357600080fd5b5061020f610392366004611ac8565b6107a6565b61020f6103a5366004611b36565b6107c4565b3480156103b657600080fd5b5061019c60cb5481565b61020f6103ce366004611b36565b610b01565b3480156103df57600080fd5b5061020f6103ee366004611b84565b610e53565b3480156103ff57600080fd5b5061016561040e366004611b06565b6110e3565b34801561041f57600080fd5b5061019c600081565b34801561043457600080fd5b5061020f610443366004611b06565b61110e565b34801561045457600080fd5b5061020f610463366004611b06565b611133565b34801561047457600080fd5b5061020f610483366004611c82565b611280565b34801561049457600080fd5b5061020f6104a3366004611c9f565b6112bb565b3480156104b457600080fd5b5061020f6104c3366004611ce7565b611510565b60006001600160e01b03198216637965db0b60e01b14806104f957506301ffc9a760e01b6001600160e01b03198316145b92915050565b60026001540361052a5760405162461bcd60e51b815260040161052190611d46565b60405180910390fd5b6002600155600082815260cc602090815260408083206001600160a01b0385168452909152902060040154600160a01b900460ff166105a25760405162461bcd60e51b8152602060048201526014602482015273125d195b48125cc8139bdd0814dbdb190816595d60621b6044820152606401610521565b600082815260cc602090815260408083206001600160a01b0385168452909152902060040154600160a81b900460ff161561061f5760405162461bcd60e51b815260206004820152601b60248201527f546865204974656d20497320416c72656164792052656465656d2000000000006044820152606401610521565b600082815260cc602090815260408083206001600160a01b0385811685529252909120600401541633146106955760405162461bcd60e51b815260206004820152601760248201527f43616c6c6572204973204e6f7420546865204f776e65720000000000000000006044820152606401610521565b600082815260cc602090815260408083206001600160a01b0385168085529252808320600401805460ff60a81b1916600160a81b179055519091849133917f43d28a5cba7f615c678abc6d80fcefd540bcb624c33f03fa9fd0c3b04f756a6a91a4505060018055565b60008281526097602052604090206001015461071981611793565b61072383836117a0565b505050565b6001600160a01b03811633146107985760405162461bcd60e51b815260206004820152602f60248201527f416363657373436f6e74726f6c3a2063616e206f6e6c792072656e6f756e636560448201526e103937b632b9903337b91039b2b63360891b6064820152608401610521565b6107a28282611826565b5050565b600080516020611fdf8339815191526107be81611793565b5060cb55565b6002600154036107e65760405162461bcd60e51b815260040161052190611d46565b60026001818155600085815260cc602090815260408083206001600160a01b03808916808652828552838620845160e08101865281548152978101548316888701529788015493870193909352600387015481166060870152600490960154958616608086015260ff600160a01b8704811680151560a0880152600160a81b90970416151560c0860152925252906108b75760405162461bcd60e51b8152602060048201526014602482015273125d195b48125cc8139bdd0814dbdb190816595d60621b6044820152606401610521565b600082116109075760405162461bcd60e51b815260206004820152601f60248201527f5072696365204d7573742042652047726561746572205468616e205a65726f006044820152606401610521565b600084815260cc602090815260408083206001600160a01b0387168452909152902060040154600160a81b900460ff16156109845760405162461bcd60e51b815260206004820152601860248201527f4974656d20495320416c72656164792052656465656d202000000000000000006044820152606401610521565b600084815260cc602090815260408083206001600160a01b0387811685529252909120600401541633146109fa5760405162461bcd60e51b815260206004820152601a60248201527f43616c6c6572204953206e4f7420546865204f776e65722020200000000000006044820152606401610521565b80516040516323b872dd60e01b81526001600160a01b038516916323b872dd91610a2b913391309190600401611d7d565b600060405180830381600087803b158015610a4557600080fd5b505af1158015610a59573d6000803e3d6000fd5b505060c98054925090506000610a6e83611db7565b9091555050600084815260cc602090815260408083206001600160a01b0387811680865291845293829020600401805460ff60a01b19169055608085015185518684015184518b81529586019390935292840191909152339316917f88540bba37eee96f09d5b2db292b3ffa7b7f99e42e80235fe1a55ebe1c570cfe906060015b60405180910390a45050600180555050565b600260015403610b235760405162461bcd60e51b815260040161052190611d46565b60026001818155600085815260cc602090815260408083206001600160a01b03808916808652828552838620845160e081018652815481529781015483168887015297880154938701849052600388015482166060880152600490970154908116608087015260ff600160a01b8204811615801560a0890152600160a81b90920416151560c0870152959093529190529091610bf65760405162461bcd60e51b8152602060048201526012602482015271024ba32b69020b63932b0b23c9029b7b632160751b6044820152606401610521565b80831015610c165760405162461bcd60e51b815260040161052190611dd0565b6000606460cb5485610c289190611e11565b610c329190611e28565b602084015160ca546040516323b872dd60e01b81529293506001600160a01b03918216926323b872dd92610c6f9233929116908690600401611d7d565b6020604051808303816000875af1158015610c8e573d6000803e3d6000fd5b505050506040513d601f19601f82011682018060405250810190610cb29190611e4a565b5082602001516001600160a01b03166323b872dd338560800151876040518463ffffffff1660e01b8152600401610ceb93929190611d7d565b6020604051808303816000875af1158015610d0a573d6000803e3d6000fd5b505050506040513d601f19601f82011682018060405250810190610d2e9190611e4a565b5082516040516323b872dd60e01b81526001600160a01b038716916323b872dd91610d60913091339190600401611d7d565b600060405180830381600087803b158015610d7a57600080fd5b505af1158015610d8e573d6000803e3d6000fd5b505050600087815260cc602090815260408083206001600160a01b038a16845290915281206004018054600160a01b6001600160a81b03199091163360ff60a01b19161717905560c98054925090610de583611e6c565b90915550506080830151835160408086015181518a81526001600160a01b038a8116602083015292810191909152339390911691907f8499da5cbed7f4c76667f49e6eb9fbbec401e155d096505159678f2c21e6223f9060600160405180910390a450506001805550505050565b600260015403610e755760405162461bcd60e51b815260040161052190611d46565b600260015581610e975760405162461bcd60e51b815260040161052190611dd0565b60c95460005b855181101561108657846001600160a01b03166323b872dd3330898581518110610ec957610ec9611e83565b60200260200101516040518463ffffffff1660e01b8152600401610eef93929190611d7d565b600060405180830381600087803b158015610f0957600080fd5b505af1158015610f1d573d6000803e3d6000fd5b505050508180610f2c90611db7565b9250506040518060e00160405280878381518110610f4c57610f4c611e83565b60200260200101518152602001886001600160a01b03168152602001858152602001866001600160a01b03168152602001846001600160a01b031681526020016000151581526020016000151581525060cc6000888481518110610fb257610fb2611e83565b602090810291909101810151825281810192909252604090810160009081206001600160a01b03808b1683529084529082902084518155928401516001840180549183166001600160a01b03199283161790559184015160028401556060840151600384018054918316919093161790915560808301516004909201805460a085015160c0909501511515600160a81b0260ff60a81b19951515600160a01b026001600160a81b0319909216949093169390931792909217929092169190911790558061107e81611db7565b915050610e9d565b5060c981905560405130906001600160a01b038616907fd086203ce869f2497bd88f8255200ea8ed47cccd4bd896205cdf0dabef0674ec906110cf9085908a9089903390611e99565b60405180910390a350506001805550505050565b60009182526097602090815260408084206001600160a01b0393909316845291905290205460ff1690565b60008281526097602052604090206001015461112981611793565b6107238383611826565b600054610100900460ff16158080156111535750600054600160ff909116105b8061116d5750303b15801561116d575060005460ff166001145b6111d05760405162461bcd60e51b815260206004820152602e60248201527f496e697469616c697a61626c653a20636f6e747261637420697320616c72656160448201526d191e481a5b9a5d1a585b1a5e995960921b6064820152608401610521565b6000805460ff1916600117905580156111f3576000805461ff0019166101001790555b6111fe60003361188d565b611216600080516020611fdf8339815191523361188d565b60ca80546001600160a01b0319166001600160a01b03841617905560cb8390558015610723576000805461ff0019169055604051600181527f7f26b83ff96e1f2b6a682f133852f6798a09c465da95921460cefb38474024989060200160405180910390a1505050565b600080516020611fdf83398151915261129881611793565b5060ca80546001600160a01b0319166001600160a01b0392909216919091179055565b6002600154036112dd5760405162461bcd60e51b815260040161052190611d46565b60026001558061132f5760405162461bcd60e51b815260206004820152601f60248201527f5072696365204d7573742042652047726561746572205468616e205a65726f006044820152606401610521565b60c9805490600061133f83611db7565b91905055506040518060e00160405280848152602001856001600160a01b03168152602001828152602001836001600160a01b03168152602001336001600160a01b031681526020016001151581526020016001151581525060cc60008581526020019081526020016000206000846001600160a01b03166001600160a01b031681526020019081526020016000206000820151816000015560208201518160010160006101000a8154816001600160a01b0302191690836001600160a01b031602179055506040820151816002015560608201518160030160006101000a8154816001600160a01b0302191690836001600160a01b0316021790555060808201518160040160006101000a8154816001600160a01b0302191690836001600160a01b0316021790555060a08201518160040160146101000a81548160ff02191690831515021790555060c08201518160040160156101000a81548160ff021916908315150217905550905050306001600160a01b0316826001600160a01b0316847fbed0132932bdadd534755009eced852154d17882fc92513bcc4956182326e84760c9548533604051610aef9392919092835260208301919091526001600160a01b0316604082015260600190565b6002600154036115325760405162461bcd60e51b815260040161052190611d46565b6002600155816115545760405162461bcd60e51b815260040161052190611dd0565b6040516323b872dd60e01b81526001600160a01b038416906323b872dd9061158490339030908990600401611d7d565b600060405180830381600087803b15801561159e57600080fd5b505af11580156115b2573d6000803e3d6000fd5b505050506040518060e00160405280858152602001866001600160a01b03168152602001838152602001846001600160a01b03168152602001826001600160a01b031681526020016000151581526020016000151581525060cc60008681526020019081526020016000206000856001600160a01b03166001600160a01b031681526020019081526020016000206000820151816000015560208201518160010160006101000a8154816001600160a01b0302191690836001600160a01b031602179055506040820151816002015560608201518160030160006101000a8154816001600160a01b0302191690836001600160a01b0316021790555060808201518160040160006101000a8154816001600160a01b0302191690836001600160a01b0316021790555060a08201518160040160146101000a81548160ff02191690831515021790555060c08201518160040160156101000a81548160ff02191690831515021790555090505060c9600081548092919061173190611db7565b909155505060c9546040805191825260208201849052339082015230906001600160a01b0385169086907fbed0132932bdadd534755009eced852154d17882fc92513bcc4956182326e8479060600160405180910390a4505060018055505050565b61179d8133611897565b50565b6117aa82826110e3565b6107a25760008281526097602090815260408083206001600160a01b03851684529091529020805460ff191660011790556117e23390565b6001600160a01b0316816001600160a01b0316837f2f8788117e7eff1d82e926ec794901d17c78024a50270940304540a733656f0d60405160405180910390a45050565b61183082826110e3565b156107a25760008281526097602090815260408083206001600160a01b0385168085529252808320805460ff1916905551339285917ff6391f5c32d9c69d2a47ea670b442974b53935d1edc7fd64eb21e047a839171b9190a45050565b6107a282826117a0565b6118a182826110e3565b6107a2576118b9816001600160a01b031660146118fb565b6118c48360206118fb565b6040516020016118d5929190611f23565b60408051601f198184030181529082905262461bcd60e51b825261052191600401611f98565b6060600061190a836002611e11565b611915906002611fcb565b67ffffffffffffffff81111561192d5761192d611b6e565b6040519080825280601f01601f191660200182016040528015611957576020820181803683370190505b509050600360fc1b8160008151811061197257611972611e83565b60200101906001600160f81b031916908160001a905350600f60fb1b816001815181106119a1576119a1611e83565b60200101906001600160f81b031916908160001a90535060006119c5846002611e11565b6119d0906001611fcb565b90505b6001811115611a48576f181899199a1a9b1b9c1cb0b131b232b360811b85600f1660108110611a0457611a04611e83565b1a60f81b828281518110611a1a57611a1a611e83565b60200101906001600160f81b031916908160001a90535060049490941c93611a4181611e6c565b90506119d3565b508315611a975760405162461bcd60e51b815260206004820181905260248201527f537472696e67733a20686578206c656e67746820696e73756666696369656e746044820152606401610521565b9392505050565b600060208284031215611ab057600080fd5b81356001600160e01b031981168114611a9757600080fd5b600060208284031215611ada57600080fd5b5035919050565b6001600160a01b038116811461179d57600080fd5b8035611b0181611ae1565b919050565b60008060408385031215611b1957600080fd5b823591506020830135611b2b81611ae1565b809150509250929050565b600080600060608486031215611b4b57600080fd5b833592506020840135611b5d81611ae1565b929592945050506040919091013590565b634e487b7160e01b600052604160045260246000fd5b600080600080600060a08688031215611b9c57600080fd5b8535611ba781611ae1565b945060208681013567ffffffffffffffff80821115611bc557600080fd5b818901915089601f830112611bd957600080fd5b813581811115611beb57611beb611b6e565b8060051b604051601f19603f83011681018181108582111715611c1057611c10611b6e565b60405291825284820192508381018501918c831115611c2e57600080fd5b938501935b82851015611c4c57843584529385019392850192611c33565b809950505050505050611c6160408701611af6565b925060608601359150611c7660808701611af6565b90509295509295909350565b600060208284031215611c9457600080fd5b8135611a9781611ae1565b60008060008060808587031215611cb557600080fd5b8435611cc081611ae1565b9350602085013592506040850135611cd781611ae1565b9396929550929360600135925050565b600080600080600060a08688031215611cff57600080fd5b8535611d0a81611ae1565b9450602086013593506040860135611d2181611ae1565b9250606086013591506080860135611d3881611ae1565b809150509295509295909350565b6020808252601f908201527f5265656e7472616e637947756172643a207265656e7472616e742063616c6c00604082015260600190565b6001600160a01b039384168152919092166020820152604081019190915260600190565b634e487b7160e01b600052601160045260246000fd5b600060018201611dc957611dc9611da1565b5060010190565b60208082526021908201527f5072696365204d7573742042652047726561746572205468616e20416d6f756e6040820152601d60fa1b606082015260800190565b80820281158282048414176104f9576104f9611da1565b600082611e4557634e487b7160e01b600052601260045260246000fd5b500490565b600060208284031215611e5c57600080fd5b81518015158114611a9757600080fd5b600081611e7b57611e7b611da1565b506000190190565b634e487b7160e01b600052603260045260246000fd5b600060808201868352602060808185015281875180845260a086019150828901935060005b81811015611eda57845183529383019391830191600101611ebe565b505060408501969096525050506001600160a01b039190911660609091015292915050565b60005b83811015611f1a578181015183820152602001611f02565b50506000910152565b7f416363657373436f6e74726f6c3a206163636f756e7420000000000000000000815260008351611f5b816017850160208801611eff565b7001034b99036b4b9b9b4b733903937b6329607d1b6017918401918201528351611f8c816028840160208801611eff565b01602801949350505050565b6020815260008251806020840152611fb7816040850160208701611eff565b601f01601f19169190910160400192915050565b808201808211156104f9576104f9611da156fed2e4c2619ea6e0faebc405d89445161c041e30fe03373ea0473da142d57d4514a2646970667358221220b83b1a6d4c3645044e75074002ca1c63409a93a9271508af04eda235e48a1b3764736f6c63430008120033",
	"linkReferences": {},
	"deployedLinkReferences": {}
}