{
	"_format": "hh-sol-artifact-1",
	"contractName": "GalileoMarketplace",
	"sourceName": "contracts/GalileoMarketplace.sol",
	"abi": [
		{
			"anonymous": false,
			"inputs": [
				{
					"indexed": false,
					"internalType": "uint256",
					"name": "itemId",
					"type": "uint256"
				},
				{
					"indexed": true,
					"internalType": "uint256",
					"name": "tokenId",
					"type": "uint256"
				},
				{
					"indexed": false,
					"internalType": "address",
					"name": "tokenAddress",
					"type": "address"
				},
				{
					"indexed": false,
					"internalType": "uint256",
					"name": "price",
					"type": "uint256"
				},
				{
					"indexed": true,
					"internalType": "address",
					"name": "from",
					"type": "address"
				},
				{
					"indexed": true,
					"internalType": "address",
					"name": "to",
					"type": "address"
				}
			],
			"name": "Bought",
			"type": "event"
		},
		{
			"anonymous": false,
			"inputs": [
				{
					"indexed": true,
					"internalType": "address",
					"name": "_to",
					"type": "address"
				},
				{
					"indexed": true,
					"internalType": "uint256",
					"name": "_tokenId",
					"type": "uint256"
				},
				{
					"indexed": true,
					"internalType": "address",
					"name": "tokenAddress",
					"type": "address"
				}
			],
			"name": "DeList",
			"type": "event"
		},
		{
			"anonymous": false,
			"inputs": [
				{
					"indexed": true,
					"internalType": "address",
					"name": "_to",
					"type": "address"
				},
				{
					"indexed": true,
					"internalType": "uint256[]",
					"name": "_tokenId",
					"type": "uint256[]"
				},
				{
					"indexed": true,
					"internalType": "address",
					"name": "tokenAddress",
					"type": "address"
				}
			],
			"name": "DeListBulk",
			"type": "event"
		},
		{
			"anonymous": false,
			"inputs": [
				{
					"indexed": false,
					"internalType": "uint8",
					"name": "version",
					"type": "uint8"
				}
			],
			"name": "Initialized",
			"type": "event"
		},
		{
			"anonymous": false,
			"inputs": [
				{
					"indexed": false,
					"internalType": "uint256",
					"name": "itemId",
					"type": "uint256"
				},
				{
					"indexed": true,
					"internalType": "uint256[]",
					"name": "tokenId",
					"type": "uint256[]"
				},
				{
					"indexed": true,
					"internalType": "address",
					"name": "tokenAddress",
					"type": "address"
				},
				{
					"indexed": false,
					"internalType": "uint256",
					"name": "price",
					"type": "uint256"
				},
				{
					"indexed": true,
					"internalType": "address",
					"name": "to",
					"type": "address"
				},
				{
					"indexed": false,
					"internalType": "address",
					"name": "from",
					"type": "address"
				}
			],
			"name": "OfferedMultiple",
			"type": "event"
		},
		{
			"anonymous": false,
			"inputs": [
				{
					"indexed": false,
					"internalType": "uint256",
					"name": "itemId",
					"type": "uint256"
				},
				{
					"indexed": true,
					"internalType": "uint256",
					"name": "tokenId",
					"type": "uint256"
				},
				{
					"indexed": true,
					"internalType": "address",
					"name": "tokenAddress",
					"type": "address"
				},
				{
					"indexed": false,
					"internalType": "uint256",
					"name": "price",
					"type": "uint256"
				},
				{
					"indexed": true,
					"internalType": "address",
					"name": "to",
					"type": "address"
				},
				{
					"indexed": false,
					"internalType": "address",
					"name": "from",
					"type": "address"
				}
			],
			"name": "OfferedSingle",
			"type": "event"
		},
		{
			"anonymous": false,
			"inputs": [
				{
					"indexed": false,
					"internalType": "uint256",
					"name": "itemId",
					"type": "uint256"
				},
				{
					"indexed": true,
					"internalType": "uint256",
					"name": "tokenId",
					"type": "uint256"
				},
				{
					"indexed": false,
					"internalType": "address",
					"name": "tokenAddress",
					"type": "address"
				},
				{
					"indexed": false,
					"internalType": "uint256",
					"name": "price",
					"type": "uint256"
				},
				{
					"indexed": true,
					"internalType": "address",
					"name": "from",
					"type": "address"
				},
				{
					"indexed": true,
					"internalType": "address",
					"name": "to",
					"type": "address"
				}
			],
			"name": "Resell",
			"type": "event"
		},
		{
			"anonymous": false,
			"inputs": [
				{
					"indexed": true,
					"internalType": "bytes32",
					"name": "role",
					"type": "bytes32"
				},
				{
					"indexed": true,
					"internalType": "bytes32",
					"name": "previousAdminRole",
					"type": "bytes32"
				},
				{
					"indexed": true,
					"internalType": "bytes32",
					"name": "newAdminRole",
					"type": "bytes32"
				}
			],
			"name": "RoleAdminChanged",
			"type": "event"
		},
		{
			"anonymous": false,
			"inputs": [
				{
					"indexed": true,
					"internalType": "bytes32",
					"name": "role",
					"type": "bytes32"
				},
				{
					"indexed": true,
					"internalType": "address",
					"name": "account",
					"type": "address"
				},
				{
					"indexed": true,
					"internalType": "address",
					"name": "sender",
					"type": "address"
				}
			],
			"name": "RoleGranted",
			"type": "event"
		},
		{
			"anonymous": false,
			"inputs": [
				{
					"indexed": true,
					"internalType": "bytes32",
					"name": "role",
					"type": "bytes32"
				},
				{
					"indexed": true,
					"internalType": "address",
					"name": "account",
					"type": "address"
				},
				{
					"indexed": true,
					"internalType": "address",
					"name": "sender",
					"type": "address"
				}
			],
			"name": "RoleRevoked",
			"type": "event"
		},
		{
			"inputs": [],
			"name": "DEFAULT_ADMIN_ROLE",
			"outputs": [
				{
					"internalType": "bytes32",
					"name": "",
					"type": "bytes32"
				}
			],
			"stateMutability": "view",
			"type": "function"
		},
		{
			"inputs": [],
			"name": "activeItem",
			"outputs": [
				{
					"internalType": "uint256",
					"name": "",
					"type": "uint256"
				}
			],
			"stateMutability": "view",
			"type": "function"
		},
		{
			"inputs": [
				{
					"internalType": "bytes32",
					"name": "role",
					"type": "bytes32"
				}
			],
			"name": "getRoleAdmin",
			"outputs": [
				{
					"internalType": "bytes32",
					"name": "",
					"type": "bytes32"
				}
			],
			"stateMutability": "view",
			"type": "function"
		},
		{
			"inputs": [
				{
					"internalType": "bytes32",
					"name": "role",
					"type": "bytes32"
				},
				{
					"internalType": "address",
					"name": "account",
					"type": "address"
				}
			],
			"name": "grantRole",
			"outputs": [],
			"stateMutability": "nonpayable",
			"type": "function"
		},
		{
			"inputs": [
				{
					"internalType": "bytes32",
					"name": "role",
					"type": "bytes32"
				},
				{
					"internalType": "address",
					"name": "account",
					"type": "address"
				}
			],
			"name": "hasRole",
			"outputs": [
				{
					"internalType": "bool",
					"name": "",
					"type": "bool"
				}
			],
			"stateMutability": "view",
			"type": "function"
		},
		{
			"inputs": [],
			"name": "initialize",
			"outputs": [],
			"stateMutability": "nonpayable",
			"type": "function"
		},
		{
			"inputs": [
				{
					"internalType": "uint256",
					"name": "",
					"type": "uint256"
				},
				{
					"internalType": "address",
					"name": "",
					"type": "address"
				}
			],
			"name": "items",
			"outputs": [
				{
					"internalType": "uint256",
					"name": "tokenId",
					"type": "uint256"
				},
				{
					"internalType": "contract IERC20",
					"name": "token",
					"type": "address"
				},
				{
					"internalType": "uint256",
					"name": "price",
					"type": "uint256"
				},
				{
					"internalType": "address",
					"name": "tokenAddress",
					"type": "address"
				},
				{
					"internalType": "address payable",
					"name": "owner",
					"type": "address"
				},
				{
					"internalType": "bool",
					"name": "isSold",
					"type": "bool"
				},
				{
					"internalType": "bool",
					"name": "isRedeem",
					"type": "bool"
				}
			],
			"stateMutability": "view",
			"type": "function"
		},
		{
			"inputs": [
				{
					"internalType": "contract IERC20",
					"name": "token",
					"type": "address"
				},
				{
					"internalType": "uint256",
					"name": "tokenId",
					"type": "uint256"
				},
				{
					"internalType": "address",
					"name": "tokenAddress",
					"type": "address"
				},
				{
					"internalType": "uint256",
					"name": "price",
					"type": "uint256"
				},
				{
					"internalType": "address",
					"name": "seller",
					"type": "address"
				}
			],
			"name": "makeItem",
			"outputs": [],
			"stateMutability": "nonpayable",
			"type": "function"
		},
		{
			"inputs": [
				{
					"internalType": "contract IERC20",
					"name": "token",
					"type": "address"
				},
				{
					"internalType": "uint256[]",
					"name": "tokenId",
					"type": "uint256[]"
				},
				{
					"internalType": "address",
					"name": "tokenAddress",
					"type": "address"
				},
				{
					"internalType": "uint256",
					"name": "price",
					"type": "uint256"
				},
				{
					"internalType": "address",
					"name": "seller",
					"type": "address"
				}
			],
			"name": "makeItemBulk",
			"outputs": [],
			"stateMutability": "nonpayable",
			"type": "function"
		},
		{
			"inputs": [
				{
					"internalType": "uint256",
					"name": "itemId",
					"type": "uint256"
				},
				{
					"internalType": "address",
					"name": "tokenAddress",
					"type": "address"
				},
				{
					"internalType": "uint256",
					"name": "amount",
					"type": "uint256"
				}
			],
			"name": "purchaseItem",
			"outputs": [],
			"stateMutability": "payable",
			"type": "function"
		},
		{
			"inputs": [
				{
					"internalType": "contract IERC20",
					"name": "token",
					"type": "address"
				},
				{
					"internalType": "uint256",
					"name": "tokenId",
					"type": "uint256"
				},
				{
					"internalType": "address",
					"name": "tokenAddress",
					"type": "address"
				},
				{
					"internalType": "uint256",
					"name": "price",
					"type": "uint256"
				}
			],
			"name": "redeem",
			"outputs": [],
			"stateMutability": "nonpayable",
			"type": "function"
		},
		{
			"inputs": [
				{
					"internalType": "uint256",
					"name": "tokenId",
					"type": "uint256"
				},
				{
					"internalType": "address",
					"name": "tokenAddress",
					"type": "address"
				}
			],
			"name": "redeemNft",
			"outputs": [],
			"stateMutability": "nonpayable",
			"type": "function"
		},
		{
			"inputs": [
				{
					"internalType": "bytes32",
					"name": "role",
					"type": "bytes32"
				},
				{
					"internalType": "address",
					"name": "account",
					"type": "address"
				}
			],
			"name": "renounceRole",
			"outputs": [],
			"stateMutability": "nonpayable",
			"type": "function"
		},
		{
			"inputs": [
				{
					"internalType": "uint256",
					"name": "itemId",
					"type": "uint256"
				},
				{
					"internalType": "address",
					"name": "tokenAddress",
					"type": "address"
				},
				{
					"internalType": "uint256",
					"name": "amount",
					"type": "uint256"
				}
			],
			"name": "resellItem",
			"outputs": [],
			"stateMutability": "payable",
			"type": "function"
		},
		{
			"inputs": [
				{
					"internalType": "bytes32",
					"name": "role",
					"type": "bytes32"
				},
				{
					"internalType": "address",
					"name": "account",
					"type": "address"
				}
			],
			"name": "revokeRole",
			"outputs": [],
			"stateMutability": "nonpayable",
			"type": "function"
		},
		{
			"inputs": [
				{
					"internalType": "bytes4",
					"name": "interfaceId",
					"type": "bytes4"
				}
			],
			"name": "supportsInterface",
			"outputs": [
				{
					"internalType": "bool",
					"name": "",
					"type": "bool"
				}
			],
			"stateMutability": "view",
			"type": "function"
		}
	],
	"bytecode": "0x608060405234801561001057600080fd5b50611d48806100206000396000f3fe6080604052600436106100f35760003560e01c80638129fc1c1161008a578063a217fddf11610059578063a217fddf1461031c578063d547741f14610331578063f3f094a114610351578063f4bc9a8a1461037157600080fd5b80638129fc1c146102b4578063823c5fcb146102c957806388787284146102dc57806391d14854146102fc57600080fd5b806336568abe116100c657806336568abe146101ad57806337ad8e1a146101cd57806354ffe77e146101e357806372de48ae146102a157600080fd5b806301ffc9a7146100f8578063248a9ca31461012d5780632979e4771461016b5780632f2ff15d1461018d575b600080fd5b34801561010457600080fd5b50610118610113366004611841565b610391565b60405190151581526020015b60405180910390f35b34801561013957600080fd5b5061015d61014836600461186b565b60009081526097602052604090206001015490565b604051908152602001610124565b34801561017757600080fd5b5061018b6101863660046118a9565b6103c8565b005b34801561019957600080fd5b5061018b6101a83660046118a9565b6105c7565b3480156101b957600080fd5b5061018b6101c83660046118a9565b6105f1565b3480156101d957600080fd5b5061015d60c95481565b3480156101ef57600080fd5b5061025d6101fe3660046118a9565b60ca6020908152600092835260408084209091529082529020805460018201546002830154600384015460049094015492936001600160a01b03928316939192908116919081169060ff600160a01b8204811691600160a81b90041687565b604080519788526001600160a01b0396871660208901528701949094529184166060860152909216608084015290151560a0830152151560c082015260e001610124565b61018b6102af3660046118d9565b61066f565b3480156102c057600080fd5b5061018b6109ac565b61018b6102d73660046118d9565b610ac0565b3480156102e857600080fd5b5061018b6102f7366004611927565b610d75565b34801561030857600080fd5b506101186103173660046118a9565b61101f565b34801561032857600080fd5b5061015d600081565b34801561033d57600080fd5b5061018b61034c3660046118a9565b61104a565b34801561035d57600080fd5b5061018b61036c366004611a25565b61106f565b34801561037d57600080fd5b5061018b61038c366004611a6d565b6112c4565b60006001600160e01b03198216637965db0b60e01b14806103c257506301ffc9a760e01b6001600160e01b03198316145b92915050565b6002600154036103f35760405162461bcd60e51b81526004016103ea90611acc565b60405180910390fd5b6002600155600082815260ca602090815260408083206001600160a01b0385168452909152902060040154600160a01b900460ff1661046b5760405162461bcd60e51b8152602060048201526014602482015273125d195b48125cc8139bdd0814dbdb190816595d60621b60448201526064016103ea565b600082815260ca602090815260408083206001600160a01b0385168452909152902060040154600160a81b900460ff16156104e85760405162461bcd60e51b815260206004820152601b60248201527f546865204974656d20497320416c72656164792052656465656d20000000000060448201526064016103ea565b600082815260ca602090815260408083206001600160a01b03858116855292529091206004015416331461055e5760405162461bcd60e51b815260206004820152601760248201527f43616c6c6572204973204e6f7420546865204f776e657200000000000000000060448201526064016103ea565b600082815260ca602090815260408083206001600160a01b0385168085529252808320600401805460ff60a81b1916600160a81b179055519091849133917f43d28a5cba7f615c678abc6d80fcefd540bcb624c33f03fa9fd0c3b04f756a6a91a4505060018055565b6000828152609760205260409020600101546105e281611539565b6105ec8383611543565b505050565b6001600160a01b03811633146106615760405162461bcd60e51b815260206004820152602f60248201527f416363657373436f6e74726f6c3a2063616e206f6e6c792072656e6f756e636560448201526e103937b632b9903337b91039b2b63360891b60648201526084016103ea565b61066b82826115c9565b5050565b6002600154036106915760405162461bcd60e51b81526004016103ea90611acc565b60026001818155600085815260ca602090815260408083206001600160a01b03808916808652828552838620845160e08101865281548152978101548316888701529788015493870193909352600387015481166060870152600490960154958616608086015260ff600160a01b8704811680151560a0880152600160a81b90970416151560c0860152925252906107625760405162461bcd60e51b8152602060048201526014602482015273125d195b48125cc8139bdd0814dbdb190816595d60621b60448201526064016103ea565b600082116107b25760405162461bcd60e51b815260206004820152601f60248201527f5072696365204d7573742042652047726561746572205468616e205a65726f0060448201526064016103ea565b600084815260ca602090815260408083206001600160a01b0387168452909152902060040154600160a81b900460ff161561082f5760405162461bcd60e51b815260206004820152601860248201527f4974656d20495320416c72656164792052656465656d2020000000000000000060448201526064016103ea565b600084815260ca602090815260408083206001600160a01b0387811685529252909120600401541633146108a55760405162461bcd60e51b815260206004820152601a60248201527f43616c6c6572204953206e4f7420546865204f776e657220202000000000000060448201526064016103ea565b80516040516323b872dd60e01b81526001600160a01b038516916323b872dd916108d6913391309190600401611b03565b600060405180830381600087803b1580156108f057600080fd5b505af1158015610904573d6000803e3d6000fd5b505060c9805492509050600061091983611b3d565b9091555050600084815260ca602090815260408083206001600160a01b0387811680865291845293829020600401805460ff60a01b19169055608085015185518684015184518b81529586019390935292840191909152339316917f88540bba37eee96f09d5b2db292b3ffa7b7f99e42e80235fe1a55ebe1c570cfe906060015b60405180910390a45050600180555050565b600054610100900460ff16158080156109cc5750600054600160ff909116105b806109e65750303b1580156109e6575060005460ff166001145b610a495760405162461bcd60e51b815260206004820152602e60248201527f496e697469616c697a61626c653a20636f6e747261637420697320616c72656160448201526d191e481a5b9a5d1a585b1a5e995960921b60648201526084016103ea565b6000805460ff191660011790558015610a6c576000805461ff0019166101001790555b610a77600033611630565b8015610abd576000805461ff0019169055604051600181527f7f26b83ff96e1f2b6a682f133852f6798a09c465da95921460cefb38474024989060200160405180910390a15b50565b600260015403610ae25760405162461bcd60e51b81526004016103ea90611acc565b60026001818155600085815260ca602090815260408083206001600160a01b03808916808652828552838620845160e081018652815481529781015483168887015297880154938701849052600388015482166060880152600490970154908116608087015260ff600160a01b8204811615801560a0890152600160a81b90920416151560c0870152959093529190529091610bb55760405162461bcd60e51b8152602060048201526012602482015271024ba32b69020b63932b0b23c9029b7b632160751b60448201526064016103ea565b80831015610bd55760405162461bcd60e51b81526004016103ea90611b56565b81602001516001600160a01b03166323b872dd338460800151866040518463ffffffff1660e01b8152600401610c0d93929190611b03565b6020604051808303816000875af1158015610c2c573d6000803e3d6000fd5b505050506040513d601f19601f82011682018060405250810190610c509190611b97565b5081516040516323b872dd60e01b81526001600160a01b038616916323b872dd91610c82913091339190600401611b03565b600060405180830381600087803b158015610c9c57600080fd5b505af1158015610cb0573d6000803e3d6000fd5b505050600086815260ca602090815260408083206001600160a01b038916845290915281206004018054600160a01b6001600160a81b03199091163360ff60a01b19161717905560c98054925090610d0783611bb9565b90915550506080820151825160408085015181518981526001600160a01b03898116602083015292810191909152339390911691907f8499da5cbed7f4c76667f49e6eb9fbbec401e155d096505159678f2c21e6223f906060015b60405180910390a4505060018055505050565b600260015403610d975760405162461bcd60e51b81526004016103ea90611acc565b600260015581610db95760405162461bcd60e51b81526004016103ea90611b56565b60c95460005b8551811015610fa857846001600160a01b03166323b872dd3330898581518110610deb57610deb611bd0565b60200260200101516040518463ffffffff1660e01b8152600401610e1193929190611b03565b600060405180830381600087803b158015610e2b57600080fd5b505af1158015610e3f573d6000803e3d6000fd5b505050508180610e4e90611b3d565b9250506040518060e00160405280878381518110610e6e57610e6e611bd0565b60200260200101518152602001886001600160a01b03168152602001858152602001866001600160a01b03168152602001846001600160a01b031681526020016000151581526020016000151581525060ca6000888481518110610ed457610ed4611bd0565b602090810291909101810151825281810192909252604090810160009081206001600160a01b03808b1683529084529082902084518155928401516001840180549183166001600160a01b03199283161790559184015160028401556060840151600384018054918316919093161790915560808301516004909201805460a085015160c0909501511515600160a81b0260ff60a81b19951515600160a01b026001600160a81b03199092169490931693909317929092179290921691909117905580610fa081611b3d565b915050610dbf565b5060c981905560405133906001600160a01b03861690610fc9908890611be6565b6040805191829003822060c9548352602083018890523083830152905190917fd086203ce869f2497bd88f8255200ea8ed47cccd4bd896205cdf0dabef0674ec919081900360600190a450506001805550505050565b60009182526097602090815260408084206001600160a01b0393909316845291905290205460ff1690565b60008281526097602052604090206001015461106581611539565b6105ec83836115c9565b6002600154036110915760405162461bcd60e51b81526004016103ea90611acc565b6002600155806110e35760405162461bcd60e51b815260206004820152601f60248201527f5072696365204d7573742042652047726561746572205468616e205a65726f0060448201526064016103ea565b60c980549060006110f383611b3d565b91905055506040518060e00160405280848152602001856001600160a01b03168152602001828152602001836001600160a01b03168152602001336001600160a01b031681526020016001151581526020016001151581525060ca60008581526020019081526020016000206000846001600160a01b03166001600160a01b031681526020019081526020016000206000820151816000015560208201518160010160006101000a8154816001600160a01b0302191690836001600160a01b031602179055506040820151816002015560608201518160030160006101000a8154816001600160a01b0302191690836001600160a01b0316021790555060808201518160040160006101000a8154816001600160a01b0302191690836001600160a01b0316021790555060a08201518160040160146101000a81548160ff02191690831515021790555060c08201518160040160156101000a81548160ff021916908315150217905550905050336001600160a01b0316826001600160a01b0316847fbed0132932bdadd534755009eced852154d17882fc92513bcc4956182326e84760c954853060405161099a9392919092835260208301919091526001600160a01b0316604082015260600190565b6002600154036112e65760405162461bcd60e51b81526004016103ea90611acc565b6002600155816113085760405162461bcd60e51b81526004016103ea90611b56565b6040516323b872dd60e01b81526001600160a01b038416906323b872dd9061133890339030908990600401611b03565b600060405180830381600087803b15801561135257600080fd5b505af1158015611366573d6000803e3d6000fd5b505050506040518060e00160405280858152602001866001600160a01b03168152602001838152602001846001600160a01b03168152602001826001600160a01b031681526020016000151581526020016000151581525060ca60008681526020019081526020016000206000856001600160a01b03166001600160a01b031681526020019081526020016000206000820151816000015560208201518160010160006101000a8154816001600160a01b0302191690836001600160a01b031602179055506040820151816002015560608201518160030160006101000a8154816001600160a01b0302191690836001600160a01b0316021790555060808201518160040160006101000a8154816001600160a01b0302191690836001600160a01b0316021790555060a08201518160040160146101000a81548160ff02191690831515021790555060c08201518160040160156101000a81548160ff02191690831515021790555090505060c960008154809291906114e590611b3d565b909155505060c9546040805191825260208201849052309082015233906001600160a01b0385169086907fbed0132932bdadd534755009eced852154d17882fc92513bcc4956182326e84790606001610d62565b610abd813361163a565b61154d828261101f565b61066b5760008281526097602090815260408083206001600160a01b03851684529091529020805460ff191660011790556115853390565b6001600160a01b0316816001600160a01b0316837f2f8788117e7eff1d82e926ec794901d17c78024a50270940304540a733656f0d60405160405180910390a45050565b6115d3828261101f565b1561066b5760008281526097602090815260408083206001600160a01b0385168085529252808320805460ff1916905551339285917ff6391f5c32d9c69d2a47ea670b442974b53935d1edc7fd64eb21e047a839171b9190a45050565b61066b8282611543565b611644828261101f565b61066b5761165c816001600160a01b0316601461169e565b61166783602061169e565b604051602001611678929190611c40565b60408051601f198184030181529082905262461bcd60e51b82526103ea91600401611cb5565b606060006116ad836002611ce8565b6116b8906002611cff565b67ffffffffffffffff8111156116d0576116d0611911565b6040519080825280601f01601f1916602001820160405280156116fa576020820181803683370190505b509050600360fc1b8160008151811061171557611715611bd0565b60200101906001600160f81b031916908160001a905350600f60fb1b8160018151811061174457611744611bd0565b60200101906001600160f81b031916908160001a9053506000611768846002611ce8565b611773906001611cff565b90505b60018111156117eb576f181899199a1a9b1b9c1cb0b131b232b360811b85600f16601081106117a7576117a7611bd0565b1a60f81b8282815181106117bd576117bd611bd0565b60200101906001600160f81b031916908160001a90535060049490941c936117e481611bb9565b9050611776565b50831561183a5760405162461bcd60e51b815260206004820181905260248201527f537472696e67733a20686578206c656e67746820696e73756666696369656e7460448201526064016103ea565b9392505050565b60006020828403121561185357600080fd5b81356001600160e01b03198116811461183a57600080fd5b60006020828403121561187d57600080fd5b5035919050565b6001600160a01b0381168114610abd57600080fd5b80356118a481611884565b919050565b600080604083850312156118bc57600080fd5b8235915060208301356118ce81611884565b809150509250929050565b6000806000606084860312156118ee57600080fd5b83359250602084013561190081611884565b929592945050506040919091013590565b634e487b7160e01b600052604160045260246000fd5b600080600080600060a0868803121561193f57600080fd5b853561194a81611884565b945060208681013567ffffffffffffffff8082111561196857600080fd5b818901915089601f83011261197c57600080fd5b81358181111561198e5761198e611911565b8060051b604051601f19603f830116810181811085821117156119b3576119b3611911565b60405291825284820192508381018501918c8311156119d157600080fd5b938501935b828510156119ef578435845293850193928501926119d6565b809950505050505050611a0460408701611899565b925060608601359150611a1960808701611899565b90509295509295909350565b60008060008060808587031215611a3b57600080fd5b8435611a4681611884565b9350602085013592506040850135611a5d81611884565b9396929550929360600135925050565b600080600080600060a08688031215611a8557600080fd5b8535611a9081611884565b9450602086013593506040860135611aa781611884565b9250606086013591506080860135611abe81611884565b809150509295509295909350565b6020808252601f908201527f5265656e7472616e637947756172643a207265656e7472616e742063616c6c00604082015260600190565b6001600160a01b039384168152919092166020820152604081019190915260600190565b634e487b7160e01b600052601160045260246000fd5b600060018201611b4f57611b4f611b27565b5060010190565b60208082526021908201527f5072696365204d7573742042652047726561746572205468616e20416d6f756e6040820152601d60fa1b606082015260800190565b600060208284031215611ba957600080fd5b8151801515811461183a57600080fd5b600081611bc857611bc8611b27565b506000190190565b634e487b7160e01b600052603260045260246000fd5b815160009082906020808601845b83811015611c1057815185529382019390820190600101611bf4565b50929695505050505050565b60005b83811015611c37578181015183820152602001611c1f565b50506000910152565b7f416363657373436f6e74726f6c3a206163636f756e7420000000000000000000815260008351611c78816017850160208801611c1c565b7001034b99036b4b9b9b4b733903937b6329607d1b6017918401918201528351611ca9816028840160208801611c1c565b01602801949350505050565b6020815260008251806020840152611cd4816040850160208701611c1c565b601f01601f19169190910160400192915050565b80820281158282048414176103c2576103c2611b27565b808201808211156103c2576103c2611b2756fea26469706673582212201601c60bf1093742115ff71bcc7c29cd72b5d45a370f822fb657eeb8b8e7ac8a64736f6c63430008120033",
	"linkReferences": {},
	"deployedLinkReferences": {}
}