{
    "_format": "hh-sol-artifact-1",
    "contractName": "Marketplace",
    "sourceName": "contracts/marketplace.sol",
    "abi": [
        {
            "inputs": [],
            "stateMutability": "nonpayable",
            "type": "constructor"
        },
        {
            "anonymous": false,
            "inputs": [
                {
                    "indexed": false,
                    "internalType": "uint256",
                    "name": "itemId",
                    "type": "uint256"
                },
                {
                    "indexed": true,
                    "internalType": "uint256",
                    "name": "tokenId",
                    "type": "uint256"
                },
                {
                    "indexed": false,
                    "internalType": "address",
                    "name": "tokenAddress",
                    "type": "address"
                },
                {
                    "indexed": false,
                    "internalType": "uint256",
                    "name": "price",
                    "type": "uint256"
                },
                {
                    "indexed": true,
                    "internalType": "address",
                    "name": "seller",
                    "type": "address"
                },
                {
                    "indexed": true,
                    "internalType": "address",
                    "name": "buyer",
                    "type": "address"
                }
            ],
            "name": "Bought",
            "type": "event"
        },
        {
            "anonymous": false,
            "inputs": [
                {
                    "indexed": false,
                    "internalType": "uint256",
                    "name": "itemId",
                    "type": "uint256"
                },
                {
                    "indexed": true,
                    "internalType": "uint256",
                    "name": "tokenId",
                    "type": "uint256"
                },
                {
                    "indexed": false,
                    "internalType": "address",
                    "name": "tokenAddress",
                    "type": "address"
                },
                {
                    "indexed": false,
                    "internalType": "uint256",
                    "name": "price",
                    "type": "uint256"
                },
                {
                    "indexed": true,
                    "internalType": "address",
                    "name": "seller",
                    "type": "address"
                },
                {
                    "indexed": true,
                    "internalType": "address",
                    "name": "buyer",
                    "type": "address"
                }
            ],
            "name": "Claim",
            "type": "event"
        },
        {
            "anonymous": false,
            "inputs": [
                {
                    "indexed": true,
                    "internalType": "address",
                    "name": "_to",
                    "type": "address"
                },
                {
                    "indexed": true,
                    "internalType": "uint256[]",
                    "name": "_tokenId",
                    "type": "uint256[]"
                },
                {
                    "indexed": true,
                    "internalType": "address",
                    "name": "_tokenAddress",
                    "type": "address"
                }
            ],
            "name": "ClaimBulk",
            "type": "event"
        },
        {
            "anonymous": false,
            "inputs": [
                {
                    "indexed": true,
                    "internalType": "address",
                    "name": "_to",
                    "type": "address"
                },
                {
                    "indexed": true,
                    "internalType": "uint256",
                    "name": "_tokenId",
                    "type": "uint256"
                },
                {
                    "indexed": true,
                    "internalType": "address",
                    "name": "tokenAddress",
                    "type": "address"
                }
            ],
            "name": "DeList",
            "type": "event"
        },
        {
            "anonymous": false,
            "inputs": [
                {
                    "indexed": true,
                    "internalType": "address",
                    "name": "_to",
                    "type": "address"
                },
                {
                    "indexed": true,
                    "internalType": "uint256[]",
                    "name": "_tokenId",
                    "type": "uint256[]"
                },
                {
                    "indexed": true,
                    "internalType": "address",
                    "name": "tokenAddress",
                    "type": "address"
                }
            ],
            "name": "DeListBulk",
            "type": "event"
        },
        {
            "anonymous": false,
            "inputs": [
                {
                    "indexed": false,
                    "internalType": "uint256",
                    "name": "itemId",
                    "type": "uint256"
                },
                {
                    "indexed": true,
                    "internalType": "uint256[]",
                    "name": "tokenId",
                    "type": "uint256[]"
                },
                {
                    "indexed": true,
                    "internalType": "address",
                    "name": "tokenAddress",
                    "type": "address"
                },
                {
                    "indexed": false,
                    "internalType": "uint256",
                    "name": "price",
                    "type": "uint256"
                },
                {
                    "indexed": true,
                    "internalType": "address",
                    "name": "seller",
                    "type": "address"
                }
            ],
            "name": "OfferedMultiple",
            "type": "event"
        },
        {
            "anonymous": false,
            "inputs": [
                {
                    "indexed": false,
                    "internalType": "uint256",
                    "name": "itemId",
                    "type": "uint256"
                },
                {
                    "indexed": true,
                    "internalType": "uint256",
                    "name": "tokenId",
                    "type": "uint256"
                },
                {
                    "indexed": true,
                    "internalType": "address",
                    "name": "tokenAddress",
                    "type": "address"
                },
                {
                    "indexed": false,
                    "internalType": "uint256",
                    "name": "price",
                    "type": "uint256"
                },
                {
                    "indexed": true,
                    "internalType": "address",
                    "name": "seller",
                    "type": "address"
                }
            ],
            "name": "OfferedSingle",
            "type": "event"
        },
        {
            "anonymous": false,
            "inputs": [
                {
                    "indexed": false,
                    "internalType": "uint256",
                    "name": "itemId",
                    "type": "uint256"
                },
                {
                    "indexed": true,
                    "internalType": "uint256",
                    "name": "tokenId",
                    "type": "uint256"
                },
                {
                    "indexed": false,
                    "internalType": "address",
                    "name": "tokenAddress",
                    "type": "address"
                },
                {
                    "indexed": false,
                    "internalType": "uint256",
                    "name": "price",
                    "type": "uint256"
                },
                {
                    "indexed": true,
                    "internalType": "address",
                    "name": "seller",
                    "type": "address"
                },
                {
                    "indexed": true,
                    "internalType": "address",
                    "name": "buyer",
                    "type": "address"
                }
            ],
            "name": "Resell",
            "type": "event"
        },
        {
            "anonymous": false,
            "inputs": [
                {
                    "indexed": true,
                    "internalType": "bytes32",
                    "name": "role",
                    "type": "bytes32"
                },
                {
                    "indexed": true,
                    "internalType": "bytes32",
                    "name": "previousAdminRole",
                    "type": "bytes32"
                },
                {
                    "indexed": true,
                    "internalType": "bytes32",
                    "name": "newAdminRole",
                    "type": "bytes32"
                }
            ],
            "name": "RoleAdminChanged",
            "type": "event"
        },
        {
            "anonymous": false,
            "inputs": [
                {
                    "indexed": true,
                    "internalType": "bytes32",
                    "name": "role",
                    "type": "bytes32"
                },
                {
                    "indexed": true,
                    "internalType": "address",
                    "name": "account",
                    "type": "address"
                },
                {
                    "indexed": true,
                    "internalType": "address",
                    "name": "sender",
                    "type": "address"
                }
            ],
            "name": "RoleGranted",
            "type": "event"
        },
        {
            "anonymous": false,
            "inputs": [
                {
                    "indexed": true,
                    "internalType": "bytes32",
                    "name": "role",
                    "type": "bytes32"
                },
                {
                    "indexed": true,
                    "internalType": "address",
                    "name": "account",
                    "type": "address"
                },
                {
                    "indexed": true,
                    "internalType": "address",
                    "name": "sender",
                    "type": "address"
                }
            ],
            "name": "RoleRevoked",
            "type": "event"
        },
        {
            "anonymous": false,
            "inputs": [
                {
                    "indexed": true,
                    "internalType": "address",
                    "name": "_to",
                    "type": "address"
                },
                {
                    "indexed": true,
                    "internalType": "uint256[]",
                    "name": "_tokenId",
                    "type": "uint256[]"
                },
                {
                    "indexed": true,
                    "internalType": "address",
                    "name": "tokenAddress",
                    "type": "address"
                }
            ],
            "name": "TransferMultipleNft",
            "type": "event"
        },
        {
            "anonymous": false,
            "inputs": [
                {
                    "indexed": true,
                    "internalType": "address",
                    "name": "_to",
                    "type": "address"
                },
                {
                    "indexed": true,
                    "internalType": "uint256",
                    "name": "_tokenId",
                    "type": "uint256"
                },
                {
                    "indexed": true,
                    "internalType": "address",
                    "name": "tokenAddress",
                    "type": "address"
                }
            ],
            "name": "TransferSingleNft",
            "type": "event"
        },
        {
            "inputs": [],
            "name": "Activeitem",
            "outputs": [
                {
                    "internalType": "uint256",
                    "name": "",
                    "type": "uint256"
                }
            ],
            "stateMutability": "view",
            "type": "function"
        },
        {
            "inputs": [],
            "name": "DEFAULT_ADMIN_ROLE",
            "outputs": [
                {
                    "internalType": "bytes32",
                    "name": "",
                    "type": "bytes32"
                }
            ],
            "stateMutability": "view",
            "type": "function"
        },
        {
            "inputs": [],
            "name": "TRANSFER_ROLE",
            "outputs": [
                {
                    "internalType": "bytes32",
                    "name": "",
                    "type": "bytes32"
                }
            ],
            "stateMutability": "view",
            "type": "function"
        },
        {
            "inputs": [
                {
                    "internalType": "uint256",
                    "name": "_itemId",
                    "type": "uint256"
                },
                {
                    "internalType": "address",
                    "name": "_tokenAddress",
                    "type": "address"
                }
            ],
            "name": "claimBack",
            "outputs": [],
            "stateMutability": "nonpayable",
            "type": "function"
        },
        {
            "inputs": [
                {
                    "internalType": "uint256[]",
                    "name": "_tokenId",
                    "type": "uint256[]"
                },
                {
                    "internalType": "address",
                    "name": "_tokenAddress",
                    "type": "address"
                }
            ],
            "name": "claimBackBulk",
            "outputs": [],
            "stateMutability": "nonpayable",
            "type": "function"
        },
        {
            "inputs": [
                {
                    "internalType": "bytes32",
                    "name": "role",
                    "type": "bytes32"
                }
            ],
            "name": "getRoleAdmin",
            "outputs": [
                {
                    "internalType": "bytes32",
                    "name": "",
                    "type": "bytes32"
                }
            ],
            "stateMutability": "view",
            "type": "function"
        },
        {
            "inputs": [
                {
                    "internalType": "bytes32",
                    "name": "role",
                    "type": "bytes32"
                },
                {
                    "internalType": "address",
                    "name": "account",
                    "type": "address"
                }
            ],
            "name": "grantRole",
            "outputs": [],
            "stateMutability": "nonpayable",
            "type": "function"
        },
        {
            "inputs": [
                {
                    "internalType": "bytes32",
                    "name": "role",
                    "type": "bytes32"
                },
                {
                    "internalType": "address",
                    "name": "account",
                    "type": "address"
                }
            ],
            "name": "hasRole",
            "outputs": [
                {
                    "internalType": "bool",
                    "name": "",
                    "type": "bool"
                }
            ],
            "stateMutability": "view",
            "type": "function"
        },
        {
            "inputs": [
                {
                    "internalType": "uint256",
                    "name": "",
                    "type": "uint256"
                },
                {
                    "internalType": "address",
                    "name": "",
                    "type": "address"
                }
            ],
            "name": "items",
            "outputs": [
                {
                    "internalType": "uint256",
                    "name": "tokenId",
                    "type": "uint256"
                },
                {
                    "internalType": "contract IERC20",
                    "name": "token",
                    "type": "address"
                },
                {
                    "internalType": "uint256",
                    "name": "price",
                    "type": "uint256"
                },
                {
                    "internalType": "address",
                    "name": "tokenAddress",
                    "type": "address"
                },
                {
                    "internalType": "address payable",
                    "name": "seller",
                    "type": "address"
                },
                {
                    "internalType": "bool",
                    "name": "isSold",
                    "type": "bool"
                }
            ],
            "stateMutability": "view",
            "type": "function"
        },
        {
            "inputs": [
                {
                    "internalType": "contract IERC20",
                    "name": "_token",
                    "type": "address"
                },
                {
                    "internalType": "uint256",
                    "name": "_tokenId",
                    "type": "uint256"
                },
                {
                    "internalType": "address",
                    "name": "_tokenAddress",
                    "type": "address"
                },
                {
                    "internalType": "uint256",
                    "name": "_price",
                    "type": "uint256"
                }
            ],
            "name": "makeItem",
            "outputs": [],
            "stateMutability": "nonpayable",
            "type": "function"
        },
        {
            "inputs": [
                {
                    "internalType": "contract IERC20",
                    "name": "_token",
                    "type": "address"
                },
                {
                    "internalType": "uint256[]",
                    "name": "_tokenId",
                    "type": "uint256[]"
                },
                {
                    "internalType": "address",
                    "name": "_tokenAddress",
                    "type": "address"
                },
                {
                    "internalType": "uint256",
                    "name": "_price",
                    "type": "uint256"
                }
            ],
            "name": "makeItemBulk",
            "outputs": [],
            "stateMutability": "nonpayable",
            "type": "function"
        },
        {
            "inputs": [
                {
                    "internalType": "uint256",
                    "name": "_itemId",
                    "type": "uint256"
                },
                {
                    "internalType": "address",
                    "name": "_tokenAddress",
                    "type": "address"
                },
                {
                    "internalType": "uint256",
                    "name": "_amount",
                    "type": "uint256"
                }
            ],
            "name": "purchaseItem",
            "outputs": [],
            "stateMutability": "payable",
            "type": "function"
        },
        {
            "inputs": [
                {
                    "internalType": "uint256[]",
                    "name": "_tokenId",
                    "type": "uint256[]"
                },
                {
                    "internalType": "address",
                    "name": "_tokenAddress",
                    "type": "address"
                }
            ],
            "name": "redeemBulkNft",
            "outputs": [],
            "stateMutability": "nonpayable",
            "type": "function"
        },
        {
            "inputs": [
                {
                    "internalType": "uint256",
                    "name": "_tokenId",
                    "type": "uint256"
                },
                {
                    "internalType": "address",
                    "name": "_tokenAddress",
                    "type": "address"
                }
            ],
            "name": "redeemNft",
            "outputs": [],
            "stateMutability": "nonpayable",
            "type": "function"
        },
        {
            "inputs": [
                {
                    "internalType": "bytes32",
                    "name": "role",
                    "type": "bytes32"
                },
                {
                    "internalType": "address",
                    "name": "account",
                    "type": "address"
                }
            ],
            "name": "renounceRole",
            "outputs": [],
            "stateMutability": "nonpayable",
            "type": "function"
        },
        {
            "inputs": [
                {
                    "internalType": "uint256",
                    "name": "_itemId",
                    "type": "uint256"
                },
                {
                    "internalType": "address",
                    "name": "_tokenAddress",
                    "type": "address"
                },
                {
                    "internalType": "uint256",
                    "name": "_amount",
                    "type": "uint256"
                }
            ],
            "name": "resellItem",
            "outputs": [],
            "stateMutability": "payable",
            "type": "function"
        },
        {
            "inputs": [
                {
                    "internalType": "bytes32",
                    "name": "role",
                    "type": "bytes32"
                },
                {
                    "internalType": "address",
                    "name": "account",
                    "type": "address"
                }
            ],
            "name": "revokeRole",
            "outputs": [],
            "stateMutability": "nonpayable",
            "type": "function"
        },
        {
            "inputs": [
                {
                    "internalType": "bytes4",
                    "name": "interfaceId",
                    "type": "bytes4"
                }
            ],
            "name": "supportsInterface",
            "outputs": [
                {
                    "internalType": "bool",
                    "name": "",
                    "type": "bool"
                }
            ],
            "stateMutability": "view",
            "type": "function"
        },
        {
            "inputs": [
                {
                    "internalType": "address",
                    "name": "_to",
                    "type": "address"
                },
                {
                    "internalType": "uint256",
                    "name": "_tokenID",
                    "type": "uint256"
                },
                {
                    "internalType": "address",
                    "name": "_tokenAddress",
                    "type": "address"
                }
            ],
            "name": "transferNft",
            "outputs": [],
            "stateMutability": "nonpayable",
            "type": "function"
        },
        {
            "inputs": [
                {
                    "internalType": "address",
                    "name": "_to",
                    "type": "address"
                },
                {
                    "internalType": "uint256[]",
                    "name": "_tokenIDs",
                    "type": "uint256[]"
                },
                {
                    "internalType": "address",
                    "name": "_tokenAddress",
                    "type": "address"
                }
            ],
            "name": "transferNftBunch",
            "outputs": [],
            "stateMutability": "nonpayable",
            "type": "function"
        }
    ],
    "bytecode": "0x60806040523480156200001157600080fd5b50600160009081556200002590336200002b565b620000c3565b6200003782826200003b565b5050565b60008281526001602090815260408083206001600160a01b038516845290915290205460ff16620000375760008281526001602081815260408084206001600160a01b0386168086529252808420805460ff19169093179092559051339285917f2f8788117e7eff1d82e926ec794901d17c78024a50270940304540a733656f0d9190a45050565b61280980620000d36000396000f3fe60806040526004361061011f5760003560e01c80635be4288c116100a057806391d148541161006457806391d14854146103b4578063a0b4fe94146103d4578063a217fddf146103f4578063bcb1d68714610409578063d547741f1461042957600080fd5b80635be4288c14610338578063609ed3bd1461035857806372de48ae14610378578063823c5fcb1461038b57806383bfd1801461039e57600080fd5b806336568abe116100e757806336568abe1461020e5780633f1a71e71461022e5780634a5794eb1461024e57806353a8bbab1461026e57806354ffe77e1461028e57600080fd5b806301ffc9a714610124578063206b60f914610159578063248a9ca31461019b5780632979e477146101cc5780632f2ff15d146101ee575b600080fd5b34801561013057600080fd5b5061014461013f36600461225e565b610449565b60405190151581526020015b60405180910390f35b34801561016557600080fd5b5061018d7f8502233096d909befbda0999bb8ea2f3a6be3c138b9fbf003752a4c8bce86f6c81565b604051908152602001610150565b3480156101a757600080fd5b5061018d6101b6366004612288565b6000908152600160208190526040909120015490565b3480156101d857600080fd5b506101ec6101e73660046122b6565b610480565b005b3480156101fa57600080fd5b506101ec6102093660046122b6565b61060d565b34801561021a57600080fd5b506101ec6102293660046122b6565b610638565b34801561023a57600080fd5b506101ec6102493660046122b6565b6106b6565b34801561025a57600080fd5b506101ec6102693660046122e6565b6108c6565b34801561027a57600080fd5b506101ec6102893660046122e6565b610a7f565b34801561029a57600080fd5b506102fc6102a93660046122b6565b600360208181526000938452604080852090915291835291208054600182015460028301549383015460049093015491936001600160a01b0391821693909290821691811690600160a01b900460ff1686565b604080519687526001600160a01b03958616602088015286019390935290831660608501529091166080830152151560a082015260c001610150565b34801561034457600080fd5b506101ec61035336600461236c565b610cf3565b34801561036457600080fd5b506101ec610373366004612454565b610f28565b6101ec6103863660046124be565b6111c5565b6101ec6103993660046124be565b611548565b3480156103aa57600080fd5b5061018d60025481565b3480156103c057600080fd5b506101446103cf3660046122b6565b611996565b3480156103e057600080fd5b506101ec6103ef3660046124f6565b6119c1565b34801561040057600080fd5b5061018d600081565b34801561041557600080fd5b506101ec61042436600461252e565b611c26565b34801561043557600080fd5b506101ec6104443660046122b6565b611f52565b60006001600160e01b03198216637965db0b60e01b148061047a57506301ffc9a760e01b6001600160e01b03198316145b92915050565b600260005414156104ac5760405162461bcd60e51b81526004016104a390612587565b60405180910390fd5b600260009081558281526003602090815260408083206001600160a01b0385168452909152902060040154600160a01b900460ff16151560011461051b5760405162461bcd60e51b81526004016104a390602080825260049082015263060f060760e31b604082015260600190565b60008281526003602090815260408083206001600160a01b0385811685529252909120600401541633146105795760405162461bcd60e51b81526020600482015260056024820152640183c181c960dd1b60448201526064016104a3565b60008281526003602081815260408084206001600160a01b03861680865292528084208481556001810180546001600160a01b0319908116909155600282018690559381018054909416909355600490920180546001600160a81b031916905590519091849133917f43d28a5cba7f615c678abc6d80fcefd540bcb624c33f03fa9fd0c3b04f756a6a91a450506001600055565b6000828152600160208190526040909120015461062981611f78565b6106338383611f85565b505050565b6001600160a01b03811633146106a85760405162461bcd60e51b815260206004820152602f60248201527f416363657373436f6e74726f6c3a2063616e206f6e6c792072656e6f756e636560448201526e103937b632b9903337b91039b2b63360891b60648201526084016104a3565b6106b28282611ff0565b5050565b600260005414156106d95760405162461bcd60e51b81526004016104a390612587565b600260008181558381526003602081815260408084206001600160a01b03878116865290835293819020815160c0810183528154815260018201548616938101939093529485015490820152908301548216606082015260049092015490811660808301819052600160a01b90910460ff16151560a083015233146107895760405162461bcd60e51b81526004016104a3906020808252600490820152633078313160e01b604082015260600190565b608081015181516040516323b872dd60e01b81526001600160a01b038516926323b872dd926107be92309291906004016125be565b600060405180830381600087803b1580156107d857600080fd5b505af11580156107ec573d6000803e3d6000fd5b505060028054925090506000610801836125f8565b909155505060008381526003602081815260408084206001600160a01b038781168087529184528286208681556001810180546001600160a01b031990811690915560028201979097559485018054909616909555600490930180546001600160a81b0319169055608085015185518683015183518a8152948501959095529183019390935233939290921691907fe83b76e0d2ba6fa6541b91ddd1ae7557ec9a0f67eb526ef2e1f614424071cd019060600160405180910390a45050600160005550565b600260005414156108e95760405162461bcd60e51b81526004016104a390612587565b600260009081555b82811015610a28576003600085858481811061090f5761090f61260f565b9050602002013581526020019081526020016000206000836001600160a01b03166001600160a01b0316815260200190815260200160002060040160149054906101000a900460ff16151560011515146109945760405162461bcd60e51b81526004016104a3906020808252600490820152630307831360e41b604082015260600190565b600360008585848181106109aa576109aa61260f565b6020908102929092013583525081810192909252604090810160009081206001600160a01b038616825290925281208181556001810180546001600160a01b0319908116909155600282019290925560038101805490921690915560040180546001600160a81b031916905580610a2081612625565b9150506108f1565b50806001600160a01b03168383604051610a43929190612640565b6040519081900381209033907f14d2dd78f4e81d51b9b46b92435d6d228063f73d5176491701e4ff0ff4293a7090600090a45050600160005550565b60026000541415610aa25760405162461bcd60e51b81526004016104a390612587565b600260009081555b82811015610c9c57600060036000868685818110610aca57610aca61260f565b6020908102929092013583525081810192909252604090810160009081206001600160a01b03878116835290845290829020825160c08101845281548152600182015483169481019490945260028101549284019290925260038201548116606084015260049091015490811660808301819052600160a01b90910460ff16151560a08301529091503314610b8a5760405162461bcd60e51b81526004016104a390602080825260049082015263183c189960e11b604082015260600190565b608081015181516040516323b872dd60e01b81526001600160a01b038616926323b872dd92610bbf92309291906004016125be565b600060405180830381600087803b158015610bd957600080fd5b505af1158015610bed573d6000803e3d6000fd5b505060028054925090506000610c02836125f8565b919050555060036000868685818110610c1d57610c1d61260f565b6020908102929092013583525081810192909252604090810160009081206001600160a01b038716825290925281208181556001810180546001600160a01b0319908116909155600282019290925560038101805490921690915560040180546001600160a81b03191690555080610c9481612625565b915050610aaa565b50806001600160a01b03168383604051610cb7929190612640565b6040519081900381209033907fd396f186a007391aa894e030b5a885658d932f428f01cfdfd1a435f583c1f32a90600090a45050600160005550565b610d1d7f8502233096d909befbda0999bb8ea2f3a6be3c138b9fbf003752a4c8bce86f6c33611996565b610d525760405162461bcd60e51b81526004016104a3906020808252600490820152630307830360e41b604082015260600190565b60008281526003602081815260408084206001600160a01b03868116865290835293819020815160c081018352815481526001820154861693810193909352600281015483830152928301548416606083018190526004938401549485166080840152600160a01b90940460ff16151560a083015251632142170760e11b81529092916342842e0e91610deb91309189918991016125be565b600060405180830381600087803b158015610e0557600080fd5b505af1158015610e19573d6000803e3d6000fd5b505060028054925090506000610e2e836125f8565b90915550506040805160c0810182528481526020838101516001600160a01b0390811682840190815285850151848601908152878316606086018181528b851660808801818152600160a08a0181815260008f81526003808c528d8220888352909b528c81209b518c559751918b018054928a166001600160a01b0319938416179055955160028b015592519789018054988816989093169790971790915594516004909601805492511515600160a01b026001600160a81b03199093169690941695909517179091559251919286927fcca86c209947a2ba2167a2f1b5c318014df17dfb7d04bfe98006d71b9433451c9190a450505050565b60026000541415610f4b5760405162461bcd60e51b81526004016104a390612587565b600260005580610f865760405162461bcd60e51b81526004016104a390602080825260049082015263183c181960e11b604082015260600190565b60005b83518110156111545760028054906000610fa283612625565b9190505550826001600160a01b03166323b872dd3330878581518110610fca57610fca61260f565b60200260200101516040518463ffffffff1660e01b8152600401610ff0939291906125be565b600060405180830381600087803b15801561100a57600080fd5b505af115801561101e573d6000803e3d6000fd5b505050506040518060c0016040528085838151811061103f5761103f61260f565b60200260200101518152602001866001600160a01b03168152602001838152602001846001600160a01b03168152602001336001600160a01b03168152602001600015158152506003600086848151811061109c5761109c61260f565b602090810291909101810151825281810192909252604090810160009081206001600160a01b0380891683529084529082902084518155928401516001840180549183166001600160a01b03199283161790559184015160028401556060840151600384018054918316919093161790915560808301516004909201805460a0909401511515600160a01b026001600160a81b031990941692909116919091179190911790558061114c81612625565b915050610f89565b50336001600160a01b0316826001600160a01b031684604051611177919061266c565b60408051918290038220600254835260208301869052917f164c984887c38e4bec91909766c7c6be70fead4e4320f2568ce0ea9cc575790991015b60405180910390a4505060016000555050565b600260005414156111e85760405162461bcd60e51b81526004016104a390612587565b600260008181558481526003602081815260408084206001600160a01b03888116808752828552838720845160c08101865281548152600180830154851682890152998201549581019590955295860154821660608501526004909501549081166080840152600160a01b900460ff16151560a08301819052939094529290529091146112a05760405162461bcd60e51b81526004016104a3906020808252600490820152633078303560e01b604082015260600190565b60008481526003602090815260408083206001600160a01b0387811685529252909120600401541633146112fe5760405162461bcd60e51b81526020600482015260056024820152640183c181b160dd1b60448201526064016104a3565b60008481526003602090815260408083206001600160a01b038088168086529190935292819020600490810154855192516323b872dd60e01b81526323b872dd9461134f94921692309291016125be565b600060405180830381600087803b15801561136957600080fd5b505af115801561137d573d6000803e3d6000fd5b50506002805492509050600061139283612625565b91905055506040518060c0016040528085815260200182602001516001600160a01b03168152602001838152602001846001600160a01b03168152602001336001600160a01b0316815260200160001515815250600360008681526020019081526020016000206000856001600160a01b03166001600160a01b031681526020019081526020016000206000820151816000015560208201518160010160006101000a8154816001600160a01b0302191690836001600160a01b031602179055506040820151816002015560608201518160030160006101000a8154816001600160a01b0302191690836001600160a01b0316021790555060808201518160040160006101000a8154816001600160a01b0302191690836001600160a01b0316021790555060a08201518160040160146101000a81548160ff021916908315150217905550905050336001600160a01b031681608001516001600160a01b031682600001517f88540bba37eee96f09d5b2db292b3ffa7b7f99e42e80235fe1a55ebe1c570cfe878786604001516040516111b2939291909283526001600160a01b03919091166020830152604082015260600190565b6002600054141561156b5760405162461bcd60e51b81526004016104a390612587565b600260008181558481526003602081815260408084206001600160a01b03888116865290835293819020815160c0810183528154815260018201548616938101939093529485015490820181905291840154831660608201526004909301549182166080840152600160a01b90910460ff16151560a083015284158015906115f557506002548511155b61162a5760405162461bcd60e51b81526004016104a3906020808252600490820152633078303360e01b604082015260600190565b60008581526003602090815260408083206001600160a01b0388168452909152902060040154600160a01b900460ff16156116905760405162461bcd60e51b81526004016104a3906020808252600490820152633078303360e01b604082015260600190565b808310156116c95760405162461bcd60e51b81526004016104a3906020808252600490820152630c1e0c0d60e21b604082015260600190565b81602001516001600160a01b03166323b872dd338460800151866040518463ffffffff1660e01b8152600401611701939291906125be565b602060405180830381600087803b15801561171b57600080fd5b505af115801561172f573d6000803e3d6000fd5b505050506040513d601f19601f8201168201806040525081019061175391906126a2565b5081516040516323b872dd60e01b81526001600160a01b038616916323b872dd916117859130913391906004016125be565b600060405180830381600087803b15801561179f57600080fd5b505af11580156117b3573d6000803e3d6000fd5b5050600280549250905060006117c8836125f8565b91905055506040518060c0016040528086815260200183602001516001600160a01b0316815260200183604001518152602001856001600160a01b03168152602001336001600160a01b0316815260200160011515815250600360008781526020019081526020016000206000866001600160a01b03166001600160a01b031681526020019081526020016000206000820151816000015560208201518160010160006101000a8154816001600160a01b0302191690836001600160a01b031602179055506040820151816002015560608201518160030160006101000a8154816001600160a01b0302191690836001600160a01b0316021790555060808201518160040160006101000a8154816001600160a01b0302191690836001600160a01b0316021790555060a08201518160040160146101000a81548160ff021916908315150217905550905050336001600160a01b031682608001516001600160a01b031683600001517f8499da5cbed7f4c76667f49e6eb9fbbec401e155d096505159678f2c21e6223f88888760400151604051611982939291909283526001600160a01b03919091166020830152604082015260600190565b60405180910390a450506001600055505050565b60009182526001602090815260408084206001600160a01b0393909316845291905290205460ff1690565b600260005414156119e45760405162461bcd60e51b81526004016104a390612587565b600260005580611a1f5760405162461bcd60e51b81526004016104a3906020808252600490820152633078303160e01b604082015260600190565b60028054906000611a2f83612625565b90915550506040516323b872dd60e01b81526001600160a01b038316906323b872dd90611a64903390309088906004016125be565b600060405180830381600087803b158015611a7e57600080fd5b505af1158015611a92573d6000803e3d6000fd5b505050506040518060c00160405280848152602001856001600160a01b03168152602001828152602001836001600160a01b03168152602001336001600160a01b0316815260200160001515815250600360008581526020019081526020016000206000846001600160a01b03166001600160a01b031681526020019081526020016000206000820151816000015560208201518160010160006101000a8154816001600160a01b0302191690836001600160a01b031602179055506040820151816002015560608201518160030160006101000a8154816001600160a01b0302191690836001600160a01b0316021790555060808201518160040160006101000a8154816001600160a01b0302191690836001600160a01b0316021790555060a08201518160040160146101000a81548160ff021916908315150217905550905050336001600160a01b0316826001600160a01b0316847f70116ca3dcbbb3ae25e77e8fe1ce9d7bc82201fea2142ef972f6cab5c54c8a6d600254856040516111b2929190918252602082015260400190565b611c507f8502233096d909befbda0999bb8ea2f3a6be3c138b9fbf003752a4c8bce86f6c33611996565b611c855760405162461bcd60e51b81526004016104a3906020808252600490820152630307830360e41b604082015260600190565b60005b8251811015611ef957600060036000858481518110611ca957611ca961260f565b602090810291909101810151825281810192909252604090810160009081206001600160a01b0387811680845291855291839020835160c0810185528154815260018201548416958101959095526002810154938501939093526003830154821660608501526004909201549081166080840152600160a01b900460ff16151560a08301528551919250906342842e0e9030908890889087908110611d5057611d5061260f565b60200260200101516040518463ffffffff1660e01b8152600401611d76939291906125be565b600060405180830381600087803b158015611d9057600080fd5b505af1158015611da4573d6000803e3d6000fd5b505060028054925090506000611db9836125f8565b91905055506040518060c00160405280858481518110611ddb57611ddb61260f565b6020026020010151815260200182602001516001600160a01b0316815260200182604001518152602001846001600160a01b03168152602001866001600160a01b031681526020016001151581525060036000868581518110611e4057611e4061260f565b602090810291909101810151825281810192909252604090810160009081206001600160a01b0380891683529084529082902084518155928401516001840180549183166001600160a01b03199283161790559184015160028401556060840151600384018054918316919093161790915560808301516004909201805460a0909401511515600160a01b026001600160a81b031990941692909116919091179190911790555080611ef181612625565b915050611c88565b50806001600160a01b031682604051611f12919061266c565b604051908190038120906001600160a01b038616907f7aa01d722e1d19a8453dc692165678aeffcb5909c8aa96d5de1f50ede165b8bf90600090a4505050565b60008281526001602081905260409091200154611f6e81611f78565b6106338383611ff0565b611f828133612057565b50565b611f8f8282611996565b6106b25760008281526001602081815260408084206001600160a01b0386168086529252808420805460ff19169093179092559051339285917f2f8788117e7eff1d82e926ec794901d17c78024a50270940304540a733656f0d9190a45050565b611ffa8282611996565b156106b25760008281526001602090815260408083206001600160a01b0385168085529252808320805460ff1916905551339285917ff6391f5c32d9c69d2a47ea670b442974b53935d1edc7fd64eb21e047a839171b9190a45050565b6120618282611996565b6106b257612079816001600160a01b031660146120bb565b6120848360206120bb565b6040516020016120959291906126f4565b60408051601f198184030181529082905262461bcd60e51b82526104a391600401612769565b606060006120ca83600261279c565b6120d59060026127bb565b67ffffffffffffffff8111156120ed576120ed6123a3565b6040519080825280601f01601f191660200182016040528015612117576020820181803683370190505b509050600360fc1b816000815181106121325761213261260f565b60200101906001600160f81b031916908160001a905350600f60fb1b816001815181106121615761216161260f565b60200101906001600160f81b031916908160001a905350600061218584600261279c565b6121909060016127bb565b90505b6001811115612208576f181899199a1a9b1b9c1cb0b131b232b360811b85600f16601081106121c4576121c461260f565b1a60f81b8282815181106121da576121da61260f565b60200101906001600160f81b031916908160001a90535060049490941c93612201816125f8565b9050612193565b5083156122575760405162461bcd60e51b815260206004820181905260248201527f537472696e67733a20686578206c656e67746820696e73756666696369656e7460448201526064016104a3565b9392505050565b60006020828403121561227057600080fd5b81356001600160e01b03198116811461225757600080fd5b60006020828403121561229a57600080fd5b5035919050565b6001600160a01b0381168114611f8257600080fd5b600080604083850312156122c957600080fd5b8235915060208301356122db816122a1565b809150509250929050565b6000806000604084860312156122fb57600080fd5b833567ffffffffffffffff8082111561231357600080fd5b818601915086601f83011261232757600080fd5b81358181111561233657600080fd5b8760208260051b850101111561234b57600080fd5b60209283019550935050840135612361816122a1565b809150509250925092565b60008060006060848603121561238157600080fd5b833561238c816122a1565b9250602084013591506040840135612361816122a1565b634e487b7160e01b600052604160045260246000fd5b600082601f8301126123ca57600080fd5b8135602067ffffffffffffffff808311156123e7576123e76123a3565b8260051b604051601f19603f8301168101818110848211171561240c5761240c6123a3565b60405293845285810183019383810192508785111561242a57600080fd5b83870191505b8482101561244957813583529183019190830190612430565b979650505050505050565b6000806000806080858703121561246a57600080fd5b8435612475816122a1565b9350602085013567ffffffffffffffff81111561249157600080fd5b61249d878288016123b9565b93505060408501356124ae816122a1565b9396929550929360600135925050565b6000806000606084860312156124d357600080fd5b8335925060208401356124e5816122a1565b929592945050506040919091013590565b6000806000806080858703121561250c57600080fd5b8435612517816122a1565b93506020850135925060408501356124ae816122a1565b60008060006060848603121561254357600080fd5b833561254e816122a1565b9250602084013567ffffffffffffffff81111561256a57600080fd5b612576868287016123b9565b9250506040840135612361816122a1565b6020808252601f908201527f5265656e7472616e637947756172643a207265656e7472616e742063616c6c00604082015260600190565b6001600160a01b039384168152919092166020820152604081019190915260600190565b634e487b7160e01b600052601160045260246000fd5b600081612607576126076125e2565b506000190190565b634e487b7160e01b600052603260045260246000fd5b6000600019821415612639576126396125e2565b5060010190565b60006001600160fb1b0383111561265657600080fd5b8260051b80858437600092019182525092915050565b815160009082906020808601845b838110156126965781518552938201939082019060010161267a565b50929695505050505050565b6000602082840312156126b457600080fd5b8151801515811461225757600080fd5b60005b838110156126df5781810151838201526020016126c7565b838111156126ee576000848401525b50505050565b7f416363657373436f6e74726f6c3a206163636f756e742000000000000000000081526000835161272c8160178501602088016126c4565b7001034b99036b4b9b9b4b733903937b6329607d1b601791840191820152835161275d8160288401602088016126c4565b01602801949350505050565b60208152600082518060208401526127888160408501602087016126c4565b601f01601f19169190910160400192915050565b60008160001904831182151516156127b6576127b66125e2565b500290565b600082198211156127ce576127ce6125e2565b50019056fea26469706673582212208a128d6f01dfcbdc0c885034db3630760d8e5e6916e84ec5f4d45a702b78759064736f6c63430008090033",
    "linkReferences": {},
    "deployedLinkReferences": {}
}