{
  "_format": "hh-sol-artifact-1",
  "contractName": "GalileoMarketplace",
  "sourceName": "contracts/GalileoMarketplace.sol",
  "abi": [
    {
      "inputs": [],
      "stateMutability": "nonpayable",
      "type": "constructor"
    },
    {
      "anonymous": false,
      "inputs": [
        {
          "indexed": false,
          "internalType": "uint256",
          "name": "itemId",
          "type": "uint256"
        },
        {
          "indexed": true,
          "internalType": "uint256",
          "name": "tokenId",
          "type": "uint256"
        },
        {
          "indexed": false,
          "internalType": "address",
          "name": "tokenAddress",
          "type": "address"
        },
        {
          "indexed": false,
          "internalType": "uint256",
          "name": "price",
          "type": "uint256"
        },
        {
          "indexed": true,
          "internalType": "address",
          "name": "owner",
          "type": "address"
        },
        {
          "indexed": true,
          "internalType": "address",
          "name": "buyer",
          "type": "address"
        }
      ],
      "name": "Bought",
      "type": "event"
    },
    {
      "anonymous": false,
      "inputs": [
        {
          "indexed": true,
          "internalType": "address",
          "name": "_to",
          "type": "address"
        },
        {
          "indexed": true,
          "internalType": "uint256",
          "name": "_tokenId",
          "type": "uint256"
        },
        {
          "indexed": true,
          "internalType": "address",
          "name": "tokenAddress",
          "type": "address"
        }
      ],
      "name": "DeList",
      "type": "event"
    },
    {
      "anonymous": false,
      "inputs": [
        {
          "indexed": true,
          "internalType": "address",
          "name": "_to",
          "type": "address"
        },
        {
          "indexed": true,
          "internalType": "uint256[]",
          "name": "_tokenId",
          "type": "uint256[]"
        },
        {
          "indexed": true,
          "internalType": "address",
          "name": "tokenAddress",
          "type": "address"
        }
      ],
      "name": "DeListBulk",
      "type": "event"
    },
    {
      "anonymous": false,
      "inputs": [
        {
          "indexed": false,
          "internalType": "uint8",
          "name": "version",
          "type": "uint8"
        }
      ],
      "name": "Initialized",
      "type": "event"
    },
    {
      "anonymous": false,
      "inputs": [
        {
          "indexed": false,
          "internalType": "uint256",
          "name": "itemId",
          "type": "uint256"
        },
        {
          "indexed": true,
          "internalType": "uint256[]",
          "name": "tokenId",
          "type": "uint256[]"
        },
        {
          "indexed": true,
          "internalType": "address",
          "name": "tokenAddress",
          "type": "address"
        },
        {
          "indexed": false,
          "internalType": "uint256",
          "name": "price",
          "type": "uint256"
        },
        {
          "indexed": true,
          "internalType": "address",
          "name": "owner",
          "type": "address"
        }
      ],
      "name": "OfferedMultiple",
      "type": "event"
    },
    {
      "anonymous": false,
      "inputs": [
        {
          "indexed": false,
          "internalType": "uint256",
          "name": "itemId",
          "type": "uint256"
        },
        {
          "indexed": true,
          "internalType": "uint256",
          "name": "tokenId",
          "type": "uint256"
        },
        {
          "indexed": true,
          "internalType": "address",
          "name": "tokenAddress",
          "type": "address"
        },
        {
          "indexed": false,
          "internalType": "uint256",
          "name": "price",
          "type": "uint256"
        },
        {
          "indexed": true,
          "internalType": "address",
          "name": "owner",
          "type": "address"
        }
      ],
      "name": "OfferedSingle",
      "type": "event"
    },
    {
      "anonymous": false,
      "inputs": [
        {
          "indexed": false,
          "internalType": "uint256",
          "name": "itemId",
          "type": "uint256"
        },
        {
          "indexed": true,
          "internalType": "uint256",
          "name": "tokenId",
          "type": "uint256"
        },
        {
          "indexed": false,
          "internalType": "address",
          "name": "tokenAddress",
          "type": "address"
        },
        {
          "indexed": false,
          "internalType": "uint256",
          "name": "price",
          "type": "uint256"
        },
        {
          "indexed": true,
          "internalType": "address",
          "name": "owner",
          "type": "address"
        },
        {
          "indexed": true,
          "internalType": "address",
          "name": "buyer",
          "type": "address"
        }
      ],
      "name": "Resell",
      "type": "event"
    },
    {
      "anonymous": false,
      "inputs": [
        {
          "indexed": true,
          "internalType": "bytes32",
          "name": "role",
          "type": "bytes32"
        },
        {
          "indexed": true,
          "internalType": "bytes32",
          "name": "previousAdminRole",
          "type": "bytes32"
        },
        {
          "indexed": true,
          "internalType": "bytes32",
          "name": "newAdminRole",
          "type": "bytes32"
        }
      ],
      "name": "RoleAdminChanged",
      "type": "event"
    },
    {
      "anonymous": false,
      "inputs": [
        {
          "indexed": true,
          "internalType": "bytes32",
          "name": "role",
          "type": "bytes32"
        },
        {
          "indexed": true,
          "internalType": "address",
          "name": "account",
          "type": "address"
        },
        {
          "indexed": true,
          "internalType": "address",
          "name": "sender",
          "type": "address"
        }
      ],
      "name": "RoleGranted",
      "type": "event"
    },
    {
      "anonymous": false,
      "inputs": [
        {
          "indexed": true,
          "internalType": "bytes32",
          "name": "role",
          "type": "bytes32"
        },
        {
          "indexed": true,
          "internalType": "address",
          "name": "account",
          "type": "address"
        },
        {
          "indexed": true,
          "internalType": "address",
          "name": "sender",
          "type": "address"
        }
      ],
      "name": "RoleRevoked",
      "type": "event"
    },
    {
      "inputs": [],
      "name": "DEFAULT_ADMIN_ROLE",
      "outputs": [
        {
          "internalType": "bytes32",
          "name": "",
          "type": "bytes32"
        }
      ],
      "stateMutability": "view",
      "type": "function"
    },
    {
      "inputs": [],
      "name": "activeItem",
      "outputs": [
        {
          "internalType": "uint256",
          "name": "",
          "type": "uint256"
        }
      ],
      "stateMutability": "view",
      "type": "function"
    },
    {
      "inputs": [
        {
          "internalType": "bytes32",
          "name": "role",
          "type": "bytes32"
        }
      ],
      "name": "getRoleAdmin",
      "outputs": [
        {
          "internalType": "bytes32",
          "name": "",
          "type": "bytes32"
        }
      ],
      "stateMutability": "view",
      "type": "function"
    },
    {
      "inputs": [
        {
          "internalType": "bytes32",
          "name": "role",
          "type": "bytes32"
        },
        {
          "internalType": "address",
          "name": "account",
          "type": "address"
        }
      ],
      "name": "grantRole",
      "outputs": [],
      "stateMutability": "nonpayable",
      "type": "function"
    },
    {
      "inputs": [
        {
          "internalType": "bytes32",
          "name": "role",
          "type": "bytes32"
        },
        {
          "internalType": "address",
          "name": "account",
          "type": "address"
        }
      ],
      "name": "hasRole",
      "outputs": [
        {
          "internalType": "bool",
          "name": "",
          "type": "bool"
        }
      ],
      "stateMutability": "view",
      "type": "function"
    },
    {
      "inputs": [],
      "name": "initialize",
      "outputs": [],
      "stateMutability": "nonpayable",
      "type": "function"
    },
    {
      "inputs": [
        {
          "internalType": "uint256",
          "name": "",
          "type": "uint256"
        },
        {
          "internalType": "address",
          "name": "",
          "type": "address"
        }
      ],
      "name": "items",
      "outputs": [
        {
          "internalType": "uint256",
          "name": "tokenId",
          "type": "uint256"
        },
        {
          "internalType": "contract IERC20",
          "name": "token",
          "type": "address"
        },
        {
          "internalType": "uint256",
          "name": "price",
          "type": "uint256"
        },
        {
          "internalType": "address",
          "name": "tokenAddress",
          "type": "address"
        },
        {
          "internalType": "address payable",
          "name": "owner",
          "type": "address"
        },
        {
          "internalType": "bool",
          "name": "isSold",
          "type": "bool"
        },
        {
          "internalType": "bool",
          "name": "isRedeem",
          "type": "bool"
        }
      ],
      "stateMutability": "view",
      "type": "function"
    },
    {
      "inputs": [
        {
          "internalType": "contract IERC20",
          "name": "_token",
          "type": "address"
        },
        {
          "internalType": "uint256",
          "name": "_tokenId",
          "type": "uint256"
        },
        {
          "internalType": "address",
          "name": "_tokenAddress",
          "type": "address"
        },
        {
          "internalType": "uint256",
          "name": "_price",
          "type": "uint256"
        },
        {
          "internalType": "address",
          "name": "_seller",
          "type": "address"
        }
      ],
      "name": "makeItem",
      "outputs": [],
      "stateMutability": "nonpayable",
      "type": "function"
    },
    {
      "inputs": [
        {
          "internalType": "contract IERC20",
          "name": "_token",
          "type": "address"
        },
        {
          "internalType": "uint256[]",
          "name": "_tokenId",
          "type": "uint256[]"
        },
        {
          "internalType": "address",
          "name": "_tokenAddress",
          "type": "address"
        },
        {
          "internalType": "uint256",
          "name": "_price",
          "type": "uint256"
        }
      ],
      "name": "makeItemBulk",
      "outputs": [],
      "stateMutability": "nonpayable",
      "type": "function"
    },
    {
      "inputs": [
        {
          "internalType": "uint256",
          "name": "_itemId",
          "type": "uint256"
        },
        {
          "internalType": "address",
          "name": "_tokenAddress",
          "type": "address"
        },
        {
          "internalType": "uint256",
          "name": "_amount",
          "type": "uint256"
        }
      ],
      "name": "purchaseItem",
      "outputs": [],
      "stateMutability": "payable",
      "type": "function"
    },
    {
      "inputs": [
        {
          "internalType": "contract IERC20",
          "name": "_token",
          "type": "address"
        },
        {
          "internalType": "uint256",
          "name": "_tokenId",
          "type": "uint256"
        },
        {
          "internalType": "address",
          "name": "_tokenAddress",
          "type": "address"
        },
        {
          "internalType": "uint256",
          "name": "_price",
          "type": "uint256"
        }
      ],
      "name": "redeem",
      "outputs": [],
      "stateMutability": "nonpayable",
      "type": "function"
    },
    {
      "inputs": [
        {
          "internalType": "uint256[]",
          "name": "_tokenId",
          "type": "uint256[]"
        },
        {
          "internalType": "address",
          "name": "_tokenAddress",
          "type": "address"
        }
      ],
      "name": "redeemBulkNft",
      "outputs": [],
      "stateMutability": "nonpayable",
      "type": "function"
    },
    {
      "inputs": [
        {
          "internalType": "uint256",
          "name": "_tokenId",
          "type": "uint256"
        },
        {
          "internalType": "address",
          "name": "_tokenAddress",
          "type": "address"
        }
      ],
      "name": "redeemNft",
      "outputs": [],
      "stateMutability": "nonpayable",
      "type": "function"
    },
    {
      "inputs": [
        {
          "internalType": "bytes32",
          "name": "role",
          "type": "bytes32"
        },
        {
          "internalType": "address",
          "name": "account",
          "type": "address"
        }
      ],
      "name": "renounceRole",
      "outputs": [],
      "stateMutability": "nonpayable",
      "type": "function"
    },
    {
      "inputs": [
        {
          "internalType": "uint256",
          "name": "_itemId",
          "type": "uint256"
        },
        {
          "internalType": "address",
          "name": "_tokenAddress",
          "type": "address"
        },
        {
          "internalType": "uint256",
          "name": "_amount",
          "type": "uint256"
        }
      ],
      "name": "resellItem",
      "outputs": [],
      "stateMutability": "payable",
      "type": "function"
    },
    {
      "inputs": [
        {
          "internalType": "bytes32",
          "name": "role",
          "type": "bytes32"
        },
        {
          "internalType": "address",
          "name": "account",
          "type": "address"
        }
      ],
      "name": "revokeRole",
      "outputs": [],
      "stateMutability": "nonpayable",
      "type": "function"
    },
    {
      "inputs": [
        {
          "internalType": "bytes4",
          "name": "interfaceId",
          "type": "bytes4"
        }
      ],
      "name": "supportsInterface",
      "outputs": [
        {
          "internalType": "bool",
          "name": "",
          "type": "bool"
        }
      ],
      "stateMutability": "view",
      "type": "function"
    }
  ],
  "bytecode": "0x60806040523480156200001157600080fd5b50620000226200002860201b60201c565b620001d3565b600060019054906101000a900460ff16156200007b576040517f08c379a0000000000000000000000000000000000000000000000000000000008152600401620000729062000176565b60405180910390fd5b60ff801660008054906101000a900460ff1660ff161015620000ed5760ff6000806101000a81548160ff021916908360ff1602179055507f7f26b83ff96e1f2b6a682f133852f6798a09c465da95921460cefb384740249860ff604051620000e49190620001b6565b60405180910390a15b565b600082825260208201905092915050565b7f496e697469616c697a61626c653a20636f6e747261637420697320696e69746960008201527f616c697a696e6700000000000000000000000000000000000000000000000000602082015250565b60006200015e602783620000ef565b91506200016b8262000100565b604082019050919050565b6000602082019050818103600083015262000191816200014f565b9050919050565b600060ff82169050919050565b620001b08162000198565b82525050565b6000602082019050620001cd6000830184620001a5565b92915050565b61400a80620001e36000396000f3fe6080604052600436106100fe5760003560e01c8063609ed3bd1161009557806391d148541161006457806391d1485414610307578063a217fddf14610344578063d547741f1461036f578063f3f094a114610398578063f4bc9a8a146103c1576100fe565b8063609ed3bd1461028f57806372de48ae146102b85780638129fc1c146102d4578063823c5fcb146102eb576100fe565b806336568abe116100d157806336568abe146101cf57806337ad8e1a146101f85780634a5794eb1461022357806354ffe77e1461024c576100fe565b806301ffc9a714610103578063248a9ca3146101405780632979e4771461017d5780632f2ff15d146101a6575b600080fd5b34801561010f57600080fd5b5061012a60048036038101906101259190612a47565b6103ea565b6040516101379190612a8f565b60405180910390f35b34801561014c57600080fd5b5061016760048036038101906101629190612ae0565b610464565b6040516101749190612b1c565b60405180910390f35b34801561018957600080fd5b506101a4600480360381019061019f9190612bcb565b610484565b005b3480156101b257600080fd5b506101cd60048036038101906101c89190612c0b565b6107cd565b005b3480156101db57600080fd5b506101f660048036038101906101f19190612c0b565b6107ee565b005b34801561020457600080fd5b5061020d610871565b60405161021a9190612c5a565b60405180910390f35b34801561022f57600080fd5b5061024a60048036038101906102459190612cda565b610877565b005b34801561025857600080fd5b50610273600480360381019061026e9190612bcb565b610b64565b6040516102869796959493929190612dc9565b60405180910390f35b34801561029b57600080fd5b506102b660048036038101906102b19190612fc5565b610c2d565b005b6102d260048036038101906102cd9190613048565b611036565b005b3480156102e057600080fd5b506102e9611689565b005b61030560048036038101906103009190613048565b6117cc565b005b34801561031357600080fd5b5061032e60048036038101906103299190612c0b565b611d57565b60405161033b9190612a8f565b60405180910390f35b34801561035057600080fd5b50610359611dc2565b6040516103669190612b1c565b60405180910390f35b34801561037b57600080fd5b5061039660048036038101906103919190612c0b565b611dc9565b005b3480156103a457600080fd5b506103bf60048036038101906103ba919061309b565b611dea565b005b3480156103cd57600080fd5b506103e860048036038101906103e39190613102565b612101565b005b60007f7965db0b000000000000000000000000000000000000000000000000000000007bffffffffffffffffffffffffffffffffffffffffffffffffffffffff1916827bffffffffffffffffffffffffffffffffffffffffffffffffffffffff1916148061045d575061045c82612488565b5b9050919050565b600060976000838152602001908152602001600020600101549050919050565b600260015414156104ca576040517f08c379a00000000000000000000000000000000000000000000000000000000081526004016104c1906131da565b60405180910390fd5b600260018190555060ca600083815260200190815260200160002060008273ffffffffffffffffffffffffffffffffffffffff1673ffffffffffffffffffffffffffffffffffffffff16815260200190815260200160002060040160149054906101000a900460ff16610572576040517f08c379a000000000000000000000000000000000000000000000000000000000815260040161056990613246565b60405180910390fd5b6001151560ca600084815260200190815260200160002060008373ffffffffffffffffffffffffffffffffffffffff1673ffffffffffffffffffffffffffffffffffffffff16815260200190815260200160002060040160159054906101000a900460ff161515151461061a576040517f08c379a0000000000000000000000000000000000000000000000000000000008152600401610611906132b2565b60405180910390fd5b3373ffffffffffffffffffffffffffffffffffffffff1660ca600084815260200190815260200160002060008373ffffffffffffffffffffffffffffffffffffffff1673ffffffffffffffffffffffffffffffffffffffff16815260200190815260200160002060040160009054906101000a900473ffffffffffffffffffffffffffffffffffffffff1673ffffffffffffffffffffffffffffffffffffffff16146106fb576040517f08c379a00000000000000000000000000000000000000000000000000000000081526004016106f29061331e565b60405180910390fd5b600160ca600084815260200190815260200160002060008373ffffffffffffffffffffffffffffffffffffffff1673ffffffffffffffffffffffffffffffffffffffff16815260200190815260200160002060040160156101000a81548160ff0219169083151502179055508073ffffffffffffffffffffffffffffffffffffffff16823373ffffffffffffffffffffffffffffffffffffffff167f43d28a5cba7f615c678abc6d80fcefd540bcb624c33f03fa9fd0c3b04f756a6a60405160405180910390a4600180819055505050565b6107d682610464565b6107df816124f2565b6107e98383612506565b505050565b6107f66125e7565b73ffffffffffffffffffffffffffffffffffffffff168173ffffffffffffffffffffffffffffffffffffffff1614610863576040517f08c379a000000000000000000000000000000000000000000000000000000000815260040161085a906133b0565b60405180910390fd5b61086d82826125ef565b5050565b60c95481565b600260015414156108bd576040517f08c379a00000000000000000000000000000000000000000000000000000000081526004016108b4906131da565b60405180910390fd5b600260018190555060005b83839050811015610ae55760ca60008585848181106108ea576108e96133d0565b5b90506020020135815260200190815260200160002060008373ffffffffffffffffffffffffffffffffffffffff1673ffffffffffffffffffffffffffffffffffffffff16815260200190815260200160002060040160149054906101000a900460ff1661098c576040517f08c379a00000000000000000000000000000000000000000000000000000000081526004016109839061344b565b60405180910390fd5b6001151560ca60008686858181106109a7576109a66133d0565b5b90506020020135815260200190815260200160002060008473ffffffffffffffffffffffffffffffffffffffff1673ffffffffffffffffffffffffffffffffffffffff16815260200190815260200160002060040160159054906101000a900460ff1615151514610a4d576040517f08c379a0000000000000000000000000000000000000000000000000000000008152600401610a44906134b7565b60405180910390fd5b600160ca6000868685818110610a6657610a656133d0565b5b90506020020135815260200190815260200160002060008473ffffffffffffffffffffffffffffffffffffffff1673ffffffffffffffffffffffffffffffffffffffff16815260200190815260200160002060040160156101000a81548160ff0219169083151502179055508080610add90613506565b9150506108c8565b508073ffffffffffffffffffffffffffffffffffffffff168383604051610b0d9291906135ca565b60405180910390203373ffffffffffffffffffffffffffffffffffffffff167f14d2dd78f4e81d51b9b46b92435d6d228063f73d5176491701e4ff0ff4293a7060405160405180910390a460018081905550505050565b60ca602052816000526040600020602052806000526040600020600091509150508060000154908060010160009054906101000a900473ffffffffffffffffffffffffffffffffffffffff16908060020154908060030160009054906101000a900473ffffffffffffffffffffffffffffffffffffffff16908060040160009054906101000a900473ffffffffffffffffffffffffffffffffffffffff16908060040160149054906101000a900460ff16908060040160159054906101000a900460ff16905087565b60026001541415610c73576040517f08c379a0000000000000000000000000000000000000000000000000000000008152600401610c6a906131da565b60405180910390fd5b600260018190555060008111610cbe576040517f08c379a0000000000000000000000000000000000000000000000000000000008152600401610cb59061362f565b60405180910390fd5b60005b8351811015610fa9578273ffffffffffffffffffffffffffffffffffffffff166323b872dd3330878581518110610cfb57610cfa6133d0565b5b60200260200101516040518463ffffffff1660e01b8152600401610d219392919061364f565b600060405180830381600087803b158015610d3b57600080fd5b505af1158015610d4f573d6000803e3d6000fd5b505050506040518060e00160405280858381518110610d7157610d706133d0565b5b602002602001015181526020018673ffffffffffffffffffffffffffffffffffffffff1681526020018381526020018473ffffffffffffffffffffffffffffffffffffffff1681526020013373ffffffffffffffffffffffffffffffffffffffff1681526020016000151581526020016000151581525060ca6000868481518110610dff57610dfe6133d0565b5b6020026020010151815260200190815260200160002060008573ffffffffffffffffffffffffffffffffffffffff1673ffffffffffffffffffffffffffffffffffffffff1681526020019081526020016000206000820151816000015560208201518160010160006101000a81548173ffffffffffffffffffffffffffffffffffffffff021916908373ffffffffffffffffffffffffffffffffffffffff1602179055506040820151816002015560608201518160030160006101000a81548173ffffffffffffffffffffffffffffffffffffffff021916908373ffffffffffffffffffffffffffffffffffffffff16021790555060808201518160040160006101000a81548173ffffffffffffffffffffffffffffffffffffffff021916908373ffffffffffffffffffffffffffffffffffffffff16021790555060a08201518160040160146101000a81548160ff02191690831515021790555060c08201518160040160156101000a81548160ff02191690831515021790555090505060c96000815480929190610f9190613506565b91905055508080610fa190613506565b915050610cc1565b503373ffffffffffffffffffffffffffffffffffffffff168273ffffffffffffffffffffffffffffffffffffffff1684604051610fe69190613733565b60405180910390207f164c984887c38e4bec91909766c7c6be70fead4e4320f2568ce0ea9cc575790960c9548560405161102192919061374a565b60405180910390a46001808190555050505050565b6002600154141561107c576040517f08c379a0000000000000000000000000000000000000000000000000000000008152600401611073906131da565b60405180910390fd5b6002600181905550600060ca600085815260200190815260200160002060008473ffffffffffffffffffffffffffffffffffffffff1673ffffffffffffffffffffffffffffffffffffffff1681526020019081526020016000206040518060e0016040529081600082015481526020016001820160009054906101000a900473ffffffffffffffffffffffffffffffffffffffff1673ffffffffffffffffffffffffffffffffffffffff1673ffffffffffffffffffffffffffffffffffffffff168152602001600282015481526020016003820160009054906101000a900473ffffffffffffffffffffffffffffffffffffffff1673ffffffffffffffffffffffffffffffffffffffff1673ffffffffffffffffffffffffffffffffffffffff1681526020016004820160009054906101000a900473ffffffffffffffffffffffffffffffffffffffff1673ffffffffffffffffffffffffffffffffffffffff1673ffffffffffffffffffffffffffffffffffffffff1681526020016004820160149054906101000a900460ff161515151581526020016004820160159054906101000a900460ff161515151581525050905060ca600085815260200190815260200160002060008473ffffffffffffffffffffffffffffffffffffffff1673ffffffffffffffffffffffffffffffffffffffff16815260200190815260200160002060040160149054906101000a900460ff166112cf576040517f08c379a00000000000000000000000000000000000000000000000000000000081526004016112c6906137bf565b60405180910390fd5b6001151560ca600086815260200190815260200160002060008573ffffffffffffffffffffffffffffffffffffffff1673ffffffffffffffffffffffffffffffffffffffff16815260200190815260200160002060040160159054906101000a900460ff1615151514611377576040517f08c379a000000000000000000000000000000000000000000000000000000000815260040161136e9061382b565b60405180910390fd5b3373ffffffffffffffffffffffffffffffffffffffff1660ca600086815260200190815260200160002060008573ffffffffffffffffffffffffffffffffffffffff1673ffffffffffffffffffffffffffffffffffffffff16815260200190815260200160002060040160009054906101000a900473ffffffffffffffffffffffffffffffffffffffff1673ffffffffffffffffffffffffffffffffffffffff1614611458576040517f08c379a000000000000000000000000000000000000000000000000000000000815260040161144f90613897565b60405180910390fd5b600082101561149c576040517f08c379a000000000000000000000000000000000000000000000000000000000815260040161149390613903565b60405180910390fd5b8273ffffffffffffffffffffffffffffffffffffffff166323b872dd60ca600087815260200190815260200160002060008673ffffffffffffffffffffffffffffffffffffffff1673ffffffffffffffffffffffffffffffffffffffff16815260200190815260200160002060040160009054906101000a900473ffffffffffffffffffffffffffffffffffffffff163084600001516040518463ffffffff1660e01b815260040161155093929190613944565b600060405180830381600087803b15801561156a57600080fd5b505af115801561157e573d6000803e3d6000fd5b5050505060c9600081548092919061159590613506565b9190505550600060ca600086815260200190815260200160002060008573ffffffffffffffffffffffffffffffffffffffff1673ffffffffffffffffffffffffffffffffffffffff16815260200190815260200160002060040160146101000a81548160ff0219169083151502179055503373ffffffffffffffffffffffffffffffffffffffff16816080015173ffffffffffffffffffffffffffffffffffffffff1682600001517f88540bba37eee96f09d5b2db292b3ffa7b7f99e42e80235fe1a55ebe1c570cfe878786604001516040516116749392919061397b565b60405180910390a45060018081905550505050565b60008060019054906101000a900460ff161590508080156116ba5750600160008054906101000a900460ff1660ff16105b806116e757506116c9306126d1565b1580156116e65750600160008054906101000a900460ff1660ff16145b5b611726576040517f08c379a000000000000000000000000000000000000000000000000000000000815260040161171d90613a24565b60405180910390fd5b60016000806101000a81548160ff021916908360ff1602179055508015611763576001600060016101000a81548160ff0219169083151502179055505b6117706000801b336126f4565b80156117c95760008060016101000a81548160ff0219169083151502179055507f7f26b83ff96e1f2b6a682f133852f6798a09c465da95921460cefb384740249860016040516117c09190613a8c565b60405180910390a15b50565b60026001541415611812576040517f08c379a0000000000000000000000000000000000000000000000000000000008152600401611809906131da565b60405180910390fd5b6002600181905550600060ca600085815260200190815260200160002060008473ffffffffffffffffffffffffffffffffffffffff1673ffffffffffffffffffffffffffffffffffffffff1681526020019081526020016000206040518060e0016040529081600082015481526020016001820160009054906101000a900473ffffffffffffffffffffffffffffffffffffffff1673ffffffffffffffffffffffffffffffffffffffff1673ffffffffffffffffffffffffffffffffffffffff168152602001600282015481526020016003820160009054906101000a900473ffffffffffffffffffffffffffffffffffffffff1673ffffffffffffffffffffffffffffffffffffffff1673ffffffffffffffffffffffffffffffffffffffff1681526020016004820160009054906101000a900473ffffffffffffffffffffffffffffffffffffffff1673ffffffffffffffffffffffffffffffffffffffff1673ffffffffffffffffffffffffffffffffffffffff1681526020016004820160149054906101000a900460ff161515151581526020016004820160159054906101000a900460ff161515151581525050905060008160400151905060ca600086815260200190815260200160002060008573ffffffffffffffffffffffffffffffffffffffff1673ffffffffffffffffffffffffffffffffffffffff16815260200190815260200160002060040160149054906101000a900460ff1615611a6f576040517f08c379a0000000000000000000000000000000000000000000000000000000008152600401611a6690613af3565b60405180910390fd5b80831015611ab2576040517f08c379a0000000000000000000000000000000000000000000000000000000008152600401611aa990613b5f565b60405180910390fd5b816020015173ffffffffffffffffffffffffffffffffffffffff166323b872dd338460800151866040518463ffffffff1660e01b8152600401611af793929190613b7f565b602060405180830381600087803b158015611b1157600080fd5b505af1158015611b25573d6000803e3d6000fd5b505050506040513d601f19601f82011682018060405250810190611b499190613be2565b508373ffffffffffffffffffffffffffffffffffffffff166323b872dd303385600001516040518463ffffffff1660e01b8152600401611b8b9392919061364f565b600060405180830381600087803b158015611ba557600080fd5b505af1158015611bb9573d6000803e3d6000fd5b505050503360ca600087815260200190815260200160002060008673ffffffffffffffffffffffffffffffffffffffff1673ffffffffffffffffffffffffffffffffffffffff16815260200190815260200160002060040160006101000a81548173ffffffffffffffffffffffffffffffffffffffff021916908373ffffffffffffffffffffffffffffffffffffffff160217905550600160ca600087815260200190815260200160002060008673ffffffffffffffffffffffffffffffffffffffff1673ffffffffffffffffffffffffffffffffffffffff16815260200190815260200160002060040160146101000a81548160ff02191690831515021790555060c96000815480929190611cce90613c0f565b91905055503373ffffffffffffffffffffffffffffffffffffffff16826080015173ffffffffffffffffffffffffffffffffffffffff1683600001517f8499da5cbed7f4c76667f49e6eb9fbbec401e155d096505159678f2c21e6223f88888760400151604051611d419392919061397b565b60405180910390a4505060018081905550505050565b60006097600084815260200190815260200160002060000160008373ffffffffffffffffffffffffffffffffffffffff1673ffffffffffffffffffffffffffffffffffffffff16815260200190815260200160002060009054906101000a900460ff16905092915050565b6000801b81565b611dd282610464565b611ddb816124f2565b611de583836125ef565b505050565b60026001541415611e30576040517f08c379a0000000000000000000000000000000000000000000000000000000008152600401611e27906131da565b60405180910390fd5b600260018190555060008111611e7b576040517f08c379a0000000000000000000000000000000000000000000000000000000008152600401611e7290613c85565b60405180910390fd5b60c96000815480929190611e8e90613506565b91905055506040518060e001604052808481526020018573ffffffffffffffffffffffffffffffffffffffff1681526020018281526020018373ffffffffffffffffffffffffffffffffffffffff1681526020013373ffffffffffffffffffffffffffffffffffffffff1681526020016001151581526020016001151581525060ca600085815260200190815260200160002060008473ffffffffffffffffffffffffffffffffffffffff1673ffffffffffffffffffffffffffffffffffffffff1681526020019081526020016000206000820151816000015560208201518160010160006101000a81548173ffffffffffffffffffffffffffffffffffffffff021916908373ffffffffffffffffffffffffffffffffffffffff1602179055506040820151816002015560608201518160030160006101000a81548173ffffffffffffffffffffffffffffffffffffffff021916908373ffffffffffffffffffffffffffffffffffffffff16021790555060808201518160040160006101000a81548173ffffffffffffffffffffffffffffffffffffffff021916908373ffffffffffffffffffffffffffffffffffffffff16021790555060a08201518160040160146101000a81548160ff02191690831515021790555060c08201518160040160156101000a81548160ff0219169083151502179055509050503373ffffffffffffffffffffffffffffffffffffffff168273ffffffffffffffffffffffffffffffffffffffff16847f70116ca3dcbbb3ae25e77e8fe1ce9d7bc82201fea2142ef972f6cab5c54c8a6d60c954856040516120ec92919061374a565b60405180910390a46001808190555050505050565b60026001541415612147576040517f08c379a000000000000000000000000000000000000000000000000000000000815260040161213e906131da565b60405180910390fd5b600260018190555060008211612192576040517f08c379a000000000000000000000000000000000000000000000000000000000815260040161218990613cf1565b60405180910390fd5b8273ffffffffffffffffffffffffffffffffffffffff166323b872dd3330876040518463ffffffff1660e01b81526004016121cf9392919061364f565b600060405180830381600087803b1580156121e957600080fd5b505af11580156121fd573d6000803e3d6000fd5b505050506040518060e001604052808581526020018673ffffffffffffffffffffffffffffffffffffffff1681526020018381526020018473ffffffffffffffffffffffffffffffffffffffff1681526020018273ffffffffffffffffffffffffffffffffffffffff1681526020016000151581526020016000151581525060ca600086815260200190815260200160002060008573ffffffffffffffffffffffffffffffffffffffff1673ffffffffffffffffffffffffffffffffffffffff1681526020019081526020016000206000820151816000015560208201518160010160006101000a81548173ffffffffffffffffffffffffffffffffffffffff021916908373ffffffffffffffffffffffffffffffffffffffff1602179055506040820151816002015560608201518160030160006101000a81548173ffffffffffffffffffffffffffffffffffffffff021916908373ffffffffffffffffffffffffffffffffffffffff16021790555060808201518160040160006101000a81548173ffffffffffffffffffffffffffffffffffffffff021916908373ffffffffffffffffffffffffffffffffffffffff16021790555060a08201518160040160146101000a81548160ff02191690831515021790555060c08201518160040160156101000a81548160ff02191690831515021790555090505060c9600081548092919061240b90613506565b91905055503373ffffffffffffffffffffffffffffffffffffffff168373ffffffffffffffffffffffffffffffffffffffff16857f70116ca3dcbbb3ae25e77e8fe1ce9d7bc82201fea2142ef972f6cab5c54c8a6d60c9548660405161247292919061374a565b60405180910390a4600180819055505050505050565b60007f01ffc9a7000000000000000000000000000000000000000000000000000000007bffffffffffffffffffffffffffffffffffffffffffffffffffffffff1916827bffffffffffffffffffffffffffffffffffffffffffffffffffffffff1916149050919050565b612503816124fe6125e7565b612702565b50565b6125108282611d57565b6125e35760016097600084815260200190815260200160002060000160008373ffffffffffffffffffffffffffffffffffffffff1673ffffffffffffffffffffffffffffffffffffffff16815260200190815260200160002060006101000a81548160ff0219169083151502179055506125886125e7565b73ffffffffffffffffffffffffffffffffffffffff168173ffffffffffffffffffffffffffffffffffffffff16837f2f8788117e7eff1d82e926ec794901d17c78024a50270940304540a733656f0d60405160405180910390a45b5050565b600033905090565b6125f98282611d57565b156126cd5760006097600084815260200190815260200160002060000160008373ffffffffffffffffffffffffffffffffffffffff1673ffffffffffffffffffffffffffffffffffffffff16815260200190815260200160002060006101000a81548160ff0219169083151502179055506126726125e7565b73ffffffffffffffffffffffffffffffffffffffff168173ffffffffffffffffffffffffffffffffffffffff16837ff6391f5c32d9c69d2a47ea670b442974b53935d1edc7fd64eb21e047a839171b60405160405180910390a45b5050565b6000808273ffffffffffffffffffffffffffffffffffffffff163b119050919050565b6126fe8282612506565b5050565b61270c8282611d57565b61279b576127318173ffffffffffffffffffffffffffffffffffffffff16601461279f565b61273f8360001c602061279f565b604051602001612750929190613e23565b6040516020818303038152906040526040517f08c379a00000000000000000000000000000000000000000000000000000000081526004016127929190613e96565b60405180910390fd5b5050565b6060600060028360026127b29190613eb8565b6127bc9190613f12565b67ffffffffffffffff8111156127d5576127d4612e87565b5b6040519080825280601f01601f1916602001820160405280156128075781602001600182028036833780820191505090505b5090507f30000000000000000000000000000000000000000000000000000000000000008160008151811061283f5761283e6133d0565b5b60200101907effffffffffffffffffffffffffffffffffffffffffffffffffffffffffffff1916908160001a9053507f7800000000000000000000000000000000000000000000000000000000000000816001815181106128a3576128a26133d0565b5b60200101907effffffffffffffffffffffffffffffffffffffffffffffffffffffffffffff1916908160001a905350600060018460026128e39190613eb8565b6128ed9190613f12565b90505b600181111561298d577f3031323334353637383961626364656600000000000000000000000000000000600f86166010811061292f5761292e6133d0565b5b1a60f81b828281518110612946576129456133d0565b5b60200101907effffffffffffffffffffffffffffffffffffffffffffffffffffffffffffff1916908160001a905350600485901c94508061298690613c0f565b90506128f0565b50600084146129d1576040517f08c379a00000000000000000000000000000000000000000000000000000000081526004016129c890613fb4565b60405180910390fd5b8091505092915050565b6000604051905090565b600080fd5b600080fd5b60007fffffffff0000000000000000000000000000000000000000000000000000000082169050919050565b612a24816129ef565b8114612a2f57600080fd5b50565b600081359050612a4181612a1b565b92915050565b600060208284031215612a5d57612a5c6129e5565b5b6000612a6b84828501612a32565b91505092915050565b60008115159050919050565b612a8981612a74565b82525050565b6000602082019050612aa46000830184612a80565b92915050565b6000819050919050565b612abd81612aaa565b8114612ac857600080fd5b50565b600081359050612ada81612ab4565b92915050565b600060208284031215612af657612af56129e5565b5b6000612b0484828501612acb565b91505092915050565b612b1681612aaa565b82525050565b6000602082019050612b316000830184612b0d565b92915050565b6000819050919050565b612b4a81612b37565b8114612b5557600080fd5b50565b600081359050612b6781612b41565b92915050565b600073ffffffffffffffffffffffffffffffffffffffff82169050919050565b6000612b9882612b6d565b9050919050565b612ba881612b8d565b8114612bb357600080fd5b50565b600081359050612bc581612b9f565b92915050565b60008060408385031215612be257612be16129e5565b5b6000612bf085828601612b58565b9250506020612c0185828601612bb6565b9150509250929050565b60008060408385031215612c2257612c216129e5565b5b6000612c3085828601612acb565b9250506020612c4185828601612bb6565b9150509250929050565b612c5481612b37565b82525050565b6000602082019050612c6f6000830184612c4b565b92915050565b600080fd5b600080fd5b600080fd5b60008083601f840112612c9a57612c99612c75565b5b8235905067ffffffffffffffff811115612cb757612cb6612c7a565b5b602083019150836020820283011115612cd357612cd2612c7f565b5b9250929050565b600080600060408486031215612cf357612cf26129e5565b5b600084013567ffffffffffffffff811115612d1157612d106129ea565b5b612d1d86828701612c84565b93509350506020612d3086828701612bb6565b9150509250925092565b6000819050919050565b6000612d5f612d5a612d5584612b6d565b612d3a565b612b6d565b9050919050565b6000612d7182612d44565b9050919050565b6000612d8382612d66565b9050919050565b612d9381612d78565b82525050565b612da281612b8d565b82525050565b6000612db382612b6d565b9050919050565b612dc381612da8565b82525050565b600060e082019050612dde600083018a612c4b565b612deb6020830189612d8a565b612df86040830188612c4b565b612e056060830187612d99565b612e126080830186612dba565b612e1f60a0830185612a80565b612e2c60c0830184612a80565b98975050505050505050565b6000612e4382612b8d565b9050919050565b612e5381612e38565b8114612e5e57600080fd5b50565b600081359050612e7081612e4a565b92915050565b6000601f19601f8301169050919050565b7f4e487b7100000000000000000000000000000000000000000000000000000000600052604160045260246000fd5b612ebf82612e76565b810181811067ffffffffffffffff82111715612ede57612edd612e87565b5b80604052505050565b6000612ef16129db565b9050612efd8282612eb6565b919050565b600067ffffffffffffffff821115612f1d57612f1c612e87565b5b602082029050602081019050919050565b6000612f41612f3c84612f02565b612ee7565b90508083825260208201905060208402830185811115612f6457612f63612c7f565b5b835b81811015612f8d5780612f798882612b58565b845260208401935050602081019050612f66565b5050509392505050565b600082601f830112612fac57612fab612c75565b5b8135612fbc848260208601612f2e565b91505092915050565b60008060008060808587031215612fdf57612fde6129e5565b5b6000612fed87828801612e61565b945050602085013567ffffffffffffffff81111561300e5761300d6129ea565b5b61301a87828801612f97565b935050604061302b87828801612bb6565b925050606061303c87828801612b58565b91505092959194509250565b600080600060608486031215613061576130606129e5565b5b600061306f86828701612b58565b935050602061308086828701612bb6565b925050604061309186828701612b58565b9150509250925092565b600080600080608085870312156130b5576130b46129e5565b5b60006130c387828801612e61565b94505060206130d487828801612b58565b93505060406130e587828801612bb6565b92505060606130f687828801612b58565b91505092959194509250565b600080600080600060a0868803121561311e5761311d6129e5565b5b600061312c88828901612e61565b955050602061313d88828901612b58565b945050604061314e88828901612bb6565b935050606061315f88828901612b58565b925050608061317088828901612bb6565b9150509295509295909350565b600082825260208201905092915050565b7f5265656e7472616e637947756172643a207265656e7472616e742063616c6c00600082015250565b60006131c4601f8361317d565b91506131cf8261318e565b602082019050919050565b600060208201905081810360008301526131f3816131b7565b9050919050565b7f3078313000000000000000000000000000000000000000000000000000000000600082015250565b600061323060048361317d565b915061323b826131fa565b602082019050919050565b6000602082019050818103600083015261325f81613223565b9050919050565b7f3078313100000000000000000000000000000000000000000000000000000000600082015250565b600061329c60048361317d565b91506132a782613266565b602082019050919050565b600060208201905081810360008301526132cb8161328f565b9050919050565b7f3078313200000000000000000000000000000000000000000000000000000000600082015250565b600061330860048361317d565b9150613313826132d2565b602082019050919050565b60006020820190508181036000830152613337816132fb565b9050919050565b7f416363657373436f6e74726f6c3a2063616e206f6e6c792072656e6f756e636560008201527f20726f6c657320666f722073656c660000000000000000000000000000000000602082015250565b600061339a602f8361317d565b91506133a58261333e565b604082019050919050565b600060208201905081810360008301526133c98161338d565b9050919050565b7f4e487b7100000000000000000000000000000000000000000000000000000000600052603260045260246000fd5b7f3078313300000000000000000000000000000000000000000000000000000000600082015250565b600061343560048361317d565b9150613440826133ff565b602082019050919050565b6000602082019050818103600083015261346481613428565b9050919050565b7f3078313400000000000000000000000000000000000000000000000000000000600082015250565b60006134a160048361317d565b91506134ac8261346b565b602082019050919050565b600060208201905081810360008301526134d081613494565b9050919050565b7f4e487b7100000000000000000000000000000000000000000000000000000000600052601160045260246000fd5b600061351182612b37565b91507fffffffffffffffffffffffffffffffffffffffffffffffffffffffffffffffff821415613544576135436134d7565b5b600182019050919050565b600081905092915050565b600080fd5b82818337600083830152505050565b600061357a838561354f565b93507f07ffffffffffffffffffffffffffffffffffffffffffffffffffffffffffffff8311156135ad576135ac61355a565b5b6020830292506135be83858461355f565b82840190509392505050565b60006135d782848661356e565b91508190509392505050565b7f3078303200000000000000000000000000000000000000000000000000000000600082015250565b600061361960048361317d565b9150613624826135e3565b602082019050919050565b600060208201905081810360008301526136488161360c565b9050919050565b60006060820190506136646000830186612d99565b6136716020830185612d99565b61367e6040830184612c4b565b949350505050565b600081519050919050565b6000819050602082019050919050565b6136aa81612b37565b82525050565b60006136bc83836136a1565b60208301905092915050565b6000602082019050919050565b60006136e082613686565b6136ea818561354f565b93506136f583613691565b8060005b8381101561372657815161370d88826136b0565b9750613718836136c8565b9250506001810190506136f9565b5085935050505092915050565b600061373f82846136d5565b915081905092915050565b600060408201905061375f6000830185612c4b565b61376c6020830184612c4b565b9392505050565b7f3078303500000000000000000000000000000000000000000000000000000000600082015250565b60006137a960048361317d565b91506137b482613773565b602082019050919050565b600060208201905081810360008301526137d88161379c565b9050919050565b7f3078303600000000000000000000000000000000000000000000000000000000600082015250565b600061381560048361317d565b9150613820826137df565b602082019050919050565b6000602082019050818103600083015261384481613808565b9050919050565b7f3078303720000000000000000000000000000000000000000000000000000000600082015250565b600061388160058361317d565b915061388c8261384b565b602082019050919050565b600060208201905081810360008301526138b081613874565b9050919050565b7f3078303800000000000000000000000000000000000000000000000000000000600082015250565b60006138ed60048361317d565b91506138f8826138b7565b602082019050919050565b6000602082019050818103600083015261391c816138e0565b9050919050565b600061392e82612d66565b9050919050565b61393e81613923565b82525050565b60006060820190506139596000830186613935565b6139666020830185612d99565b6139736040830184612c4b565b949350505050565b60006060820190506139906000830186612c4b565b61399d6020830185612d99565b6139aa6040830184612c4b565b949350505050565b7f496e697469616c697a61626c653a20636f6e747261637420697320616c72656160008201527f647920696e697469616c697a6564000000000000000000000000000000000000602082015250565b6000613a0e602e8361317d565b9150613a19826139b2565b604082019050919050565b60006020820190508181036000830152613a3d81613a01565b9050919050565b6000819050919050565b600060ff82169050919050565b6000613a76613a71613a6c84613a44565b612d3a565b613a4e565b9050919050565b613a8681613a5b565b82525050565b6000602082019050613aa16000830184613a7d565b92915050565b7f3078303300000000000000000000000000000000000000000000000000000000600082015250565b6000613add60048361317d565b9150613ae882613aa7565b602082019050919050565b60006020820190508181036000830152613b0c81613ad0565b9050919050565b7f3078303400000000000000000000000000000000000000000000000000000000600082015250565b6000613b4960048361317d565b9150613b5482613b13565b602082019050919050565b60006020820190508181036000830152613b7881613b3c565b9050919050565b6000606082019050613b946000830186612d99565b613ba16020830185613935565b613bae6040830184612c4b565b949350505050565b613bbf81612a74565b8114613bca57600080fd5b50565b600081519050613bdc81613bb6565b92915050565b600060208284031215613bf857613bf76129e5565b5b6000613c0684828501613bcd565b91505092915050565b6000613c1a82612b37565b91506000821415613c2e57613c2d6134d7565b5b600182039050919050565b7f3078303900000000000000000000000000000000000000000000000000000000600082015250565b6000613c6f60048361317d565b9150613c7a82613c39565b602082019050919050565b60006020820190508181036000830152613c9e81613c62565b9050919050565b7f3078303100000000000000000000000000000000000000000000000000000000600082015250565b6000613cdb60048361317d565b9150613ce682613ca5565b602082019050919050565b60006020820190508181036000830152613d0a81613cce565b9050919050565b600081905092915050565b7f416363657373436f6e74726f6c3a206163636f756e7420000000000000000000600082015250565b6000613d52601783613d11565b9150613d5d82613d1c565b601782019050919050565b600081519050919050565b60005b83811015613d91578082015181840152602081019050613d76565b83811115613da0576000848401525b50505050565b6000613db182613d68565b613dbb8185613d11565b9350613dcb818560208601613d73565b80840191505092915050565b7f206973206d697373696e6720726f6c6520000000000000000000000000000000600082015250565b6000613e0d601183613d11565b9150613e1882613dd7565b601182019050919050565b6000613e2e82613d45565b9150613e3a8285613da6565b9150613e4582613e00565b9150613e518284613da6565b91508190509392505050565b6000613e6882613d68565b613e72818561317d565b9350613e82818560208601613d73565b613e8b81612e76565b840191505092915050565b60006020820190508181036000830152613eb08184613e5d565b905092915050565b6000613ec382612b37565b9150613ece83612b37565b9250817fffffffffffffffffffffffffffffffffffffffffffffffffffffffffffffffff0483118215151615613f0757613f066134d7565b5b828202905092915050565b6000613f1d82612b37565b9150613f2883612b37565b9250827fffffffffffffffffffffffffffffffffffffffffffffffffffffffffffffffff03821115613f5d57613f5c6134d7565b5b828201905092915050565b7f537472696e67733a20686578206c656e67746820696e73756666696369656e74600082015250565b6000613f9e60208361317d565b9150613fa982613f68565b602082019050919050565b60006020820190508181036000830152613fcd81613f91565b905091905056fea264697066735822122073adc441c4e66b8816695c0473e02615a35652f9559f908fdddd9ea588b11ba864736f6c63430008090033",
  "linkReferences": {},
  "deployedLinkReferences": {}
}