{
  "_format": "hh-sol-artifact-1",
  "contractName": "NFT",
  "sourceName": "contracts/NFT.sol",
  "abi": [
    {
      "inputs": [
        {
          "internalType": "string",
          "name": "_name",
          "type": "string"
        },
        {
          "internalType": "string",
          "name": "_symbol",
          "type": "string"
        },
        {
          "internalType": "address",
          "name": "_admin",
          "type": "address"
        },
        {
          "internalType": "address",
          "name": "_minter",
          "type": "address"
        },
        {
          "internalType": "address",
          "name": "_validator",
          "type": "address"
        }
      ],
      "stateMutability": "nonpayable",
      "type": "constructor"
    },
    {
      "anonymous": false,
      "inputs": [
        {
          "indexed": true,
          "internalType": "address",
          "name": "owner",
          "type": "address"
        },
        {
          "indexed": true,
          "internalType": "address",
          "name": "approved",
          "type": "address"
        },
        {
          "indexed": true,
          "internalType": "uint256",
          "name": "tokenId",
          "type": "uint256"
        }
      ],
      "name": "Approval",
      "type": "event"
    },
    {
      "anonymous": false,
      "inputs": [
        {
          "indexed": true,
          "internalType": "address",
          "name": "owner",
          "type": "address"
        },
        {
          "indexed": true,
          "internalType": "address",
          "name": "operator",
          "type": "address"
        },
        {
          "indexed": false,
          "internalType": "bool",
          "name": "approved",
          "type": "bool"
        }
      ],
      "name": "ApprovalForAll",
      "type": "event"
    },
    {
      "anonymous": false,
      "inputs": [
        {
          "indexed": true,
          "internalType": "bytes32",
          "name": "role",
          "type": "bytes32"
        },
        {
          "indexed": true,
          "internalType": "bytes32",
          "name": "previousAdminRole",
          "type": "bytes32"
        },
        {
          "indexed": true,
          "internalType": "bytes32",
          "name": "newAdminRole",
          "type": "bytes32"
        }
      ],
      "name": "RoleAdminChanged",
      "type": "event"
    },
    {
      "anonymous": false,
      "inputs": [
        {
          "indexed": true,
          "internalType": "bytes32",
          "name": "role",
          "type": "bytes32"
        },
        {
          "indexed": true,
          "internalType": "address",
          "name": "account",
          "type": "address"
        },
        {
          "indexed": true,
          "internalType": "address",
          "name": "sender",
          "type": "address"
        }
      ],
      "name": "RoleGranted",
      "type": "event"
    },
    {
      "anonymous": false,
      "inputs": [
        {
          "indexed": true,
          "internalType": "bytes32",
          "name": "role",
          "type": "bytes32"
        },
        {
          "indexed": true,
          "internalType": "address",
          "name": "account",
          "type": "address"
        },
        {
          "indexed": true,
          "internalType": "address",
          "name": "sender",
          "type": "address"
        }
      ],
      "name": "RoleRevoked",
      "type": "event"
    },
    {
      "anonymous": false,
      "inputs": [
        {
          "indexed": true,
          "internalType": "address",
          "name": "from",
          "type": "address"
        },
        {
          "indexed": true,
          "internalType": "address",
          "name": "to",
          "type": "address"
        },
        {
          "indexed": true,
          "internalType": "uint256",
          "name": "tokenId",
          "type": "uint256"
        }
      ],
      "name": "Transfer",
      "type": "event"
    },
    {
      "anonymous": false,
      "inputs": [
        {
          "indexed": false,
          "internalType": "address",
          "name": "_minter",
          "type": "address"
        }
      ],
      "name": "checkRole",
      "type": "event"
    },
    {
      "anonymous": false,
      "inputs": [
        {
          "indexed": false,
          "internalType": "address",
          "name": "signer",
          "type": "address"
        },
        {
          "indexed": false,
          "internalType": "address",
          "name": "minter",
          "type": "address"
        },
        {
          "indexed": false,
          "internalType": "string",
          "name": "uri",
          "type": "string"
        },
        {
          "indexed": false,
          "internalType": "uint256",
          "name": "tokenId",
          "type": "uint256"
        }
      ],
      "name": "handleLazyMint",
      "type": "event"
    },
    {
      "anonymous": false,
      "inputs": [
        {
          "indexed": false,
          "internalType": "address",
          "name": "_minter",
          "type": "address"
        },
        {
          "indexed": false,
          "internalType": "uint256",
          "name": "id",
          "type": "uint256"
        }
      ],
      "name": "handleMint",
      "type": "event"
    },
    {
      "inputs": [],
      "name": "DEFAULT_ADMIN_ROLE",
      "outputs": [
        {
          "internalType": "bytes32",
          "name": "",
          "type": "bytes32"
        }
      ],
      "stateMutability": "view",
      "type": "function"
    },
    {
      "inputs": [],
      "name": "MINTER_ROLE",
      "outputs": [
        {
          "internalType": "bytes32",
          "name": "",
          "type": "bytes32"
        }
      ],
      "stateMutability": "view",
      "type": "function"
    },
    {
      "inputs": [],
      "name": "VALIDATOR_ROLE",
      "outputs": [
        {
          "internalType": "bytes32",
          "name": "",
          "type": "bytes32"
        }
      ],
      "stateMutability": "view",
      "type": "function"
    },
    {
      "inputs": [
        {
          "internalType": "address payable",
          "name": "signer",
          "type": "address"
        },
        {
          "components": [
            {
              "internalType": "uint256",
              "name": "tokenId",
              "type": "uint256"
            },
            {
              "internalType": "address",
              "name": "nftaddr",
              "type": "address"
            },
            {
              "internalType": "uint256",
              "name": "price",
              "type": "uint256"
            },
            {
              "internalType": "address",
              "name": "token",
              "type": "address"
            }
          ],
          "internalType": "struct NFT.SignerVoucher",
          "name": "voucher",
          "type": "tuple"
        },
        {
          "internalType": "bytes",
          "name": "signature",
          "type": "bytes"
        },
        {
          "internalType": "address",
          "name": "_nft",
          "type": "address"
        }
      ],
      "name": "acceptOffer",
      "outputs": [],
      "stateMutability": "payable",
      "type": "function"
    },
    {
      "inputs": [
        {
          "internalType": "address",
          "name": "to",
          "type": "address"
        },
        {
          "internalType": "uint256",
          "name": "tokenId",
          "type": "uint256"
        }
      ],
      "name": "approve",
      "outputs": [],
      "stateMutability": "nonpayable",
      "type": "function"
    },
    {
      "inputs": [
        {
          "internalType": "address",
          "name": "owner",
          "type": "address"
        }
      ],
      "name": "balanceOf",
      "outputs": [
        {
          "internalType": "uint256",
          "name": "",
          "type": "uint256"
        }
      ],
      "stateMutability": "view",
      "type": "function"
    },
    {
      "inputs": [
        {
          "internalType": "string[]",
          "name": "_tokenURI",
          "type": "string[]"
        }
      ],
      "name": "bulkMint",
      "outputs": [],
      "stateMutability": "nonpayable",
      "type": "function"
    },
    {
      "inputs": [
        {
          "internalType": "uint256",
          "name": "tokenId",
          "type": "uint256"
        }
      ],
      "name": "getApproved",
      "outputs": [
        {
          "internalType": "address",
          "name": "",
          "type": "address"
        }
      ],
      "stateMutability": "view",
      "type": "function"
    },
    {
      "inputs": [
        {
          "internalType": "bytes32",
          "name": "role",
          "type": "bytes32"
        }
      ],
      "name": "getRoleAdmin",
      "outputs": [
        {
          "internalType": "bytes32",
          "name": "",
          "type": "bytes32"
        }
      ],
      "stateMutability": "view",
      "type": "function"
    },
    {
      "inputs": [
        {
          "internalType": "bytes32",
          "name": "role",
          "type": "bytes32"
        },
        {
          "internalType": "address",
          "name": "account",
          "type": "address"
        }
      ],
      "name": "grantRole",
      "outputs": [],
      "stateMutability": "nonpayable",
      "type": "function"
    },
    {
      "inputs": [
        {
          "internalType": "bytes32",
          "name": "_role",
          "type": "bytes32"
        },
        {
          "internalType": "address",
          "name": "_admin",
          "type": "address"
        },
        {
          "internalType": "address",
          "name": "_account",
          "type": "address"
        }
      ],
      "name": "grantRole",
      "outputs": [],
      "stateMutability": "nonpayable",
      "type": "function"
    },
    {
      "inputs": [
        {
          "internalType": "bytes32",
          "name": "role",
          "type": "bytes32"
        },
        {
          "internalType": "address",
          "name": "account",
          "type": "address"
        }
      ],
      "name": "hasRole",
      "outputs": [
        {
          "internalType": "bool",
          "name": "",
          "type": "bool"
        }
      ],
      "stateMutability": "view",
      "type": "function"
    },
    {
      "inputs": [
        {
          "internalType": "address",
          "name": "_account",
          "type": "address"
        }
      ],
      "name": "isAdmin",
      "outputs": [
        {
          "internalType": "bool",
          "name": "",
          "type": "bool"
        }
      ],
      "stateMutability": "view",
      "type": "function"
    },
    {
      "inputs": [
        {
          "internalType": "address",
          "name": "owner",
          "type": "address"
        },
        {
          "internalType": "address",
          "name": "operator",
          "type": "address"
        }
      ],
      "name": "isApprovedForAll",
      "outputs": [
        {
          "internalType": "bool",
          "name": "",
          "type": "bool"
        }
      ],
      "stateMutability": "view",
      "type": "function"
    },
    {
      "inputs": [
        {
          "internalType": "address",
          "name": "signer",
          "type": "address"
        },
        {
          "components": [
            {
              "internalType": "string",
              "name": "uri",
              "type": "string"
            },
            {
              "internalType": "uint256",
              "name": "price",
              "type": "uint256"
            },
            {
              "internalType": "address",
              "name": "token",
              "type": "address"
            }
          ],
          "internalType": "struct NFT.LazyNFTVoucher",
          "name": "voucher",
          "type": "tuple"
        },
        {
          "internalType": "bytes",
          "name": "signature",
          "type": "bytes"
        }
      ],
      "name": "lazyMint",
      "outputs": [
        {
          "internalType": "uint256",
          "name": "",
          "type": "uint256"
        }
      ],
      "stateMutability": "payable",
      "type": "function"
    },
    {
      "inputs": [
        {
          "internalType": "string",
          "name": "_tokenURI",
          "type": "string"
        }
      ],
      "name": "mint",
      "outputs": [],
      "stateMutability": "nonpayable",
      "type": "function"
    },
    {
      "inputs": [],
      "name": "name",
      "outputs": [
        {
          "internalType": "string",
          "name": "",
          "type": "string"
        }
      ],
      "stateMutability": "view",
      "type": "function"
    },
    {
      "inputs": [
        {
          "internalType": "uint256",
          "name": "tokenId",
          "type": "uint256"
        }
      ],
      "name": "ownerOf",
      "outputs": [
        {
          "internalType": "address",
          "name": "",
          "type": "address"
        }
      ],
      "stateMutability": "view",
      "type": "function"
    },
    {
      "inputs": [
        {
          "components": [
            {
              "internalType": "string",
              "name": "uri",
              "type": "string"
            },
            {
              "internalType": "uint256",
              "name": "price",
              "type": "uint256"
            },
            {
              "internalType": "address",
              "name": "token",
              "type": "address"
            }
          ],
          "internalType": "struct NFT.LazyNFTVoucher",
          "name": "voucher",
          "type": "tuple"
        },
        {
          "internalType": "bytes",
          "name": "signature",
          "type": "bytes"
        }
      ],
      "name": "recover",
      "outputs": [
        {
          "internalType": "address",
          "name": "",
          "type": "address"
        }
      ],
      "stateMutability": "view",
      "type": "function"
    },
    {
      "inputs": [
        {
          "components": [
            {
              "internalType": "uint256",
              "name": "tokenId",
              "type": "uint256"
            },
            {
              "internalType": "address",
              "name": "nftaddr",
              "type": "address"
            },
            {
              "internalType": "uint256",
              "name": "price",
              "type": "uint256"
            },
            {
              "internalType": "address",
              "name": "token",
              "type": "address"
            }
          ],
          "internalType": "struct NFT.SignerVoucher",
          "name": "voucher",
          "type": "tuple"
        },
        {
          "internalType": "bytes",
          "name": "signature",
          "type": "bytes"
        }
      ],
      "name": "recovers",
      "outputs": [
        {
          "internalType": "address",
          "name": "",
          "type": "address"
        }
      ],
      "stateMutability": "view",
      "type": "function"
    },
    {
      "inputs": [
        {
          "internalType": "bytes32",
          "name": "role",
          "type": "bytes32"
        },
        {
          "internalType": "address",
          "name": "account",
          "type": "address"
        }
      ],
      "name": "renounceRole",
      "outputs": [],
      "stateMutability": "nonpayable",
      "type": "function"
    },
    {
      "inputs": [
        {
          "internalType": "bytes32",
          "name": "_role",
          "type": "bytes32"
        },
        {
          "internalType": "address",
          "name": "_account",
          "type": "address"
        }
      ],
      "name": "revokeRole",
      "outputs": [],
      "stateMutability": "nonpayable",
      "type": "function"
    },
    {
      "inputs": [
        {
          "internalType": "address",
          "name": "from",
          "type": "address"
        },
        {
          "internalType": "address",
          "name": "to",
          "type": "address"
        },
        {
          "internalType": "uint256",
          "name": "tokenId",
          "type": "uint256"
        }
      ],
      "name": "safeTransferFrom",
      "outputs": [],
      "stateMutability": "nonpayable",
      "type": "function"
    },
    {
      "inputs": [
        {
          "internalType": "address",
          "name": "from",
          "type": "address"
        },
        {
          "internalType": "address",
          "name": "to",
          "type": "address"
        },
        {
          "internalType": "uint256",
          "name": "tokenId",
          "type": "uint256"
        },
        {
          "internalType": "bytes",
          "name": "data",
          "type": "bytes"
        }
      ],
      "name": "safeTransferFrom",
      "outputs": [],
      "stateMutability": "nonpayable",
      "type": "function"
    },
    {
      "inputs": [
        {
          "internalType": "address",
          "name": "operator",
          "type": "address"
        },
        {
          "internalType": "bool",
          "name": "approved",
          "type": "bool"
        }
      ],
      "name": "setApprovalForAll",
      "outputs": [],
      "stateMutability": "nonpayable",
      "type": "function"
    },
    {
      "inputs": [
        {
          "internalType": "bytes4",
          "name": "interfaceId",
          "type": "bytes4"
        }
      ],
      "name": "supportsInterface",
      "outputs": [
        {
          "internalType": "bool",
          "name": "",
          "type": "bool"
        }
      ],
      "stateMutability": "view",
      "type": "function"
    },
    {
      "inputs": [],
      "name": "symbol",
      "outputs": [
        {
          "internalType": "string",
          "name": "",
          "type": "string"
        }
      ],
      "stateMutability": "view",
      "type": "function"
    },
    {
      "inputs": [],
      "name": "tokenId",
      "outputs": [
        {
          "internalType": "uint256",
          "name": "",
          "type": "uint256"
        }
      ],
      "stateMutability": "view",
      "type": "function"
    },
    {
      "inputs": [
        {
          "internalType": "uint256",
          "name": "tokenId",
          "type": "uint256"
        }
      ],
      "name": "tokenURI",
      "outputs": [
        {
          "internalType": "string",
          "name": "",
          "type": "string"
        }
      ],
      "stateMutability": "view",
      "type": "function"
    },
    {
      "inputs": [
        {
          "internalType": "address",
          "name": "from",
          "type": "address"
        },
        {
          "internalType": "address",
          "name": "to",
          "type": "address"
        },
        {
          "internalType": "uint256",
          "name": "tokenId",
          "type": "uint256"
        }
      ],
      "name": "transferFrom",
      "outputs": [],
      "stateMutability": "nonpayable",
      "type": "function"
    },
    {
      "inputs": [
        {
          "internalType": "string[]",
          "name": "_tokenURI",
          "type": "string[]"
        },
        {
          "internalType": "uint256[]",
          "name": "_tokenId",
          "type": "uint256[]"
        }
      ],
      "name": "updateBulk",
      "outputs": [],
      "stateMutability": "nonpayable",
      "type": "function"
    },
    {
      "inputs": [
        {
          "internalType": "string",
          "name": "_tokenURI",
          "type": "string"
        },
        {
          "internalType": "uint256",
          "name": "_tokenId",
          "type": "uint256"
        }
      ],
      "name": "updateUri",
      "outputs": [],
      "stateMutability": "nonpayable",
      "type": "function"
    }
  ],
  "bytecode": "0x61014060405260006008553480156200001757600080fd5b50604051620035f6380380620035f68339810160408190526200003a91620003ea565b604051806040016040528060078152602001662b37bab1b432b960c91b815250604051806040016040528060018152602001600d60fa1b815250868681600090805190602001906200008e9291906200025a565b508051620000a49060019060208401906200025a565b5050825160209384012082519284019290922060e08390526101008190524660a0818152604080517f8b73c3c69bb8fe3d512ecc4cf759cc79239f7b179b0ffacaa9a75d522b39400f818901819052818301979097526060810194909452608080850193909352308483018190528151808603909301835260c094850190915281519190960120905292909252610120525062000143600084620001a6565b6200016f7f9f2df0fed2c77648de5860a4cc508cd0818c85b8b8a1ab4ceeef8d981c8956a683620001a6565b6200019b7f21702c8af46127c7fa207f89d0b0a8441bb32959a0ac7df790e9ab1a25c9892682620001a6565b5050505050620004c9565b620001b28282620001b6565b5050565b60008281526007602090815260408083206001600160a01b038516845290915290205460ff16620001b25760008281526007602090815260408083206001600160a01b03851684529091529020805460ff19166001179055620002163390565b6001600160a01b0316816001600160a01b0316837f2f8788117e7eff1d82e926ec794901d17c78024a50270940304540a733656f0d60405160405180910390a45050565b82805462000268906200048c565b90600052602060002090601f0160209004810192826200028c5760008555620002d7565b82601f10620002a757805160ff1916838001178555620002d7565b82800160010185558215620002d7579182015b82811115620002d7578251825591602001919060010190620002ba565b50620002e5929150620002e9565b5090565b5b80821115620002e55760008155600101620002ea565b634e487b7160e01b600052604160045260246000fd5b600082601f8301126200032857600080fd5b81516001600160401b038082111562000345576200034562000300565b604051601f8301601f19908116603f0116810190828211818310171562000370576200037062000300565b816040528381526020925086838588010111156200038d57600080fd5b600091505b83821015620003b1578582018301518183018401529082019062000392565b83821115620003c35760008385830101525b9695505050505050565b80516001600160a01b0381168114620003e557600080fd5b919050565b600080600080600060a086880312156200040357600080fd5b85516001600160401b03808211156200041b57600080fd5b6200042989838a0162000316565b965060208801519150808211156200044057600080fd5b506200044f8882890162000316565b9450506200046060408701620003cd565b92506200047060608701620003cd565b91506200048060808701620003cd565b90509295509295909350565b600181811c90821680620004a157607f821691505b60208210811415620004c357634e487b7160e01b600052602260045260246000fd5b50919050565b60805160a05160c05160e05161010051610120516130dd620005196000396000611bf801526000611c4701526000611c2201526000611b7b01526000611ba501526000611bcf01526130dd6000f3fe6080604052600436106101e35760003560e01c806391d1485411610102578063d539139311610095578063e985e9c511610064578063e985e9c5146105ad578063eeafb932146105f6578063f266494e14610609578063feebcf191461061c57600080fd5b8063d53913931461052b578063d547741f1461054d578063d85d3d271461056d578063db17ca821461058d57600080fd5b8063a22cb465116100d1578063a22cb46514610497578063b88d4fde146104b7578063c49baebe146104d7578063c87b56dd1461050b57600080fd5b806391d148541461042d57806395d89b411461044d57806398b5214014610462578063a217fddf1461048257600080fd5b806324d7806c1161017a5780635ed12364116101495780635ed12364146103ad5780636352211e146103cd57806370a08231146103ed5780637e3cdcb21461040d57600080fd5b806324d7806c1461032d5780632f2ff15d1461034d57806336568abe1461036d57806342842e0e1461038d57600080fd5b80631008e7fc116101b65780631008e7fc1461029957806317d70f7c146102b957806323b872dd146102dd578063248a9ca3146102fd57600080fd5b806301ffc9a7146101e857806306fdde031461021d578063081812fc1461023f578063095ea7b314610277575b600080fd5b3480156101f457600080fd5b50610208610203366004612558565b61063c565b60405190151581526020015b60405180910390f35b34801561022957600080fd5b5061023261065c565b60405161021491906125cd565b34801561024b57600080fd5b5061025f61025a3660046125e0565b6106ee565b6040516001600160a01b039091168152602001610214565b34801561028357600080fd5b5061029761029236600461260e565b610715565b005b3480156102a557600080fd5b506102976102b43660046127a9565b610830565b3480156102c557600080fd5b506102cf60085481565b604051908152602001610214565b3480156102e957600080fd5b506102976102f8366004612863565b6108f8565b34801561030957600080fd5b506102cf6103183660046125e0565b60009081526007602052604090206001015490565b34801561033957600080fd5b506102086103483660046128a4565b610929565b34801561035957600080fd5b506102976103683660046128c1565b610935565b34801561037957600080fd5b506102976103883660046128c1565b61095a565b34801561039957600080fd5b506102976103a8366004612863565b6109d8565b3480156103b957600080fd5b506102976103c83660046128f1565b6109f3565b3480156103d957600080fd5b5061025f6103e83660046125e0565b610a31565b3480156103f957600080fd5b506102cf6104083660046128a4565b610a91565b34801561041957600080fd5b50610297610428366004612935565b610b17565b34801561043957600080fd5b506102086104483660046128c1565b610c1e565b34801561045957600080fd5b50610232610c49565b34801561046e57600080fd5b5061025f61047d3660046129c2565b610c58565b34801561048e57600080fd5b506102cf600081565b3480156104a357600080fd5b506102976104b2366004612a38565b610d49565b3480156104c357600080fd5b506102976104d2366004612a66565b610d54565b3480156104e357600080fd5b506102cf7f21702c8af46127c7fa207f89d0b0a8441bb32959a0ac7df790e9ab1a25c9892681565b34801561051757600080fd5b506102326105263660046125e0565b610d8c565b34801561053757600080fd5b506102cf60008051602061308883398151915281565b34801561055957600080fd5b506102976105683660046128c1565b610e9d565b34801561057957600080fd5b50610297610588366004612ae5565b610edb565b34801561059957600080fd5b5061025f6105a8366004612b2b565b610f76565b3480156105b957600080fd5b506102086105c8366004612b71565b6001600160a01b03918216600090815260056020908152604080832093909416825291909152205460ff1690565b610297610604366004612b9f565b610ff9565b6102cf610617366004612c1a565b61117c565b34801561062857600080fd5b50610297610637366004612c92565b61134b565b600061064782611393565b806106565750610656826113e3565b92915050565b60606000805461066b90612cd4565b80601f016020809104026020016040519081016040528092919081815260200182805461069790612cd4565b80156106e45780601f106106b9576101008083540402835291602001916106e4565b820191906000526020600020905b8154815290600101906020018083116106c757829003601f168201915b5050505050905090565b60006106f982611408565b506000908152600460205260409020546001600160a01b031690565b600061072082610a31565b9050806001600160a01b0316836001600160a01b031614156107935760405162461bcd60e51b815260206004820152602160248201527f4552433732313a20617070726f76616c20746f2063757272656e74206f776e656044820152603960f91b60648201526084015b60405180910390fd5b336001600160a01b03821614806107af57506107af81336105c8565b6108215760405162461bcd60e51b815260206004820152603d60248201527f4552433732313a20617070726f76652063616c6c6572206973206e6f7420746f60448201527f6b656e206f776e6572206f7220617070726f76656420666f7220616c6c000000606482015260840161078a565b61082b838361146a565b505050565b61084860008051602061308883398151915233610c1e565b6108645760405162461bcd60e51b815260040161078a90612d09565b805182511461089e5760405162461bcd60e51b815260040161078a90602080825260049082015263183c181b60e11b604082015260600190565b60005b825181101561082b576108e68282815181106108bf576108bf612d27565b60200260200101518483815181106108d9576108d9612d27565b60200260200101516114d8565b806108f081612d53565b9150506108a1565b6109023382611572565b61091e5760405162461bcd60e51b815260040161078a90612d6e565b61082b8383836115f0565b60006106568183610c1e565b60008281526007602052604090206001015461095081611761565b61082b838361176b565b6001600160a01b03811633146109ca5760405162461bcd60e51b815260206004820152602f60248201527f416363657373436f6e74726f6c3a2063616e206f6e6c792072656e6f756e636560448201526e103937b632b9903337b91039b2b63360891b606482015260840161078a565b6109d482826117f1565b5050565b61082b83838360405180602001604052806000815250610d54565b610a0b60008051602061308883398151915233610c1e565b610a275760405162461bcd60e51b815260040161078a90612d09565b6109d481836114d8565b6000818152600260205260408120546001600160a01b0316806106565760405162461bcd60e51b8152602060048201526018602482015277115490cdcc8c4e881a5b9d985b1a59081d1bdad95b88125160421b604482015260640161078a565b60006001600160a01b038216610afb5760405162461bcd60e51b815260206004820152602960248201527f4552433732313a2061646472657373207a65726f206973206e6f7420612076616044820152683634b21037bbb732b960b91b606482015260840161078a565b506001600160a01b031660009081526003602052604090205490565b610b2f60008051602061308883398151915233610c1e565b610b4b5760405162461bcd60e51b815260040161078a90612d09565b6096815110610b855760405162461bcd60e51b815260040161078a906020808252600490820152633078303360e01b604082015260600190565b60005b8151811015610bdc5760088054906000610ba183612d53565b9190505550610bb233600854611858565b610bca6008548383815181106108d9576108d9612d27565b80610bd481612d53565b915050610b88565b506008546040805133815260208101929092527ff19110224b531fe78a74ab0635c2c22b945f4c83b9d48d2c2240f765fe3de36791015b60405180910390a150565b60009182526007602090815260408084206001600160a01b0393909316845291905290205460ff1690565b60606001805461066b90612cd4565b600080610cfb7fb7689325454471f2556966d8000aec5f1b975024d0dc92e6df6d7488a299f258610c898780612dbb565b604051610c97929190612e01565b60405180910390208760200135886040016020810190610cb791906128a4565b60408051602081019590955284019290925260608301526001600160a01b0316608082015260a0015b60405160208183030381529060405280519060200120611872565b90506000610d3f8286868080601f0160208091040260200160405190810160405280939291908181526020018383808284376000920191909152506118c092505050565b9695505050505050565b6109d43383836118e4565b610d5e3383611572565b610d7a5760405162461bcd60e51b815260040161078a90612d6e565b610d86848484846119b3565b50505050565b6060610d9782611408565b60008281526006602052604081208054610db090612cd4565b80601f0160208091040260200160405190810160405280929190818152602001828054610ddc90612cd4565b8015610e295780601f10610dfe57610100808354040283529160200191610e29565b820191906000526020600020905b815481529060010190602001808311610e0c57829003601f168201915b505050505090506000610e4760408051602081019091526000815290565b9050805160001415610e5a575092915050565b815115610e8c578082604051602001610e74929190612e11565b60405160208183030381529060405292505050919050565b610e95846119e6565b949350505050565b610ea633610929565b6109ca5760405162461bcd60e51b815260040161078a90602080825260049082015263183c181960e11b604082015260600190565b610ef360008051602061308883398151915233610c1e565b610f0f5760405162461bcd60e51b815260040161078a90612d09565b60088054906000610f1f83612d53565b9190505550610f3033600854611858565b610f3c600854826114d8565b6008546040805133815260208101929092527ff19110224b531fe78a74ab0635c2c22b945f4c83b9d48d2c2240f765fe3de3679101610c13565b600080610cfb7f1c2e34e654a60cac969374c084a4a23b41e72b9db99207d7d2e200fd18f6de9d8635610faf6040890160208a016128a4565b6040890135610fc460808b0160608c016128a4565b6040805160208101969096528501939093526001600160a01b03918216606085015260808401521660a082015260c001610ce0565b6000611006858585610f76565b9050806001600160a01b0316866001600160a01b0316146110525760405162461bcd60e51b815260040161078a906020808252600490820152633078303560e01b604082015260600190565b61105d828635610715565b61106d60408601602087016128a4565b6040516323b872dd60e01b81523360048201526001600160a01b0388811660248301528735604483015291909116906323b872dd90606401600060405180830381600087803b1580156110bf57600080fd5b505af11580156110d3573d6000803e3d6000fd5b506110e89250505060808601606087016128a4565b604080516323b872dd60e01b81526001600160a01b0389811660048301523360248301529188013560448201529116906323b872dd90606401602060405180830381600087803b15801561113b57600080fd5b505af115801561114f573d6000803e3d6000fd5b505050506040513d601f19601f820116820180604052508101906111739190612e40565b50505050505050565b60008061118a858585610c58565b90506111b67f21702c8af46127c7fa207f89d0b0a8441bb32959a0ac7df790e9ab1a25c9892682610c1e565b6111eb5760405162461bcd60e51b815260040161078a906020808252600490820152630c1e0c0d60e21b604082015260600190565b600880549060006111fb83612d53565b919050555061120c33600854611858565b6008546112579061121d8780612dbb565b8080601f0160208091040260200160405190810160405280939291908181526020018383808284376000920191909152506114d892505050565b61126760608601604087016128a4565b6040516323b872dd60e01b81523360048201526001600160a01b0388811660248301526020880135604483015291909116906323b872dd90606401602060405180830381600087803b1580156112bc57600080fd5b505af11580156112d0573d6000803e3d6000fd5b505050506040513d601f19601f820116820180604052508101906112f49190612e40565b507f22a703ecacac15a8221e7c517c83bb6fc160ec72b6303d7031d51aaaec517af686336113228880612dbb565b600854604051611336959493929190612e5d565b60405180910390a15050600854949350505050565b61135482610929565b6113895760405162461bcd60e51b815260040161078a906020808252600490820152633078303160e01b604082015260600190565b61082b838261176b565b60006001600160e01b031982166380ac58cd60e01b14806113c457506001600160e01b03198216635b5e139f60e01b145b8061065657506301ffc9a760e01b6001600160e01b0319831614610656565b60006001600160e01b03198216637965db0b60e01b1480610656575061065682611393565b6000818152600260205260409020546001600160a01b03166114675760405162461bcd60e51b8152602060048201526018602482015277115490cdcc8c4e881a5b9d985b1a59081d1bdad95b88125160421b604482015260640161078a565b50565b600081815260046020526040902080546001600160a01b0319166001600160a01b038416908117909155819061149f82610a31565b6001600160a01b03167f8c5be1e5ebec7d5bd14f71427d1e84f3dd0314c0f7b2291e5b200ac8c7c3b92560405160405180910390a45050565b6000828152600260205260409020546001600160a01b03166115535760405162461bcd60e51b815260206004820152602e60248201527f45524337323155524953746f726167653a2055524920736574206f66206e6f6e60448201526d32bc34b9ba32b73a103a37b5b2b760911b606482015260840161078a565b6000828152600660209081526040909120825161082b928401906124a9565b60008061157e83610a31565b9050806001600160a01b0316846001600160a01b031614806115c557506001600160a01b0380821660009081526005602090815260408083209388168352929052205460ff165b80610e955750836001600160a01b03166115de846106ee565b6001600160a01b031614949350505050565b826001600160a01b031661160382610a31565b6001600160a01b0316146116295760405162461bcd60e51b815260040161078a90612eb0565b6001600160a01b03821661168b5760405162461bcd60e51b8152602060048201526024808201527f4552433732313a207472616e7366657220746f20746865207a65726f206164646044820152637265737360e01b606482015260840161078a565b6116988383836001611a5a565b826001600160a01b03166116ab82610a31565b6001600160a01b0316146116d15760405162461bcd60e51b815260040161078a90612eb0565b600081815260046020908152604080832080546001600160a01b03199081169091556001600160a01b0387811680865260038552838620805460001901905590871680865283862080546001019055868652600290945282852080549092168417909155905184937fddf252ad1be2c89b69c2b068fc378daa952ba7f163c4a11628f55a4df523b3ef91a4505050565b6114678133611ae2565b6117758282610c1e565b6109d45760008281526007602090815260408083206001600160a01b03851684529091529020805460ff191660011790556117ad3390565b6001600160a01b0316816001600160a01b0316837f2f8788117e7eff1d82e926ec794901d17c78024a50270940304540a733656f0d60405160405180910390a45050565b6117fb8282610c1e565b156109d45760008281526007602090815260408083206001600160a01b0385168085529252808320805460ff1916905551339285917ff6391f5c32d9c69d2a47ea670b442974b53935d1edc7fd64eb21e047a839171b9190a45050565b6109d4828260405180602001604052806000815250611b3b565b600061065661187f611b6e565b8360405161190160f01b6020820152602281018390526042810182905260009060620160405160208183030381529060405280519060200120905092915050565b60008060006118cf8585611c95565b915091506118dc81611cdb565b509392505050565b816001600160a01b0316836001600160a01b031614156119465760405162461bcd60e51b815260206004820152601960248201527f4552433732313a20617070726f766520746f2063616c6c657200000000000000604482015260640161078a565b6001600160a01b03838116600081815260056020908152604080832094871680845294825291829020805460ff191686151590811790915591519182527f17307eab39ab6107e8899845ad3d59bd9653f200f220920489ca2b5937696c31910160405180910390a3505050565b6119be8484846115f0565b6119ca84848484611e29565b610d865760405162461bcd60e51b815260040161078a90612ef5565b60606119f182611408565b6000611a0860408051602081019091526000815290565b90506000815111611a285760405180602001604052806000815250611a53565b80611a3284611f33565b604051602001611a43929190612e11565b6040516020818303038152906040525b9392505050565b6001811115610d86576001600160a01b03841615611aa0576001600160a01b03841660009081526003602052604081208054839290611a9a908490612f47565b90915550505b6001600160a01b03831615610d86576001600160a01b03831660009081526003602052604081208054839290611ad7908490612f5e565b909155505050505050565b611aec8282610c1e565b6109d457611af981611fc7565b611b04836020611fd9565b604051602001611b15929190612f76565b60408051601f198184030181529082905262461bcd60e51b825261078a916004016125cd565b611b458383612174565b611b526000848484611e29565b61082b5760405162461bcd60e51b815260040161078a90612ef5565b6000306001600160a01b037f000000000000000000000000000000000000000000000000000000000000000016148015611bc757507f000000000000000000000000000000000000000000000000000000000000000046145b15611bf157507f000000000000000000000000000000000000000000000000000000000000000090565b50604080517f00000000000000000000000000000000000000000000000000000000000000006020808301919091527f0000000000000000000000000000000000000000000000000000000000000000828401527f000000000000000000000000000000000000000000000000000000000000000060608301524660808301523060a0808401919091528351808403909101815260c0909201909252805191012090565b600080825160411415611ccc5760208301516040840151606085015160001a611cc08782858561230d565b94509450505050611cd4565b506000905060025b9250929050565b6000816004811115611cef57611cef612feb565b1415611cf85750565b6001816004811115611d0c57611d0c612feb565b1415611d5a5760405162461bcd60e51b815260206004820152601860248201527f45434453413a20696e76616c6964207369676e61747572650000000000000000604482015260640161078a565b6002816004811115611d6e57611d6e612feb565b1415611dbc5760405162461bcd60e51b815260206004820152601f60248201527f45434453413a20696e76616c6964207369676e6174757265206c656e67746800604482015260640161078a565b6003816004811115611dd057611dd0612feb565b14156114675760405162461bcd60e51b815260206004820152602260248201527f45434453413a20696e76616c6964207369676e6174757265202773272076616c604482015261756560f01b606482015260840161078a565b60006001600160a01b0384163b15611f2b57604051630a85bd0160e11b81526001600160a01b0385169063150b7a0290611e6d903390899088908890600401613001565b602060405180830381600087803b158015611e8757600080fd5b505af1925050508015611eb7575060408051601f3d908101601f19168201909252611eb491810190613034565b60015b611f11573d808015611ee5576040519150601f19603f3d011682016040523d82523d6000602084013e611eea565b606091505b508051611f095760405162461bcd60e51b815260040161078a90612ef5565b805181602001fd5b6001600160e01b031916630a85bd0160e11b149050610e95565b506001610e95565b60606000611f40836123d1565b60010190506000816001600160401b03811115611f5f57611f5f61263a565b6040519080825280601f01601f191660200182016040528015611f89576020820181803683370190505b5090508181016020015b600019016f181899199a1a9b1b9c1cb0b131b232b360811b600a86061a8153600a8504945084611fc2576118dc565b611f93565b60606106566001600160a01b03831660145b60606000611fe8836002613051565b611ff3906002612f5e565b6001600160401b0381111561200a5761200a61263a565b6040519080825280601f01601f191660200182016040528015612034576020820181803683370190505b509050600360fc1b8160008151811061204f5761204f612d27565b60200101906001600160f81b031916908160001a905350600f60fb1b8160018151811061207e5761207e612d27565b60200101906001600160f81b031916908160001a90535060006120a2846002613051565b6120ad906001612f5e565b90505b6001811115612125576f181899199a1a9b1b9c1cb0b131b232b360811b85600f16601081106120e1576120e1612d27565b1a60f81b8282815181106120f7576120f7612d27565b60200101906001600160f81b031916908160001a90535060049490941c9361211e81613070565b90506120b0565b508315611a535760405162461bcd60e51b815260206004820181905260248201527f537472696e67733a20686578206c656e67746820696e73756666696369656e74604482015260640161078a565b6001600160a01b0382166121ca5760405162461bcd60e51b815260206004820181905260248201527f4552433732313a206d696e7420746f20746865207a65726f2061646472657373604482015260640161078a565b6000818152600260205260409020546001600160a01b03161561222f5760405162461bcd60e51b815260206004820152601c60248201527f4552433732313a20746f6b656e20616c7265616479206d696e74656400000000604482015260640161078a565b61223d600083836001611a5a565b6000818152600260205260409020546001600160a01b0316156122a25760405162461bcd60e51b815260206004820152601c60248201527f4552433732313a20746f6b656e20616c7265616479206d696e74656400000000604482015260640161078a565b6001600160a01b038216600081815260036020908152604080832080546001019055848352600290915280822080546001600160a01b0319168417905551839291907fddf252ad1be2c89b69c2b068fc378daa952ba7f163c4a11628f55a4df523b3ef908290a45050565b6000807f7fffffffffffffffffffffffffffffff5d576e7357a4501ddfe92f46681b20a083111561234457506000905060036123c8565b6040805160008082526020820180845289905260ff881692820192909252606081018690526080810185905260019060a0016020604051602081039080840390855afa158015612398573d6000803e3d6000fd5b5050604051601f1901519150506001600160a01b0381166123c1576000600192509250506123c8565b9150600090505b94509492505050565b60008072184f03e93ff9f4daa797ed6e38ed64bf6a1f0160401b83106124105772184f03e93ff9f4daa797ed6e38ed64bf6a1f0160401b830492506040015b6d04ee2d6d415b85acef8100000000831061243c576d04ee2d6d415b85acef8100000000830492506020015b662386f26fc10000831061245a57662386f26fc10000830492506010015b6305f5e1008310612472576305f5e100830492506008015b612710831061248657612710830492506004015b60648310612498576064830492506002015b600a83106106565760010192915050565b8280546124b590612cd4565b90600052602060002090601f0160209004810192826124d7576000855561251d565b82601f106124f057805160ff191683800117855561251d565b8280016001018555821561251d579182015b8281111561251d578251825591602001919060010190612502565b5061252992915061252d565b5090565b5b80821115612529576000815560010161252e565b6001600160e01b03198116811461146757600080fd5b60006020828403121561256a57600080fd5b8135611a5381612542565b60005b83811015612590578181015183820152602001612578565b83811115610d865750506000910152565b600081518084526125b9816020860160208601612575565b601f01601f19169290920160200192915050565b602081526000611a5360208301846125a1565b6000602082840312156125f257600080fd5b5035919050565b6001600160a01b038116811461146757600080fd5b6000806040838503121561262157600080fd5b823561262c816125f9565b946020939093013593505050565b634e487b7160e01b600052604160045260246000fd5b604051601f8201601f191681016001600160401b03811182821017156126785761267861263a565b604052919050565b60006001600160401b038211156126995761269961263a565b5060051b60200190565b60006001600160401b038311156126bc576126bc61263a565b6126cf601f8401601f1916602001612650565b90508281528383830111156126e357600080fd5b828260208301376000602084830101529392505050565b600082601f83011261270b57600080fd5b611a53838335602085016126a3565b600082601f83011261272b57600080fd5b8135602061274061273b83612680565b612650565b82815260059290921b8401810191818101908684111561275f57600080fd5b8286015b8481101561279e5780356001600160401b038111156127825760008081fd5b6127908986838b01016126fa565b845250918301918301612763565b509695505050505050565b600080604083850312156127bc57600080fd5b82356001600160401b03808211156127d357600080fd5b6127df8683870161271a565b93506020915081850135818111156127f657600080fd5b85019050601f8101861361280957600080fd5b803561281761273b82612680565b81815260059190911b8201830190838101908883111561283657600080fd5b928401925b828410156128545783358252928401929084019061283b565b80955050505050509250929050565b60008060006060848603121561287857600080fd5b8335612883816125f9565b92506020840135612893816125f9565b929592945050506040919091013590565b6000602082840312156128b657600080fd5b8135611a53816125f9565b600080604083850312156128d457600080fd5b8235915060208301356128e6816125f9565b809150509250929050565b6000806040838503121561290457600080fd5b82356001600160401b0381111561291a57600080fd5b612926858286016126fa565b95602094909401359450505050565b60006020828403121561294757600080fd5b81356001600160401b0381111561295d57600080fd5b610e958482850161271a565b60006060828403121561297b57600080fd5b50919050565b60008083601f84011261299357600080fd5b5081356001600160401b038111156129aa57600080fd5b602083019150836020828501011115611cd457600080fd5b6000806000604084860312156129d757600080fd5b83356001600160401b03808211156129ee57600080fd5b6129fa87838801612969565b94506020860135915080821115612a1057600080fd5b50612a1d86828701612981565b9497909650939450505050565b801515811461146757600080fd5b60008060408385031215612a4b57600080fd5b8235612a56816125f9565b915060208301356128e681612a2a565b60008060008060808587031215612a7c57600080fd5b8435612a87816125f9565b93506020850135612a97816125f9565b92506040850135915060608501356001600160401b03811115612ab957600080fd5b8501601f81018713612aca57600080fd5b612ad9878235602084016126a3565b91505092959194509250565b600060208284031215612af757600080fd5b81356001600160401b03811115612b0d57600080fd5b610e95848285016126fa565b60006080828403121561297b57600080fd5b600080600060a08486031215612b4057600080fd5b612b4a8585612b19565b925060808401356001600160401b03811115612b6557600080fd5b612a1d86828701612981565b60008060408385031215612b8457600080fd5b8235612b8f816125f9565b915060208301356128e6816125f9565b600080600080600060e08688031215612bb757600080fd5b8535612bc2816125f9565b9450612bd18760208801612b19565b935060a08601356001600160401b03811115612bec57600080fd5b612bf888828901612981565b90945092505060c0860135612c0c816125f9565b809150509295509295909350565b60008060008060608587031215612c3057600080fd5b8435612c3b816125f9565b935060208501356001600160401b0380821115612c5757600080fd5b612c6388838901612969565b94506040870135915080821115612c7957600080fd5b50612c8687828801612981565b95989497509550505050565b600080600060608486031215612ca757600080fd5b833592506020840135612cb9816125f9565b91506040840135612cc9816125f9565b809150509250925092565b600181811c90821680612ce857607f821691505b6020821081141561297b57634e487b7160e01b600052602260045260246000fd5b6020808252600490820152630307830360e41b604082015260600190565b634e487b7160e01b600052603260045260246000fd5b634e487b7160e01b600052601160045260246000fd5b6000600019821415612d6757612d67612d3d565b5060010190565b6020808252602d908201527f4552433732313a2063616c6c6572206973206e6f7420746f6b656e206f776e6560408201526c1c881bdc88185c1c1c9bdd9959609a1b606082015260800190565b6000808335601e19843603018112612dd257600080fd5b8301803591506001600160401b03821115612dec57600080fd5b602001915036819003821315611cd457600080fd5b8183823760009101908152919050565b60008351612e23818460208801612575565b835190830190612e37818360208801612575565b01949350505050565b600060208284031215612e5257600080fd5b8151611a5381612a2a565b6001600160a01b0386811682528516602082015260806040820181905281018390526000838560a0840137600060a0858401015260a0601f19601f86011683010190508260608301529695505050505050565b60208082526025908201527f4552433732313a207472616e736665722066726f6d20696e636f72726563742060408201526437bbb732b960d91b606082015260800190565b60208082526032908201527f4552433732313a207472616e7366657220746f206e6f6e20455243373231526560408201527131b2b4bb32b91034b6b83632b6b2b73a32b960711b606082015260800190565b600082821015612f5957612f59612d3d565b500390565b60008219821115612f7157612f71612d3d565b500190565b7f416363657373436f6e74726f6c3a206163636f756e7420000000000000000000815260008351612fae816017850160208801612575565b7001034b99036b4b9b9b4b733903937b6329607d1b6017918401918201528351612fdf816028840160208801612575565b01602801949350505050565b634e487b7160e01b600052602160045260246000fd5b6001600160a01b0385811682528416602082015260408101839052608060608201819052600090610d3f908301846125a1565b60006020828403121561304657600080fd5b8151611a5381612542565b600081600019048311821515161561306b5761306b612d3d565b500290565b60008161307f5761307f612d3d565b50600019019056fe9f2df0fed2c77648de5860a4cc508cd0818c85b8b8a1ab4ceeef8d981c8956a6a2646970667358221220760b227f45b29e9a420fb0d21ff59e9a617aa5613b741506631fcf819bcb86b564736f6c63430008090033",
  "linkReferences": {},
  "deployedLinkReferences": {}
}